:020000040800F2
:1000000000000120D9010008290200082902000887
:100010002902000829020008290200080000000047
:10002000000000000000000000000000290200089D
:100030002902000800000000290200083D4A0008CB
:1000400029020008290200082902000829020008E4
:1000500029020008290200082902000829020008D4
:1000600029020008290200082902000829020008C4
:10007000414A000829020008290200082902000854
:1000800029020008290200082902000829020008A4
:100090002902000829020008290200082902000894
:1000A0002902000829020008290200082902000884
:1000B0002902000829020008290200082902000874
:1000C0002902000829020008290200082902000864
:1000D000290200084D4A00082902000829020008E8
:1000E0002902000829020008290200082902000844
:1000F0002902000829020008290200082902000834
:100100002902000800000000000000002902000889
:100110002902000829020008290200082902000813
:1001200029020008594A000829020008290200088B
:100130002902000829020008000000000000000059
:100140002902000829020008290200080000000016
:10015000000000000000000000000000000000009F
:1001600029020008290200082902000829020008C3
:1001700029020008290200082902000829020008B3
:100180002902000829020008000000000000000009
:040190002902000838
:1001980010B5054C237833B9044B13B10448AFF3B9
:1001A80000800123237010BD18000020000000000B
:1001B800A052000808B5034B1BB103490348AFF32D
:1001C800008008BD000000001C000020A0520008AC
:1001D800DFF834D004F042FC0C480D490D4A0023E6
:1001E80002E0D458C4500433C4188C42F9D30A4AE4
:1001F8000A4C002301E013600432A242FBD305F04D
:1002080027F803F00FFFFEE70000012000000020A0
:1002180018000020B855000818000020ACBF0020C6
:10022800FEE7000038B50E4A0E4B12781B680546EB
:100238004FF47A70B0FBF2F0B3FBF0F000F070FF0F
:1002480008B90F2D01D9012038BD044602462946B8
:100258004FF0FF3000F00AFF034B20461D6038BD09
:10026800000000200800002004000020074A08B50C
:10027800136843F010031360032000F0D9FE002038
:10028800FFF7D0FF04F0B8F9002008BD00200240B5
:10029800034A044B11681B780B441360704700BF76
:1002A8003400002000000020014B1868704700BF90
:1002B80034000020704700BF026838B5936803F027
:1002C8000303012B01D0002038BD1368DC07FAD5E1
:1002D800936803F00D03012B044609D0236C43F007
:1002E80010032364636C43F001036364012038BD89
:1002F8009368032143F0020393601160FFF7D4FF72
:1003080023689B68D9070546DDD5FFF7CDFF401B5D
:100318000228236802D99A68D207DFD49B68DB07D2
:10032800F3D4D0E7026838B5936803F00303012BD0
:10033800044626D09168154B194209D0236C43F026
:1003480010032364636C43F001036364012038BD28
:10035800936843F001039360FFF7A6FF23680546FF
:100368001B68D9070BD4FFF79FFF431B022B236899
:10037800F6D91A68D207E1D51B68D907F3D500204A
:1003880038BD1368D807D5D50020F9E73F000080AD
:10039800406A036C43F040030364436C43F0040376
:1003A8004364FFF787BF00BF406A04F0DFBC00BFAB
:1003B800436A1A6C12F0500F18D11A6C196842F47B
:1003C80000721A64CA6812F4406F0CD15A7E52B98E
:1003D8001A6C22F480721A641A6CD20403D41A6C50
:1003E80042F001021A64184604F0DEBC9B6B1B6BDA
:1003F800184700BF30B597B000230193002800F0DC
:10040800AA800368B3F1A04F04460ED0A34A9342D2
:100418000BD002F54072934207D002F580729342E6
:1004280003D09F48F22104F0E5F8636833F44033C1
:1004380003D09B48F32104F0DDF8A36853B1182BCF
:1004480004D8984A22FA03F3DD0703D49448F42128
:1004580004F0D0F8E36833F0200303D09048F52186
:1004680004F0C8F82369012B00F2F880637E012BA1
:1004780000F2EA80E36A33F4406303D08848F82145
:1004880004F0B8F8A36A012B25D923F08002402A8A
:1004980021D023F40072B2F5E07F1CD023F410724F
:1004A800B2F5807F17D023F48072802A13D023F00E
:1004B800C002B2F5007F0ED0B3F5607F0BD0B3F564
:1004C8008A5F08D023F04003B3F5845F03D07448F3
:1004D800F92104F08FF894F83030012B00F2D9801C
:1004E8006369042B02D0082B40F0E680636B012B74
:1004F80000F2C680237E012B00F2B98023697BB10C
:10050800E369013B0F2B00F20E8194F82030012B98
:1005180000F2ED8023B1636A013B072B00F2EF8004
:10052800206C10F0100019D1256C002D00F0ED8022
:1005380023689A68D20040F1C8809A68950000F153
:10054800C480226CD10600D460B1236C23F012035E
:1005580043F010032364012017B030BD236CD80684
:10056800F3D423689A685207EFD4226C22F481727C
:1005780042F00202B3F1A04F2264484A00F04281DF
:10058800934200F0468102F54072934200F0D18018
:1005980045498B4200F04F819A6802F00302012A14
:1005A80000F04B8141488268616822F440320A4376
:1005B8008260D4E902120A43616B607E013918BF78
:1005C800012142EA403242EA013294F8201001291E
:1005D80000F0F380A16A01290ED03548834200F06B
:1005E800FC8000F58070834200F0F78021F4805190
:1005F800E06A104341EA0002996811F00C0F0CD12F
:10060800D96821F4804121F00201D96094F83010B2
:10061800207E490041EA80310A43D86825490140D3
:10062800206911430128D96000F0CF801A6B22F0AD
:100638000F021A6300206064236C23F0030343F065
:100648000103236417B030BD1548F72103F0D2FF2A
:10065800E36A33F440633FF415AF0FE71048F6211F
:1006680003F0C8FF637E012B7FF604AFECE70C486C
:10067800FD2103F0BFFF2369002B3FF451AF3FE793
:100688000748FC2103F0B6FF237E012B7FF636AF27
:10069800EDE70348FA2103F0ADFF21E70001005020
:1006A800B852000800010101000500500007005081
:1006B8000004005007C0F0FF6848FB2103F09AFFD0
:1006C800636B012B7FF616AFDAE7236C23F0120376
:1006D80043F010032364636C43F001036364236CE9
:1006E800236C23F0120343F01003236433E75B48C1
:1006F8004FF4817103F07EFF94F820300AE75748E1
:1007080040F2051103F076FF0AE7C4E91255656463
:1007180084F83C50204603F089FF23689A68D1008A
:100728001AD5284605E74D4840F2011103F062FF4B
:10073800EBE64B4A4B489968029201F00301012904
:1007480062D0916801F0030101297FF42CAF12688F
:10075800D5073FF52EAF26E72046FFF7ADFD236C02
:1007680013F0100F23687FF4E4AE00287FF4E1AEA5
:10077800226C3D4D22F4885222F0020242F002021D
:10078800226499682A6821F040519960996841F07B
:10079800805199603549A1FB0212920C02EB82024A
:1007A80052000192019A002A3FF4C3AE019A013A1D
:1007B8000192019A002AF9D1BBE670BB616A01393E
:1007C80042EA414141F4803204E7196BE26921F0C1
:1007D8000F01013A0A431A632CE7B1F5307F27D09D
:1007E800B1F5807F2ED0B1F5E07F2ED0B1F58A5FCC
:1007F8002ED0B1F5845F2ED0B1F5865F08BF4FF4D7
:10080800C071F5E61A4896E71968C9073FF5D1AEF1
:1008180097E717484FF0A0428DE7216C21F022019D
:1008280041F020012164616C41F001016164D1E66D
:100838004FF4E071DCE60B487DE71A68D0073FF516
:10084800B8AEAFE64FF43071D2E64FF48071CFE620
:100858004FF47071CCE64FF4A071C9E6B8520008A5
:1008680000050050000700500800002083DE1B43ED
:1008780000030050F8B504460068B0F1A04F0F46D9
:10088800164610D0544B98420DD003F54073984249
:1008980009D003F58073984205D0504840F65B11A3
:1008A80003F0A8FE206885686D0721D494F83C30D1
:1008B800012B1DD00123B0F1A04F84F83C300FD09C
:1008C800454B98420CD0464B9B6813F01F0F0CBF4A
:1008D800012300237BB984F83C3001252846F8BD64
:1008E800404B9B6813F01F0F0CBF01230023F1E757
:1008F80002252846F8BD2046FFF714FD05460028C6
:100908004CD1236C216823F4706323F0010343F472
:100918008073B1F1A04F236453D02F4B994241D03B
:100928002F4B9B68DA064ED02F4A91424BD0236C4E
:1009380043F480132364D368C3F340632BB1236C5F
:1009480023F4405343F480532364236CA06BDFF8F3
:10095800A4C013F480531CBF636C23F006036364C4
:100968003A4633464FF0000E204E214F84F83CE0C3
:1009780006631C26C0E90AC70E604E6846F01006DA
:100988004E60CE6846F00106CE60403100F01CFD96
:100998002268936843F0040393609FE7002384F878
:1009A8003C309BE703F500739B68D8060BD0236C9B
:1009B80043F4801323644FF0A043DB68C3F3406320
:1009C800BCE7084B9B68236C23F480132364CB6833
:1009D8009B01BAD5B3E700BF00010050B852000828
:1009E800000700500003005000040050990300085D
:1009F800B1030008B903000870B5036896B0002277
:100A0800B3F1A04F054601920C460FD0A64A934277
:100A18000CD002F54072934208D002F580729342DE
:100A280004D0A24841F2B85103F0E4FD6368013BE9
:100A38000F2B00F20B81A368072B00F20181E368FA
:100A4800012B04D9994841F2BB5103F0D3FD236926
:100A5800042B00F2EF802B68DA6812F0180F53D1DC
:100A68006269B2F5805F4FD2E2682368012A03F118
:100A7800FF3366D0112B00F28B8095F83C30012BA8
:100A88006AD001222B6885F83C209A6852076AD4FC
:100A98006068216800EB400204284FEA420200F235
:100AA800DB80186B4FF01F0C0CFA02FC20EA0C00DC
:100AB80001FA02F202431A639A6812F00C0F7FD10E
:100AC8000929A26801EB410000F2E1805E694FF05C
:100AD800070C82400CFA00F026EA000002435A6133
:100AE8002069DA6800F1FF3CC2F3C1026069520074
:100AF80090408A06BCF1030F00F29781DFE81CF0F2
:100B08005800610158014F01DA6802F01802082AFA
:100B180033D0DA6802F01802102A3FD0DB6803F0FD
:100B28001803182B02D163693F2B9DD95F4841F206
:100B3800BD5103F05FFDE2682368012A03F1FF332A
:100B480098D10D2B99D9594841F2C95103F052FD5A
:100B580095F83C30012B94D1022016B070BD1C686A
:100B6800E40740F1BC802B6C43F020032B64012088
:100B7800002385F83C3016B070BD6269B2F5806F0D
:100B8800FFF472AFDA6802F01802102AC6D105E045
:100B9800464841F2C55103F02DFD6EE76269FF2A10
:100BA8007FF662AFDB6803F01803182BBBD0BDE7F4
:100BB8001E6E10433E4A3240024342F000421A661B
:100BC8009A6802F00302012A00F09B80E068012283
:100BD800012802FA01F200F09980D3F8B00020EA67
:100BE8000202C3F8B020B3F1A04F00F0AA802E4A49
:100BF800934265D0102900F0C1802E4A112940F097
:100C08009A809068C4017AD4B3F1A04F26485FD087
:100C180083425BD02848834200F00581274CA342D9
:100C280056D0986800F0030001285ED11868C00704
:100C38005BD598E71D4841F2BC5103F0DBFC0AE79D
:100C48001A4841F2BA5103F0D5FCF8E6174841F2C8
:100C5800B95103F0CFFCEEE609280DD90E2800F2B1
:100C68009380986B3C3A1F26964020EA060001FACA
:100C780002F202439A631FE7586B1E3A1F269640FA
:100C880020EA060001FA02F202435A6314E79E6959
:100C98001E384FF0070C82400CFA00F026EA0000DC
:100CA80002439A611CE700BF00010050B8520008D7
:100CB80000F0FF83000700500004005000050050BA
:100CC80010296E4A9AD19068000218D44FF0A040BB
:100CD8009C68029004F00304012C3FF440AF846840
:100CE80004F00304012C00F0998010297AD011290E
:100CF80070D0122903D1936843F4800393600020D5
:100D080036E71A68D6077FF561AFF8E7D3F8B00081
:100D1800A46802430929C3F8B0201BD901EB41009C
:100D28009A691B380726844006FA00F022EA000276
:100D380022439A6157E71229E1D190684002DED434
:100D480062E710294D4A7FF459AF90680402D6D45F
:100D58004B48BDE7481C5A6900EB40000726844011
:100D680006FA00F022EA00022243B3F1A04F5A61CA
:100D7800C5D0434A93427FF440AFC0E7414A9068E8
:100D880006027FF547AFBAE7D86B5A3A1F26964056
:100D980020EA060001FA02F20243DA638CE6DE6E0C
:100DA8001043394A3240024342F00042DA6607E70C
:100DB8009E6E1043344A3240024342F000429A6623
:100DC800FEE65E6E1043304A3240024342F0004273
:100DD8005A66F5E6B3F1A04F91D1936843F080735A
:100DE80093608CE7B3F1A04F89D1284B28481B6842
:100DF8009168A0FB03039B0C03EB83035B0041F4A6
:100E0800000191600193019B002B3FF478AF019B97
:100E1800013B0193019B002BF9D170E70068C607DD
:100E28003FF5A1AE61E71B4852E7186E00F0F840A5
:100E3800904214D0586E00F0F840904214D0986E4A
:100E480000F0F840904214D0D86E00F0F84090427C
:100E58007FF4B6AEDA6E22F00042DA66B0E6186EBB
:100E680020F000401866E5E7586E20F0004058660C
:100E7800E5E7986E20F000409866E5E7000300502B
:100E8800000100500007005000F0FF830800002018
:100E980083DE1B4300050050F8B50368B3F1A04F8B
:100EA80004460D4607D05C4A934204D05B4841F69D
:100EB800953103F09FFB2B68032B22D9072B18D9F8
:100EC800092B18D16B6833F4004202D0B3F5404FB8
:100ED8006DD1AB6833F4407315D0B3F5806F12D081
:100EE800B3F5006F0FD04D4841F69A3103F082FBFD
:100EF80009E0042BE6D1494841F6963103F07AFB24
:100F08002B68002BDED12368454AB3F1A04F0CD0E3
:100F1800934208D002F5407293424ED041498B4229
:100F280003D00120F8BD4FF0A04294F83C100129ED
:100F380048D0012184F83C10996848072ED491685C
:100F480049072BD4B3F1A04F53D0354E3649374813
:100F5800B34208BF01462868002835D08E686F68FC
:100F680026F4604C94F8306047EA463646EA0C06A8
:100F78008E609E6806F00306012E44D0936803F045
:100F88000303012B37D08B68AA6823F471631043DD
:100F980023F00F0318438860002004E0236C43F01B
:100FA800200301202364002384F83C30F8BD1B484B
:100FB80041F6993103F01EFB8BE794F83C10194A6F
:100FC8000129B6D10220F8BD886820F46040886005
:100FD800986800F00300012819D0936803F0030310
:100FE800012B0CD08B6823F4716323F00F038B6003
:100FF800D2E70E49AFE71368DE07CDD4C3E713681D
:10100800DB07C9D4EEE71B68DF07C5D4B6E71B6862
:10101800D807C1D4E1E700BF00040050B852000867
:101028000001005000050050000700500003005068
:10103800C31E042B10B504460ED80A49CA682302F9
:101048004FF6FF0003F4E0630240134343F0BF632D
:1010580043F40033CB6010BD0348AB2103F0CAFA58
:10106800EBE700BF00ED00E0F45200080F2A70B56E
:10107800164605460C4634D80F2C2DD81B4BDB687A
:10108800C3F30223C3F10702042A03F1040128BFB2
:101098000422062917D9D91E4FF0FF338B4026EAC0
:1010A80003064FF0FF33934024EA03038B40334396
:1010B8001B01002DDBB209DB05F1604505F5614533
:1010C80085F8003370BD00263146EAE7084A05F086
:1010D8000F052A44137670BD0648C42103F08AFA26
:1010E800CCE70448C32103F085FAC5E700ED00E02A
:1010F800FCEC00E0F4520008002808DB4109064A2D
:1011080000F01F000123834042F821307047034854
:10111800D72103F06FBA00BF00E100E0F4520008E5
:101128000138B0F1807F01D30120704710B44FF02F
:10113800E023074C58614FF0F00C84F823C00022DC
:10114800072110469A615DF8044B1961704700BF8A
:1011580000ED00E0D8B10F4B02689A4210B5044682
:1011680004D00D4840F2471103F044FA237903F004
:10117800FF023BB100230221012221712361227168
:10118800184610BD6271204603F0FAFAF2E7012012
:10119800704700BF00740040305300080B6870B5FA
:1011A8000D46044616467BB11C2B3CD9243B182B14
:1011B80005D84FF0013222FA03F3DA0704D42248A3
:1011C8004FF4427103F016FA6B6833F0020304D04F
:1011D8001D4840F2163103F00DFA36F0100304D022
:1011E80019484FF4467103F005FA6379012B28D0AA
:1011F80002232371D5E9003022680343116840F6C1
:10120800FE70B04021EA0001B3400B43136013683D
:10121800C021B140002523EA010301211360217197
:101228006571284670BD032BC9D94FF0103222FAD8
:1012380003F3DB07C8D404484FF4427103F0DAF92A
:10124800C2E7022070BD00BF68530008002800F004
:10125800A9800368544A934210B5044625D0143235
:10126800934222D0143293421FD0143293421CD09E
:101278001432934219D01432934216D01432934246
:1012880013D002F5627293420FD0143293420CD0FD
:101298001432934209D01432934206D01432934246
:1012A80003D04248932103F0A5F9636833F0100294
:1012B8005ED1A36833F0400303D03C48952103F086
:1012C80099F9E36833F0800303D03848962103F096
:1012D80091F9236933F4807202D0B3F5007F4FD1BE
:1012E800636933F4806202D0B3F5006F51D1A3690A
:1012F80033F0200303D02D48992103F07BF9E069EE
:1013080030F4405304D029489A2103F073F9E06976
:101318002168D4E901321343E26813432269134375
:1013280062691343A26913430A6822F47F5222F0C8
:10133800300213431E4A034391420B600FD91D4BE1
:101348001D4A0B44A2FB03231B091C499B004FF4B5
:10135800807200202284C4E90F13A06310BD184BCB
:10136800154A0B44A2FB03231B0916499B00EEE711
:10137800B3F5804F9DD00D48942103F03BF998E7D1
:101388000A48972103F036F9636933F48062AED0D6
:10139800AAE70648982103F02DF9A36933F0200342
:1013A800ADD0A8E70120704708000240A453000808
:1013B80007040240F8FBFDBFCDCCCCCC00040240B2
:1013C800F8FFFDBF000002402DE9F0415D1E1E46FA
:1013D8004FF6FE739D4204460F46904635D894F862
:1013E8002030012B09D0012384F8203094F82130D3
:1013F800012B05D0002384F820300220BDE8F081BD
:10140800022284F8212025680022A2632A6822F09B
:1014180001022A60226C9340E26B536063686E603D
:10142800102BE36A0BBFC5F80880AF60EF60C5F802
:101438000C8083B12B6843F00E032B602B6843F0BC
:10144800010300202B60BDE8F08107484FF4A67126
:1014580003F0D0F8C3E72B6843F00A032B602B682E
:1014680023F004032B60E9E7A453000848B190F87F
:101478002120022A034606D004210022816380F835
:101488002020012070470268116821F00E0110B475
:10149800046CC06B1160116821F001011160012218
:1014A800A2404FF480714260198400205DF8044B1B
:1014B800704700BF90F82120022A03D004228263DB
:1014C800012070470268116821F00E0110B5C46B45
:1014D8001160116821F001011160016C01228A403C
:1014E800416B62604FF4807CA0F820C001B188474E
:1014F800002010BD70B4C66B026C31680468042308
:1015080093400B4225680ED015F0040F0BD02268CB
:10151800920603D4226822F004022260C26A736031
:10152800CAB170BC1047022393400B4215D015F086
:10153800020F12D02268920606D4226822F00A020C
:101548002260012280F82120826A7360002180F8DD
:101558002010002AE5D170BC7047082393400B4245
:10156800F9D02B07F7D52368016B23F00E0323600E
:10157800012303FA02F24FF48074726004848363D7
:101588000029E8D070BC08472DE9F04FB0F1904F22
:1015980083B0064688461ED0B94B98421BD003F547
:1015A8008063984217D003F58063984213D003F5FF
:1015B800806398420FD003F5806398420BD003F5FF
:1015C8008063984207D003F58063984203D0AD4802
:1015D800B22103F00FF8D8F800108BB21BB1B1F5A7
:1015E800803FC0F04681A748B32103F003F8D8F83C
:1015F8000430012B0DD9B3F5041F0AD000F2FD8089
:10160800B3F5881F05D040F2EC80B3F5901F40F089
:10161800EF80D8F80010002900F0E0809A4BDFF83E
:10162800809200240125A54015EA010B00F0D18025
:10163800D8F8040000F003014FEA440A032701F137
:10164800FF3C07FA0AF7BCF1010F6FEA070740F2FF
:10165800E380032953D0D8F80850022D00F2FF8008
:10166800F26805FA0AF502EA070C45EA0C050229B0
:10167800F56044D1B6F1904F1ED0814A96421BD0F6
:1016880082498E4218D001F580618E4214D001F54E
:1016980080618E4210D001F580618E420CD001F538
:1016A80080618E4208D001F580618E4204D0754871
:1016B800E22102F09FFF744BD8F810000C280AD9D9
:1016C800A0F10E01012906D96E48E32102F092FF2C
:1016D800D8F810006C4BE50806EB850504F0070107
:1016E8002A6A89004FF00F0E88400EFA01F122EAAB
:1016F80001010143D8F80400296200F003013568AC
:1017080001FA0AF13D40294310F4403F31605ED0B0
:101718009D6945F001059D619D6924F0030101F172
:10172800804105F0010501F58031019504F0030CB5
:10173800019D8D684FEA8C0C0F2707FA0CF7B6F15C
:10174800904F25EA07051BD04D4A964200F0AF801E
:101758004E4FBE4200F0B0804D4FBE4200F0A28016
:101768004C4FBE4200F0AD804B4FBE4200F0AE8001
:101778004A4FBE420CBF0627072707FA0CF73D431E
:101788008D60D9F808106FEA0B05C70254BF2940CD
:101798004BEA0101C9F80810D9F80C10820254BFAD
:1017A80029404BEA0101C9F80C10D9F80410870345
:1017B80054BF29404BEA0101C9F80410D9F80010B8
:1017C800C20354BF29404BEA0101C9F80010D8F8F8
:1017D8000010013431FA04F07FF424AF03B0BDE8FF
:1017E800F08F032B7FF615AF113B012B7FF611AF5E
:1017F8002448B42102F0FEFE0BE7B3F5441F3FF482
:1018080008AF23F48013B3F5081F3FF402AF1D4857
:10181800B42102F0EFFEFCE6D8F80C20012A0CD91E
:10182800032A0AD01748C32102F0E4FED8F80400BE
:10183800D8F80C20144B00F0030102FA0AFCB26835
:1018480002EA070E4CEA0E02B260726822EA050C40
:10185800C0F30015A54045EA0C057560F9E609488E
:10186800D42102F0C7FED8E90105074B00F00301B7
:10187800F6E6D8F80430012B3FF6BDAECEE600BF41
:1018880000040048DC53000800100240000800482B
:10189800000C0048001000480014004800180048D8
:1018A80000040140032707FA0CF73D4368E70127C6
:1018B80007FA0CF73D4363E7022707FA0CF73D43A5
:1018C8005EE7042707FA0CF73D4359E7052707FAAF
:1018D8000CF73D4354E700BF70B5064615460C4665
:1018E80059B1012D02D835B9B46270BD064840F22D
:1018F800A51102F07FFEB46170BD03484FF4D271A8
:1019080002F078FEEDE700BFDC530008002800F085
:10191800CD8010B590F83230052B82B0044600F027
:101928009A8090F83230022B00F095800368724A52
:1019380093420DD0043293420AD00432934207D026
:101948000432934204D06D484FF4857102F052FE80
:101958006368002B00F0828023F02003402B00F006
:10196800A080664840F20D1102F044FEE3680C2B9B
:1019780009D033F0040206D0082B04D05F484FF496
:10198800877102F037FE6368002B6AD02369ABB118
:10199800802B73D1A36933F4C06304D0574840F255
:1019A800231102F027FE63684BB9636933F480732F
:1019B80007D052484FF4937102F01CFE6368402B25
:1019C80076D0636A4BB1B3F5802F60D1A36A1F2B21
:1019D80000F28C80E36A1F2B7CD8494B9A6942F04D
:1019E80001029A619B6903F001030193019B94F83A
:1019F800323003F0FF020BB984F83120204602F0A0
:101A0800FBFE636823F02002402A34D0D4E9021296
:101A18000B43134320696269A16903431343D4E963
:101A280007200B431343626A216803431343D4E935
:101A38000A0243EAC04343EA02630868314A0240A3
:101A480013430B6094F8323013B9012384F8323011
:101A5800002002B010BD012002B010BDE3680C2BBD
:101A680087D1A36833F0200390D024484FF48E71B7
:101A780002F0C0FD8AE7D4E90302CDE71F4840F22F
:101A88001F1102F0B7FD2369802B97D182E71B480D
:101A98004FF4987102F0AEFD636AB3F5802F9CD1C4
:101AA80094E7E3680C2B7FF464AF6FE7012070477D
:101AB800E36933F4003202D0B3F5403F10D1236A12
:101AC80033F440433FF47DAF0C4840F22D1102F04F
:101AD80091FD76E709484FF49A7102F08BFD7CE797
:101AE80006484FF4967102F085FDE8E7034840F296
:101AF800331102F07FFD6DE73800014018540008EB
:101B080000100240113800E0002800F04C832DE955
:101B1800F043036883B00446002B00F01D811A07C8
:101B280000F06582DF0743D5636833F4803203D061
:101B3800B3F5A02F40F03282AE4A536803F00C038D
:101B4800042B00F01082536803F00C03082B00F0FC
:101B580003826368B3F5803F00F01A82002B00F01F
:101B68004D82B3F5A02F00F01183A24B1A6822F41E
:101B780080321A601A6822F480221A60FEF794FBF9
:101B88009C4F05464FF40038012605E0FEF78CFB14
:101B9800401B642800F2278298FAA8F33A6898FA5A
:101BA800A8F3B3FA83F306FA03F31342EED02368DB
:101BB8009E0747D5E368012B00F2868123691F2B16
:101BC80000F28B818B4B5A6812F00C0F00F0698180
:101BD8005A6802F00C02082A00F05C81E268002AC8
:101BE80000F05882012595FAA5F3B3FA83F303F1BF
:101BF800845303F584139B007E4F1D60FEF754FB4E
:101C08004FF00208064605E0FEF74EFB801B02284F
:101C180000F2E98198FAA8F33A6898FAA8F3B3FAB7
:101C280083F305FA03F31342EED03968F82292FAE7
:101C3800A2F22369B2FA82F2934021F0F802134328
:101C48003B6023681D072DD56369012B00F2718164
:101C5800002B00F04881012696FAA6F2664BDFF8C1
:101C68009481B2FA82F213449B0002251E60FEF7AB
:101C78001BFB074605E0FEF717FBC01B022800F216
:101C8800B28195FAA5F395FAA5F395FAA5F3D8F8D4
:101C9800242095FAA5F3B3FA83F306FA03F3134263
:101CA800E9D02368580757D5A368012B06D9052B17
:101CB80004D052484FF4FA7102F09CFC4D4BDA699B
:101CC800D10000F1BC81DA6942F08052DA61DB6947
:101CD80003F080530193019B0125494E3368DA05CF
:101CE80040F17181A368012B0FD0002B00F0A9816E
:101CF800052B404B1A6A00F00F8222F001021A628B
:101D08001A6A22F004021A6204E03A4A136A43F09B
:101D180001031362FEF7C8FADFF8D88006464FF0D1
:101D28000209012707E0FEF7BFFA41F28833801B5A
:101D3800984200F2588199FAA9F399FAA9F3D8F8C8
:101D4800202099FAA9F3B3FA83F307FA03F31342AD
:101D5800E9D0002D40F0DA81A369022B00F2F2806D
:101D6800002B00F09380234D6A6802F00C02082AC9
:101D780000F0B481022B40F0E381E369B3F5004F32
:101D880007D0B3F5803F04D01C4840F2412102F04F
:101D980031FC236A33F4402212D0B2F5801F0FD0F1
:101DA800B2F5001F0CD023F48022B2F5401F07D0F3
:101DB800B3F5601F04D0114840F2422102F01AFC2A
:101DC800636A0F2B00F2B0814FF0807393FAA3F38C
:101DD800B3FA83F303F1845303F584139B000022C1
:101DE8001A60FEF761FA034D06464FF000780127A6
:101DF8000EE000BF001002402081901054540008EB
:101E080000700040FEF750FA801B022800F2EB80B9
:101E180098FAA8F32A6898FAA8F3B3FA83F307FAAA
:101E280003F31342EED1EB6A626A23F00F03134304
:101E3800EB62D4E907136A680B4322F47612134362
:101E48006B604FF0807393FAA3F3B3FA83F303F153
:101E5800845303F584139B00B64D1F60FEF724FAE4
:101E68004FF000770446012605E0FEF71DFA001B37
:101E7800022800F2B88097FAA7F32A6897FAA7F31E
:101E8800B3FA83F306FA03F31342EED0002003B04B
:101E9800BDE8F0835B6803F4C033B3F5004F7FF40B
:101EA8009DAE022393FAA3F2A24A116893FAA3F310
:101EB8000122B3FA83F302FA03F30B4274D0E36806
:101EC800934271D00120E2E79B4840F2871102F06B
:101ED80091FB23691F2B7FF675AE97484FF4C471A9
:101EE80002F088FB6EE6012797FAA7F1934ADFF81C
:101EF8004482B1FA81F10A44920002251360FEF788
:101F0800D3F9064604E0FEF7CFF9801B02286AD809
:101F180095FAA5F395FAA5F395FAA5F3D8F8242030
:101F280095FAA5F3B3FA83F307FA03F31342EAD158
:101F3800B7E681484FF4E47102F05CFB6369002B5B
:101F4800D1D088E67C484FF40E7102F053FBA369A8
:101F5800002B7FF408AF99E7536803F4C033B3F557
:101F6800803F7FF4F6AD4FF4003393FAA3F2714A41
:101F7800116893FAA3F30122B3FA83F302FA03F385
:101F88000B423FF414AE6368002B7FF410AE99E760
:101F9800684A136843F480331360EFE5664840F2FB
:101FA8004F1102F027FBC7E56248F822016892FA50
:101FB800A2F22369B2FA82F2934021F0F8021343A5
:101FC800036023683EE6336843F480733360FEF7AA
:101FD8006BF907463368DB053FF584AEFEF764F915
:101FE800C01B6428F6D9032003B0BDE8F08352482B
:101FF80040F2491102F0FEFA236893E54D4D2B6833
:1020080023F480332B602B6823F480232B60FEF7A6
:102018004BF94FF400380127064604E0FEF744F96F
:10202800801B6428DFD898FAA8F32A6898FAA8F3DE
:10203800B3FA83F307FA03F31342EFD1B7E50025A8
:102048004BE63C4E336A23F001033362336A23F0D4
:1020580004033362FEF728F94FF0020907464FF0F0
:10206800010806E0FEF720F941F28833C01B9842C8
:10207800B9D899FAA9F399FAA9F3326A99FAA9F39E
:10208800B3FA83F308FA03F31342EBD1002D3FF4BC
:1020980063AE3BE0012696FAA6F3B3FA83F303F1A5
:1020A800845303F584139B00224F1A60FEF7FCF853
:1020B8004FF00208054604E0FEF7F6F8401B022838
:1020C80091D898FAA8F33A6898FAA8F3B3FA83F380
:1020D80006FA03F31342EFD12368B3E5012B3FF46B
:1020E800F1AE6A68E169EB6A02F4C03088427FF4B5
:1020F800E9AE216A02F470128A427FF4E3AE606AA4
:1021080003F00F03181A18BF0120C0E6094AD36963
:1021180023F08053D3611FE642F004021A621A6A60
:1021280042F001021A62F5E503484FF4117102F01A
:1021380061FA49E6001002405454000820819010CA
:102148004FF0807393FAA3F3B3FA83F303F1845344
:1021580003F584139B0000221A60FEF7A5F84FF0E0
:1021680000770446012605E0FEF79EF8001B0228CA
:102178003FF639AF97FAA7F32A6897FAA7F3B3FAA5
:1021880083F306FA03F31342EED17FE603F18043AB
:10219800A3F53C331A6842F480221A601A6842F4A4
:1021A80080321A60EAE40120704700BF0C4A536885
:1021B80003F00C01082901D00A487047C3F3834390
:1021C800D26A09490748C95C10B402F00F03074CEA
:1021D800E35C5DF8044BB0FBF3F001FB00F07047E3
:1021E8000010024000127A009C5400088C54000829
:1021F800002800F0E98003682DE9F0411E070D462C
:10220800044600F0CE80022D00F2C5807C4A136897
:1022180003F00703AB420CD2136823F007032B43E8
:102228001360136803F00703AB4202D00120BDE836
:10223800F081236898071AD5A26892B1C02A10D0F5
:1022480000F2B980A02A0CD000F2B18022F010016F
:10225800802906D06B4840F2D92102F0CBF9A26858
:1022680023686948416821F0F0010A434260D907B0
:1022780031D56368022B00F2B980012B00F0A680EB
:10228800022B0CBF4FF00072022292FAA2F15E49B3
:10229800086892FAA2F20121B2FA82F201FA02F275
:1022A8000242C3D0584E726822F00302134373608F
:1022B800FDF7FAFF41F28838074605E0FDF7F4FF1D
:1022C800C01B404500F299807368626803F00C03F4
:1022D800B3EB820FF2D14A4A136803F00703AB420B
:1022E80009D9136823F007032B431360136803F01D
:1022F8000703AB429AD123685A0718D5E16831F42D
:1023080080620ED021F40072B2F5A06F09D0B1F549
:10231800C06F06D04FF447713A4802F06BF9E16894
:1023280023683948426822F4E0620A4342601B0786
:1023380018D5226932F480630DD022F40073B3F506
:10234800A06F08D0B2F5C06F05D02E4840F22331F7
:1023580002F050F922692C494B6823F4605343EA90
:10236800C2034B60FFF722FF274BF0225B6892FA0B
:10237800A2F2B2FA82F203F0F003D340234A2449CE
:10238800D35C244A20FA03F308681360FDF74AFF78
:102398000020BDE8F0811B4840F2C22102F02AF972
:1023A80034E7184840F2C12102F024F92BE7B02A9B
:1023B8003FF457AF4EE7E02A3FF453AF22F0200135
:1023C800D0297FF447AF4CE7012070474FF4003223
:1023D80092FAA2F10C49096892FAA2F2B2FA82F2D0
:1023E80003FA02F20A427FF45DAF1FE705484FF493
:1023F800387102F0FFF863683FE7032017E700BF72
:10240800002002405454000800100240A055000863
:102418000400002008000020084B4FF4E0625B68CD
:1024280092FAA2F2B2FA82F203F4E0630449054890
:10243800D3400068CB5CD840704700BF0010024012
:102448009855000808000020084B4FF460525B685C
:1024580092FAA2F2B2FA82F203F4605304490548F0
:10246800D3400068CB5CD840704700BF00100240E2
:1024780098550008080000202DE9F043954A0368A4
:10248800934283B0044680F01282D9034ED5636824
:1024980033F4407340F02C828F4BDA69D20000F19C
:1024A8000C82DA698D4D42F08052DA61DB6903F003
:1024B80080530193019B2B68DF054FF0010640F123
:1024C8000382DFF814826168D8F8203013F440736F
:1024D80020D001F440729A421CD0D8F820104FF452
:1024E800803321F4407093FAA3F27D4FB2FA82F25E
:1024F8003A4492000125156093FAA3F3B3FA83F3E3
:102508003B449B000022C9071A60C8F8200000F16C
:10251800FB816168704A136A23F440730B431362AA
:102528001EB1D36923F08053D3612368DA0709D534
:10253800A168032900F2E1816748026B22F00302D7
:102548000A4302639F070FD5E16831F4403205D092
:10255800C721644802F04EF8E16823685E48026BC0
:1025680022F440320A4302635E070FD5216931F431
:10257800402205D0D3215B4802F03CF8216923684A
:102588005548026B22F440220A4302639D060FD588
:10259800E16931F0100205D0DE21524802F02AF834
:1025A800E16923684C48026B22F010020A43026377
:1025B80098030FD5616D31F4800205D0EC214948AC
:1025C80002F018F8616D23684348426822F48002DB
:1025D8000A434260590610D5216A31F0200206D01C
:1025E8004FF480713F4802F005F8216A23683A48A1
:1025F800026B22F020020A4302635A0310D5616A73
:1026080031F0400206D04FF48971364801F0F2FFEC
:10261800616A23683048026B22F040020A43026371
:102628001F0710D5616931F4401206D040F221111C
:102638002C4801F0DFFF616923682748026B22F408
:1026480040120A430263DE0610D5A16931F4400244
:1026580006D040F22B11234801F0CCFFA169236872
:102668001D48026B22F440020A4302639D0510D5FF
:10267800216B31F4000206D040F23B11194801F0F9
:10268800B9FF216B23681448426822F400020A4308
:102698004260180628D5A26AAAB1B2F5B07F12D056
:1026A80000F2F080B2F5987F0DD022F0100140F2D0
:1026B800E080B1F5A07F06D00A4840F25B1101F036
:1026C80099FFA26A23680448C16A21F4F8710A4391
:1026D800C26209E00034F7030010024000700040B5
:1026E80000819010AC540008D90527D5E16A31F46F
:1026F80000521DD021F48062B2F5085F18D021F491
:102708000062B2F5105F13D021F40072B2F5205FB9
:102718000ED0B1F5385F0BD021F4C062B2F5405F3E
:1027280006D04FF4B671864801F064FFE16A236869
:102738008448C26A22F478520A43C262DA0410D585
:10274800616B31F4807206D04FF4C6717C4801F099
:1027580051FF616B23687B48026B22F480720A4345
:1027680002639F0410D5216C31F4007206D04FF437
:10277800CF71734801F03EFF216C23687148026BEA
:1027880022F400720A430263DE0210D5A16B31F015
:10279800807206D040F2F511694801F02BFFA16B59
:1027A80023686848026B22F080720A4302639D0224
:1027B80010D5E16B31F0007206D040F2FF1160488D
:1027C80001F018FFE16B23685E48026B22F000728B
:1027D8000A430263580210D5616C31F4806206D056
:1027E80040F20921564801F005FF616C23685548FD
:1027F800026B22F480620A430263190210D5A16CAD
:1028080031F4006206D040F213214D4801F0F2FE87
:10281800A16C23684B48026B22F400620A430263EE
:10282800DA0110D5E16C31F4005206D040F21D21D6
:10283800434801F0DFFEE16C23684248026B22F452
:1028480000520A4302639B010FD5226D32F4004304
:1028580005D03B4840F22A2101F0CCFE226D3949CF
:102868000B6B23F4004313430B63002003B0BDE854
:10287800F083B1F5807F3FF426AFB2F5907F3FF447
:1028880022AF19E7B2F5C87F3FF41DAF06D922F091
:102898001001B1F5D07F7FF40FAF14E7B2F5B87F20
:1028A8003FF411AFB2F5C07F3FF40DAF04E7244801
:1028B800702101F09FFE2368E7E5234D2B68DF05B3
:1028C8004FF000063FF5FDAD2B6843F480732B6095
:1028D800FDF7EAFC07462B68D8053FF5F2ADFDF792
:1028E800E3FCC01B6428F6D9032003B0BDE8F083DD
:1028F8001348762101F07EFECEE5BC21104801F098
:1029080079FEA168236817E6FDF7CEFC4FF00209AF
:10291800074699FAA9F399FAA9F3D8F8202099FA61
:10292800A9F3B3FA83F305FA03F313427FF4F1AD85
:10293800FDF7BAFC41F28833C01B9842E9D9D3E7C6
:10294800AC5400080010024000700040324A03688E
:10295800934210B504462BD0B3F1804F28D0A2F58E
:102968009432934224D002F58062934220D002F53B
:10297800006293421CD002F58062934218D002F59F
:102988009032934214D002F54062934210D002F57F
:10299800806293420CD002F58062934208D002F51F
:1029A8000062934204D01D484FF4CE7101F022FE1C
:1029B80094F83D30012B23D12368174A0221934212
:1029C80084F83D101ED0B3F1804F1BD0A2F594328D
:1029D800934217D002F58062934213D002F59632E3
:1029E80093420FD002F5406293420BD002F5805219
:1029F800934207D01A6842F001021A60002010BD05
:102A0800012010BD9968064A0A40062AF6D0B2F598
:102A1800803FEFD1F2E700BF002C0140E8540008E6
:102A280007000100704700BF38B590F83C30012B13
:102A380000F024820223012280F83C2080F83D30F7
:102A48000B68B3F5805F04460D4600F0B880602B34
:102A580000F0538261D823F01002402A00F08981E7
:102A680033F0300200F0E080994841F2725101F0F1
:102A7800C1FD22682B6890689649602B01EA000125
:102A8800916040F00682944B9A421BD0B2F1804F7D
:102A980018D0A3F594339A4214D003F580639A4270
:102AA80010D003F596339A420CD003F540639A424E
:102AB80008D003F580539A4204D0854841F2C151A9
:102AC80001F098FD6B68B3F5004F09D033F00202AE
:102AD80006D00A2B04D07E4841F2C45101F08AFD89
:102AE800E8680F2800F2FB81236869681A6A22F0F7
:102AF800A00242EA0112196A21F0100119629969CB
:102B080021F4704141EA003199611A629A6822F011
:102B1800700242F067029A6049E0702B00F0DE8094
:102B2800B3F5005F9CD102686A4B91680B409360D3
:102B3800694B9A4217D0B2F1804F14D0A3F5943361
:102B48009A4210D003F580639A420CD003F596336D
:102B58009A4208D003F5E0539A4204D05C4841F207
:102B68009D5101F047FDAB6833F4405304D05848F9
:102B78004FF4AD5101F03EFD6B68B3F5004F03D043
:102B880033F0020240F07C81E8680F2800F292815D
:102B98002268D5E9015391682B4321F47F410B4307
:102BA80043EA00239360936843F4804393600020D2
:102BB8000122002384F83D2084F83C3038BD0268A7
:102BC800444B91680B409360434B9A42EFD0B2F16B
:102BD800804FECD0A3F594339A42E8D003F5806394
:102BE8009A42E4D003F500639A42E0D003F580638B
:102BF8009A42DCD003F590339A42D8D003F540636B
:102C08009A42D4D003F580639A42D0D003F580630A
:102C18009A42CCD003F500639A42C8D02C4841F2BE
:102C28007E5101F0E7FCC2E722682A49906801401A
:102C38009160402B40F2EF80502B40F01D81264BD5
:102C48009A421BD0B2F1804F18D0A3F594339A4220
:102C580014D003F580639A4210D003F596339A4254
:102C68000CD003F540639A4208D003F580539A428A
:102C780004D0174841F2B15101F0BCFC6B68B3F5C0
:102C8800004F09D033F0020206D00A2B04D01048B6
:102C980041F2B45101F0AEFCE8680F2800F2188147
:102CA800236869681A6A22F00A0211431A6A22F034
:102CB80001021A629A6922F0F00242EA00129A614D
:102CC80019629A6822F0700242F057029A606EE721
:102CD800E85400088800FEFF002C014002688A4B77
:102CE80091680B409360894B9A4217D0B2F1804F9C
:102CF80014D0A3F594339A4210D003F580639A4216
:102D08000CD003F596339A4208D003F5E0539A4263
:102D180004D07F4841F2855101F06CFCAB6833F474
:102D2800405304D07A4841F2885101F063FC6B6843
:102D3800B3F5004F09D033F0020206D00A2B04D0B5
:102D4800734841F2895101F055FCE8680F2800F2F8
:102D5800B8802268D5E9015391682B4321F47F415B
:102D68000B4343EA00239360936843F0770393602F
:102D78001DE7026864499068402B01EA00019160F0
:102D88007FF45AAF614B9A421BD0B2F1804F18D0F2
:102D9800A3F594339A4214D003F580639A4210D075
:102DA80003F596339A420CD003F540639A4208D053
:102DB80003F580539A4204D0554841F2D15101F0AD
:102DC80019FC6B68B3F5004F09D033F0020206D046
:102DD8000A2B04D04E4841F2D45101F00BFCE868AC
:102DE8000F2800F28380236869681A6A22F00A02B1
:102DF80011431A6A22F001021A629A6922F0F0025B
:102E080042EA00129A6119629A6822F0700242F04E
:102E180047029A60CBE6202B02D02AD9302B2BD13F
:102E28003A498A421DD0B2F1804F1AD0A1F59431A7
:102E38008A4216D001F580618A4212D001F5963196
:102E48008A420ED001F540618A420AD001F58051CC
:102E58008A4206D02E4841F2E45101F0CBFB2268A9
:102E68002B68916821F070010B4343F007039360CE
:102E78009DE633F01001D3D0012099E6022038BD39
:102E88000A2B3FF481AE224841F2A15101F0B2FB76
:102E98007AE603D8402B7FF4CCAE73E7B3F5805FB6
:102EA8003FF492AEB3F5005F3FF442AE702B3FF4AF
:102EB8001AAFE1E7164841F2A25101F09BFBE8681E
:102EC80066E6134841F28A5101F094FBE86840E74E
:102ED8000F4841F2B55101F08DFBE868E0E60C4877
:102EE80041F2C55101F086FBE868FDE5084841F26A
:102EF800D55101F07FFBE86875E70268024B9168DD
:102F08000B409360BFE500BF8800FEFF002C014026
:102F1800E85400083B4A0368904210B439D0B0F135
:102F2800804F19D0A2F59432904215D002F58062F4
:102F3800904211D002F5963290423ED002F5E0520E
:102F480090423AD0A2F5805290423BD1CC684A696F
:102F580023F44073234325E04A68CC6823F07003C8
:102F6800134323F440734A69234323F080038C6896
:102F780013430A680360C4628262012343610369E0
:102F8800DB0703D5036923F0010303615DF8044BF4
:102F98007047CA684C6823F07003234323F44073D6
:102FA80013434A6923F08003134303608B68C362A9
:102FB8000B6883620B690363DFE74C68CA6823F018
:102FC8007003EAE7104A90420DD002F58062904201
:102FD80009D00A688C68496923F080030B430360B1
:102FE800C4628262C9E7CC684A6923F44073234308
:102FF80023F080038C6813430A680360C46282620A
:10300800D8E700BF002C014000440140002800F030
:10301800A5800368524A934210B504462BD0B3F1F9
:10302800804F28D0A2F59432934224D002F58062D2
:10303800934220D002F5006293421CD002F58062D0
:10304800934218D002F59032934214D002F54062B0
:10305800934210D002F5806293420CD002F5806250
:10306800934208D002F50062934204D03D484FF4E1
:103078008D7101F0BFFAA36833F010020AD023F073
:103088004002202A06D0402B04D0364840F21B11BB
:1030980001F0B0FA236933F4807236D12268E3680C
:1030A800B2F1804F3ED0013B4FF6FE7293423BD8BF
:1030B800A36933F0800340D194F83D3003F0FF0258
:1030C800002B45D02146022384F83D3051F8040BEB
:1030D800FFF720FF012384F8483084F83E3084F855
:1030E8003F3084F8403084F8413084F8423084F826
:1030F800433084F8443084F8453084F8463084F806
:10310800473084F83D30002010BDB3F5007FC5D0AE
:1031180014484FF48E7101F06DFA2268E368B2F139
:10312800804FC0D1002BC3D10E4840F21D1101F0D1
:1031380061FAA36933F08003BED00A484FF48F7157
:1031480001F058FA94F83D3003F0FF02002BB9D192
:1031580084F83C20204601F0C3FBB3E70120704708
:10316800002C0140E8540008002800F0A58038B57C
:10317800524A036893420D4604462BD0B3F1804F60
:1031880028D0A2F59432934224D002F5806293426B
:1031980020D002F5006293421CD002F5806293426F
:1031A80018D002F59032934214D002F5406293424F
:1031B80010D002F5806293420CD002F580629342EF
:1031C80008D002F50062934204D03D484FF42661CE
:1031D80001F010FAA36833F010020AD023F040027D
:1031E800202A06D0402B04D0354840F6612101F052
:1031F80001FA236933F4807238D135F0080304D01A
:103208002F4840F6632101F0F5F92268E368B2F12E
:10321800804F45D0013B4FF6FE72934242D8A369D6
:1032280033F080032BD194F83D3003F0FF028BB3C9
:103238002146022384F83D3051F8040BFFF76AFE5B
:10324800026822F008020260026801232A43026031
:1032580084F8483084F83E3084F83F3084F84430AD
:1032680084F8453084F83D30002038BDB3F5007F40
:10327800C3D0134840F6622101F0BCF9BDE71048FD
:1032880040F6652101F0B6F994F83D3003F0FF02ED
:10329800002BCDD184F83C202046FFF7C3FBC7E7BD
:1032A800002BBCD1064840F6642101F0A3F9A369BC
:1032B80033F08003B7D0E2E701207047002C0140CB
:1032C800E8540008F8B5614A0368934204460D467D
:1032D80023D0B3F1804F20D0A2F5943293421CD072
:1032E80002F58062934218D002F50062934214D02E
:1032F80002F58062934210D002F5903293420CD0CE
:1033080002F54062934208D002F58052934204D0FD
:103318004F4840F2AC7101F06DF92B6833F0400270
:103328000CD0402B52D9602B08D023F02003502B0F
:1033380004D0474840F2AD7101F05CF9AB6833F056
:10334800800304D0424840F2AE7101F053F994F87A
:103358003C30012B6FD00222236884F83D203B4A81
:10336800012184F83C1093425E689F6842D002F5C0
:103378000062934231D002F5E05293422DD02A6880
:1033880026F0700616435E60B3F1804F12D0314AC2
:1033980093420FD002F5806293420BD002F5963229
:1033A800934207D002F54062934203D002F580525F
:1033B800934204D1AA6827F0800717439F60002032
:1033C800012384F83D3084F83C00F8BD202BB5D0AB
:1033D80023F02003102BACD1B0E76A6832F4401117
:1033E8000CD126F470062968324322F070020A4391
:1033F8005A60C9E76A6832F440111ED0B1F5800FEF
:103408000CD0B1F5000F09D0B1F5400F06D0104827
:1034180040F2C17101F0EEF86A68236826F470067C
:1034280016432A6826F070061643084A5E609342DF
:10343800AAD1064BBEE70220F8BD26F4700629681B
:10344800324322F070020A435A60F2E7002C01402E
:103458002055000800040040026852E8003F23F4A9
:10346800907342E800310029F7D102F1080353E8CC
:10347800003F23F0010302F1080C4CE80031002959
:10348800F3D1036E012B06D000232022C0F8802040
:1034980083660366704752E8003F23F0100342E852
:1034A80000310029F0D052E8003F23F0100342E831
:1034B80000310029EFD1E7E7C36F212B00D0704717
:1034C800B0F8523002689BB283B952E8003F23F04B
:1034D800800342E800310029F7D152E8003F43F069
:1034E800400342E800310029F7D17047C16C31F838
:1034F800023BC3F308031385B0F85230C164013BA3
:103508009BB2A0F852307047C36F212B00D0704790
:10351800B0F8523002689BB283B952E8003F23F0FA
:10352800800342E800310029F7D152E8003F43F018
:10353800400342E800310029F7D17047C16C11F807
:10354800013B1385B0F85230C164013B9BB2A0F82F
:1035580052307047C36F202B22D101B10AB9012024
:103568007047836810B4B3F5805F4FF00004C164FE
:103578004FF02101A0F85220A0F85020C0F8844054
:10358800C1670FD00B4B0268C36652E8003F43F097
:10359800800342E800300028F7D15DF8044B7047FB
:1035A800022070470169034B034AA14208BF134632
:1035B800E9E700BF11350008C1340008704700BFB3
:1035C800704700BF08B5406A0023A0F85A30A0F839
:1035D8005230FFF7F5FF08BD704700BF0368DA698E
:1035E800196840F60F0C12EA0C0F2DE9F0419D689E
:1035F800044640F08180970602D58E0600F1EC80E3
:10360800206E012825D0D00202D56F0200F1E98092
:10361800160615D4500601D54A0601D4BDE8F08136
:1036280053E8002F22F0400243E800210029F7D197
:1036380020220023E267E3662046FFF7BFFFEDE79D
:103648000D06E7D5E36E002BE8D02046BDE8F04133
:103658001847D706D7D5CE06D5D510221A629A684C
:10366800550640F11081606F0268526892B2002AD4
:10367800D4D0B4F858109142D0D9A4F85A2082690D
:10368800202A2FD053E8002F22F4807243E800212B
:103698000029F7D103F1080252E8002F22F00102B5
:1036A80003F1080545E800210029F3D103F10802D8
:1036B80052E8002F22F0400203F1080545E80021F6
:1036C8000029F3D12022C4F88020216653E8002F76
:1036D80022F0100243E800210029F7D1FDF7C6FEC9
:1036E800B4F8581002236366B4F85A30C91A204651
:1036F80089B2FFF771FF91E715F001071E4640F008
:1037080093807F4801423FF47BAFD5070FD5C805AA
:1037180040F1B58001201862D4F8840040F001001F
:10372800C4F88400900768D5002F40F081805507C1
:1037380040F18880170700F1978017050AD54D01D9
:1037480008D54FF400601862D4F8843043F02003A1
:10375800C4F88430D4F88430002B3FF45FAF90066F
:1037680002D58A0600F18380D4F88420B36802F079
:10377800280203F0400353EA0205204600F0BA800D
:10378800FFF76AFEB3685B0665D506F1080353E8E0
:10379800003F23F0400306F1080141E8003262B11E
:1037A800236803F1080252E8002F22F0400203F1D7
:1037B800080040E800210029F3D1606F00284AD0B2
:1037C800504B4363FDF776FE00283FF427AF606F48
:1037D800BDE8F041436B1847836E002B7FF436AF8A
:1037E8001CE74FF4801220461A62BDE8F04100F051
:1037F800C3BBC8058ED495071AD4500722D5002F0D
:1038080098D004201862D4F88400150740F002000C
:10381800C4F8840091D508201862D4F8840040F0D8
:103828000800C4F8840088E7D007E2D4950716D5C5
:1038380002201862D4F8840040F00400C4F8840020
:103848005007DED410077FF578AF01F02000384329
:103858003FF473AFDFE72046FFF7B2FEDEE6570717
:10386800CFD41007D7D468E78D06D4D465E7A36E04
:10387800002B3FF479AF20469847266874E79507F0
:103888003FF555AFB9E7B4F85A10B4F85A20B4F870
:10389800580092B289B2002A3FF4C0AE411A89B2E8
:1038A80000293FF4BBAE53E8002F22F4907243E89E
:1038B80000200028F7D103F1080252E8002F22F077
:1038C800010203F1080545E800200028F3D1202271
:1038D800C4F88020A066206653E8002F22F010026A
:1038E80043E800200028F7D1022363662046FFF74B
:1038F80073FE93E6FFF764FEC4F884508EE600BFBB
:1039080020010004CD35000838B54268974B9A422B
:10391800044600F2AA80A368B3F1805F03D033F4B1
:10392800805340F0B880E36833F4405304D09048A3
:1039380040F63B3100F05EFE236A33F4006304D0A6
:103948008B4840F63C3100F055FE236933F4806221
:1039580003D0B3F5C06F40F0A480636933F00C0264
:103968004FD1002B4DD0A36933F4407304D0804865
:103978004FF4346100F03EFEE16931F4004305D0B4
:1039880040F641317A4800F035FEE1692069A368C4
:103998002268034360691568034376482840034357
:1039A8000B4313605368E068256A23F440530343CC
:1039B80053609068A36920F430602B4303436E483A
:1039C8009360824257D06D4B9A4220D06C4B9A42FA
:1039D80000F09C806B4B9A4200F0AB806A4B9A4295
:1039E80041D103F5E0331B6B03F44003B3F5000F3B
:1039F8007CD000F28180002B59D0B3F5800F14D011
:103A080031E05B4840F63F3100F0F4FDABE703F5E9
:103A1800E6331B6B03F44033B3F5003F66D00FD891
:103A2800002B44D0B3F5803F1DD1B1F5004F44D0F1
:103A3800FEF7BCFB60B900200023C4E91A3338BD87
:103A4800B3F5403F0FD1B1F5004F00F087804F48E4
:103A580063684FF6EF7200EB5300B0FBF3F0A0F190
:103A6800100393424FD90120E6E7414840F6393127
:103A780000F0C0FD4FE7464B1B6B03F00303022B1E
:103A880034D0032BDFD0012BCFD0B1F5004F37D086
:103A9800FEF7DAFCCEE7364840F63A3100F0AAFDE8
:103AA80041E7334840F63E3100F0A4FD55E7B1F553
:103AB800004F58D0FEF7B0FCBCE7FEF777FB0028B4
:103AC800B9D0400063684FF6EF7200EB5300B0FBCB
:103AD800F3F3A3F110019142C5D823F00F02216836
:103AE80092B2C3F342031343CB60A4E7B1F5004F8E
:103AF80036D04FF40040ABE7B3F5400FA3D0B2E7A0
:103B0800FEF7A2FCDBE72368D86094E703F5E4330B
:103B18001B6B03F44023B3F5002FE7D005D8002B27
:103B2800C5D0B3F5802F80D09DE7B3F5402F8AD05C
:103B380099E703F5E2331B6B03F44013B3F5001F59
:103B4800D4D006D8002BB2D0B3F5801F3FF46DAFA8
:103B580089E7B3F5401F3FF476AF84E70D48B1E736
:103B68004FF48030AEE7FEF757FCA8E740548900D1
:103B78005C550008F369FFEF00380140004400403D
:103B880000480040004C00400050004000127A00FD
:103B9800001002400024F400436AFF2B10B50446CD
:103BA80000F295801A070AD5616B31F4004240F0A3
:103BB8009D802068426822F400420A434260D80788
:103BC8000AD5A16A31F4003240F098802068426832
:103BD80022F400320A43426099070AD5E16A31F4B7
:103BE800803240F093802068426822F480320A4391
:103BF80042605A070AD5216B31F4802240F08E804A
:103C08002068426822F480220A434260D8060AD516
:103C1800A16B31F4805240F089802068826822F4D8
:103C280080520A438260990609D5E16B31F400524B
:103C380054D12068826822F400520A4382605A06EE
:103C48002BD52368464A93420CD0A2F5744293427E
:103C580008D002F58062934204D0424840F6F13120
:103C680000F0C8FC236C5BB3B3F5801F66D12268F3
:103C7800536843F480135360606C30F4C00306D07B
:103C8800384840F6F73100F0B5FC606C226851689E
:103C9800636A21F4C001014351601B060FD5A26C71
:103CA80032F4002305D02F4840F6FF3100F0A2FC83
:103CB800A26C21684B6823F4002313434B6010BDAA
:103CC8002168636A4A6822F480124A60E5E7254859
:103CD80040F6C23100F08EFC636A63E740F6EA31D1
:103CE800204800F087FCE16B636AA2E740F6C73121
:103CF8001C4800F07FFC616B636A5AE740F6CE31DE
:103D0800184800F077FCD4E909315FE740F6D5316F
:103D1800144800F06FFCE16A636A64E740F6DC313E
:103D2800104800F067FC216B636A69E740F6E331ED
:103D38000C4800F05FFCA16B636A6EE740F6F23155
:103D4800084800F057FC2268216C536823F480135C
:103D58000B43B1F5801F53608ED0636A9DE700BFA7
:103D6800003801405C5500082DE9F843089F0D46CE
:103D7800804601681646994601E0781C0AD1CC694C
:103D880035EA04040CBF01240024B442F5D0002015
:103D9800BDE8F883FCF788FAA0EB0900B8421BD805
:103DA800D7B1D8F800100B685A07E8D5802DE6D0AF
:103DB800402DE4D0CC6914F008040FD1CB691B0561
:103DC800DDD54FF400630B624046FFF745FB202327
:103DD800C8F8843088F878400320D9E7082440469A
:103DE8000C62FFF739FB0023C8F8844088F8783064
:103DF8000120CDE770B50446002682B0C0F8846083
:103E0800FCF752FA23681A68120705460FD41B6894
:103E18005B0725D400232022E2671846C4F88020D7
:103E280023666366002384F8783002B070BD6FF0B3
:103E38007E430093324603464FF400112046FFF7B5
:103E480093FF23680028E2D053E8002F22F0800275
:103E580043E800210029F7D12023E3670320E1E7A5
:103E68006FF07E43009300222B464FF480012046DA
:103E7800FFF77AFF0028CDD0236853E8002F22F4FB
:103E8800907243E800210029F7D103F1080252E8B3
:103E9800002F22F0010203F1080040E80021002968
:103EA800F3D12023C4F88030D8E700BF00285DD0C4
:103EB8008269036810B50446002A32D02C4A93421E
:103EC8000CD0A2F57442934208D002F58062934266
:103ED80004D028484FF4967100F08CFBE36F002B58
:103EE8003ED02268616A2423E367136823F0010344
:103EF800136089BB2046FFF707FD01282AD02368F5
:103F08005A6822F490425A609A6822F02A029A600B
:103F18001A6842F0010220461A60BDE81040FFF717
:103F280069BF134A9342D9D0A2F574429342D5D0BF
:103F380002F580629342D1D002F580629342CDD0DF
:103F480002F580629342C9D00A4840F2311100F06C
:103F580051FBC3E7012010BD2046FFF71DFEC9E74E
:103F680084F87830204600F027FDBAE70120704732
:103F7800003801405C550008704700BF0000000091
:103F880000B52022A7B000210DEB020001F058F97E
:103F98000021582210A8CDE90111CDE9031105919E
:103FA80001F04EF901204FF48031CDE906010220DD
:103FB8004FF48031CDE90C0101224FF4E01306A83B
:103FC80009920E93FDF7A0FD08B172B6FEE70F2225
:103FD80003460221019201A84FF48062CDE9021341
:103FE800CDE90423FEF704F9034608B172B6FEE7EB
:103FF8009FED097B0A4A109210A88DED1E7B129343
:104008002093FEF739FA08B172B6FEE727B05DF8DB
:1040180004FB00BFAFF300800000000000000000B8
:10402800012030002DE9F04F002495B0FCF71EF96F
:10403800FFF7A6FFCDE90E44CDE91044AE4D12942A
:104048006B69AE4843F400236B616B6903F400238A
:104058000693069B6B6943F480036B616B6903F4F9
:1040680080030793079B6B6943F400336B616B69AB
:1040780003F400330893089B6B6943F480236B6156
:104088006B6903F480230993099B6B6943F48013DC
:104098006B616B6903F480134FF474610A932246D1
:1040A8000A9BFDF719FC224695488021FDF714FC70
:1040B800032643F2BB03914810940EA9CDE90E36AE
:1040C800FDF762FA49F60B130EA94FF09040CDE9BF
:1040D8000F640E93FDF758FA46F2703388480E9332
:1040E8000EA90127CDE90F64FDF74EFA4FF474636A
:1040F80082480EA9CDE90E37CDE91044FDF744FA00
:1041080080480F960EA904264FF0800810940E964A
:10411800FDF73AFA7A4811940EA9CDE90F74CDF853
:104128003880FDF731FA6B6943F002036B616B6904
:1041380003F002030493049B6B693B436B616B6957
:10414800714D3B402246214605930C20059BFCF708
:104158008DFF0C20FCF7D0FF224621463920FCF7C2
:1041680085FF3920FCF7C8FF684B2B6028463323AE
:10417800CDE90E44CDE91044CDE90B44C5E901442D
:10418800C5F818800D942C61EB60FEF73FFF08B16D
:1041980072B6FEE74FF480590EA92846CDF838903C
:1041A800FEF742FC08B172B6FEE70D9020232846C0
:1041B8000BA90B93FFF786F808B172B6FEE7544DCA
:1041C800544B2861C5E908004FF0400B4FF00C0A2A
:1041D8004FF440382846C5E9003BC5F80CA0C5F89F
:1041E8001C80FDF793FB88B94B4C4C4B2061C4E90C
:1041F80008002046C4F804B0C4F80CA0C4F81C8019
:104208002360FDF783FB18B172B6FEE772B6FEE7CE
:10421800DFF81C81424BC8F80400C8E90206C8F858
:104228001000C8F824004046C8F80030FDF76EFBBF
:1042380008B172B6FEE7DFF8FCA03A4B0D90CDE965
:104248000E00CDE91000CDE90B00CAE90100CAF85B
:104258001000CAF81800CAF8003050464FF422730C
:10426800CAF80C30FEF7D2FE08B172B6FEE70EA906
:104278005046CDF83890FEF7D7FB034608B172B622
:10428800FEE750460BA90B930D93FFF71BF8034667
:1042980008B172B6FEE7CDE90E00CDE91000CDE910
:1042A8001200214821498360C0E90A73036180F83C
:1042B8002030C36080F83030038343634FF4003309
:1042C800C0E900134661C761FCF794F808B172B6FB
:1042D800FEE70023CDE911331393012708234FF09C
:1042E80006091148CDF840900EA9CDE90E37FCF724
:1042F80083FB08B372B6FEE70010024000080048CE
:1043080000040048000C00489C0100200004004004
:104318009C0200203C00014068020020400001404F
:1043280044000140000800407803002000010050CC
:1043380034020020500100209F4E0D904FF0804322
:10434800336040F23713CDE90E00CDE91000CDE916
:104358000B00C6E901003061F36030468023B36189
:10436800FEF754FE08B172B6FEE74FF480530EA96B
:1043780030460E93FEF758FB08B172B6FEE70D9073
:104388004FF0200A0BA93046CDF82CA0FEF79AFF73
:1043980008B172B6FEE7DFF844B2884A1090CDE95A
:1043A8000E005846CBF80020FCF7D4FE024608B1B0
:1043B80072B6FEE758460EA9CDE90E22FCF7EEFECE
:1043C800034608B172B6FEE77D48DFF814E20361E0
:1043D800C0E90233C0E9063303624FF4E133C0E9B0
:1043E80000E30C2343614FF40053C0F824A0C363D7
:1043F800FFF75CFD08B172B6FEE7DFF8E8A113909D
:104408004FF400334FF0A04CCDE90B00CDE90D007F
:10441800CDE90F00CDE91100CAE90A70CAE900C365
:10442800CAF80800CAF810008AF82000CAF80C0078
:104438008AF83000AAF81800CAF834000423504655
:10444800CAF81C70CAF81430FBF7D4FF08B172B66A
:10445800FEE70B900BA95046FCF71EFD034608B17A
:1044680072B6FEE7CDE911331393504610230EA917
:10447800CDE90F790E93FCF7BFFA08B172B6FEE7E3
:10448800504F0023CDE90E33CDE91033CDE90B337E
:10449800C7E90133C7E904330D93BB614A4B3B605D
:1044A80038464FF6FF73FB60FEF7B0FD08B172B6F1
:1044B800FEE74FF480530EA938460E93FEF7B4FA80
:1044C80008B172B6FEE708213846FEF74DFE0346EE
:1044D80008B172B6FEE70BA93846CDE90B330D9348
:1044E800FEF7F0FE08B172B6FEE7384F384AB860FA
:1044F8004FF40033C7E900234FF480614FF4807311
:10450800CDE90E00CDE91000CDE91200C7E90A3166
:104518003861042387F82000F860388378634FF007
:10452800010938467B61C7F81C9087F83090FBF783
:1045380061FF034608B172B6FEE7CDE91033CDE955
:1045480012330EA905233846CDF83C900E93FCF79C
:1045580053FA08B172B6FEE7D8F800202868136845
:10456800DFF88480DFF88490154F1A4D03F00C01B2
:1045780004291CBF23F00C0343F0040313601368E1
:10458800216843F0010313600368134A43F00103F1
:1045980003600B6843F001030B60936843F0010369
:1045A8009360CDE90186094800944B463A4629466E
:1045B80000F018FEF5E700BFE80100200074004095
:1045C80038000020040100200034014028030020A6
:1045D800000500509C010020002004E0D0020020CB
:1045E80000380140C8030020C00000209C020020C1
:1045F80072B6FEE7704700BF0B4B9A6942F00102A2
:104608009A619A6982B002F001020092009ADA690E
:1046180042F08052DA61DB6903F080530193019B19
:10462800052002B0FCF704BD0010024070B5036815
:104638008CB00024B3F1A04FCDE90644CDE908447D
:104648000A9421D0454A934204D0454A93424CD01B
:104658000CB070BD434A13680133012B136039D085
:10466800414B42485A6942F400225A615B6903F49B
:10467800002303930424032506A9CDE90645039BDB
:10468800FCF782FF0CB070BD364A13680133012B6A
:10469800136014D0344B5A6942F400325A615B6992
:1046A80003F4003301930424032506A94FF0904036
:1046B800CDE90645019BFCF767FF0CB070BD2A4B9E
:1046C8005A6942F080525A615B6903F08053009343
:1046D800009BDFE7244B5A6942F080525A615B69BC
:1046E80003F080530293029BBAE71F4B204E5A698E
:1046F80042F000525A615A6902F000520492049A38
:104708005A6942F480225A615B6903F48023059355
:104718004FF4004206A9032305461648CDE90623AF
:10472800059BFCF731FF144BB4608022C6E90034C6
:104738004FF48073C6E903234FF4806120224FF4BD
:1047480040533046C6E90512F361FCF77FFD10B906
:10475800AE6375627CE7FFF74BFFF9E70001005095
:10476800000500501804002000100240000800480E
:10477800E4020020000400481C040240000000007D
:1047880000B51B4A016889B000239142CDE9023384
:10479800CDE90433069302D009B05DF804FB03F1B8
:1047A800804303F504339FED107BDA6942F0005231
:1047B800DA61DA6902F000520092009A5A6942F40A
:1047C80000325A615B6903F40033019302A94FF088
:1047D80090408DED027B019BFCF7D6FE09B05DF899
:1047E80004FB00BFAFF300801000000003000000CE
:1047F800007400400000000000B5026834498BB026
:1048080000238A42CDE90433CDE90633089308D062
:10481800304B9A421ED0304B9A4233D00BB05DF8E1
:1048280004FB03F1804303F504339FED237B5A69AE
:1048380042F400325A615B6903F40033019304A91E
:104848004FF090408DED047B019BFCF79DFE0BB073
:104858005DF804FB03F5873303F5E0735A691F48D5
:1048680042F480225A615B699FED157B03F4802333
:10487800029304A98DED047B029BFCF785FE0BB027
:104888005DF804FB03F5873303F5DE735A691348B3
:1048980042F480225A615B699FED0B7B03F480230D
:1048A800039304A98DED047B039BFCF76DFE0BB00D
:1048B8005DF804FBAFF30080E00000000300000097
:1048C8000700000003000000001C000003000000B7
:1048D8003C00014040000140440001400004004801
:1048E80030B50368B3F1804F85B022D02C4A93428B
:1048F80007D02C4A934210D02B4A934241D005B09E
:1049080030BD2A4BDA6942F00202DA61DB6903F052
:1049180002030193019B05B030BD244BDA6942F0D4
:104928000402DA61DB6903F004030293029B05B019
:1049380030BD03F504331E4DDA691E4942F0010209
:10494800DA61DB69296003F0010300931021002379
:10495800C5E9011380224FF40073C5E90323044617
:104968004FF40061009820224FF400532846C5E90F
:104978000512EB61FCF76AFC78B925626C6205B038
:1049880030BD0A4B9A6942F400529A619B6903F45C
:1049980000530393039B05B030BDFFF729FEECE7F6
:1049A80000040040000800400034014000100240AC
:1049B800C00000201C00024010B51D4A016888B0E4
:1049C80000239142CDE90233CDE90433069301D0A7
:1049D80008B010BD03F1804303F50433032498693C
:1049E80040F480409861986900F480400090009AF3
:1049F800586940F4003058615B69059403F400334A
:104A080001934FF4C0620223CDE9022302A90723D0
:104A18004FF090400693019AFCF7B6FD22462146D6
:104A28002520FCF723FB2520FCF766FB08B010BD0A
:104A380000380140FBF72CBC0148FCF75BBD00BF08
:104A4800C00000200148FEF7C9BD00BF38000020A3
:104A58000148FCF74FBD00BFE40200201548164B83
:104A6800D0F88810154A41F4700110B4C0F88810C5
:104A78001868134940F0010018605C6822405A60C9
:104A88001A685DF8044B22F0847222F480321A60AE
:104A98001A6822F480221A605A6822F4FE025A60C8
:104AA800DA6A22F00F02DA621A6B002011401963E9
:104AB8009860704700ED00E0001002400CC07FF8DD
:104AC800CCFC00FF01607047844600B5F020E64644
:104AD8008CF804005EF8040BACF80510ACF807205D
:104AE8007146ACF809305DF804EB0722FEF732BDD9
:104AF80003468446F82018710020A3F809005CF8E2
:104B0800040BA3F80510A3F8072061460722FEF757
:104B180021BD00BFF8B50D460021C0E902314FF0B4
:104B2800FF33C0E90052C0E90A3316466423052260
:104B3800C0E90C11C0E91011C0E91211C0E9052340
:104B4800017441628163044640F6340343F2BC4079
:104B5800C4E907030B4F4FF48053E36342F2283351
:104B6800236548F6A042384600F06AFB3046FDF758
:104B7800EDFE44F2506239462846FBF77BFE20469C
:104B8800F8BD00BF20040020F8B5484E484D044643
:104B9800E368226D012B36F812103AD0022B25D08B
:104BA800D3B12B68012B06D02B68022B0BD02B68B6
:104BB800032BEDD1F8BD226D42F227339A42F3DD83
:104BC80000232B60F8BD226D44F24F639A42EEDD5C
:104BD80000232B602365F8BD236A8B42B8BF0123ED
:104BE80002F10302B8BFE3602265DAE7E369002B4C
:104BF80050DD30491A4481FB0231D317C3EB6133CE
:104C080044F2506101FB132300222365E2602A600D
:104C1800F8BDA06CA769236B0130B842A0642FDDF2
:104C2800207C616BA26BB0B144F2506C0CFB021299
:104C3800206C616C0CFB0100104400EBD0701D4A25
:104C48004FEA600E82FB0E12C017C0EB62310CFBFC
:104C580011E1C0EB6232C4E90931E2629BB2A0689B
:104C6800FFF732FF00234FF48052C4E90E320222CC
:104C7800E260C4E90C33C4E91033226DA36406E092
:104C880099420ADD0C4B21631B686263A3630132FE
:104C9800226586E744F25063B6E7E36B8B42F6DDA4
:104CA800054BE1631B6822646364F0E7200400207D
:104CB8000C0000206B2982741C04002070B5294E5A
:104CC8003368022B05460C460DD0032B25D0012B4B
:104CD8001AD0D4E90A214FF0FF33C5E90021C4E90D
:104CE8000A33284670BD0A6D42F227339A4210DC17
:104CF800A26AE16A002333604FF0FF33C5E900215F
:104D0800C4E90A33284670BD0A6D42F227339A4235
:104D1800EEDC2046FFF738FFDBE7134BA0681A6884
:104D2800096DFFF7E5FE216D002342F2283291421A
:104D3800D8BF1A4622654FF480514FF0FF32C4E9BC
:104D48000E31C4E90C33C4E91033C4E912333360BB
:104D5800E36011464FF0FF33C5E90021C4E90A3387
:104D6800284670BD0C0000201C0400200C490D488A
:104D78000B6801335A42C2F30E02C3F30E0358BF45
:104D880053420B600368012B03D0022B01D01BB1E7
:104D9800704703230360704701230360704700BF17
:104DA8001C0400200C000020064A1368012B03D0C5
:104DB800022B01D01BB170470323136070470223F5
:104DC800136070470C000020C0E90012704700BF54
:104DD8000239062919D8DFE801F0192E3A4F5B701D
:104DE8000400D0E9002312681B68116841F470318F
:104DF8001160116821F4403111601A6842F4703270
:104E08001A601A6822F440321A607047D0E9002309
:104E180012681B68116841F470311160116821F43F
:104E2800703111601A6842F470321A601A6822F4FC
:104E380070321A607047D0E9002312681B68116845
:104E480041F470311160116821F46031E9E7D0E96B
:104E5800002312681B68116841F4703111601168F1
:104E680021F4603111601A6842F470321A601A68CD
:104E780022F460321A607047D0E9002312681B6878
:104E8800116841F470311160116821F45031E9E77B
:104E9800D0E9002312681B68116841F47031116071
:104EA800116821F4503111601A6842F470321A60A6
:104EB8001A6822F450321A607047D0E90023126849
:104EC8001B68116841F470311160116821F4403198
:104ED800E9E700BF164B1B7810B50BBB154A1648FF
:104EE800136801335942C1F30E01C3F30E034FF0A7
:104EF800000458BF4B421149136004600B68012B32
:104F080002DC0B6801330B600D4913680A6893FBD8
:104F1800F2F102FB113313B90A4B01221A7010BDCA
:104F2800094801224FF40071FCF7D6FCD6E700BF10
:104F3800C0900020C890002014000020100000201D
:104F4800C4900020C19000200008004808B50B4B11
:104F58001B785BB90A4A0B4B012111601A688A4217
:104F680000DD08BD1A680A441A6008BD0648002218
:104F78004FF40071FCF7B0FCECE700BFC0900020D4
:104F880014000020100000200008004870B50546F5
:104F980008461646144A82624FF0FF330422C5E9D8
:104FA8000233AA612B610622104B1149EA61C5E957
:104FB800000600220F4CC1622A75191D4FF48002A9
:104FC80043F8042FA342FBD10B4A40F6B833FCF751
:104FD800FBF93046FDF7BAFC4FF080422846D3680B
:104FE80043F48073D36070BD554F0008C89000200B
:104FF800DD4E0008A8BF002018080048024A012317
:1050080011600375704700BFC49000202DE9F04778
:10501800274C94F8008007460E46B8F1000F28D1B7
:1050280085696D00002D38DDDFF890A0DFF89090DD
:105038000023402040F6B8319A1C89FB02C44FEA8D
:10504800E27E06EB030CCEEBA41301FB1323AB4269
:105058004AF82C00F0DB1748B96839614FF0FF3384
:105068000022C7E902330260B8F1000F0ED1BDE893
:10507800F087114801224FF48061FCF72DFCBD69CF
:1050880094F800806D00002DCEDCE4E7BDE8F04721
:1050980009484FF48061FCF71FBC064AB9683961BA
:1050A8004FF0FF33C7E90233C2F80080DFE700BFE3
:1050B800C09000201000002000080048CC9000207C
:1050C800F11976052DE9F047224C94F8008007463F
:1050D8000E46B8F1000F23D185696D00002D34DD2F
:1050E800DFF878A0DFF8789000234FF4800040F6CE
:1050F800B8319A1C89FB02C44FEAE27E06EB030C26
:10510800CEEBA41301FB1323AB424AF82C00F0DBCF
:105118004FF0FF333B61B8F1000F0ED1BDE8F087C7
:105128000D4801224FF48071FCF7D6FBBD6994F855
:1051380000806D00002DD3DCEAE7BDE8F0470648A3
:1051480000224FF48071FCF7C7BB4FF0FF330361B7
:10515800E4E700BFC090002000080048CC90002081
:10516800F119760520B5037D82B06BB9194D016937
:10517800002903DB184B1B68022B1FD02B68C26861
:105188009A420CD002B020BD144B124D1A78002A56
:10519800EDD029680022C0E902211A70E7E7104B18
:1051A8001B6883B1012BEDD1816840F2DB53994232
:1051B800E8DD02B0BDE82040FFF728BF0190FFF707
:1051C80081FF0198DAE7816840F2DB539942D9DC24
:1051D800EFE700BFC890002010000020C190002019
:1051E8001400002000B5A5B01E460D460446114621
:1051F80004A8FFF767FC269A314602A8FFF7E4FDEA
:1052080008210DEB0100FFF7E3FD04AB2A46214618
:105218000FA8FFF77FFCDDE92712012307A88DF807
:105228004C30FFF7B3FE0A2107A8FFF7E7FE6846F0
:105238000FA9FFF743FD07A8FFF794FFF7E700BFA3
:1052480002440346934200D1704703F8011BF9E773
:1052580070B50D4D0D4C641BA4100026A64209D153
:105268000B4D0C4C00F018F8641BA4100026A64245
:1052780005D170BD55F8043B98470136EEE755F85F
:10528800043B98470136F2E7B0550008B0550008CE
:10529800B0550008B4550008F8B500BFF8BC08BC04
:1052A8009E467047F8B500BFF8BC08BC9E467047DC
:1052B8002E2E2F447269766572732F53544D3332F4
:1052C800463378785F48414C5F4472697665722F3F
:1052D8005372632F73746D3332663378785F686105
:1052E8006C5F6164635F65782E6300002E2E2F4427
:1052F8007269766572732F53544D3332463378781A
:105308005F48414C5F4472697665722F5372632F10
:1053180073746D3332663378785F68616C5F636F7E
:10532800727465782E6300002E2E2F44726976659C
:1053380072732F53544D3332463378785F48414C5B
:105348005F4472697665722F5372632F73746D337D
:1053580032663378785F68616C5F6461632E6300DE
:105368002E2E2F447269766572732F53544D333243
:10537800463378785F48414C5F4472697665722F8E
:105388005372632F73746D3332663378785F686154
:105398006C5F6461635F65782E6300002E2E2F4476
:1053A8007269766572732F53544D33324633787869
:1053B8005F48414C5F4472697665722F5372632F60
:1053C80073746D3332663378785F68616C5F646DCF
:1053D800612E63002E2E2F447269766572732F53E7
:1053E800544D3332463378785F48414C5F44726994
:1053F8007665722F5372632F73746D333266337808
:10540800785F68616C5F6770696F2E6300000000E9
:105418002E2E2F447269766572732F53544D333292
:10542800463378785F48414C5F4472697665722FDD
:105438005372632F73746D3332663378785F6861A3
:105448006C5F6F70616D702E630000002E2E2F440C
:105458007269766572732F53544D333246337878B8
:105468005F48414C5F4472697665722F5372632FAF
:1054780073746D3332663378785F68616C5F72631A
:10548800632E63000102030405060708090A0B0CD2
:105498000D0E0F1002030405060708090A0B0C0D70
:1054A8000E0F10102E2E2F447269766572732F53CB
:1054B800544D3332463378785F48414C5F447269C3
:1054C8007665722F5372632F73746D333266337837
:1054D800785F68616C5F7263635F65782E63000054
:1054E8002E2E2F447269766572732F53544D3332C2
:1054F800463378785F48414C5F4472697665722F0D
:105508005372632F73746D3332663378785F6861D2
:105518006C5F74696D2E63002E2E2F447269766558
:1055280072732F53544D3332463378785F48414C69
:105538005F4472697665722F5372632F73746D338B
:1055480032663378785F68616C5F74696D5F65781F
:105558002E6300002E2E2F447269766572732F53C6
:10556800544D3332463378785F48414C5F44726912
:105578007665722F5372632F73746D333266337886
:10558800785F68616C5F756172742E63000000005B
:1055980000000000010203040000000000000000F9
:0855A8000102030406070809D3
:0455B000BD01000831
:0455B4009901000851
:1055B800010000001000000000127A000200000044
:0855C8000200000001000000D8
:04000005080001D915
:00000001FF
