:020000040800F2
:1000000000000120D9010008290200082902000887
:100010002902000829020008290200080000000047
:10002000000000000000000000000000290200089D
:10003000290200080000000029020008B54C000851
:1000400029020008290200082902000829020008E4
:1000500029020008290200082902000829020008D4
:1000600029020008290200082902000829020008C4
:10007000B94C0008290200082902000829020008DA
:1000800029020008290200082902000829020008A4
:100090002902000829020008290200082902000894
:1000A0002902000829020008290200082902000884
:1000B0002902000829020008290200082902000874
:1000C0002902000829020008290200082902000864
:1000D0002902000829020008C54C0008290200086E
:1000E0002902000829020008290200082902000844
:1000F0002902000829020008290200082902000834
:100100002902000800000000000000002902000889
:100110002902000829020008290200082902000813
:1001200029020008D14C0008290200082902000811
:100130002902000829020008000000000000000059
:100140002902000829020008290200080000000016
:10015000000000000000000000000000000000009F
:1001600029020008290200082902000829020008C3
:1001700029020008290200082902000829020008B3
:100180002902000829020008000000000000000009
:040190002902000838
:1001980010B5054C237833B9044B13B10448AFF3B9
:1001A80000800123237010BD2400002000000000FF
:1001B8002454000808B5034B1BB103490348AFF3A7
:1001C800008008BD0000000028000020245400081A
:1001D800DFF834D004F07EFD0C480D490D4A0023A9
:1001E80002E0D458C4500433C4188C42F9D30A4AE4
:1001F8000A4C002301E013600432A242FBD305F04D
:10020800E9F804F05FF8FEE7000001200000002094
:10021800240000203C5700082400002070C0002063
:10022800FEE7000038B50E4A0E4B127805461868EE
:100238004FF47A73B3FBF2F3B0FBF3F000F094FFE2
:1002480008B90F2D01D9012038BD044602462946B8
:100258004FF0FF3000F02EFF034B20461D6038BDE5
:10026800000000200800002004000020074A08B50C
:10027800136843F010031360032000F0FDFE002014
:10028800FFF7D0FF04F004FB002008BD0020024067
:10029800034A044B11681B780B441360704700BF76
:1002A8004000002000000020014B1868704700BF84
:1002B80040000020704700BF026838B5936803F01B
:1002C8000303012B01D0002038BD1368DC07FAD5E1
:1002D800936803F00D03012B044609D0236C43F007
:1002E80010032364636C43F001036364012038BD89
:1002F8009368032143F0020393601160FFF7D4FF72
:1003080023689B68D9070546DDD5FFF7CDFF401B5D
:100318000228236802D99A68D207DFD49B68DB07D2
:10032800F3D4D0E7026838B5936803F00303012BD0
:10033800044626D09168154B194209D0236C43F026
:1003480010032364636C43F001036364012038BD28
:10035800936843F001039360FFF7A6FF23680546FF
:100368001B68D9070BD4FFF79FFF431B022B236899
:10037800F6D91A68D207E1D51B68D907F3D500204A
:1003880038BD1368D807D5D50020F9E73F000080AD
:10039800406A036C43F040030364436C43F0040376
:1003A8004364FFF787BF00BF406A04F0E5BD00BFA4
:1003B800436A1A6C12F0500F18D11A6C196842F47B
:1003C80000721A64CA6812F4406F0CD15A7E52B98E
:1003D8001A6C22F480721A641A6CD20403D41A6C50
:1003E80042F001021A64184604F0E4BD9B6B1B6BD3
:1003F800184700BF30B597B000230193002800F0DC
:10040800A8800368B3F1A04F04460ED0A74A9342D0
:100418000BD002F54072934207D002F580729342E6
:1004280003D0A348F22104F031FA636833F440336F
:1004380003D09F48F32104F029FAA36843B1182B8D
:1004480000F25C819B4A22FA03F3DD0740F15681F2
:10045800E36833F0200303D09548F52104F016FA39
:100468002369012B00F2F880637E012B00F2EA80F9
:10047800E36A33F4406303D08D48F82104F006FAA8
:10048800A36A012B25D923F08002402A21D023F426
:100498000072B2F5E07F1CD023F41072B2F5807FB1
:1004A80017D023F48072802A13D023F0C002B2F54B
:1004B800007F0ED0B3F5607F0BD0B3F58A5F08D00C
:1004C80023F04003B3F5845F03D07948F92104F0A1
:1004D800DDF994F83030012B00F2D9806369042BE0
:1004E80002D0082B40F0D880636B012B00F2C68045
:1004F800237E012B00F2B98023697BB1E369013BBC
:100508000F2B00F20B8194F82030012B00F2EE80C3
:1005180023B1636A013B072B00F2FA80206C10F0CC
:10052800100019D1256C002D00F0FE8023689A6810
:10053800D20040F1C9809A68950000F1C580226C0C
:10054800D10600D460B1236C23F0120343F01003EA
:100558002364012017B030BD236CD806F3D4236878
:100568009A685207EFD4226C22F4817242F0020298
:10057800B3F1A04F22644D4A00F04D81934200F040
:10058800518102F54072934200F0DC804A498B4267
:1005980000F05A819A6802F00302012A00F056819D
:1005A80046488268616822F440320A438260D4E98E
:1005B80002120A43616B607E013918BF012142EAC9
:1005C800403242EA013294F82010012900F0FE80FE
:1005D800A16A01290ED03A48834200F0078100F54C
:1005E8008070834200F0028121F48051E06A104358
:1005F80040EA0102996811F00C0F0CD1D96821F476
:10060800804121F00201D96094F83010207E490021
:1006180041EA80310A43D8682A49014020691143D8
:100628000128D96000F0DA801A6B22F00F021A63F1
:1006380000206064236C23F0030343F00103236468
:1006480017B030BD1A48F72104F020F9E36A33F4F3
:1006580040633FF415AF0FE71548F62104F016F98B
:10066800637E012B7FF604AFECE71148FD2104F00F
:100678000DF92369002B3FF451AF3FE70C48FC21EB
:1006880004F004F9237E012B7FF636AFEDE7084826
:10069800FA2104F0FBF821E70548FB2104F0F6F8FD
:1006A800636B012B7FF624AFE8E700BF0001005021
:1006B8003C540008000101010005005000070050EB
:1006C8000004005007C0F0FF236C23F0120343F02E
:1006D80010032364636C43F001036364236C236C8D
:1006E80023F0120343F01003236432E760484FF409
:1006F800817104F0CBF894F8203009E75C48F421C4
:1007080004F0C4F8E36833F020033FF4A9AEA3E68D
:10071800574840F2051104F0B9F8FFE6544840F292
:10072800011104F0B3F8EEE6C4E91255656484F8E3
:100738003C50204604F0C6F823689A68D10014D5C6
:100748002846F4E64B4A4C489968029201F00301A6
:10075800012962D0916801F0030101297FF421AFDA
:100768001268D5073FF523AF1BE72046FFF7A4FD26
:10077800236C13F0100F23687FF4D9AE00287FF4A0
:10078800D6AE226C3D4D22F4885222F0020242F08D
:100798000202226499682A6821F040519960996898
:1007A80041F0805199603649A1FB0212920C02EB8C
:1007B800820252000192019A002A3FF4B8AE019ACF
:1007C800013A0192019A002AF9D1B0E670BB616A38
:1007D800013942EA414141F48032F9E6196BE26994
:1007E80021F00F01013A0A431A6321E7B1F5307F7E
:1007F80027D0B1F5807F2ED0B1F5E07F2ED0B1F5AE
:100808008A5F2ED0B1F5845F2ED0B1F5865F08BF20
:100818004FF4C071EAE61B4896E71968C9073FF527
:10082800C6AE97E717484FF0A0428DE7216C21F03C
:10083800220141F020012164616C41F001016164F1
:10084800C6E64FF4E071D1E60B487DE71A68D00799
:100858003FF5ADAEA4E64FF43071C7E64FF48071B2
:10086800C4E64FF47071C1E64FF4A071BEE600BF54
:100878003C54000800050050000700500800002004
:1008880083DE1B4300030050F8B504460068B0F14E
:10089800A04F0F46164610D0544B98420DD003F582
:1008A8004073984209D003F58073984205D05048A8
:1008B80040F65B1103F0EAFF206885686D0721D4D4
:1008C80094F83C30012B1DD00123B0F1A04F84F8DF
:1008D8003C300FD0454B98420CD0464B9B6813F0E8
:1008E8001F0F0CBF012300237BB984F83C3001257E
:1008F8002846F8BD404B9B6813F01F0F0CBF01231F
:100908000023F1E702252846F8BD2046FFF70AFD37
:10091800054600284CD1236C216823F4706323F02A
:10092800010343F48073B1F1A04F236453D02F4BDC
:10093800994241D02F4B9B68DA064ED02F4A9142FC
:100948004BD0236C43F480132364D368C3F3406310
:100958002BB1236C23F4405343F480532364236C5A
:10096800A06BDFF8A4C013F480531CBF636C23F0A2
:10097800060363643A4633464FF0000E204E214F7B
:1009880084F83CE006631C26C0E90AC70E604E687E
:1009980046F010064E60CE6846F00106CE60403143
:1009A80000F02EFD2268936843F0040393609FE7EC
:1009B800002384F83C309BE703F500739B68D80656
:1009C8000BD0236C43F4801323644FF0A043DB68FF
:1009D800C3F34063BCE7084B9B68236C23F4801384
:1009E8002364CB689B01BAD5B3E700BF0001005070
:1009F8003C54000800070050000300500004005059
:100A080099030008B1030008B903000870B503682A
:100A180096B00022B3F1A04F054601920C460FD0C4
:100A2800A94A93420CD002F54072934208D002F5CD
:100A38008072934204D0A54841F2B85103F026FFD2
:100A48006368013B0F2B00F20981A368072B00F2B2
:100A58000E81E368012B04D99C4841F2BB5103F095
:100A680015FF2369042B00F2F3802B68DA6812F073
:100A7800180F53D16269B2F5805F4FD2E2682368DC
:100A8800012A03F1FF3367D0112B00F2918095F80A
:100A98003C30012B6BD001222B6885F83C209A68EA
:100AA80052076AD46068216800EB400204284FEAC4
:100AB800420200F2E280186B4FF01F0C0CFA02FCA5
:100AC80020EA0C0001FA02F202431A639A6812F053
:100AD8000C0F7BD10929A26801EB410000F2E880E4
:100AE8005E694FF0070C82400CFA00F026EA00001D
:100AF80002435A612069DA6800F1FF3CC2F3C1027F
:100B08006069520090408A06BCF1030F00F2B2817E
:100B1800DFE81CF054005C0153014A01DA6802F076
:100B28001802082A33D0DA6802F01802102A00F0F6
:100B3800DD80DB6803F01803182B02D163693F2BB3
:100B48009CD9624841F2BD5103F0A0FEE2682368D7
:100B5800012A03F1FF3397D10D2B98D95B4841F255
:100B6800C95103F093FE95F83C30012B93D1022034
:100B780016B070BD1C68E40759D52B6C43F02003F0
:100B88002B640120002385F83C3016B070BD6269E3
:100B9800B2F5806FFFF472AFDA6802F01802102A1B
:100BA800C7D14A48DB6841F2BD5103F06FFECDE77B
:100BB800464841F2C55103F069FE68E71E6E1043CE
:100BC800434A3240024342F000421A669A6802F0F1
:100BD8000302012A00F08F80E0680122012802FA4E
:100BE80001F200F08E80D3F8B00020EA0202C3F8C8
:100BF800B020B3F1A04F00F09980334A93426BD0F4
:100C0800102900F0B280112900F0E980314A122938
:100C180075D19068440272D4B3F1A04F40F0E380DC
:100C280029489C68029004F00304012CA2D084682F
:100C380004F00304012C00F0EE80102900F0F0808D
:100C4800112900F0DA80936843F48003936056E03A
:100C58001E4841F2BC5103F019FE06E71B4841F259
:100C6800B95103F013FEA368072B7FF6F2AE1748BD
:100C780041F2BA5103F00AFEEBE609280DD90E2815
:100C880000F28780986B3C3A1F26964020EA0600BF
:100C980001FA02F202439A6318E7586B1E3A1F26BC
:100CA800964020EA060001FA02F202435A630DE771
:100CB8009E691E384FF0070C82400CFA00F026EAB5
:100CC800000002439A6115E7000100503C540008F7
:100CD80000F0FF830007005010297B4A00F089804C
:100CE800112994D19068C6017DD508E06269FF2A70
:100CF8007FF6C4AE55E71A68D6077FF56DAF0020BA
:100D080040E7D3F8B000A46802430929C3F8B0202B
:100D180017D901EB41009A691B380726844006FA67
:100D280000F022EA000222439A6162E71029664A2B
:100D38006CD011297FF46BAF9068C0017FF570AF5C
:100D4800DDE7481C5A6900EB40000726844006FA94
:100D580000F022EA00022243B3F1A04F5A61CED03C
:100D68005A4A93427FF452AFC9E7594A9068000241
:100D7800C5D45848834270D0574CA3423FF451AF72
:100D8800986800F00300012869D010297FF458AF53
:100D9800B5E7D86B5A3A1F26964020EA060001FAB2
:100DA80002F20243DA6391E6DE6E10434B4A3240A8
:100DB800024342F00042DA6608E79E6E1043474A53
:100DC8003240024342F000429A66FFE65E6E1043EC
:100DD800424A3240024342F000425A66F6E63C4A32
:100DE8009068C4018BD439488342C2D14FF0A040E7
:100DF80017E790680402F9D581E7B3F1A04F7FF4B3
:100E08007EAF936843F08073936078E7906806023A
:100E18007FF506AF73E70068C0073FF5AEAE0CE795
:100E2800B3F1A04F7FF46BAF2D4B2E481B68916830
:100E3800A0FB03039B0C03EB83035B0041F400015D
:100E480091600193019B002B3FF459AF019B013B3B
:100E58000193019B002BF9D151E71F48E1E61B687C
:100E6800DE073FF58AAE10293FF449AF11297FF418
:100E7800EAAE44E7186E00F0F840904214D0586E7D
:100E880000F0F840904214D0986E00F0F84090427C
:100E980014D0D86E00F0F84090427FF497AEDA6E26
:100EA80022F00042DA6691E6186E20F000401866DB
:100EB800E5E7586E20F000405866E5E7986E20F0A8
:100EC80000409866E5E700BF0003005000010050AD
:100ED80000070050000400500005005000F0FF8398
:100EE8000800002083DE1B43F8B50368B3F1A04F68
:100EF80004460D4607D05A4A934204D0594841F651
:100F0800953103F0C3FC2B68092B73D840F2EF220C
:100F1800DA40D6076ED5D3B16B6833F4004207D0F8
:100F2800B3F5404F04D04F4841F6993103F0AEFC79
:100F3800AB6833F440730AD0B3F5806F07D0B3F5CC
:100F4800006F04D0474841F69A3103F09FFC2368AC
:100F5800454AB3F1A04F0CD0934208D002F5407235
:100F680093424ED041498B4203D00120F8BD4FF047
:100F7800A04294F83C10012948D0012184F83C1083
:100F88009968480708D5236C43F02003012023649F
:100F9800002384F83C30F8BD91684907F3D4B3F1D5
:100FA800A04F4AD0304E32493248B34218BF0146AA
:100FB800286868B38E686F6826F4604C94F83060CF
:100FC80047EA463646EA0C068E609E6806F0030637
:100FD800012E3CD0936803F00303012B2FD08B68BC
:100FE800AA6823F47163104323F00F031843886041
:100FF8000020CDE71B4841F6963103F047FC2B68EB
:1010080089E794F83C10194A0129B6D10220F8BDA5
:10101800886820F460408860986800F00300012820
:1010280019D0936803F00303012B0CD08B6823F4C9
:10103800716323F00F038B60DAE70D49B8E7136893
:10104800DE07D5D4CBE71368DB07D1D4EEE71B68FE
:10105800DF07CDD4BEE71B68D807C9D4E1E700BFD6
:10106800000400503C5400080001005000050050E6
:101078000003005000070050C31E042B10B504469F
:101088000ED80A49CA6823024FF6FF0003F4E0634A
:101098000240134343F0BF6343F40033CB6010BDF9
:1010A8000348AB2103F0F2FBEBE700BF00ED00E0E3
:1010B800785400080F2A70B5164605460C4634D8F1
:1010C8000F2C2DD81B4BDB68C3F30223C3F1070297
:1010D800042A03F1040128BF0422062917D9D91EBE
:1010E8004FF0FF338B4026EA03064FF0FF3393405F
:1010F80024EA03038B4033431B01002DDBB209DBD9
:1011080005F1604505F5614585F8003370BD002699
:101118003146EAE7084A05F00F052A44137670BD00
:101128000648C42103F0B2FBCCE70448C32103F00E
:10113800ADFBC5E700ED00E0FCEC00E078540008EA
:10114800002808DB4109064A00F01F0001238340FC
:1011580042F8213070470348D72103F097BB00BFFE
:1011680000E100E0785400080138B0F1807F01D335
:101178000120704710B44FF0E023074C58614FF03E
:10118800F00C84F823C00022072110469A615DF80C
:10119800044B1961704700BF00ED00E0D8B10F4B58
:1011A80002689A4210B5044604D00D4840F247112F
:1011B80003F06CFB237903F0FF023BB1002302210B
:1011C8000122217123612271184610BD62712046E7
:1011D80003F00EFCF2E70120704700BF00740040E6
:1011E800B45400080B6870B50D46044616464BB15A
:1011F8001C2B36D8032B3DD94FF0103222FA03F3BB
:10120800DB0737D56B6833F0020304D01D4840F282
:10121800163103F03BFB36F0100304D019484FF4A5
:10122800467103F033FB6379012B29D00223237124
:10123800D5E9003022680343116840F6FE70B040DB
:1012480021EA0001B3400B4313601368C021B14089
:10125800002523EA010301211360217165712846E5
:1012680070BD243B182B05D84FF0013222FA03F346
:10127800DA07C7D403484FF4427103F007FBC1E70C
:10128800022070BDEC540008002800F0A78038B593
:10129800534A03689342044625D01432934222D01D
:1012A800143293421FD0143293421CD0143293420A
:1012B80019D01432934216D01432934213D002F547
:1012C800627293420FD0143293420CD0143293427C
:1012D80009D01432934206D01432934203D04148C5
:1012E800932103F0D3FA636833F010025CD1A3684A
:1012F80033F0400303D03B48952103F0C7FAE36875
:1013080033F0800303D03748962103F0BFFA2369EE
:1013180033F4807202D0B3F5007F4DD1636933F4A2
:10132800806202D0B3F5006F4FD1A36933F0200378
:1013380003D02C48992103F0A9FAE06930F440530E
:1013480004D028489A2103F0A1FAE0696368A568E7
:10135800E16822682B430B4321690B4361690B4306
:10136800A1690B4311686FF30D110B431E49034329
:101378008A4213600FD91D4B1D491344A1FB031367
:101388001B091C499B004FF4807200202284C4E989
:101398000F13A06338BD184B15491344A1FB031361
:1013A8001B0916499B00EEE7B3F5804F9FD00D4807
:1013B800942103F06BFA9AE70A48972103F066FA3A
:1013C800636933F48062B0D0ACE70648982103F033
:1013D8005DFAA36933F02003AFD0AAE70120704774
:1013E800080002402855000807040240F8FBFDBF2A
:1013F800CDCCCCCC00040240F8FFFDBF0000024079
:101408002DE9F0415D1E1E464FF6FE739D420446CF
:101418000F46904635D894F82030012B09D0012387
:1014280084F8203094F82130012B05D0002384F86B
:1014380020300220BDE8F081022284F821202568AE
:101448000022A2632A6822F001022A60226C9340DB
:10145800E26B536063686E60102BE36A0BBFC5F8DC
:101468000880AF60EF60C5F80C8083B12B6843F04B
:101478000E032B602B6843F0010300202B60BDE8AE
:10148800F08107484FF4A67103F000FAC3E72B6810
:1014980043F00A032B602B6823F004032B60E9E771
:1014A8002855000848B190F82120022A034606D0A2
:1014B80004210022816380F82020012070470268FF
:1014C800116821F00E0110B4046CC06B1160116832
:1014D80021F0010111600122A2404FF480714260A5
:1014E800198400205DF8044B704700BF90F8212054
:1014F800022A03D00422826301207047026811681F
:1015080021F00E0110B5C46B1160116821F00101C2
:101518001160016C01228A40416B62604FF4807C4B
:10152800A0F820C001B18847002010BD70B4C66B78
:10153800026C31680468042393400B4225680ED07E
:1015480015F0040F0BD02268920603D4226822F00B
:1015580004022260C26A7360CAB170BC10470223D9
:1015680093400B4215D015F0020F12D02268920654
:1015780006D4226822F00A022260012280F8212083
:10158800826A7360002180F82010002AE5D170BCBF
:101598007047082393400B42F9D02B07F7D52368EF
:1015A800016B23F00E032360012303FA02F24FF4C8
:1015B80080747260048483630029E8D070BC084793
:1015C8002DE9F04FB0F1904F85B0064688461ED001
:1015D800B84B98421BD003F58063984217D003F5A7
:1015E8008063984213D003F5806398420FD003F5C7
:1015F800806398420BD003F58063984207D003F5C7
:101608008063984203D0AC48B22103F03FF9D8F880
:1016180000108BB21BB1B1F5803FC0F02981A648FC
:10162800B32103F033F9D8F80430B3F5041F0ED012
:10163800B3F5041F00F22681B3F5881F07D000F226
:101648005A81032B03D9113B012B00F22581D8F8CD
:101658000010002900F0DA80DFF874B2DFF8749225
:1016680000240125A54015EA010300F0CA80D8F836
:10167800040000F003014FEA440A032701F1FF3C8C
:1016880007FA0AF7BCF1010F6FEA070740F2C180B9
:1016980003294ED0D8F80850022D00F2DE80F268F7
:1016A80005FA0AF502EA070C45EA0C050229F56075
:1016B8003FD1B6F1904F1FD07E4A96421CD07F4949
:1016C8008E4219D001F580618E4215D001F58061F6
:1016D8008E4211D001F580618E420DD001F58061F6
:1016E8008E4209D001F580618E4205D0724801937F
:1016F800E22103F0CBF8019BD8F810000C2804D99C
:10170800A0F10E01012900F2CC80E50806EB850561
:1017180004F007012A6A89004FF00F0E88400EFA7C
:1017280001F122EA01010143D8F80400296200F01E
:101738000301356801FA0AF13D40294310F4403F9E
:1017480031605CD0DBF8185045F00105CBF8185033
:10175800DBF8185024F0030101F1804105F0010580
:1017680001F58031039504F0030C039D8D684FEA61
:101778008C0C0F2707FA0CF7B6F1904F25EA0705EE
:101788001BD04C4A964200F0AC804C4FBE4200F051
:10179800AD804B4FBE4200F09F804A4FBE4200F0E2
:1017A800AF80494FBE4200F0B080484FBE420CBFE8
:1017B8000627072707FA0CF73D438D60D9F808106C
:1017C800DD43C70254BF29401943C9F80810D9F8A6
:1017D8000C10820254BF29401943C9F80C10D9F8DB
:1017E8000410870354BF29401943C9F80410D9F8D5
:1017F8000010C20354BF29401943C9F80010D8F893
:101808000010013431FA04F37FF42BAF05B0BDE8C2
:10181800F08FD8F80C20012A0DD9032A0BD02648BE
:101828000193C32103F032F8D8F80400D8F80C204B
:10183800019B00F0030102FA0AFCB26802EA070EF3
:101848004CEA0E02B260726822EA050CC0F3001579
:10185800A54045EA0C0575601AE717480193D4219D
:1018680003F014F8D8E90105019B00F0030116E71D
:10187800D8F80430B3F5041F3FF4EEAEB3F5041FF7
:101888007FF6DAAEB3F5441F3FF4E1AE23F48013DC
:10189800B3F5081F3FF4DBAE0748B42102F0F6FFAA
:1018A800D5E605480193E32102F0F0FFD8F81000CF
:1018B800019B2AE70004004860550008000800481A
:1018C800000C0048001000480014004800180048A8
:1018D8000010024000040140032707FA0CF73D43BB
:1018E8006BE7012707FA0CF73D4366E7022707FA7B
:1018F8000CF73D4361E7B3F5901F3FF4A8AECBE783
:10190800042707FA0CF73D4357E7052707FA0CF7B2
:101918003D4352E770B5064615460C4659B1012DB0
:1019280002D835B9B46270BD064840F2A51102F07C
:10193800ADFFB46170BD03484FF4D27102F0A6FF49
:10194800EDE700BF60550008002800F0CD8010B515
:1019580090F83230052B82B0044600F09A8090F857
:101968003230022B00F095800368724A93420DD002
:10197800043293420AD00432934207D0043293428D
:1019880004D06D484FF4857102F080FF6368002B26
:1019980000F0828023F02003402B00F0A0806648EE
:1019A80040F20D1102F072FFE3680C2B09D033F0FE
:1019B800040206D0082B04D05F484FF4877102F068
:1019C80065FF6368002B6AD02369ABB1802B73D1A4
:1019D800A36933F4C06304D0574840F2231102F0DE
:1019E80055FF63684BB9636933F4807307D0524875
:1019F8004FF4937102F04AFF6368402B76D0636A14
:101A08004BB1B3F5802F60D1A36A1F2B00F28C80F5
:101A1800E36A1F2B7CD8494B9A6942F001029A610C
:101A28009B6903F001030193019B94F8323003F0A2
:101A3800FF020BB984F83120204603F015F86368DB
:101A480023F02002402A34D0D4E902120B43134376
:101A580020696269A16903431343D4E907200B4352
:101A68001343626A216803431343D4E90A0243EA31
:101A7800C04343EA02630868314A024013430B60DB
:101A880094F8323013B9012384F83230002002B0C0
:101A980010BD012002B010BDE3680C2B87D1A368EC
:101AA80033F0200390D024484FF48E7102F0EEFEFC
:101AB8008AE7D4E90302CDE71F4840F21F1102F07C
:101AC800E5FE2369802B97D182E71B484FF4987174
:101AD80002F0DCFE636AB3F5802F9CD194E7E368DB
:101AE8000C2B7FF464AF6FE701207047E36933F490
:101AF800003202D0B3F5403F10D1236A33F440439B
:101B08003FF47DAF0C4840F22D1102F0BFFE76E79E
:101B180009484FF49A7102F0B9FE7CE706484FF481
:101B2800967102F0B3FEE8E7034840F2331102F081
:101B3800ADFE6DE7380001409C55000800100240DA
:101B4800113800E0002800F04C832DE9F0430368C9
:101B580083B00446002B00F01D811A0700F065824F
:101B6800DF0743D5636833F4803203D0B3F5A02F81
:101B780040F03282AE4A536803F00C03042B00F0A5
:101B88001082536803F00C03082B00F0038263688B
:101B9800B3F5803F00F01A82002B00F04D82B3F5B8
:101BA800A02F00F01183A24B1A6822F480321A6029
:101BB8001A6822F480221A60FEF776FB9C4F0546CD
:101BC8004FF40038012605E0FEF76EFB401B642841
:101BD80000F2278298FAA8F33A6898FAA8F3B3FAB9
:101BE80083F306FA03F31342EED023689E0747D522
:101BF800E368012B00F2868123691F2B00F28B8199
:101C08008B4B5A6812F00C0F00F069815A6802F089
:101C18000C02082A00F05C81E268002A00F0588271
:101C2800012595FAA5F3B3FA83F303F1845303F579
:101C380084139B007E4F1D60FEF736FB4FF00208B1
:101C4800064605E0FEF730FB801B022800F2E9811A
:101C580098FAA8F33A6898FAA8F3B3FA83F305FA5E
:101C680003F31342EED03968F82292FAA2F22369FC
:101C7800B2FA82F2934021F0F80213433B602368E2
:101C88001D072DD56369012B00F27181002B00F02F
:101C98004881012696FAA6F2664BDFF89481B2FADB
:101CA80082F213449B0002251E60FEF7FDFA0746E8
:101CB80005E0FEF7F9FAC01B022800F2B28195FA96
:101CC800A5F395FAA5F395FAA5F3D8F8242095FA83
:101CD800A5F3B3FA83F306FA03F31342E9D02368B2
:101CE800580757D5A368012B06D9052B04D05248AD
:101CF8004FF4FA7102F0CAFD4D4BDA69D10000F1D8
:101D0800BC81DA6942F08052DA61DB6903F0805302
:101D18000193019B0125494E3368DA0540F1718131
:101D2800A368012B0FD0002B00F0A981052B404B95
:101D38001A6A00F00F8222F001021A621A6A22F06F
:101D480004021A6204E03A4A136A43F00103136278
:101D5800FEF7AAFADFF8D88006464FF002090127F5
:101D680007E0FEF7A1FA41F28833801B984200F29F
:101D7800588199FAA9F399FAA9F3D8F8202099FA81
:101D8800A9F3B3FA83F307FA03F31342E9D0002D5A
:101D980040F0DA81A369022B00F2F280002B00F0F8
:101DA8009380234D6A6802F00C02082A00F0B4817F
:101DB800022B40F0E381E369B3F5004F07D0B3F598
:101DC800803F04D01C4840F2412102F05FFD236AA5
:101DD80033F4402212D0B2F5801F0FD0B2F5001FA5
:101DE8000CD023F48022B2F5401F07D0B3F5601F52
:101DF80004D0114840F2422102F048FD636A0F2BDB
:101E080000F2B0814FF0807393FAA3F3B3FA83F32F
:101E180003F1845303F584139B0000221A60FEF734
:101E280043FA034D06464FF0007801270EE000BF45
:101E38000010024020819010D85500080070004022
:101E4800FEF732FA801B022800F2EB8098FAA8F31A
:101E58002A6898FAA8F3B3FA83F307FA03F313424C
:101E6800EED1EB6A626A23F00F031343EB62D4E905
:101E780007136A680B4322F4761213436B604FF022
:101E8800807393FAA3F3B3FA83F303F1845303F54E
:101E980084139B00B64E1F60FEF706FA4FF00077DA
:101EA8000446012505E0FEF7FFF9001B022800F2B1
:101EB800B88097FAA7F3326897FAA7F3B3FA83F3CF
:101EC80005FA03F31342EED0002003B0BDE8F08317
:101ED8005B6803F4C033B3F5004F7FF49DAE022373
:101EE80093FAA3F2A24A116893FAA3F30122B3FA70
:101EF80083F302FA03F30B4274D0E368934271D080
:101F08000120E2E79B4840F2871102F0BFFC2369F9
:101F18001F2B7FF675AE97484FF4C47102F0B6FCDC
:101F28006EE6012797FAA7F1934ADFF84482B1FADF
:101F380081F10A44920002251360FEF7B5F90646BE
:101F480004E0FEF7B1F9801B02286AD895FAA5F3D8
:101F580095FAA5F395FAA5F3D8F8242095FAA5F3F0
:101F6800B3FA83F307FA03F31342EAD1B7E68148D9
:101F78004FF4E47102F08AFC6369002BD1D088E643
:101F88007C484FF40E7102F081FCA369002B7FF4AA
:101F980008AF99E7536803F4C033B3F5803F7FF483
:101FA800F6AD4FF4003393FAA3F2714A116893FA2D
:101FB800A3F30122B3FA83F302FA03F30B423FF4CB
:101FC80014AE6368002B7FF410AE99E7684A136873
:101FD80043F480331360EFE5664840F24F1102F096
:101FE80055FCC7E56248F822016892FAA2F2236913
:101FF800B2FA82F2934021F0F80213430360236897
:102008003EE6336843F480733360FEF74DF90746C4
:102018003368DB053FF584AEFEF746F9C01B64283C
:10202800F6D9032003B0BDE8F083524840F24911C5
:1020380002F02CFC236893E54D4D2B6823F4803384
:102048002B602B6823F480232B60FEF72DF94FF4C7
:1020580000380646012704E0FEF726F9801B6428AD
:10206800DFD898FAA8F32A6898FAA8F3B3FA83F3A2
:1020780007FA03F31342EFD1B7E500254BE63C4ED0
:10208800336A23F001033362336A23F004033362B3
:10209800FEF70AF94FF0020907464FF0010806E07B
:1020A800FEF702F941F28833C01B9842B9D899FA71
:1020B800A9F399FAA9F3326A99FAA9F3B3FA83F35F
:1020C80008FA03F31342EBD1002D3FF463AE3BE073
:1020D800012696FAA6F3B3FA83F303F1845303F5C2
:1020E80084139B00224F1A60FEF7DEF84FF00208B7
:1020F800054604E0FEF7D8F8401B022891D898FA64
:10210800A8F33A6898FAA8F3B3FA83F306FA03F344
:102118001342EFD12368B3E5012B3FF4F1AE6A68AF
:10212800E169EB6A02F4C03088427FF4E9AE216AC3
:1021380002F470128A427FF4E3AE606A03F00F0380
:10214800181A18BF0120C0E6094AD36923F0805342
:10215800D3611FE642F004021A621A6A42F00102D1
:102168001A62F5E503484FF4117102F08FFB49E656
:1021780000100240D8550008208190104FF080735D
:1021880093FAA3F3B3FA83F303F1845303F58413A7
:102198009B0000221A60FEF787F84FF0007704468C
:1021A800012605E0FEF780F8001B02283FF639AF4C
:1021B80097FAA7F32A6897FAA7F3B3FA83F306FA0C
:1021C80003F31342EED17FE603F18043A3F53C33DA
:1021D8001A6842F480221A601A6842F480321A603F
:1021E800EAE40120704700BF0C4A536803F00C0171
:1021F800082901D00A487047C3F38343D26A0949C2
:102208000748C95C10B402F00F03074CE35C5DF8A3
:10221800044BB0FBF3F001FB00F0704700100240E4
:1022280000127A000C570008FC560008002800F03D
:10223800DC8003682DE9F0411E070D46044600F0D6
:10224800CE80022D00F2C5807C4A136803F0070394
:10225800AB420CD2136823F007032B4313601368B7
:1022680003F00703AB4202D00120BDE8F0812368E8
:1022780098071AD5A16891B1C02910D000F2D08072
:10228800A0290CD000F2D58021F01002802A06D0B7
:1022980040F2D9216A4802F0F9FAA168236869482E
:1022A800426822F0F0020A434260D90731D56368D8
:1022B800022B00F2AC80012B00F09980022B0CBF9E
:1022C8004FF00072022292FAA2F15E49086892FA6F
:1022D800A2F20121B2FA82F201FA02F20242C3D05A
:1022E800584E726822F0030213437360FDF7DCFF57
:1022F80041F28838074605E0FDF7D6FFC01B404588
:1023080000F28C807368626803F00C03B3EB820FF1
:10231800F2D14A4A136803F00703AB4209D913689C
:1023280023F007032B431360136803F00703AB4242
:102338009AD123685A0718D5E16831F480620ED023
:1023480021F40072B2F5A06F09D0B1F5C06F06D0C4
:102358004FF447713A4802F099FAE168236839481E
:10236800426822F4E0620A4342601B0718D52269DA
:1023780032F480630DD022F40073B3F5A06F08D057
:10238800B2F5C06F05D02E4840F2233102F07EFA34
:1023980022692C494B6823F4605343EAC2034B601B
:1023A800FFF722FF274BF0225B6892FAA2F2B2FAFB
:1023B80082F203F0F003244C2449D340244AE35C1E
:1023C80020FA03F308681360FDF72CFF0020BDE82E
:1023D800F0811B4840F2C22102F058FA34E718484D
:1023E80040F2C12102F052FA2BE7012070474FF466
:1023F800003292FAA2F11349096892FAA2F2B2FAEB
:1024080082F203FA02F20A427FF46AAF2CE70C4820
:102418004FF4387102F03AFA63684CE7032024E776
:10242800E0293FF43CAF21F02002D02A7FF430AFFE
:1024380035E7B0293FF433AF2AE700BF0020024058
:10244800D855000800100240245700080400002056
:1024580008000020084B4FF4E0625B6892FAA2F291
:10246800B2FA82F203F4E06304490548D3400068F5
:10247800CB5CD840704700BF001002401C570008D2
:1024880008000020084B4FF460525B6892FAA2F2F1
:10249800B2FA82F203F4605304490548D340006855
:1024A800CB5CD840704700BF001002401C570008A2
:1024B800080000202DE9F043944A0368934283B052
:1024C800044680F0F281D9034ED5636833F4407333
:1024D80040F00C828E4BDA69D20000F1EC81DA69A7
:1024E8008C4D42F08052DA61DB6903F0805301932E
:1024F800019B2B68DF054FF0010640F1E381DFF80F
:1025080010826168D8F8203013F4407320D001F4A9
:1025180040729A421CD0D8F820104FF4803321F42E
:10252800407093FAA3F27C4FB2FA82F23A449200D6
:102538000125156093FAA3F3B3FA83F33B449B0098
:102548000022C9071A60C8F8200000F1F681616806
:102558006F4A136A23F440730B4313621EB1D369A5
:1025680023F08053D3612368DA0709D5A1680329CA
:1025780000F2D4816648026B22F003020A43026328
:102588009F070FD5E16831F4403205D0C721634871
:1025980002F07CF9E16823685D48026B22F440325E
:1025A8000A4302635E070FD5216931F4402205D042
:1025B800D3215A4802F06AF9216923685448026B0A
:1025C80022F440220A4302639D060FD5E16931F0E7
:1025D800100205D0DE21514802F058F9E16923685C
:1025E8004B48026B22F010020A43026398030FD58E
:1025F800616D31F4800205D0EC21484802F046F9BB
:10260800616D23684248426822F480020A434260AE
:10261800590610D5216A31F0200206D04FF4807196
:102628003E4802F033F9216A23683948026B22F0E8
:1026380020020A4302635A0310D5616A31F040024E
:1026480006D04FF48971354802F020F9616A236891
:102658002F48026B22F040020A4302631F0710D57D
:10266800616931F4401206D040F221112B4802F082
:102678000DF9616923682648026B22F440120A4367
:102688000263DE0610D5A16931F4400206D040F29B
:102698002B11224802F0FAF8A16923681C48026B42
:1026A80022F440020A4302639D0510D5216B31F4E0
:1026B800000206D040F23B11184802F0E7F8216BFF
:1026C80023681348426822F400020A43426018064D
:1026D80026D5A16A91B1B1F5B07F0FD000F20B8178
:1026E800B1F5987F0AD021F0100200F24281B2F5CC
:1026F800807F03D0B1F5907F40F008810448C26A1A
:1027080022F4F8720A43C2620AE000BF0034F703F9
:102718000010024000700040008190101056000820
:10272800D90527D5E16A31F400521DD021F4806221
:10273800B2F5085F18D021F40062B2F5105F13D02B
:1027480021F40072B2F5205F0ED0B1F5385F0BD0DE
:1027580021F4C062B2F5405F06D04FF4B6718748E5
:1027680002F094F8E16A23688548C26A22F4785234
:102778000A43C262DA0410D5616B31F4807206D064
:102788004FF4C6717D4802F081F8616B23687C487C
:10279800026B22F480720A4302639F0410D5216CF5
:1027A80031F4007206D04FF4CF71744802F06EF81D
:1027B800216C23687248026B22F400720A43026398
:1027C800DE0210D5A16B31F0807206D040F2F5110F
:1027D8006A4802F05BF8A16B23686948026B22F033
:1027E80080720A4302639D0210D5E16B31F00072DA
:1027F80006D040F2FF11614802F048F8E16B236807
:102808005F48026B22F000720A430263580210D537
:10281800616C31F4806206D040F20921574802F019
:1028280035F8616C23685648026B22F480620A43CB
:102838000263190210D5A16C31F4006206D040F28F
:1028480013214E4802F022F8A16C23684C48026B11
:1028580022F400620A430263DA0110D5E16C31F414
:10286800005206D040F21D21444802F00FF8E16CF6
:1028780023684348026B22F400520A4302639B0117
:102888000FD5226D32F4004305D03C4840F22A218E
:1028980001F0FCFF226D3A490B6B23F4004313430C
:1028A8000B63002003B0BDE8F0833448702101F0C9
:1028B800EDFF236807E6334D2B68DF054FF0000670
:1028C8003FF51DAE2B6843F480732B60FDF7ECFCDD
:1028D80007462B68D8053FF512AEFDF7E5FCC01B8F
:1028E8006428F6D9032003B0BDE8F0832348762195
:1028F80001F0CCFFEEE5B1F5C87F3FF4FFAE14D987
:1029080021F01002B2F5D07F3FF4F8AE40F25B112F
:102918001A4801F0BBFFA16A2368EFE6BC211748FB
:1029280001F0B4FFA168236824E6B1F5B87F3FF44D
:10293800E5AEB1F5C07FE9D1E0E6FDF7B5FC4FF0B3
:102948000209074699FAA9F399FAA9F3D8F82020B9
:1029580099FAA9F3B3FA83F305FA03F313427FF460
:10296800F6ADFDF7A1FC41F28833C01B9842E9D9C6
:10297800B8E7B2F5A07FC9D1C0E600BF105600087D
:102988000010024000700040324A0368934210B5BC
:1029980004462BD0B3F1804F28D0A2F5943293424D
:1029A80024D002F58062934220D002F5006293425F
:1029B8001CD002F58062934218D002F590329342FF
:1029C80014D002F54062934210D002F5806293421F
:1029D8000CD002F58062934208D002F5006293425F
:1029E80004D01D484FF4CE7101F050FF94F83D30EB
:1029F800012B23D12368174A0221934284F83D1002
:102A08001ED0B3F1804F1BD0A2F59432934217D059
:102A180002F58062934213D002F5963293420FD0AA
:102A280002F5406293420BD002F58052934207D0E0
:102A38001A6842F001021A60002010BD012010BD82
:102A48009968064A0A40062AF6D0B2F5803FEFD1C7
:102A5800F2E700BF002C01404C56000807000100B7
:102A6800704700BF38B590F83C30012B00F0A181C9
:102A78000223012280F83C2080F83D300B68702B3F
:102A880004460D4600F0308223D823F01002402A75
:102A980000F0D180602B00F08E8133F030026AD1D3
:102AA8002268AA49906801409160402B00F2CC80CE
:102AB800202B00F0548100F24F8133F0100100F018
:102AC8004E8101200122002384F83D2084F83C3007
:102AD80038BDB3F5805F00F00381B3F5005FDCD14A
:102AE80002689A4B91680B409360994B9A4217D0B1
:102AF800B2F1804F14D0A3F594339A4210D003F565
:102B080080639A420CD003F596339A4208D003F5B5
:102B1800E0539A4204D08F4841F29D5101F0B6FE2D
:102B2800AB6833F4405304D08A484FF4AD5101F0F8
:102B3800ADFE6B68B3F5004F09D033F0020206D042
:102B48000A2B04D0834841F2A15101F09FFEE868A6
:102B58000F2800F2D6812268D5E9015391682B43EA
:102B680021F47F410B4343EA00239360936843F4C5
:102B7800804393601BE1774841F2725101F086FE71
:102B880022682B6890687149602B01EA0001916006
:102B980000F0168140F25D81B3F5805F00F0A580FA
:102BA800B3F5005FA1D0702B8BD1694B9A4217D037
:102BB800B2F1804F14D0A3F594339A4210D003F5A4
:102BC80080639A420CD003F596339A4208D003F5F5
:102BD800E0539A4204D05F4841F2855101F056FE15
:102BE800AB6833F4405304D05A4841F2885101F09D
:102BF8004DFE6B68B3F5004F09D033F0020206D0E2
:102C08000A2B04D0534841F2895101F03FFEE8688D
:102C18000F2800F27D812268D5E9015391682B4382
:102C280021F47F410B4343EA00239360936843F008
:102C380077039360BBE0026844499068402B01EA3F
:102C48000001916000F00881502B7FF43AAF404BAF
:102C58009A421BD0B2F1804F18D0A3F594339A4210
:102C680014D003F580639A4210D003F596339A4244
:102C78000CD003F540639A4208D003F580539A427A
:102C880004D0344841F2B15101F000FE6B68B3F54D
:102C9800004F09D033F0020206D00A2B04D02D4889
:102CA80041F2B45101F0F2FDE8680F2800F23E81CC
:102CB800236869681A6A22F00A0211431A6A22F024
:102CC80001021A629A6922F0F00242EA00129A613D
:102CD80019629A6822F0700242F057029A6066E020
:102CE80002681A4B91680B409360194B9A425ED068
:102CF800B2F1804F5BD0A3F594339A4257D003F5D5
:102D080080639A4253D003F500639A424FD003F58B
:102D180080639A424BD003F590339A4247D003F52B
:102D280040639A4243D003F580639A423FD003F54B
:102D380080639A423BD003F500639A4237D0054836
:102D480041F27E5101F0A2FD31E000BF8800FEFF94
:102D5800002C01404C560008302B7FF4B2AE774966
:102D68008A421DD0B2F1804F1AD0A1F594318A421F
:102D780016D001F580618A4212D001F596318A4257
:102D88000ED001F540618A420AD001F580518A428D
:102D980006D06B4841F2E45101F078FD22682B68B7
:102DA800916821F070010B4343F007039360002002
:102DB80088E6022038BD0268624B91680B40936038
:102DC8005E4B9A421BD0B2F1804F18D0A3F59433D2
:102DD8009A4214D003F580639A4210D003F59633D3
:102DE8009A420CD003F540639A4208D003F5805309
:102DF8009A4204D0524841F2C15101F047FD6B6834
:102E0800B3F5004F09D033F0020206D00A2B04D0E4
:102E18004B4841F2C45101F039FDE8680F287ED8CB
:102E2800236869681A6A22F0A00242EA0112196A44
:102E380021F010011962996921F4704141EA0031C9
:102E480099611A629A6822F0700242F067029A60E9
:102E5800ADE7402B7FF429AE384B9A421BD0B2F134
:102E6800804F18D0A3F594339A4214D003F58063A9
:102E78009A4210D003F596339A420CD003F540637A
:102E88009A4208D003F580539A4204D02C4841F264
:102E9800D15101F0FBFC6B68B3F5004F09D033F05A
:102EA800020206D00A2B04D0254841F2D45101F081
:102EB800EDFCE8680F281DD8236869681A6A22F0B3
:102EC8000A0211431A6A22F001021A629A6922F070
:102ED800F00242EA00129A6119629A6822F07002BE
:102EE80042F047029A6062E70268164B91680B400D
:102EF80093605AE6124841F2D55101F0C7FCE868E0
:102F0800DAE70F4841F2A25101F0C0FCE86822E676
:102F18000B4841F28A5101F0B9FCE8687BE60848A1
:102F280041F2C55101F0B2FCE86879E7044841F282
:102F3800B55101F0ABFCE868BAE600BF002C0140CF
:102F48004C5600088800FEFF344A0368904210B4CB
:102F580028D0B0F1804F44D0A2F59432904240D0AE
:102F680002F5806290423CD002F5963290424AD0F7
:102F780002F5E052904215D0A2F58052904247D017
:102F880002F58062904243D002F5806290423FD0C1
:102F98000A688C68496923F080030B430360C462A4
:102FA800826212E0CA684C6823F07003234323F45A
:102FB800407313434A6923F08003134303608B680B
:102FC800C3620B6883620B6903630123436103696E
:102FD800DB0703D5036923F0010303615DF8044BA4
:102FE80070474A68CC6823F07003134323F4407396
:102FF8004A69234323F080038C6813430A680360FB
:10300800C4628262E1E74C68CA6823F07003CDE7C6
:10301800CC684A6923F440732343CCE7002C014071
:10302800002800F0A5800368524A934210B5044670
:103038002BD0B3F1804F28D0A2F59432934224D0FC
:1030480002F58062934220D002F5006293421CD0C0
:1030580002F58062934218D002F59032934214D060
:1030680002F54062934210D002F5806293420CD080
:1030780002F58062934208D002F50062934204D0C0
:103088003D484FF48D7101F001FCA36833F0100244
:103098000AD023F04002202A06D0402B04D036481C
:1030A80040F21B1101F0F2FB236933F4807236D130
:1030B8002268E368B2F1804F3ED0013B4FF6FE72C2
:1030C80093423BD8A36933F0800340D194F83D3054
:1030D80003F0FF02002B45D02146022384F83D303F
:1030E80051F8040BFFF730FF012384F8483084F8C7
:1030F8003E3084F83F3084F8403084F8413084F81A
:10310800423084F8433084F8443084F8453084F8F9
:10311800463084F8473084F83D30002010BDB3F5C0
:10312800007FC5D014484FF48E7101F0AFFB2268C0
:10313800E368B2F1804FC0D1002BC3D10E4840F2F2
:103148001D1101F0A3FBA36933F08003BED00A4828
:103158004FF48F7101F09AFB94F83D3003F0FF02B1
:10316800002BB9D184F83C20204601F0F1FCB3E7EC
:1031780001207047002C01404C560008002800F040
:10318800A68038B5534A036893420D4604462BD0AF
:10319800B3F1804F28D0A2F59432934224D002F59F
:1031A8008062934220D002F5006293421CD002F55F
:1031B8008062934218D002F59032934214D002F5FF
:1031C8004062934210D002F5806293420CD002F51F
:1031D8008062934208D002F50062934204D03E48D0
:1031E8004FF4266101F052FBA36833F010020AD0B5
:1031F80023F04002202A06D0402B04D0364840F65F
:10320800612101F043FB236933F4807239D135F031
:10321800080304D0304840F6632101F037FB2268E8
:10322800E368B2F1804F46D0013B4FF6FE729342FD
:1032380043D8A36933F080032CD194F83D3003F0D0
:10324800FF0293B32146022384F83D3051F8040B62
:10325800FFF77AFE026822F0080202600268012382
:103268002A430260002184F8483084F83E3084F80C
:103278003F3084F8443084F8453084F83D300846BF
:1032880038BDB3F5007FC2D0134840F6622101F083
:10329800FDFABCE7104840F6652101F0F7FA94F80A
:1032A8003D3003F0FF02002BCCD184F83C202046AF
:1032B800FFF7D6FBC6E7002BBBD1074840F66421D1
:1032C80001F0E4FAA36933F08003B6D0E2E7012104
:1032D80008467047002C01404C560008F8B55F4A74
:1032E8000368934204460D4623D0B3F1804F20D0A3
:1032F800A2F5943293421CD002F58062934218D012
:1033080002F50062934214D002F58062934210D015
:1033180002F5903293420CD002F54062934208D0F5
:1033280002F58052934204D04D4840F2AC7101F04E
:10333800ADFA2B6833F040020CD0402B76D8202B06
:1033480008D023F02003102B04D0454840F2AD717B
:1033580001F09CFAAB6833F0800304D0404840F297
:10336800AE7101F093FA94F83C30012B71D002222F
:10337800236884F83D20394A012184F83C1093429F
:103388005E689F681ED002F5006293421AD002F56B
:10339800E052934216D02A6826F0700616435E6003
:1033A800B3F1804F02D02F4A934246D1AA6827F042
:1033B800800717439F600020012384F83D3084F87C
:1033C8003C00F8BD6A6832F440111CD0B1F5800F9A
:1033D80019D0B1F5000F16D0B1F5400F13D040F257
:1033E800C1711F4801F052FA6968236826F4700217
:1033F8000A43296822F070020A435A60174A934226
:10340800CED1164BD2E726F470062968324322F053
:1034180070020A435A60114A9342F2D0124A934208
:1034280019D0124B114A9342C5D1BFE7602B91D0F6
:1034380023F02003502B88D18CE702F58062934259
:10344800B4D002F59632934205D0094A9342ADD0E2
:10345800E8E70220F8BD044BA8E700BF002C0140B4
:103468008456000800040040003401400050014028
:1034780000400140026852E8003F23F4907342E89C
:1034880000310029F7D102F1080353E8003F23F087
:10349800010302F1080C4CE800310029F3D1036E56
:1034A800012B06D000232022C0F880208366036603
:1034B800704752E8003F23F0100342E8003100292A
:1034C800F0D052E8003F23F0100342E80031002911
:1034D800EFD1E7E7C36F212B00D07047B0F8523027
:1034E80002689BB283B952E8003F23F0800342E8A8
:1034F80000310029F7D152E8003F43F0400342E889
:1035080000310029F7D17047C16C31F8023BC3F391
:1035180008031385B0F85230C164013B9BB2A0F890
:1035280052307047C36F212B00D07047B0F852302B
:1035380002689BB283B952E8003F23F0800342E857
:1035480000310029F7D152E8003F43F0400342E838
:1035580000310029F7D17047C16C11F8013B138580
:10356800B0F85230C164013B9BB2A0F852307047AA
:10357800C36F202B22D101B10AB90120704783689B
:1035880010B4B3F5805F4FF00004C1644FF021011F
:10359800A0F85220A0F85020C0F88440C1670FD08E
:1035A8000B4B0268C36652E8003F43F0800342E8D1
:1035B80000300028F7D15DF8044B704702207047AF
:1035C8000169044B024AA14218BF1346E9E700BF4C
:1035D8002D350008DD340008704700BF704700BF74
:1035E80008B5406A0023A0F85A30A0F85230FFF717
:1035F800F5FF08BD704700BF0368DA69196840F62F
:103608000F0C12EA0C0F2DE9F0419D68044640F0BA
:103618008180970602D58E0600F1EB80206E012886
:1036280025D0D00202D56F0200F1E880160615D425
:10363800500601D54A0601D4BDE8F08153E8002FB1
:1036480022F0400243E800210029F7D1202200237C
:10365800E267E3662046FFF7BFFFEDE70D06E7D513
:10366800E36E002BE8D02046BDE8F0411847D706A6
:10367800D7D5CE06D5D510221A629A68550640F1DC
:103688000E81606F0268526892B2002AD4D0B4F8F2
:1036980058109142D0D9A4F85A208269202A2FD0F4
:1036A80053E8002F22F4807243E800210029F7D163
:1036B80003F1080252E8002F22F0010203F1080585
:1036C80045E800210029F3D103F1080252E8002F50
:1036D80022F0400203F1080545E800210029F3D152
:1036E8002022C4F88020216653E8002F22F010021F
:1036F80043E800210029F7D1FDF7D4FEB4F85810AB
:1037080002236366B4F85A30C91A204689B2FFF713
:1037180071FF91E715F001071E4640F099807E4839
:1037280001423FF47BAFD5070FD5C80540F1B38000
:1037380001201862D4F8840040F00100C4F8840025
:10374800900767D5002F40F08780550779D5170770
:1037580000F1968017050AD54D0108D54FF4006091
:103768001862D4F8843043F02003C4F88430D4F8C5
:103778008430002B3FF460AF900602D58A0600F132
:103788008280D4F88420B36802F0280203F0400352
:1037980053EA0205204600F0B980FFF76BFEB368D4
:1037A8005B0666D506F1080353E8003F23F04003A3
:1037B80006F1080141E8003262B1236803F108020A
:1037C80052E8002F22F0400203F1080040E80021EF
:1037D8000029F3D1606F00284BD0504B4363FDF7AD
:1037E80085FE00283FF428AF606FBDE8F041436BC9
:1037F8001847836E002B7FF437AF1DE74FF4801214
:1038080020461A62BDE8F04100F008BDC8058FD413
:10381800950721D4500714D5002F98D0042018629A
:10382800D4F88400150740F00200C4F8840091D54C
:1038380008201862D4F8840040F00800C4F8840016
:1038480088E7100786D501F02000384382D0EFE7DB
:10385800D507DBD4900710D502201862D4F884006D
:10386800570740F00400C4F88400D7D41007DFD409
:1038780070E72046FFF7B2FEDEE65707CED4F5E73D
:103888008D06D5D466E7A36E002B3FF47AAF2046A9
:103898009847266875E795073FF557AFBAE7B4F834
:1038A8005A10B4F85A20B4F8580092B289B2002AD3
:1038B8003FF4C2AE411A89B200293FF4BDAE53E8C5
:1038C800002F22F4907243E800200028F7D103F17A
:1038D800080252E8002F22F0010203F1080545E82A
:1038E80000200028F3D12022C4F88020A06620669A
:1038F80053E8002F22F0100243E800200028F7D1F7
:10390800022363662046FFF775FE95E6FFF766FE1D
:10391800C4F8845090E600BF20010004E93500088F
:10392800D0F88010B0F85C20222908B5036804D0CC
:103938009A6942F008029A6108BD998C436D0A4061
:103948001A70B0F85A30426D013B9BB2A0F85A3059
:10395800B0F85A3001329BB24265002BECD10368B3
:1039680053E8002F22F4907243E800210029F7D190
:1039780003F1080252E8002F22F0010203F1080CBB
:103988004CE800210029F3D12022C0F880204166AC
:103998005A688166110216D4026E012A24D10022C7
:1039A800026653E8002F22F0100243E800210029A4
:1039B800F7D1DA69B0F85810D20644BF10221A625B
:1039C800FFF718FE08BD53E8002F22F0806243E895
:1039D80000210029E0D053E8002F22F0806243E85C
:1039E80000210029EFD1D7E701F0BCF908BD00BFDD
:1039F800D0F88010B0F85C20222908B5036804D0FC
:103A08009A6942F008029A6108BDB3F824C0416D72
:103A180002EA0C0221F8022BB0F85A204165013A5B
:103A280092B2A0F85A20B0F85A2092B2002AEBD1EC
:103A380053E8002F22F4907243E800210029F7D1BF
:103A480003F1080252E8002F22F0010203F1080CEA
:103A58004CE800210029F3D12022C0F880204166DB
:103A68005A688166110216D4026E012A24D10022F6
:103A7800026653E8002F22F0100243E800210029D3
:103A8800F7D1DA69B0F85810D20644BF10221A628A
:103A9800FFF7B0FD08BD53E8002F22F0806243E82D
:103AA80000210029E0D053E8002F22F0806243E88B
:103AB80000210029EFD1D7E701F054F908BD00BF74
:103AC80038B542688D4B9A42044600F2A180A3683B
:103AD800B3F1805F03D033F4805340F0AF80E368E4
:103AE80033F4405304D0864840F63B3100F0CEFE14
:103AF800236A33F4006304D0814840F63C3100F077
:103B0800C5FE236933F4806203D0B3F5C06F40F07B
:103B18009B80636933F00C0257D1002B55D0A36901
:103B280033F4407304D076484FF4346100F0AEFEAD
:103B3800E16931F4004305D040F64131704800F0A6
:103B4800A5FEE1692069A3682268034360691568D6
:103B580003436C48284003430B4313605368E068F1
:103B6800256A23F44053034353609068A36920F403
:103B780030602B4303436448936082424ED0634BCA
:103B88009A4228D0624B9A4200F08680614B9A4252
:103B980000F09580604B9A4238D103F5E0331B6BF7
:103BA80003F44003B3F5000F54D000F2A180002BBA
:103BB8007FD0B1F5004F00F09580FEF715FBD0B926
:103BC80000200023C4E91A3338BD4D4840F63F3180
:103BD80000F05CFEA3E703F5E6331B6B03F4403308
:103BE800B3F5003F36D0E2D9B3F5403F0ED1B1F579
:103BF800004F72D0494863684FF6EF7200EB5300EC
:103C0800B0FBF3F0A0F11003934242D90120D8E7AA
:103C18003B4840F6393100F039FE58E7404B1B6B02
:103C280003F00303022B15D0032BE0D0012BC0D0E7
:103C3800B1F5004F14D0FEF725FCC0E7304840F638
:103C48003A3100F023FE4AE72D4840F63E3100F0B5
:103C58001DFE5EE7B1F5004F41D04FF40040CAE7C2
:103C6800FEF710FC0028ABD0400063684FF6EF72F7
:103C780000EB5300B0FBF3F3A3F110019142C5D858
:103C880023F00F02216892B2C3F342031343CB60BF
:103C980096E72368D86093E703F5E4331B6B03F4D6
:103CA8004023B3F5002FD5D081D9B3F5402F9ED04E
:103CB800ACE7B1F5004F18D0FEF7CCFB7FE703F572
:103CC800E2331B6B03F44013B3F5001FC2D07FF639
:103CD8006EAFB3F5401F8AD098E71248C5E74FF496
:103CE8008030C2E7FEF780FABCE7FEF7B3FBB9E71E
:103CF800B3F5400F3FF47BAF88E700BF405489001D
:103D0800C0560008F369FFEF003801400044004046
:103D180000480040004C00400050004000127A006B
:103D2800001002400024F400436AFF2B10B504463B
:103D380000F295801A070AD5616B31F4004240F011
:103D48009D802068426822F400420A434260D807F6
:103D58000AD5A16A31F4003240F0988020684268A0
:103D680022F400320A43426099070AD5E16A31F425
:103D7800803240F093802068426822F480320A43FF
:103D880042605A070AD5216B31F4802240F08E80B8
:103D98002068426822F480220A434260D8060AD585
:103DA800A16B31F4805240F089802068826822F447
:103DB80080520A438260990609D5E16B31F40052BA
:103DC80054D12068826822F400520A4382605A065D
:103DD8002BD52368464A93420CD0A2F574429342ED
:103DE80008D002F58062934204D0424840F6F1318F
:103DF80000F04CFD236C5BB3B3F5801F66D12268DD
:103E0800536843F480135360606C30F4C00306D0E9
:103E1800384840F6F73100F039FD606C2268516887
:103E2800636A21F4C001014351601B060FD5A26CDF
:103E380032F4002305D02F4840F6FF3100F026FD6C
:103E4800A26C21684B6823F4002313434B6010BD18
:103E58002168636A4A6822F480124A60E5E72548C7
:103E680040F6C23100F012FD636A63E740F6EA31BA
:103E7800204800F00BFDE16B636AA2E740F6C7310A
:103E88001C4800F003FD616B636A5AE740F6CE31C7
:103E9800184800F0FBFCD4E909315FE740F6D5315A
:103EA800144800F0F3FCE16A636A64E740F6DC3129
:103EB800104800F0EBFC216B636A69E740F6E331D8
:103EC8000C4800F0E3FCA16B636A6EE740F6F23140
:103ED800084800F0DBFC2268216C536823F4801347
:103EE8000B43B1F5801F53608ED0636A9DE700BF16
:103EF80000380140C05600082DE9F843089F0C46D9
:103F08000168064615469846CA6934EA02020CBF9B
:103F180001220022AA4209D1781C0BD1CB6934EACC
:103F280003030CBF01230023AB42F7D0002318463C
:103F3800BDE8F883FCF7B8F9A0EB0800B8421AD836
:103F4800CFB131680B685A07DED5802CDCD0402C05
:103F5800DAD0CB6913F008090FD1CA691305D3D594
:103F68004FF400620A623046FFF784FA2022C6F84E
:103F7800842086F878900323D9E708240C62304619
:103F8800FFF778FA00220123C6F8844086F87820E3
:103F9800CDE700BF70B50446002682B0C0F8846043
:103FA800FCF782F923681A68120705460FD41B68C4
:103FB8005B0725D400232022E2671846C4F8802036
:103FC80023666366002384F8783002B070BD6FF012
:103FD8007E430093324603464FF400112046FFF714
:103FE8008BFF23680028E2D053E8002F22F08002DC
:103FF80043E800210029F7D12023E3670320E1E704
:104008006FF07E43009300222B464FF48001204638
:10401800FFF772FF0028CDD0236853E8002F22F461
:10402800907243E800210029F7D103F1080252E811
:10403800002F22F0010203F1080040E800210029C6
:10404800F3D12023C4F88030D8E700BF00285DD022
:104058008269036810B50446002A32D02C4A93427C
:104068000CD0A2F57442934208D002F580629342C4
:1040780004D028484FF4967100F008FCE36F002B39
:104088003ED02268616A2423E367136823F00103A2
:10409800136089BB2046FFF713FD01282AD0236847
:1040A8005A6822F490425A609A6822F02A029A606A
:1040B8001A6842F0010220461A60BDE81040FFF776
:1040C80069BF134A9342D9D0A2F574429342D5D01E
:1040D80002F580629342D1D002F580629342CDD03E
:1040E80002F580629342C9D00A4840F2311100F0CB
:1040F800CDFBC3E7012010BD2046FFF715FEC9E739
:1041080084F87830204600F08FFDBAE70120704728
:1041180000380140C056000810B484684165002387
:10412800B4F5805FA0F85820A0F85A2083664BD0D9
:104138006CBB0369002B0CBFFF237F2300242221C3
:104148000268C0F88440A0F85C30C0F8801002F122
:10415800080353E8003F43F0010302F1080444E870
:1041680000310029F3D183680169B3F5805F17D066
:104178001A4B8366B9B152E8003F43F4907342E8A2
:1041880000310029F7D100205DF8044B7047B4F1E5
:10419800805FD3D10369002B0CBF7F233F23CDE77A
:1041A800C9B90F4B836652E8003F43F0200342E849
:1041B80000310029E7D052E8003F43F0200342E8ED
:1041C80000310029EFD1DEE70269002A40F2FF132F
:1041D80018BFFF23B2E7014B8366CCE729390008F3
:1041E800F9390008D0F88030202B15D101B10AB96F
:1041F8000120704730B400230468036663681B021B
:1042080007D554E8003F43F0806344E80035002DAB
:10421800F7D130BCFFF780BF02207047704700BF5E
:1042280000B52022A7B000210DEB020001F0CAF86A
:104238000021582210A8CDE90111CDE903110591FB
:1042480001F0C0F801204FF48031CDE906010220C9
:104258004FF48031CDE90C0101224FF4E01306A898
:1042680009920E93FDF76EFC08B172B6FEE70F22B5
:1042780003460221019201A84FF48062CDE902139E
:10428800CDE90423FDF7D2FF034608B172B6FEE775
:104298009FED097B0A4A109210A88DED1E7B13939F
:1042A8002093FEF707F908B172B6FEE727B05DF86C
:1042B80004FB00BFAFF30080000000000000000016
:1042C800022030002DE9F04F002495B0FBF7CEFF17
:1042D800FFF7A6FFCDE90E44CDE91044AE4D129488
:1042E8006B69AE4843F400236B616B6903F40023E8
:1042F8000693069B6B6943F480036B616B6903F457
:1043080080030793079B6B6943F400336B616B6908
:1043180003F400330893089B6B6943F480236B61B3
:104328006B6903F480230993099B6B6943F4801339
:104338006B616B6903F4801322460A934FF474612E
:104348000A9BFDF7E7FA224695488021FDF7E2FA35
:10435800032643F2BB03914810940EA9CDE90E360B
:10436800FDF72EF949F603730EA94FF09040CDE9F9
:104378000F640E93FDF724F946F2703388480E93C4
:104388000EA90127CDE90F64FDF71AF94FF47463FC
:1043980082480EA9CDE90E37CDE91044FDF710F992
:1043A80080480F960EA904264FF0800810940E96A8
:1043B800FDF706F97A4811940EA9CDE90F74CDF8E6
:1043C8003880FDF7FDF86B6943F002036B616B6998
:1043D80003F002030493049B6B693B436B616B69B5
:1043E800714D3B40224621460C200593059BFCF766
:1043F80061FE0C20FCF7A4FE224621463920FCF77A
:1044080059FE3920FCF79CFE684B2B602846332365
:10441800CDE90E44CDE91044CDE90B44C5E901448A
:104428000D94C5F818802C61EB60FEF7F9FD08B112
:1044380072B6FEE74FF480590EA92846CDF8389099
:10444800FEF710FB08B172B6FEE70D902023284650
:104458000BA90B93FEF742FF08B172B6FEE7544D65
:10446800544B2861C5E908004FF0400B4FF00C0A87
:104478004FF440382846C5E9003BC5F80CA0C5F8FC
:104488001C80FDF761FA88B94B4C4C4B2061C4E99C
:1044980008002046C4F804B0C4F80CA0C4F81C8076
:1044A8002360FDF751FA18B172B6FEE772B6FEE75F
:1044B800DFF81C81424BC8F80400C8E90206C8F8B6
:1044C8001000C8F824004046C8F80030FDF73CFA50
:1044D80008B172B6FEE7DFF8FCA03A4B0D90CDE9C3
:1044E8000E00CDE91000CDE90B00CAE90100CAF8B9
:1044F8001000CAF81800CAF8003050464FF422736A
:10450800CAF80C30FEF78CFD08B172B6FEE70EA9AA
:104518005046CDF83890FEF7A5FA034608B172B6B2
:10452800FEE750460BA90B930D93FEF7D7FE034603
:1045380008B172B6FEE7CDE90E00CDE91000CDE96D
:10454800120021484661214E8360C0E90A73036165
:1045580080F82030C36080F83030038343634FF421
:104568000033C0E90063C761FBF744FF08B172B6C6
:10457800FEE70023CDE911331393012708234FF0F9
:1045880006091148CDF840900EA9CDE90E37FCF781
:104598003DFA08B372B6FEE7001002400008004872
:1045A80000040048000C0048A80100200004004056
:1045B800A80200203C000140740200204000014095
:1045C800440001400008004084030020000100501E
:1045D800400200205C0100209D4E0D904FF080436A
:1045E800336040F23713CDE90E00CDE91000CDE974
:1045F8000B00C6E901003061F36030468023B361E7
:10460800FEF70EFD08B172B6FEE74FF480530EA90F
:1046180030460E93FEF726FA08B172B6FEE70D9003
:1046280020230BA930460B93FEF758FE08B172B64B
:10463800FEE7DFF840A2874B1090CDE90E00504608
:10464800CAF80030FCF7AAFD024608B172B6FEE7C8
:1046580050460EA9CDE90E22FCF7C4FD08B172B68A
:10466800FEE7DFF814A213904FF400334FF0A04B8D
:10467800CDE90B00CDE90D00CDE90F00CDE9110022
:10468800CAE90A70CAE900B3CAF80800CAF81000F3
:104698008AF82000CAF80C008AF83000AAF8180036
:1046A800CAF8340004235046CAF81C70CAF81430FB
:1046B800FBF7A0FE08B172B6FEE70B900BA95046B7
:1046C800FCF712FC034608B172B6FEE7CDE91133D8
:1046D8001393504610230EA90E93CDE90F79FCF7DA
:1046E80095F9034608B172B6FEE7CDE90E00CDE9AB
:1046F8001000CDE90B000D905748C0E90133C0E91F
:1047080004338361554B03604FF6FF73C360FEF7B4
:1047180087FC08B172B6FEE74FF480534E480E93FB
:104728000EA9FEF79FF908B172B6FEE74A480821BC
:10473800FEF724FD08B172B6FEE7CDE90B000D9037
:104748000BA94548FEF7CAFD08B172B6FEE7444F0B
:10475800DFF828C1B8604FF40033C7E900C34FF44D
:10476800806E4FF48073CDE90E00CDE91000CDE9DD
:104778001200C7E90A3E3861042387F82000F86070
:10478800388378634FF0010938467B61C7F81C907D
:1047980087F83090FBF72EFE034608B172B6FEE7A5
:1047A800CDE91033CDE912330EA9052338460E930F
:1047B800CDF83C90FCF72AF9034608B172B6FEE73B
:1047C8002848294A0361C0E90233C0E90633036275
:1047D8004FF4E133C0E900230C23436120234362F3
:1047E8004FF40053C363FFF731FC08B172B6FEE71C
:1047F800D8F8002028681368DFF88480DFF88490F0
:10480800184F1A4D03F00C0104291CBF23F00C03A8
:1048180043F0040313601368216843F00103136035
:104828000368134A43F0010303600B6843F0010374
:104838000B60936843F001039360CDE90186084853
:1048480000944B463A46294600F086FDF5E700BF3E
:10485800F4010020007400401001002000340140E1
:10486800340300204400002000440040A801002038
:10487800002004E0DC020020D403002000050050E2
:10488800CC000020A802002072B6FEE7704700BFE7
:104898000B4B9A6942F0010282B09A619A6902F060
:1048A80001020092009ADA6942F08052DA61DB690B
:1048B80003F080530193019B052002B0FCF7DCBB99
:1048C8000010024070B503688CB00024B3F1A04F0B
:1048D800CDE90644CDE908440A9421D03B4A9342E5
:1048E80004D03B4A934238D00CB070BD394A1368A3
:1048F8000133012B136025D0374B38485A6942F4ED
:1049080000225A615B6903F40023039304240325FE
:1049180006A9CDE90645039BFCF752FE0CB070BD15
:104928002C4A13680133012B1360DDD12A4B5A69D5
:1049380042F080525A615B6903F080530193019BF6
:104948000CB070BD244B5A6942F080525A615B69C1
:1049580003F080530293029BCEE71F4B204E5A6907
:1049680042F000525A615A6902F000520492049AC5
:104978005A6942F480225A615B6903F480230593E3
:104988004FF4004206A9032305461648CDE906233D
:10499800059BFCF715FE144BB4608022C6E9003471
:1049A8004FF48073C6E903234FF4806120224FF44B
:1049B80040533046C6E90512F361FCF765FC10B9AF
:1049C800AE63756290E7FFF75FFFF9E700010050FB
:1049D8000005005024040020001002400008004890
:1049E800F0020020000400481C04024000000000FF
:1049F80000B51B4A016889B000239142CDE9023312
:104A0800CDE90433069302D009B05DF804FB03F145
:104A1800804303F504339FED107BDA6942F00052BE
:104A2800DA61DA6902F000520092009A5A6942F497
:104A380000325A615B6903F40033019302A94FF015
:104A480090408DED027B019BFCF7BAFD09B05DF843
:104A580004FB00BFAFF3008010000000030000005B
:104A6800007400400000000000B5026834498BB0B3
:104A780000238A42CDE90433CDE90633089308D0F0
:104A8800304B9A421ED0304B9A4233D00BB05DF86F
:104A980004FB03F1804303F504339FED237B5A693C
:104AA80042F400325A615B6903F40033019304A9AC
:104AB8004FF090408DED047B019BFCF781FD0BB01E
:104AC8005DF804FB03F5873303F5E0735A691F4863
:104AD80042F480225A615B699FED157B03F48023C1
:104AE800029304A98DED047B029BFCF769FD0BB0D2
:104AF8005DF804FB03F5873303F5DE735A69134841
:104B080042F480225A615B699FED0B7B03F480239A
:104B1800039304A98DED047B039BFCF751FD0BB0B7
:104B28005DF804FBAFF30080E00000000300000024
:104B38000700000003000000001C00000300000044
:104B48003C0001404000014044000140000400488E
:104B580030B50368B3F1804F85B022D02C4A934218
:104B680007D02C4A934210D02B4A934241D005B02B
:104B780030BD2A4BDA6942F00202DA61DB6903F0E0
:104B880002030193019B05B030BD244BDA6942F062
:104B98000402DA61DB6903F004030293029B05B0A7
:104BA80030BD03F504331E4DDA691E4942F0010297
:104BB800DA61DB69296003F0010300931021002307
:104BC800C5E9011380224FF40073C5E903230446A5
:104BD8004FF40061009820224FF400532846C5E99D
:104BE8000512EB61FCF750FB78B925626C6205B0E1
:104BF80030BD0A4B9A6942F400529A619B6903F4EA
:104C080000530393039B05B030BDFFF73DFEECE76F
:104C18000004004000080040003401400010024039
:104C2800CC0000201C00024030B51F4B026889B040
:104C380000249A42CDE90244CDE90444069401D007
:104C480009B030BD03F5E6339FED157BDA6942F410
:104C58000032DA61DA6902F400320092009A5A6985
:104C680042F400325A615B6903F40033019302A9EC
:104C7800072303224FF09040CDE905238DED027BF9
:104C8800019DFCF79DFC224621462620FCF712FADE
:104C98002620FCF755FA09B030BD00BFAFF30080FD
:104CA8000C0000000200000000440040FBF7F0BACE
:104CB8000148FCF73BBC00BFCC0000200148FEF7D0
:104CC8009BBC00BF440000200148FCF72FBC00BF7C
:104CD800F00200201548164BD0F88810154A41F408
:104CE800700110B4C0F888101868134940F001002A
:104CF80018605C6822405A601A685DF8044B22F01C
:104D0800847222F480321A601A6822F480221A60AF
:104D18005A6822F4FE025A60DA6A22F00F02DA6256
:104D28001A6B0020114019639860704700ED00E08D
:104D3800001002400CC07FF8CCFC00FF01607047F7
:104D4800044B054900684FF0000C0F2283F800C09F
:104D5800FFF748BA50040020280400200048704794
:104D68003C04002030B40B4A0B4C0C4815782560E5
:104D78000B4B54780B49046001220B4C0A7003F169
:104D88000F0C5842C21813F8011FA1546345F9D1FA
:104D980030BC704738040020540400204C04002024
:104DA80027040020500400203C04002001607047C4
:104DB800044B002259705A801A710068052219465E
:104DC800FEF7D6BB0C00002003468446F820187175
:104DD8000020A3F809005CF8040BA3F80510A3F859
:104DE800072061460722FEF7C3BB00BFF8B50D4692
:104DF8000021C0E902314FF0FF33C0E90052C0E999
:104E08000A33164664230522C0E90C11C0E91011C3
:104E1800C0E91211C0E905230174416281630446A7
:104E280040F6340343F2BC40C4E907030B4F4FF488
:104E38008053E36342F22833236548F6A04238469C
:104E480000F0C0FA3046FDF79FFD44F25062394643
:104E58002846FBF719FD2046F8BD00BF5C0400207A
:104E68002DE9F041036D164E164D044644F24F6885
:104E780042F2273705E02A68022A15D02A68032A51
:104E880010D016F81310A068FFF792FF236D2A6858
:104E98000133012A2365EED1BB420CDC2A682A685B
:104EA800032AEED1BDE8F0814345E7DD00232B60FE
:104EB8002365BDE8F08100232B60BDE8F08100BFC9
:104EC8005C0400201400002070B5294D2B68022BCB
:104ED80006460C4639D0032B12D0012B3DD10A6D62
:104EE80042F227339A4235DDA26AE16A00232B6039
:104EF8004FF0FF33C6E90021C4E90A33304670BDDC
:104F08001C4BA0681A68096DFFF75EFF216D00232E
:104F180042F228329142D8BF1A4622654FF4805196
:104F28004FF0FF32C4E90E31C4E90C33C4E9103341
:104F3800C4E912332B60E36011464FF0FF33C6E932
:104F48000021C4E90A33304670BD0A6D42F22733A6
:104F58009A42C9DD2046FFF783FFD4E90A214FF0C2
:104F6800FF33C6E90021C4E90A33304670BD00BFEB
:104F780014000020580400200C490D480B68013328
:104F88005A42C2F30E02C3F30E0358BF53420B60DA
:104F98000368012B03D0022B01D01BB170470323F8
:104FA8000360704701230360704700BF5804002066
:104FB80014000020064A1368012B03D0022B01D0ED
:104FC8001BB17047032313607047022313607047B7
:104FD80014000020244B1B7810B5002B3DD1234A28
:104FE8002348136801335942C1F30E01C3F30E037A
:104FF8004FF0000458BF4B421E49136004600B6811
:10500800012B02DC0B6801330B601B4913680A682B
:1050180093FBF2F102FB113313B9184B01221A70FA
:10502800174B1A781A780D2A1A7808D87AB9154AB7
:10503800012111701A780132D2B21A7010BD0E2AED
:10504800FCD110490120FF2208701A7010BD1A788F
:105058000D498A5C002AEDD0E9E70C4801224FF49B
:105068000071FCF757FCBAE7FC9000208C910020F7
:10507800200000201C00002088910020FF900020C4
:1050880018000020FE9000207891002000080048B9
:1050980008B50B4B1B785BB90A4A0B4B0121116011
:1050A8001A688A4200DD08BD1A680A441A6008BDF9
:1050B800064800224FF40071FCF72CFCECE700BF17
:1050C800FC900020200000201C0000200008004860
:1050D80070B5054608461646174A82624FF0FF32F9
:1050E800C5E90232154B1649C162C5E904220122FD
:1050F80004211A709A73C5E90006124BE961062269
:105108000021114C29762A62191D4FF4800243F8B8
:10511800042FA342FBD10D4A40F6B833FCF770F9CF
:105128003046FDF731FC4FF080422846D36843F4FF
:105138008073D36070BD00BF99500008789100203B
:10514800DD4F00088C9100206CC000201808004832
:1051580070B4124E054606F17804481E10F801CFC7
:10516800314600234CFA03F2013302F00102082B06
:1051780001F8012BF6D10836A642EFD1084B1B687F
:1051880001220233EA605A42C2F30E02C3F30E034D
:1051980058BF53422B6170BC704700BF009100207C
:1051A8008C910020F8B51A4D2F7804460FBBDFF814
:1051B80074C01848184E0022402540F2DC51A0FB6C
:1051C80002E39B09C3EB0313A2EBC3031CF80330F0
:1051D8000BB146F8225001328A42F0D10F48E168FB
:1051E80061614FF0FF330022C4E90333026047B91D
:1051F800F8BD0B4801224FF48061FCF78BFB2F7838
:10520800D5E7BDE8F84006484FF48061FCF782BB5B
:10521800FC90002089888888909100201C0000203C
:105228000008004800910020F8B5184D2F78044672
:10523800E7B9DFF868C01648164E00224FF480051B
:1052480040F2DC51A0FB02E39B09C3EB0313A2EB82
:10525800C3031CF803300BB146F8225001328A42CE
:10526800F0D14FF0FF33636147B9F8BD0A48012216
:105278004FF48071FCF74EFB2F78DAE7BDE8F84071
:10528800054800224FF48071FCF744BBFC900020D5
:1052980089888888909100200008004800910020A3
:1052A800274A38B51378044623B3037E254DDBB966
:1052B8006169002903DB244B1B68022B31D02B6862
:1052C80022699A4200D038BD204B1B68002B30D091
:1052D800012BF8D1E16840F2DB539942F3DD204617
:1052E800BDE83840FFF75EBF29680023C0E90331F5
:1052F8001370DDE7164A03F0FF01137803F0FF008F
:1053080043B1104DE1602B6823610F4B11700222ED
:105318001A60CDE70F4B0B4D1A78002AC8D01870C9
:10532800C6E72046FFF780FF2B6822699A42CAD158
:10533800CAE7E16840F2DB539942D0DD38BD00BFCF
:10534800FF9000208C9100201C00002020000020ED
:10535800FE900020FD90002000B5A5B00E46054641
:10536800114602A81446FFF7E9FC02A8FFF7E8FC7B
:10537800214603A8FFF71AFDDDE9271203AB06A8AB
:10538800FFF7A6FE03AB324629460FA8FFF72EFD0E
:105398000B4C01238DF84C3068460FA9FFF794FD9C
:1053A800237802A843B1FFF7D9FC014606A8FFF706
:1053B800CFFE02A8FFF7C4FC06A8FFF771FFEBE7D2
:1053C8005004002002440346934200D1704703F87A
:1053D800011BF9E770B50D4D0D4C641BA410002698
:1053E800A64209D10B4D0C4C00F018F8641BA41010
:1053F8000026A64205D170BD55F8043B98470136F2
:10540800EEE755F8043B98470136F2E734570008B1
:10541800345700083457000838570008F8B500BF5B
:10542800F8BC08BC9E467047F8B500BFF8BC08BC7D
:045438009E467047D5
:10543C002E2E2F447269766572732F53544D33326E
:10544C00463378785F48414C5F4472697665722FB9
:10545C005372632F73746D3332663378785F68617F
:10546C006C5F6164635F65782E6300002E2E2F44A1
:10547C007269766572732F53544D33324633787894
:10548C005F48414C5F4472697665722F5372632F8B
:10549C0073746D3332663378785F68616C5F636FF9
:1054AC00727465782E6300002E2E2F447269766517
:1054BC0072732F53544D3332463378785F48414CD6
:1054CC005F4472697665722F5372632F73746D33F8
:1054DC0032663378785F68616C5F6461632E630059
:1054EC002E2E2F447269766572732F53544D3332BE
:1054FC00463378785F48414C5F4472697665722F09
:10550C005372632F73746D3332663378785F6861CE
:10551C006C5F6461635F65782E6300002E2E2F44F0
:10552C007269766572732F53544D333246337878E3
:10553C005F48414C5F4472697665722F5372632FDA
:10554C0073746D3332663378785F68616C5F646D49
:10555C00612E63002E2E2F447269766572732F5361
:10556C00544D3332463378785F48414C5F4472690E
:10557C007665722F5372632F73746D333266337882
:10558C00785F68616C5F6770696F2E630000000064
:10559C002E2E2F447269766572732F53544D33320D
:1055AC00463378785F48414C5F4472697665722F58
:1055BC005372632F73746D3332663378785F68611E
:1055CC006C5F6F70616D702E630000002E2E2F4487
:1055DC007269766572732F53544D33324633787833
:1055EC005F48414C5F4472697665722F5372632F2A
:1055FC0073746D3332663378785F68616C5F726395
:10560C00632E63002E2E2F447269766572732F53AE
:10561C00544D3332463378785F48414C5F4472695D
:10562C007665722F5372632F73746D3332663378D1
:10563C00785F68616C5F7263635F65782E630000EE
:10564C002E2E2F447269766572732F53544D33325C
:10565C00463378785F48414C5F4472697665722FA7
:10566C005372632F73746D3332663378785F68616D
:10567C006C5F74696D2E63002E2E2F4472697665F3
:10568C0072732F53544D3332463378785F48414C04
:10569C005F4472697665722F5372632F73746D3326
:1056AC0032663378785F68616C5F74696D5F6578BA
:1056BC002E6300002E2E2F447269766572732F5361
:1056CC00544D3332463378785F48414C5F447269AD
:1056DC007665722F5372632F73746D333266337821
:1056EC00785F68616C5F756172742E6300000000F6
:1056FC000102030405060708090A0B0C0D0E0F1016
:10570C0002030405060708090A0B0C0D0E0F1010F6
:10571C000000000001020304000000000000000073
:08572C0001020304060708094D
:04573400BD010008AB
:0457380099010008CB
:10573C00010000001000000000127A00F0000000D0
:10574C000700000002000000FF0000000200000043
:04575C000100000048
:04000005080001D915
:00000001FF
