:020000040800F2
:1000000000000120F5070008450800084508000821
:1000100045080008450800084508000800000000E1
:10002000000000000000000000000000450800087B
:100030004508000800000000450800085D50000861
:10004000450800084508000845080008450800085C
:10005000450800084508000845080008450800084C
:10006000450800084508000845080008450800083C
:1000700061500008450800084508000845080008C8
:10008000450800084508000845080008450800081C
:10009000450800084508000845080008450800080C
:1000A00045080008450800084508000845080008FC
:1000B00045080008450800084508000845080008EC
:1000C00045080008450800084508000845080008DC
:1000D000450800086D50000845080008450800085C
:1000E00045080008450800084508000845080008BC
:1000F00045080008450800084508000845080008AC
:100100004508000800000000000000004508000845
:10011000450800084508000845080008450800088B
:1001200045080008795000084508000845080008FF
:100130004508000845080008000000000000000015
:1001400045080008450800084508000800000000B0
:10015000000000000000000000000000000000009F
:10016000450800084508000845080008450800083B
:10017000450800084508000845080008450800082B
:1001800045080008450800080000000000000000C5
:040190004508000816
:1001980010B5054C237833B9044B13B10448AFF3B9
:1001A80000800123237010BD1C0000200000000007
:1001B800E85A000808B5034B1BB103490348AFF3DD
:1001C800008008BD0000000020000020E85A000858
:1001D80070B54FF0FF0C4CF4E06C1CEA11541DBFD5
:1001E8001CEA135594EA0C0F95EA0C0F00F0DEF8A0
:1001F8002C4481EA030621EA4C5123EA4C5350EA85
:10020800013518BF52EA033541F4801143F48013D5
:1002180038D0A0FB02CE4FF00005E1FB02E506F066
:100228000042E0FB03E54FF00006E1FB03569CF0BB
:10023800000F18BF4EF0010EA4F1FF04B6F5007FC1
:1002480064F5407404D25FEA4E0E6D4146EB060633
:1002580042EAC62141EA55514FEAC52040EA5E50BC
:100268004FEACE2EB4F1FD0C88BFBCF5E06F1ED866
:10027800BEF1004F08BF5FEA500E50F1000041EB9D
:10028800045170BD06F0004646EA010140EA02004A
:1002980081EA0301B4EB5C04C2BFD4EB0C0541EA6C
:1002A800045170BD41F480114FF0000E013C00F381
:1002B800AB8014F1360FDEBF002001F0004170BDA5
:1002C800C4F10004203C35DA0C341BDC04F11404BE
:1002D800C4F1200500FA05F320FA04F001FA05F24A
:1002E80040EA020001F0004221F0004110EBD37017
:1002F80021FA04F642EB06015EEA430E08BF20EA43
:10030800D37070BDC4F10C04C4F1200500FA04F3E5
:1003180020FA05F001FA04F240EA020001F0004177
:1003280010EBD37041F100015EEA430E08BF20EAEA
:10033800D37070BDC4F1200500FA05F24EEA020E32
:1003480020FA04F301FA05F243EA020321FA04F061
:1003580001F0004121FA04F220EA020000EBD37018
:100368005EEA430E08BF20EAD37070BD94F0000F18
:100378000FD101F00046400041EB010111F4801F4C
:1003880008BF013CF7D041EA060195F0000F18BFFD
:10039800704703F00046520043EB030313F4801F39
:1003A80008BF013DF7D043EA0603704794EA0C0FF3
:1003B8000CEA135518BF95EA0C0F0CD050EA410609
:1003C80018BF52EA4306D1D181EA030101F0004186
:1003D8004FF0000070BD50EA410606BF10461946AE
:1003E80052EA430619D094EA0C0F02D150EA0136BA
:1003F80013D195EA0C0F05D152EA03361CBF1046FB
:1004080019460AD181EA030101F0004141F0FE4199
:1004180041F470014FF0000070BD41F0FE4141F41D
:10042800780170BD81F0004102E000BF83F0004315
:1004380030B54FEA41044FEA430594EA050F08BF77
:1004480090EA020F1FBF54EA000C55EA020C7FEA3B
:10045800645C7FEA655C00F0E2804FEA5454D4EBB8
:100468005555B8BF6D420CDD2C4480EA020281EA82
:10047800030382EA000083EA010180EA020281EABA
:100488000303362D88BF30BD11F0004F4FEA01310C
:100498004FF4801C4CEA113102D0404261EB41011B
:1004A80013F0004F4FEA03334CEA133302D05242A1
:1004B80063EB430394EA050F00F0A780A4F101045D
:1004C800D5F1200E0DDB02FA0EFC22FA05F2801897
:1004D80041F1000103FA0EF2801843FA05F359417D
:1004E8000EE0A5F120050EF1200E012A03FA0EFCFC
:1004F80028BF4CF0020C43FA05F3C01851EBE37126
:1005080001F0004507D54FF0000EDCF1000C7EEB42
:1005180000006EEB0101B1F5801F1BD3B1F5001F80
:100528000CD349085FEA30004FEA3C0C04F101049F
:100538004FEA445212F5800F80F09A80BCF1004FC8
:1005480008BF5FEA500C50F1000041EB045141EA4A
:10055800050130BD5FEA4C0C404141EB0101013C13
:1005680028BFB1F5801FE9D291F0000F04BF014602
:100578000020B1FA81F308BF2033A3F10B03B3F1D4
:1005880020020CDA0C3208DD02F1140CC2F10C0264
:1005980001FA0CF021FA02F10CE002F11402D8BFC2
:1005A800C2F1200C01FA02F120FA0CFCDCBF41EA8E
:1005B8000C019040E41AA2BF01EB0451294330BD5D
:1005C8006FEA04041F3C1CDA0C340EDC04F114043A
:1005D800C4F1200220FA04F001FA02F340EA030011
:1005E80021FA04F345EA030130BDC4F10C04C4F157
:1005F800200220FA02F001FA04F340EA0300294637
:1006080030BD21FA04F0294630BD94F0000F83F480
:10061800801306BF81F480110134013D4EE77FEA63
:10062800645C18BF7FEA655C29D094EA050F08BFAF
:1006380090EA020F05D054EA000C04BF1946104690
:1006480030BD91EA030F1EBF0021002030BD5FEAD4
:10065800545C05D14000494128BF41F0004130BDFC
:1006680014F580043CBF01F5801130BD01F0004550
:1006780045F0FE4141F470014FF0000030BD7FEAC3
:10068800645C1ABF194610467FEA655C1CBF0B46BE
:10069800024650EA013406BF52EA033591EA030FD5
:1006A80041F4002130BD00BF90F0000F04BF0021CD
:1006B800704730B54FF4806404F132044FF0000500
:1006C8004FF0000150E700BF90F0000F04BF002179
:1006D800704730B54FF4806404F1320410F00045DF
:1006E80048BF40424FF000013EE700BF42004FEADA
:1006F800E2014FEA31014FEA02701FBF12F07F4357
:1007080093F07F4F81F06051704732F07F4208BF0D
:10071800704793F07F4F04BF41F40021704730B514
:100728004FF4607401F0004521F000411CE700BF60
:1007380050EA010208BF704730B54FF000050AE0E3
:1007480050EA010208BF704730B511F0004502D5E4
:10075800404261EB41014FF4806404F132045FEAE6
:10076800915C3FF4D8AE4FF003025FEADC0C18BF8F
:1007780003325FEADC0C18BF033202EBDC02C2F181
:10078800200300FA03FC20FA02F001FA03FE40EA13
:100798000E0021FA02F11444BDE600BF4FEA4102FF
:1007A80012F5001215D211D56FF47873B3EB6252BB
:1007B80012D94FEAC12343F0004343EA505311F0E2
:1007C800004F23FA02F018BF404270474FF0000074
:1007D800704750EA013005D111F0004008BF6FF0B2
:1007E800004070474FF00000704700BFDFF834D07A
:1007F80004F044FC0C480D490D4A002302E0D4588B
:10080800C4500433C4188C42F9D30A4A0A4C002352
:1008180001E013600432A242FBD305F03DF903F076
:100828000DFFFEE700000120000000201C00002052
:100838001C5E00081C000020C0BF0020FEE700006E
:1008480038B50E4A0E4B1278054618684FF47A737D
:10085800B3FBF2F3B0FBF3F000F094FF08B90F2DEF
:1008680001D9012038BD0446024629464FF0FF3021
:1008780000F02EFF034B20461D6038BD000000200D
:100888000800002004000020074A08B5136843F058
:1008980010031360032000F0FDFE0020FFF7D0FFD7
:1008A80004F0B6F9002008BD00200240034A044BBA
:1008B80011681B780B441360704700BF3800002094
:1008C80000000020014B1868704700BF3800002066
:1008D800704700BF026838B5936803F00303012B23
:1008E80001D0002038BD1368DC07FAD5936803F0FF
:1008F8000D03012B044609D0236C43F01003236435
:10090800636C43F001036364012038BD93680321DD
:1009180043F0020393601160FFF7D4FF23689B68DC
:10092800D9070546DDD5FFF7CDFF401B0228236810
:1009380002D99A68D207DFD49B68DB07F3D4D0E7E3
:10094800026838B5936803F00303012B044626D0E8
:100958009168154B194209D0236C43F010032364A6
:10096800636C43F001036364012038BD936843F06E
:1009780001039360FFF7A6FF236805461B68D907A4
:100988000BD4FFF79FFF431B022B2368F6D91A6885
:10099800D207E1D51B68D907F3D5002038BD136805
:1009A800D807D5D50020F9E73F000080406A036CDE
:1009B80043F040030364436C43F004034364FFF7CC
:1009C80087BF00BF406A04F0EFBC00BF436A1A6CDF
:1009D80012F0500F18D11A6C196842F400721A6498
:1009E800CA6812F4406F0CD15A7E52B91A6C22F4BC
:1009F80080721A641A6CD20403D41A6C42F0010291
:100A08001A64184604F0EEBC9B6B1B6B184700BFBA
:100A180030B597B000230193002800F0A880036840
:100A2800B3F1A04F04460ED0A74A93420BD002F56B
:100A38004072934207D002F58072934203D0A348D4
:100A4800F22104F0E3F8636833F4403303D09F489D
:100A5800F32104F0DBF8A36843B1182B00F25C81A2
:100A68009B4A22FA03F3DD0740F15681E36833F02D
:100A7800200303D09548F52104F0C8F82369012B19
:100A880000F2F880637E012B00F2EA80E36A33F417
:100A9800406303D08D48F82104F0B8F8A36A012B0D
:100AA80025D923F08002402A21D023F40072B2F520
:100AB800E07F1CD023F41072B2F5807F17D023F4A6
:100AC8008072802A13D023F0C002B2F5007F0ED0C6
:100AD800B3F5607F0BD0B3F58A5F08D023F04003ED
:100AE800B3F5845F03D07948F92104F08FF894F8BE
:100AF8003030012B00F2D9806369042B02D0082B17
:100B080040F0D880636B012B00F2C680237E012B56
:100B180000F2B98023697BB1E369013B0F2B00F236
:100B28000B8194F82030012B00F2EE8023B1636A28
:100B3800013B072B00F2FA80206C10F0100019D14D
:100B4800256C002D00F0FE8023689A68D20040F1E1
:100B5800C9809A68950000F1C580226CD10600D43E
:100B680060B1236C23F0120343F0100323640120C7
:100B780017B030BD236CD806F3D423689A6852079F
:100B8800EFD4226C22F4817242F00202B3F1A04F3A
:100B980022644D4A00F04D81934200F0518102F5E4
:100BA8004072934200F0DC804A498B4200F05A813F
:100BB8009A6802F00302012A00F0568146488268CA
:100BC800616822F440320A438260D4E902120A437F
:100BD800616B607E013918BF012142EA403242EA66
:100BE800013294F82010012900F0FE80A16A012941
:100BF8000ED03A48834200F0078100F580708342A6
:100C080000F0028121F48051E06A104340EA0102B9
:100C1800996811F00C0F0CD1D96821F4804121F0AA
:100C28000201D96094F83010207E490041EA8031F1
:100C38000A43D8682A490140206911430128D9602C
:100C480000F0DA801A6B22F00F021A630020606449
:100C5800236C23F0030343F00103236417B030BD72
:100C68001A48F72103F0D2FFE36A33F440633FF4F4
:100C780015AF0FE71548F62103F0C8FF637E012B77
:100C88007FF604AFECE71148FD2103F0BFFF2369AD
:100C9800002B3FF451AF3FE70C48FC2103F0B6FFAF
:100CA800237E012B7FF636AFEDE70848FA2103F0E3
:100CB800ADFF21E70548FB2103F0A8FF636B012B7B
:100CC8007FF624AFE8E700BF00010050005B000892
:100CD8000001010100050050000700500004005009
:100CE80007C0F0FF236C23F0120343F010032364C2
:100CF800636C43F001036364236C236C23F01203D9
:100D080043F01003236432E760484FF4817103F025
:100D18007DFF94F8203009E75C48F42103F076FF62
:100D2800E36833F020033FF4A9AEA3E6574840F246
:100D3800051103F06BFFFFE6544840F2011103F080
:100D480065FFEEE6C4E91255656484F83C50204618
:100D580003F078FF23689A68D10014D52846F4E692
:100D68004B4A4C489968029201F00301012962D06C
:100D7800916801F0030101297FF421AF1268D507BA
:100D88003FF523AF1BE72046FFF7A4FD236C13F0C4
:100D9800100F23687FF4D9AE00287FF4D6AE226CFA
:100DA8003D4D22F4885222F0020242F002022264EF
:100DB80099682A6821F040519960996841F08051FA
:100DC80099603649A1FB0212920C02EB8202520092
:100DD8000192019A002A3FF4B8AE019A013A0192B1
:100DE800019A002AF9D1B0E670BB616A013942EA7A
:100DF800414141F48032F9E6196BE26921F00F01B3
:100E0800013A0A431A6321E7B1F5307F27D0B1F5DB
:100E1800807F2ED0B1F5E07F2ED0B1F58A5F2ED03D
:100E2800B1F5845F2ED0B1F5865F08BF4FF4C0716D
:100E3800EAE61B4896E71968C9073FF5C6AE97E783
:100E480017484FF0A0428DE7216C21F0220141F0B4
:100E580020012164616C41F001016164C6E64FF430
:100E6800E071D1E60B487DE71A68D0073FF5ADAED3
:100E7800A4E64FF43071C7E64FF48071C4E64FF42E
:100E88007071C1E64FF4A071BEE600BF005B0008B8
:100E980000050050000700500800002083DE1B43B7
:100EA80000030050F8B504460068B0F1A04F0F46A3
:100EB800164610D0544B98420DD003F54073984213
:100EC80009D003F58073984205D0504840F65B116D
:100ED80003F09CFE206885686D0721D494F83C30A7
:100EE800012B1DD00123B0F1A04F84F83C300FD066
:100EF800454B98420CD0464B9B6813F01F0F0CBF14
:100F0800012300237BB984F83C3001252846F8BD2D
:100F1800404B9B6813F01F0F0CBF01230023F1E720
:100F280002252846F8BD2046FFF70AFD0546002899
:100F38004CD1236C216823F4706323F0010343F43C
:100F48008073B1F1A04F236453D02F4B994241D005
:100F58002F4B9B68DA064ED02F4A91424BD0236C18
:100F680043F480132364D368C3F340632BB1236C29
:100F780023F4405343F480532364236CA06BDFF8BD
:100F8800A4C013F480531CBF636C23F0060363648E
:100F98003A4633464FF0000E204E214F84F83CE08D
:100FA80006631C26C0E90AC70E604E6846F01006A4
:100FB8004E60CE6846F00106CE60403100F02EFD4E
:100FC8002268936843F0040393609FE7002384F842
:100FD8003C309BE703F500739B68D8060BD0236C65
:100FE80043F4801323644FF0A043DB68C3F34063EA
:100FF800BCE7084B9B68236C23F480132364CB68FD
:101008009B01BAD5B3E700BF00010050005B0008A0
:10101800000700500003005000040050B509000804
:10102800CD090008D509000870B5036896B00022FC
:10103800B3F1A04F054601920C460FD0A94A93423E
:101048000CD002F54072934208D002F580729342A8
:1010580004D0A54841F2B85103F0D8FD6368013BBC
:101068000F2B00F20981A368072B00F20E81E368B9
:10107800012B04D99C4841F2BB5103F0C7FD2369F9
:10108800042B00F2F3802B68DA6812F0180F53D1A2
:101098006269B2F5805F4FD2E2682368012A03F1E2
:1010A800FF3367D0112B00F2918095F83C30012B6B
:1010B8006BD001222B6885F83C209A6852076AD4C5
:1010C8006068216800EB400204284FEA420200F2FF
:1010D800E280186B4FF01F0C0CFA02FC20EA0C009F
:1010E80001FA02F202431A639A6812F00C0F7BD1DC
:1010F8000929A26801EB410000F2E8805E694FF01F
:10110800070C82400CFA00F026EA000002435A61FC
:101118002069DA6800F1FF3CC2F3C102606952003D
:1011280090408A06BCF1030F00F2B281DFE81CF0A0
:1011380054005C0153014A01DA6802F01802082AD7
:1011480033D0DA6802F01802102A00F0DD80DB687C
:1011580003F01803182B02D163693F2B9CD962480E
:1011680041F2BD5103F052FDE2682368012A03F100
:10117800FF3397D10D2B98D95B4841F2C95103F041
:1011880045FD95F83C30012B93D1022016B070BD77
:101198001C68E40759D52B6C43F020032B6401200D
:1011A800002385F83C3016B070BD6269B2F5806FD7
:1011B800FFF472AFDA6802F01802102AC7D14A4861
:1011C800DB6841F2BD5103F021FDCDE7464841F20D
:1011D800C55103F01BFD68E71E6E1043434A3240B9
:1011E800024342F000421A669A6802F00302012A9A
:1011F80000F08F80E0680122012802FA01F200F075
:101208008E80D3F8B00020EA0202C3F8B020B3F110
:10121800A04F00F09980334A93426BD0102900F018
:10122800B280112900F0E980314A122975D19068FD
:10123800440272D4B3F1A04F40F0E38029489C687F
:10124800029004F00304012CA2D0846804F0030483
:10125800012C00F0EE80102900F0F080112900F038
:10126800DA80936843F48003936056E01E4841F2A5
:10127800BC5103F0CBFC06E71B4841F2B95103F01F
:10128800C5FCA368072B7FF6F2AE174841F2BA51A6
:1012980003F0BCFCEBE609280DD90E2800F2878084
:1012A800986B3C3A1F26964020EA060001FA02F2A3
:1012B80002439A6318E7586B1E3A1F26964020EAA5
:1012C800060001FA02F202435A630DE79E691E38CE
:1012D8004FF0070C82400CFA00F026EA00000243A7
:1012E8009A6115E700010050005B000800F0FF83D9
:1012F8000007005010297B4A00F08980112994D1F9
:101308009068C6017DD508E06269FF2A7FF6C4AE01
:1013180055E71A68D6077FF56DAF002040E7D3F888
:10132800B000A46802430929C3F8B02017D901EB1B
:1013380041009A691B380726844006FA00F022EA21
:10134800000222439A6162E71029664A6CD011298B
:101358007FF46BAF9068C0017FF570AFDDE7481C84
:101368005A6900EB40000726844006FA00F022EA9A
:1013780000022243B3F1A04F5A61CED05A4A934299
:101388007FF452AFC9E7594A90680002C5D458485B
:10139800834270D0574CA3423FF451AF986800F095
:1013A8000300012869D010297FF458AFB5E7D86B3E
:1013B8005A3A1F26964020EA060001FA02F2024332
:1013C800DA6391E6DE6E10434B4A3240024342F044
:1013D8000042DA6608E79E6E1043474A32400243ED
:1013E80042F000429A66FFE65E6E1043424A32407F
:1013F800024342F000425A66F6E63C4A9068C4014D
:101408008BD439488342C2D14FF0A04017E7906887
:101418000402F9D581E7B3F1A04F7FF47EAF93685A
:1014280043F08073936078E7906806027FF506AF13
:1014380073E70068C0073FF5AEAE0CE7B3F1A04F05
:101448007FF46BAF2D4B2E481B689168A0FB0303FC
:101458009B0C03EB83035B0041F400019160019353
:10146800019B002B3FF459AF019B013B0193019B6A
:10147800002BF9D151E71F48E1E61B68DE073FF56D
:101488008AAE10293FF449AF11297FF4EAAE44E748
:10149800186E00F0F840904214D0586E00F0F840F2
:1014A800904214D0986E00F0F840904214D0D86E54
:1014B80000F0F84090427FF497AEDA6E22F00042D6
:1014C800DA6691E6186E20F000401866E5E7586E77
:1014D80020F000405866E5E7986E20F000409866D6
:1014E800E5E700BF0003005000010050000700506E
:1014F800000400500005005000F0FF8308000020A1
:1015080083DE1B43F8B50368B3F1A04F04460D46CC
:1015180007D05A4A934204D0594841F6953103F00E
:1015280075FB2B68092B73D840F2EF22DA40D607F7
:101538006ED5D3B16B6833F4004207D0B3F5404F92
:1015480004D04F4841F6993103F060FBAB6833F49F
:1015580040730AD0B3F5806F07D0B3F5006F04D09D
:10156800474841F69A3103F051FB2368454AB3F1E5
:10157800A04F0CD0934208D002F5407293424ED04F
:1015880041498B4203D00120F8BD4FF0A04294F8A6
:101598003C10012948D0012184F83C10996848077B
:1015A80008D5236C43F0200301202364002384F82A
:1015B8003C30F8BD91684907F3D4B3F1A04F4AD045
:1015C800304E32493248B34218BF0146286868B3E2
:1015D8008E686F6826F4604C94F8306047EA4636A7
:1015E80046EA0C068E609E6806F00306012E3CD083
:1015F800936803F00303012B2FD08B68AA6823F4A8
:101608007163104323F00F03184388600020CDE76F
:101618001B4841F6963103F0F9FA2B6889E794F8EC
:101628003C10194A0129B6D10220F8BD886820F477
:1016380060408860986800F00300012819D093681A
:1016480003F00303012B0CD08B6823F4716323F0A0
:101658000F038B60DAE70D49B8E71368DE07D5D4C6
:10166800CBE71368DB07D1D4EEE71B68DF07CDD4DF
:10167800BEE71B68D807C9D4E1E700BF00040050E3
:10168800005B0008000100500005005000030050F6
:1016980000070050C31E042B10B504460ED80A4993
:1016A800CA6823024FF6FF0003F4E06302401343C5
:1016B80043F0BF6343F40033CB6010BD0348AB2154
:1016C80003F0A4FAEBE700BF00ED00E03C5B000884
:1016D8000F2A70B5164605460C4634D80F2C2DD85F
:1016E8001B4BDB68C3F30223C3F10702042A03F18F
:1016F800040128BF0422062917D9D91E4FF0FF3349
:101708008B4026EA03064FF0FF33934024EA030395
:101718008B4033431B01002DDBB209DB05F160452B
:1017280005F5614585F8003370BD00263146EAE7C6
:10173800084A05F00F052A44137670BD0648C421EF
:1017480003F064FACCE70448C32103F05FFAC5E765
:1017580000ED00E0FCEC00E03C5B0008002808DB42
:101768004109064A00F01F000123834042F8213056
:1017780070470348D72103F049BA00BF00E100E0F1
:101788003C5B00080138B0F1807F01D3012070472D
:1017980010B44FF0E023074C58614FF0F00C84F878
:1017A80023C00022072110469A615DF8044B196195
:1017B800704700BF00ED00E0D8B10F4B02689A42B5
:1017C80010B5044604D00D4840F2471103F01EFA44
:1017D800237903F0FF023BB100230221012221718A
:1017E80023612271184610BD6271204603F0D4FAB5
:1017F800F2E70120704700BF00740040785B0008E2
:101808000B6870B50D46044616464BB11C2B36D8EE
:10181800032B3DD94FF0103222FA03F3DB0737D5FB
:101828006B6833F0020304D01D4840F2163103F010
:10183800EDF936F0100304D019484FF4467103F05F
:10184800E5F96379012B29D002232371D5E900300A
:1018580022680343116840F6FE70B04021EA000197
:10186800B3400B4313601368C021B140002523EA3D
:1018780001030121136021716571284670BD243B65
:10188800182B05D84FF0013222FA03F3DA07C7D430
:1018980003484FF4427103F0B9F9C1E7022070BD63
:1018A800B05B0008002800F0A78038B5534A0368E9
:1018B8009342044625D01432934222D014329342E4
:1018C8001FD0143293421CD01432934219D01432D0
:1018D800934216D01432934213D002F562729342A7
:1018E8000FD0143293420CD01432934209D01432E0
:1018F800934206D01432934203D04148932103F017
:1019080085F9636833F010025CD1A36833F04003B3
:1019180003D03B48952103F079F9E36833F080035D
:1019280003D03748962103F071F9236933F48072A4
:1019380002D0B3F5007F4DD1636933F4806202D0E1
:10194800B3F5006F4FD1A36933F0200303D02C48BF
:10195800992103F05BF9E06930F4405304D028483A
:101968009A2103F053F9E0696368A568E168226881
:101978002B430B4321690B4361690B43A1690B435B
:1019880011686FF30D110B431E4903438A4213601C
:101998000FD91D4B1D491344A1FB03131B091C49F7
:1019A8009B004FF4807200202284C4E90F13A063C7
:1019B80038BD184B15491344A1FB03131B091649DD
:1019C8009B00EEE7B3F5804F9FD00D48942103F0BC
:1019D8001DF99AE70A48972103F018F9636933F467
:1019E8008062B0D0ACE70648982103F00FF9A369EC
:1019F80033F02003AFD0AAE7012070470800024067
:101A0800EC5B000807040240F8FBFDBFCDCCCCCC52
:101A180000040240F8FFFDBF000002402DE9F0413C
:101A28005D1E1E464FF6FE739D4204460F469046C5
:101A380035D894F82030012B09D0012384F82030C0
:101A480094F82130012B05D0002384F8203002209F
:101A5800BDE8F081022284F8212025680022A263D3
:101A68002A6822F001022A60226C9340E26B5360DC
:101A780063686E60102BE36A0BBFC5F80880AF601F
:101A8800EF60C5F80C8083B12B6843F00E032B6020
:101A98002B6843F0010300202B60BDE8F081074864
:101AA8004FF4A67103F0B2F8C3E72B6843F00A03BA
:101AB8002B602B6823F004032B60E9E7EC5B00083C
:101AC80048B190F82120022A034606D004210022BA
:101AD800816380F82020012070470268116821F096
:101AE8000E0110B4046CC06B1160116821F0010183
:101AF80011600122A2404FF48071426019840020D5
:101B08005DF8044B704700BF90F82120022A03D0EB
:101B180004228263012070470268116821F00E01D7
:101B280010B5C46B1160116821F001011160016CDE
:101B380001228A40416B62604FF4807CA0F820C08B
:101B480001B18847002010BD70B4C66B026C3168C3
:101B58000468042393400B4225680ED015F0040F47
:101B68000BD02268920603D4226822F00402226075
:101B7800C26A7360CAB170BC1047022393400B421B
:101B880015D015F0020F12D02268920606D42268EA
:101B980022F00A022260012280F82120826A736002
:101BA800002180F82010002AE5D170BC7047082376
:101BB80093400B42F9D02B07F7D52368016B23F02C
:101BC8000E032360012303FA02F24FF4807472605B
:101BD800048483630029E8D070BC08472DE9F04FDE
:101BE800B0F1904F85B0064688461ED0B84B984253
:101BF8001BD003F58063984217D003F580639842A1
:101C080013D003F5806398420FD003F580639842A0
:101C18000BD003F58063984207D003F580639842A0
:101C280003D0AC48B22102F0F1FFD8F800108BB213
:101C38001BB1B1F5803FC0F02981A648B32102F05D
:101C4800E5FFD8F80430B3F5041F0ED0B3F5041F30
:101C580000F22681B3F5881F07D000F25A81032BC2
:101C680003D9113B012B00F22581D8F80010002977
:101C780000F0DA80DFF874B2DFF8749200240125EE
:101C8800A54015EA010300F0CA80D8F8040000F066
:101C980003014FEA440A032701F1FF3C07FA0AF758
:101CA800BCF1010F6FEA070740F2C18003294ED04B
:101CB800D8F80850022D00F2DE80F26805FA0AF51D
:101CC80002EA070C45EA0C050229F5603FD1B6F196
:101CD800904F1FD07E4A96421CD07F498E4219D021
:101CE80001F580618E4215D001F580618E4211D0D8
:101CF80001F580618E420DD001F580618E4209D0D8
:101D080001F580618E4205D072480193E22102F00C
:101D18007DFF019BD8F810000C2804D9A0F10E0112
:101D2800012900F2CC80E50806EB850504F00701DF
:101D38002A6A89004FF00F0E88400EFA01F122EA54
:101D480001010143D8F80400296200F00301356855
:101D580001FA0AF13D40294310F4403F31605CD05C
:101D6800DBF8185045F00105CBF81850DBF818508F
:101D780024F0030101F1804105F0010501F58031EE
:101D8800039504F0030C039D8D684FEA8C0C0F2714
:101D980007FA0CF7B6F1904F25EA07051BD04C4A15
:101DA800964200F0AC804C4FBE4200F0AD804B4FE5
:101DB800BE4200F09F804A4FBE4200F0AF80494FBC
:101DC800BE4200F0B080484FBE420CBF062707272E
:101DD80007FA0CF73D438D60D9F80810DD43C702B8
:101DE80054BF29401943C9F80810D9F80C108202C9
:101DF80054BF29401943C9F80C10D9F804108703B7
:101E080054BF29401943C9F80410D9F80010C20377
:101E180054BF29401943C9F80010D8F800100134FC
:101E280031FA04F37FF42BAF05B0BDE8F08FD8F892
:101E38000C20012A0DD9032A0BD026480193C3216F
:101E480002F0E4FED8F80400D8F80C20019B00F05A
:101E5800030102FA0AFCB26802EA070E4CEA0E0213
:101E6800B260726822EA050CC0F30015A54045EA85
:101E78000C0575601AE717480193D42102F0C6FED5
:101E8800D8E90105019B00F0030116E7D8F80430F2
:101E9800B3F5041F3FF4EEAEB3F5041F7FF6DAAED8
:101EA800B3F5441F3FF4E1AE23F48013B3F5081FE4
:101EB8003FF4DBAE0748B42102F0A8FED5E605489A
:101EC8000193E32102F0A2FED8F81000019B2AE753
:101ED80000040048245C000800080048000C004882
:101EE8000010004800140048001800480010024084
:101EF80000040140032707FA0CF73D436BE701276D
:101F080007FA0CF73D4366E7022707FA0CF73D434B
:101F180061E7B3F5901F3FF4A8AECBE7042707FAB3
:101F28000CF73D4357E7052707FA0CF73D4352E7FF
:101F380070B5064615460C4659B1012D02D835B97B
:101F4800B46270BD064840F2A51102F05FFEB461AC
:101F580070BD03484FF4D27102F058FEEDE700BFA0
:101F6800245C0008002800F0CD8010B590F83230CD
:101F7800052B82B0044600F09A8090F83230022B8C
:101F880000F095800368724A93420DD00432934260
:101F98000AD00432934207D00432934204D06D48E9
:101FA8004FF4857102F032FE6368002B00F08280E6
:101FB80023F02003402B00F0A080664840F20D116A
:101FC80002F024FEE3680C2B09D033F0040206D09B
:101FD800082B04D05F484FF4877102F017FE63683E
:101FE800002B6AD02369ABB1802B73D1A36933F47A
:101FF800C06304D0574840F2231102F007FE63681B
:102008004BB9636933F4807307D052484FF4937126
:1020180002F0FCFD6368402B76D0636A4BB1B3F5E0
:10202800802F60D1A36A1F2B00F28C80E36A1F2BDC
:102038007CD8494B9A6942F001029A619B6903F086
:1020480001030193019B94F8323003F0FF020BB9AE
:1020580084F83120204602F0DBFE636823F020027A
:10206800402A34D0D4E902120B4313432069626931
:10207800A16903431343D4E907200B431343626A5E
:10208800216803431343D4E90A0243EAC04343EAFD
:1020980002630868314A024013430B6094F83230F7
:1020A80013B9012384F83230002002B010BD01209A
:1020B80002B010BDE3680C2B87D1A36833F020036E
:1020C80090D024484FF48E7102F0A0FD8AE7D4E93D
:1020D8000302CDE71F4840F21F1102F097FD236964
:1020E800802B97D182E71B484FF4987102F08EFD40
:1020F800636AB3F5802F9CD194E7E3680C2B7FF4D7
:1021080064AF6FE701207047E36933F4003202D00F
:10211800B3F5403F10D1236A33F440433FF47DAF19
:102128000C4840F22D1102F071FD76E709484FF492
:102138009A7102F06BFD7CE706484FF4967102F045
:1021480065FDE8E7034840F2331102F05FFD6DE7F3
:1021580038000140605C000800100240113800E0BF
:10216800002800F04C832DE9F043036883B004464F
:10217800002B00F01D811A0700F06582DF0743D5A8
:10218800636833F4803203D0B3F5A02F40F0328275
:10219800AE4A536803F00C03042B00F01082536816
:1021A80003F00C03082B00F003826368B3F5803F4B
:1021B80000F01A82002B00F04D82B3F5A02F00F03A
:1021C8001183A24B1A6822F480321A601A6822F42A
:1021D80080221A60FEF776FB9C4F05464FF40038C4
:1021E800012605E0FEF76EFB401B642800F22782FB
:1021F80098FAA8F33A6898FAA8F3B3FA83F306FAB8
:1022080003F31342EED023689E0747D5E368012BFA
:1022180000F2868123691F2B00F28B818B4B5A6851
:1022280012F00C0F00F069815A6802F00C02082ABB
:1022380000F05C81E268002A00F05882012595FAD6
:10224800A5F3B3FA83F303F1845303F584139B00D6
:102258007E4F1D60FEF736FB4FF00208064605E08C
:10226800FEF730FB801B022800F2E98198FAA8F3F8
:102278003A6898FAA8F3B3FA83F305FA03F313421A
:10228800EED03968F82292FAA2F22369B2FA82F201
:10229800934021F0F80213433B6023681D072DD5B6
:1022A8006369012B00F27181002B00F0488101263F
:1022B80096FAA6F2664BDFF89481B2FA82F21344DA
:1022C8009B0002251E60FEF7FDFA074605E0FEF7B3
:1022D800F9FAC01B022800F2B28195FAA5F395FA23
:1022E800A5F395FAA5F3D8F8242095FAA5F3B3FA3F
:1022F80083F306FA03F31342E9D02368580757D546
:10230800A368012B06D9052B04D052484FF4FA7163
:1023180002F07CFC4D4BDA69D10000F1BC81DA692E
:1023280042F08052DA61DB6903F080530193019B2C
:102338000125494E3368DA0540F17181A368012B04
:102348000FD0002B00F0A981052B404B1A6A00F032
:102358000F8222F001021A621A6A22F004021A623B
:1023680004E03A4A136A43F001031362FEF7AAFA3B
:10237800DFF8D88006464FF00209012707E0FEF78C
:10238800A1FA41F28833801B984200F2588199FAE9
:10239800A9F399FAA9F3D8F8202099FAA9F3B3FA7E
:1023A80083F307FA03F31342E9D0002D40F0DA81F2
:1023B800A369022B00F2F280002B00F09380234DDA
:1023C8006A6802F00C02082A00F0B481022B40F07F
:1023D800E381E369B3F5004F07D0B3F5803F04D03C
:1023E8001C4840F2412102F011FC236A33F44022D8
:1023F80012D0B2F5801F0FD0B2F5001F0CD023F415
:102408008022B2F5401F07D0B3F5601F04D01148F1
:1024180040F2422102F0FAFB636A0F2B00F2B0810E
:102428004FF0807393FAA3F3B3FA83F303F1845361
:1024380003F584139B0000221A60FEF743FA034D4C
:1024480006464FF0007801270EE000BF001002405A
:10245800208190109C5C000800700040FEF732FA62
:10246800801B022800F2EB8098FAA8F32A6898FAF1
:10247800A8F3B3FA83F307FA03F31342EED1EB6A36
:10248800626A23F00F031343EB62D4E907136A6807
:102498000B4322F4761213436B604FF0807393FA68
:1024A800A3F3B3FA83F303F1845303F584139B0076
:1024B800B64E1F60FEF706FA4FF000770446012576
:1024C80005E0FEF7FFF9001B022800F2B88097FA32
:1024D800A7F3326897FAA7F3B3FA83F305FA03F37D
:1024E8001342EED0002003B0BDE8F0835B6803F42C
:1024F800C033B3F5004F7FF49DAE022393FAA3F2E5
:10250800A24A116893FAA3F30122B3FA83F302FAF9
:1025180003F30B4274D0E368934271D00120E2E7E1
:102528009B4840F2871102F071FB23691F2B7FF64D
:1025380075AE97484FF4C47102F068FB6EE6012748
:1025480097FAA7F1934ADFF84482B1FA81F10A4475
:10255800920002251360FEF7B5F9064604E0FEF77F
:10256800B1F9801B02286AD895FAA5F395FAA5F364
:1025780095FAA5F3D8F8242095FAA5F3B3FA83F3CE
:1025880007FA03F31342EAD1B7E681484FF4E4713E
:1025980002F03CFB6369002BD1D088E67C484FF4FD
:1025A8000E7102F033FBA369002B7FF408AF99E7A3
:1025B800536803F4C033B3F5803F7FF4F6AD4FF4AE
:1025C800003393FAA3F2714A116893FAA3F3012234
:1025D800B3FA83F302FA03F30B423FF414AE6368D1
:1025E800002B7FF410AE99E7684A136843F48033F0
:1025F8001360EFE5664840F24F1102F007FBC7E5AC
:102608006248F822016892FAA2F22369B2FA82F2C9
:10261800934021F0F8021343036023683EE63368D1
:1026280043F480733360FEF74DF907463368DB05E2
:102638003FF584AEFEF746F9C01B6428F6D903209F
:1026480003B0BDE8F083524840F2491102F0DEFAC7
:10265800236893E54D4D2B6823F480332B602B685A
:1026680023F480232B60FEF72DF94FF4003806463B
:10267800012704E0FEF726F9801B6428DFD898FAC2
:10268800A8F32A6898FAA8F3B3FA83F307FA03F3CE
:102698001342EFD1B7E500254BE63C4E336A23F0F1
:1026A80001033362336A23F004033362FEF70AF945
:1026B8004FF0020907464FF0010806E0FEF702F95D
:1026C80041F28833C01B9842B9D899FAA9F399FA0C
:1026D800A9F3326A99FAA9F3B3FA83F308FA03F370
:1026E8001342EBD1002D3FF463AE3BE0012696FA8E
:1026F800A6F3B3FA83F303F1845303F584139B0021
:10270800224F1A60FEF7DEF84FF00208054604E093
:10271800FEF7D8F8401B022891D898FAA8F33A682F
:1027280098FAA8F3B3FA83F306FA03F31342EFD146
:102738002368B3E5012B3FF4F1AE6A68E169EB6AFF
:1027480002F4C03088427FF4E9AE216A02F47012C4
:102758008A427FF4E3AE606A03F00F03181A18BFC9
:102768000120C0E6094AD36923F08053D3611FE6EC
:1027780042F004021A621A6A42F001021A62F5E58E
:1027880003484FF4117102F041FA49E60010024083
:102798009C5C0008208190104FF0807393FAA3F39B
:1027A800B3FA83F303F1845303F584139B000022E7
:1027B8001A60FEF787F84FF000770446012605E017
:1027C800FEF780F8001B02283FF639AF97FAA7F307
:1027D8002A6897FAA7F3B3FA83F306FA03F31342C6
:1027E800EED17FE603F18043A3F53C331A6842F447
:1027F80080221A601A6842F480321A60EAE40120E2
:10280800704700BF0C4A536803F00C01082901D037
:102818000A487047C3F38343D26A09490748C95C29
:1028280010B402F00F03074CE35C5DF8044BB0FBF7
:10283800F3F001FB00F070470010024000127A002C
:10284800EC5D0008DC5D0008002800F0DC8003680F
:102858002DE9F0411E070D46044600F0CE80022DFA
:1028680000F2C5807C4A136803F00703AB420CD220
:10287800136823F007032B431360136803F007035F
:10288800AB4202D00120BDE8F081236898071AD531
:10289800A16891B1C02910D000F2D080A0290CD035
:1028A80000F2D58021F01002802A06D040F2D9210A
:1028B8006A4802F0ABF9A16823686948426822F0C7
:1028C800F0020A434260D90731D56368022B00F24F
:1028D800AC80012B00F09980022B0CBF4FF00072E6
:1028E800022292FAA2F15E49086892FAA2F2012144
:1028F800B2FA82F201FA02F20242C3D0584E72686A
:1029080022F0030213437360FDF7DCFF41F28838BD
:10291800074605E0FDF7D6FFC01B404500F28C8056
:102928007368626803F00C03B3EB820FF2D14A4A72
:10293800136803F00703AB4209D9136823F00703B0
:102948002B431360136803F00703AB429AD1236843
:102958005A0718D5E16831F480620ED021F400726C
:10296800B2F5A06F09D0B1F5C06F06D04FF447712A
:102978003A4802F04BF9E16823683948426822F482
:10298800E0620A4342601B0718D5226932F480636B
:102998000DD022F40073B3F5A06F08D0B2F5C06F64
:1029A80005D02E4840F2233102F030F922692C4933
:1029B8004B6823F4605343EAC2034B60FFF722FFDE
:1029C800274BF0225B6892FAA2F2B2FA82F203F085
:1029D800F003244C2449D340244AE35C20FA03F34F
:1029E80008681360FDF72CFF0020BDE8F0811B4844
:1029F80040F2C22102F00AF934E7184840F2C12136
:102A080002F004F92BE7012070474FF4003292FAE4
:102A1800A2F11349096892FAA2F2B2FA82F203FA11
:102A280002F20A427FF46AAF2CE70C484FF438717F
:102A380002F0ECF863684CE7032024E7E0293FF450
:102A48003CAF21F02002D02A7FF430AF35E7B0291F
:102A58003FF433AF2AE700BF002002409C5C000827
:102A680000100240045E0008040000200800002056
:102A7800084B4FF4E0625B6892FAA2F2B2FA82F273
:102A880003F4E06304490548D3400068CB5CD840B0
:102A9800704700BF00100240FC5D000808000020DD
:102AA800084B4FF460525B6892FAA2F2B2FA82F2D3
:102AB80003F4605304490548D3400068CB5CD84010
:102AC800704700BF00100240FC5D000808000020AD
:102AD8002DE9F043944A0368934283B0044680F09A
:102AE800F281D9034ED5636833F4407340F00C8209
:102AF8008E4BDA69D20000F1EC81DA698C4D42F034
:102B08008052DA61DB6903F080530193019B2B68E3
:102B1800DF054FF0010640F1E381DFF810826168BC
:102B2800D8F8203013F4407320D001F440729A4250
:102B38001CD0D8F820104FF4803321F4407093FA59
:102B4800A3F27C4FB2FA82F23A4492000125156052
:102B580093FAA3F3B3FA83F33B449B000022C9071B
:102B68001A60C8F8200000F1F68161686F4A136A9C
:102B780023F440730B4313621EB1D36923F08053CF
:102B8800D3612368DA0709D5A168032900F2D48143
:102B98006648026B22F003020A4302639F070FD5BF
:102BA800E16831F4403205D0C721634802F02EF8BD
:102BB800E16823685D48026B22F440320A430263ED
:102BC8005E070FD5216931F4402205D0D3215A4838
:102BD80002F01CF8216923685448026B22F4402251
:102BE8000A4302639D060FD5E16931F0100205D052
:102BF800DE21514802F00AF8E16923684B48026B6C
:102C080022F010020A43026398030FD5616D31F474
:102C1800800205D0EC21484801F0F8FF616D236877
:102C28004248426822F480020A434260590610D59D
:102C3800216A31F0200206D04FF480713E4801F03D
:102C4800E5FF216A23683948026B22F020020A4313
:102C580002635A0310D5616A31F0400206D04FF47E
:102C68008971354801F0D2FF616A23682F48026BE9
:102C780022F040020A4302631F0710D5616931F44C
:102C8800401206D040F221112B4801F0BFFF6169C4
:102C980023682648026B22F440120A430263DE06C8
:102CA80010D5A16931F4400206D040F22B11224818
:102CB80001F0ACFFA16923681C48026B22F44002B2
:102CC8000A4302639D0510D5216B31F4000206D03A
:102CD80040F23B11184801F099FF216B2368134813
:102CE800426822F400020A434260180626D5A16A07
:102CF80091B1B1F5B07F0FD000F20B81B1F5987F9B
:102D08000AD021F0100200F24281B2F5807F03D090
:102D1800B1F5907F40F008810448C26A22F4F87245
:102D28000A43C2620AE000BF0034F7030010024001
:102D38000070004000819010D45C0008D90527D5A8
:102D4800E16A31F400521DD021F48062B2F5085FC7
:102D580018D021F40062B2F5105F13D021F400728C
:102D6800B2F5205F0ED0B1F5385F0BD021F4C06208
:102D7800B2F5405F06D04FF4B671874801F046FFC0
:102D8800E16A23688548C26A22F478520A43C2621B
:102D9800DA0410D5616B31F4807206D04FF4C67135
:102DA8007D4801F033FF616B23687C48026B22F495
:102DB80080720A4302639F0410D5216C31F40072BB
:102DC80006D04FF4CF71744801F020FF216C2368BE
:102DD8007248026B22F400720A430263DE0210D5C5
:102DE800A16B31F0807206D040F2F5116A4801F00B
:102DF8000DFFA16B23686948026B22F080720A43B9
:102E080002639D0210D5E16B31F0007206D040F2EA
:102E1800FF11614801F0FAFEE16B23685F48026B1D
:102E280022F000720A430263580210D5616C31F433
:102E3800806206D040F20921574801F0E7FE616C34
:102E480023685648026B22F480620A43026319021F
:102E580010D5A16C31F4006206D040F213214E481F
:102E680001F0D4FEA16C23684C48026B22F4006286
:102E78000A430263DA0110D5E16C31F4005206D03E
:102E880040F21D21444801F0C1FEE16C236843482B
:102E9800026B22F400520A4302639B010FD5226D94
:102EA80032F4004305D03C4840F22A2101F0AEFE3E
:102EB800226D3A490B6B23F4004313430B63002044
:102EC80003B0BDE8F0833448702101F09FFE236809
:102ED80007E6334D2B68DF054FF000063FF51DAEC2
:102EE8002B6843F480732B60FDF7ECFC07462B68D6
:102EF800D8053FF512AEFDF7E5FCC01B6428F6D9EE
:102F0800032003B0BDE8F0832348762101F07EFE5C
:102F1800EEE5B1F5C87F3FF4FFAE14D921F01002F9
:102F2800B2F5D07F3FF4F8AE40F25B111A4801F0D9
:102F38006DFEA16A2368EFE6BC21174801F066FE22
:102F4800A168236824E6B1F5B87F3FF4E5AEB1F592
:102F5800C07FE9D1E0E6FDF7B5FC4FF0020907466E
:102F680099FAA9F399FAA9F3D8F8202099FAA9F3BC
:102F7800B3FA83F305FA03F313427FF4F6ADFDF7D2
:102F8800A1FC41F28833C01B9842E9D9B8E7B2F5F1
:102F9800A07FC9D1C0E600BFD45C00080010024081
:102FA80000700040324A0368934210B504462BD0A3
:102FB800B3F1804F28D0A2F59432934224D002F581
:102FC8008062934220D002F5006293421CD002F541
:102FD8008062934218D002F59032934214D002F5E1
:102FE8004062934210D002F5806293420CD002F501
:102FF8008062934208D002F50062934204D01D48D3
:103008004FF4CE7101F002FE94F83D30012B23D12C
:103018002368174A0221934284F83D101ED0B3F169
:10302800804F1BD0A2F59432934217D002F58062EC
:10303800934213D002F5963293420FD002F54062C4
:1030480093420BD002F58052934207D01A6842F09F
:1030580001021A60002010BD012010BD9968064ABF
:103068000A40062AF6D0B2F5803FEFD1F2E700BF5A
:10307800002C0140105D000807000100704700BFE8
:1030880038B590F83C30012B00F0A18102230122D1
:1030980080F83C2080F83D300B68702B04460D46C4
:1030A80000F0308223D823F01002402A00F0D180AB
:1030B800602B00F08E8133F030026AD12268AA4971
:1030C800906801409160402B00F2CC80202B00F0EA
:1030D800548100F24F8133F0100100F04E8101203D
:1030E8000122002384F83D2084F83C3038BDB3F534
:1030F800805F00F00381B3F5005FDCD102689A4B72
:1031080091680B409360994B9A4217D0B2F1804F67
:1031180014D0A3F594339A4210D003F580639A42F1
:103128000CD003F596339A4208D003F5E0539A423F
:1031380004D08F4841F29D5101F068FDAB6833F42B
:10314800405304D08A484FF4AD5101F05FFD6B68DD
:10315800B3F5004F09D033F0020206D00A2B04D091
:10316800834841F2A15101F051FDE8680F2800F2AF
:10317800D6812268D5E9015391682B4321F47F4118
:103188000B4343EA00239360936843F480439360BE
:103198001BE1774841F2725101F038FD22682B6833
:1031A80090687149602B01EA0001916000F0168176
:1031B80040F25D81B3F5805F00F0A580B3F5005F54
:1031C800A1D0702B8BD1694B9A4217D0B2F1804FA6
:1031D80014D0A3F594339A4210D003F580639A4231
:1031E8000CD003F596339A4208D003F5E0539A427F
:1031F80004D05F4841F2855101F008FDAB6833F413
:10320800405304D05A4841F2885101F0FFFC6B68E2
:10321800B3F5004F09D033F0020206D00A2B04D0D0
:10322800534841F2895101F0F1FCE8680F2800F297
:103238007D812268D5E9015391682B4321F47F41B0
:103248000B4343EA00239360936843F0770393604A
:10325800BBE0026844499068402B01EA0001916094
:1032680000F00881502B7FF43AAF404B9A421BD0B4
:10327800B2F1804F18D0A3F594339A4214D003F5D5
:1032880080639A4210D003F596339A420CD003F526
:1032980040639A4208D003F580539A4204D03448D8
:1032A80041F2B15101F0B2FC6B68B3F5004F09D09F
:1032B80033F0020206D00A2B04D02D4841F2B45153
:1032C80001F0A4FCE8680F2800F23E8123686968D1
:1032D8001A6A22F00A0211431A6A22F001021A62DB
:1032E8009A6922F0F00242EA00129A6119629A6819
:1032F80022F0700242F057029A6066E002681A4BA8
:1033080091680B409360194B9A425ED0B2F1804F9E
:103318005BD0A3F594339A4257D003F580639A4261
:1033280053D003F500639A424FD003F580639A4265
:103338004BD003F590339A4247D003F540639A4245
:1033480043D003F580639A423FD003F580639A42E5
:103358003BD003F500639A4237D0054841F27E51CD
:1033680001F054FC31E000BF8800FEFF002C014052
:10337800105D0008302B7FF4B2AE77498A421DD029
:10338800B2F1804F1AD0A1F594318A4216D001F5D6
:1033980080618A4212D001F596318A420ED001F539
:1033A80040618A420AD001F580518A4206D06B48B2
:1033B80041F2E45101F02AFC22682B68916821F05F
:1033C80070010B4343F007039360002088E6022056
:1033D80038BD0268624B91680B4093605E4B9A421D
:1033E8001BD0B2F1804F18D0A3F594339A4214D071
:1033F80003F580639A4210D003F596339A420CD0B5
:1034080003F540639A4208D003F580539A4204D0EA
:10341800524841F2C15101F0F9FB6B68B3F5004F16
:1034280009D033F0020206D00A2B04D04B4841F2EF
:10343800C45101F0EBFBE8680F287ED8236869685F
:103448001A6A22F0A00242EA0112196A21F0100158
:103458001962996921F4704141EA003199611A624F
:103468009A6822F0700242F067029A60ADE7402B3A
:103478007FF429AE384B9A421BD0B2F1804F18D056
:10348800A3F594339A4214D003F580639A4210D07E
:1034980003F596339A420CD003F540639A4208D05C
:1034A80003F580539A4204D02C4841F2D15101F0DF
:1034B800ADFB6B68B3F5004F09D033F0020206D0BC
:1034C8000A2B04D0254841F2D45101F09FFBE8684B
:1034D8000F281DD8236869681A6A22F00A02114366
:1034E8001A6A22F001021A629A6922F0F00242EA8C
:1034F80000129A6119629A6822F0700242F047023B
:103508009A6062E70268164B91680B4093605AE62E
:10351800124841F2D55101F079FBE868DAE70F4823
:1035280041F2A25101F072FBE86822E60B4841F231
:103538008A5101F06BFBE8687BE6084841F2C55107
:1035480001F064FBE86879E7044841F2B55101F0FD
:103558005DFBE868BAE600BF002C0140105D00087A
:103568008800FEFF344A0368904210B428D0B0F1B6
:10357800804F44D0A2F59432904240D002F5806248
:1035880090423CD002F5963290424AD002F5E05281
:10359800904215D0A2F58052904247D002F5806241
:1035A800904243D002F5806290423FD00A688C680E
:1035B800496923F080030B430360C462826212E00E
:1035C800CA684C6823F07003234323F44073134301
:1035D8004A6923F08003134303608B68C3620B6856
:1035E80083620B690363012343610369DB0703D526
:1035F800036923F0010303615DF8044B70474A68CF
:10360800CC6823F07003134323F440734A692343BF
:1036180023F080038C6813430A680360C4628262E3
:10362800E1E74C68CA6823F07003CDE7CC684A69C3
:1036380023F440732343CCE7002C0140002800F01A
:10364800A5800368524A934210B504462BD0B3F1C3
:10365800804F28D0A2F59432934224D002F580629C
:10366800934220D002F5006293421CD002F580629A
:10367800934218D002F59032934214D002F540627A
:10368800934210D002F5806293420CD002F580621A
:10369800934208D002F50062934204D03D484FF4AB
:1036A8008D7101F0B3FAA36833F010020AD023F049
:1036B8004002202A06D0402B04D0364840F21B1185
:1036C80001F0A4FA236933F4807236D12268E368E2
:1036D800B2F1804F3ED0013B4FF6FE7293423BD889
:1036E800A36933F0800340D194F83D3003F0FF0222
:1036F800002B45D02146022384F83D3051F8040BB5
:10370800FFF730FF012384F8483084F83E3084F80E
:103718003F3084F8403084F8413084F8423084F8EF
:10372800433084F8443084F8453084F8463084F8CF
:10373800473084F83D30002010BDB3F5007FC5D078
:1037480014484FF48E7101F061FA2268E368B2F10F
:10375800804FC0D1002BC3D10E4840F21D1101F09B
:1037680055FAA36933F08003BED00A484FF48F712D
:1037780001F04CFA94F83D3003F0FF02002BB9D168
:1037880084F83C20204601F0B7FBB3E701207047DE
:10379800002C0140105D0008002800F0A68038B514
:1037A800534A036893420D4604462BD0B3F1804F29
:1037B80028D0A2F59432934224D002F58062934235
:1037C80020D002F5006293421CD002F58062934239
:1037D80018D002F59032934214D002F54062934219
:1037E80010D002F5806293420CD002F580629342B9
:1037F80008D002F50062934204D03E484FF4266197
:1038080001F004FAA36833F010020AD023F0400252
:10381800202A06D0402B04D0364840F6612101F01A
:10382800F5F9236933F4807239D135F0080304D0EF
:10383800304840F6632101F0E9F92268E368B2F103
:10384800804F46D0013B4FF6FE72934243D8A3699E
:1038580033F080032CD194F83D3003F0FF0293B38A
:103868002146022384F83D3051F8040BFFF77AFE15
:10387800026822F008020260026801232A430260FB
:10388800002184F8483084F83E3084F83F3084F8CA
:10389800443084F8453084F83D30084638BDB3F5E7
:1038A800007FC2D0134840F6622101F0AFF9BCE7AF
:1038B800104840F6652101F0A9F994F83D3003F06D
:1038C800FF02002BCCD184F83C202046FFF7D6FB22
:1038D800C6E7002BBBD1074840F6642101F096F9F2
:1038E800A36933F08003B6D0E2E7012108467047A8
:1038F800002C0140105D0008F8B55F4A0368934248
:1039080004460D4623D0B3F1804F20D0A2F594325F
:1039180093421CD002F58062934218D002F50062EF
:10392800934214D002F58062934210D002F590328F
:1039380093420CD002F54062934208D002F58052BF
:10394800934204D04D4840F2AC7101F05FF92B6806
:1039580033F040020CD0402B76D8202B08D023F02F
:103968002003102B04D0454840F2AD7101F04EF908
:10397800AB6833F0800304D0404840F2AE7101F0E8
:1039880045F994F83C30012B71D00222236884F861
:103998003D20394A012184F83C1093425E689F68B3
:1039A8001ED002F5006293421AD002F5E05293420B
:1039B80016D02A6826F0700616435E60B3F1804F71
:1039C80002D02F4A934246D1AA6827F080071743AE
:1039D8009F600020012384F83D3084F83C00F8BD46
:1039E8006A6832F440111CD0B1F5800F19D0B1F5D6
:1039F800000F16D0B1F5400F13D040F2C1711F4827
:103A080001F004F96968236826F470020A432968FA
:103A180022F070020A435A60174A9342CED1164BDD
:103A2800D2E726F470062968324322F070020A436E
:103A38005A60114A9342F2D0124A934219D0124B5B
:103A4800114A9342C5D1BFE7602B91D023F02003E0
:103A5800502B88D18CE702F580629342B4D002F5EE
:103A68009632934205D0094A9342ADD0E8E7022046
:103A7800F8BD044BA8E700BF002C0140485D0008D2
:103A88000004004000340140005001400040014063
:103A9800026852E8003F23F4907342E8003100299D
:103AA800F7D102F1080353E8003F23F0010302F1C4
:103AB800080C4CE800310029F3D1036E012B06D025
:103AC80000232022C0F8802083660366704752E8EE
:103AD800003F23F0100342E800310029F0D052E8FB
:103AE800003F23F0100342E800310029EFD1E7E757
:103AF800C36F212B00D07047B0F8523002689BB2D8
:103B080083B952E8003F23F0800342E800310029DE
:103B1800F7D152E8003F43F0400342E80031002962
:103B2800F7D17047C16C31F8023BC3F30803138522
:103B3800B0F85230C164013B9BB2A0F852307047D4
:103B4800C36F212B00D07047B0F8523002689BB287
:103B580083B952E8003F23F0800342E8003100298E
:103B6800F7D152E8003F43F0400342E80031002912
:103B7800F7D17047C16C11F8013B1385B0F852308A
:103B8800C164013B9BB2A0F852307047C36F202B31
:103B980022D101B10AB901207047836810B4B3F586
:103BA800805F4FF00004C1644FF02101A0F852205B
:103BB800A0F85020C0F88440C1670FD00B4B0268B2
:103BC800C36652E8003F43F0800342E80030002813
:103BD800F7D15DF8044B7047022070470169044B28
:103BE800024AA14218BF1346E9E700BF493B000853
:103BF800F93A0008704700BF704700BF08B5406A2F
:103C08000023A0F85A30A0F85230FFF7F5FF08BD9E
:103C1800704700BF0368DA69196840F60F0C12EAAA
:103C28000C0F2DE9F0419D68044640F0818097060D
:103C380002D58E0600F1EB80206E012825D0D00237
:103C480002D56F0200F1E880160615D4500601D59A
:103C58004A0601D4BDE8F08153E8002F22F0400263
:103C680043E800210029F7D120220023E267E36618
:103C78002046FFF7BFFFEDE70D06E7D5E36E002B03
:103C8800E8D02046BDE8F0411847D706D7D5CE067C
:103C9800D5D510221A629A68550640F10E81606FD8
:103CA8000268526892B2002AD4D0B4F858109142EF
:103CB800D0D9A4F85A208269202A2FD053E8002F9F
:103CC80022F4807243E800210029F7D103F10802A9
:103CD80052E8002F22F0010203F1080545E800210F
:103CE8000029F3D103F1080252E8002F22F0400224
:103CF80003F1080545E800210029F3D12022C4F882
:103D08008020216653E8002F22F0100243E80021AA
:103D18000029F7D1FDF7D4FEB4F8581002236366E2
:103D2800B4F85A30C91A204689B2FFF771FF91E7F3
:103D380015F001071E4640F099807E4801423FF485
:103D48007BAFD5070FD5C80540F1B38001201862B5
:103D5800D4F8840040F00100C4F88400900767D5C7
:103D6800002F40F08780550779D5170700F1968016
:103D780017050AD54D0108D54FF400601862D4F82C
:103D8800843043F02003C4F88430D4F88430002B06
:103D98003FF460AF900602D58A0600F18280D4F81D
:103DA8008420B36802F0280203F0400353EA0205B6
:103DB800204600F0B980FFF76BFEB3685B0666D556
:103DC80006F1080353E8003F23F0400306F1080119
:103DD80041E8003262B1236803F1080252E8002F7B
:103DE80022F0400203F1080040E800210029F3D145
:103DF800606F00284BD0504B4363FDF785FE0028C9
:103E08003FF428AF606FBDE8F041436B1847836EFD
:103E1800002B7FF437AF1DE74FF4801220461A625B
:103E2800BDE8F04100F0B6BBC8058FD4950721D492
:103E3800500714D5002F98D004201862D4F88400B5
:103E4800150740F00200C4F8840091D508201862D4
:103E5800D4F8840040F00800C4F8840088E710070C
:103E680086D501F02000384382D0EFE7D507DBD4B0
:103E7800900710D502201862D4F88400570740F044
:103E88000400C4F88400D7D41007DFD470E72046B4
:103E9800FFF7B2FEDEE65707CED4F5E78D06D5D498
:103EA80066E7A36E002B3FF47AAF20469847266852
:103EB80075E795073FF557AFBAE7B4F85A10B4F865
:103EC8005A20B4F8580092B289B2002A3FF4C2AE20
:103ED800411A89B200293FF4BDAE53E8002F22F4FD
:103EE800907243E800200028F7D103F1080252E855
:103EF800002F22F0010203F1080545E80020002800
:103F0800F3D12022C4F88020A066206653E8002F51
:103F180022F0100243E800200028F7D1022363664C
:103F28002046FFF775FE95E6FFF766FEC4F8845055
:103F380090E600BF20010004053C000838B542683F
:103F48008D4B9A42044600F2A180A368B3F1805FCA
:103F580003D033F4805340F0AF80E36833F4405328
:103F680004D0864840F63B3100F050FE236A33F413
:103F7800006304D0814840F63C3100F047FE2369D5
:103F880033F4806203D0B3F5C06F40F09B8063695F
:103F980033F00C0257D1002B55D0A36933F440738A
:103FA80004D076484FF4346100F030FEE16931F412
:103FB800004305D040F64131704800F027FEE16922
:103FC8002069A368226803436069156803436C4845
:103FD800284003430B4313605368E068256A23F4C1
:103FE8004053034353609068A36920F430602B4327
:103FF80003436448936082424ED0634B9A4228D070
:10400800624B9A4200F08680614B9A4200F095809C
:10401800604B9A4238D103F5E0331B6B03F440033D
:10402800B3F5000F54D000F2A180002B7FD0B1F57A
:10403800004F00F09580FEF7E5FBD0B90020002383
:10404800C4E91A3338BD4D4840F63F3100F0DEFD73
:10405800A3E703F5E6331B6B03F44033B3F5003FE6
:1040680036D0E2D9B3F5403F0ED1B1F5004F72D04A
:10407800494863684FF6EF7200EB5300B0FBF3F06A
:10408800A0F11003934242D90120D8E73B4840F6FB
:10409800393100F0BBFD58E7404B1B6B03F00303BD
:1040A800022B15D0032BE0D0012BC0D0B1F5004F67
:1040B80014D0FEF7F5FCC0E7304840F63A3100F07E
:1040C800A5FD4AE72D4840F63E3100F09FFD5EE72A
:1040D800B1F5004F41D04FF40040CAE7FEF7E0FCCD
:1040E8000028ABD0400063684FF6EF7200EB530036
:1040F800B0FBF3F3A3F110019142C5D823F00F02EE
:10410800216892B2C3F342031343CB6096E7236856
:10411800D86093E703F5E4331B6B03F44023B3F54E
:10412800002FD5D081D9B3F5402F9ED0ACE7B1F59B
:10413800004F18D0FEF79CFC7FE703F5E2331B6BBA
:1041480003F44013B3F5001FC2D07FF66EAFB3F58A
:10415800401F8AD098E71248C5E74FF48030C2E77D
:10416800FEF750FBBCE7FEF783FCB9E7B3F5400F59
:104178003FF47BAF88E700BF40548900845D0008A6
:10418800F369FFEF00380140004400400048004058
:10419800004C00400050004000127A00001002401D
:1041A8000024F400436AFF2B10B5044600F2958002
:1041B8001A070AD5616B31F4004240F09D802068EF
:1041C800426822F400420A434260D8070AD5A16A2D
:1041D80031F4003240F098802068426822F40032BE
:1041E8000A43426099070AD5E16A31F4803240F007
:1041F80093802068426822F480320A4342605A075A
:104208000AD5216B31F4802240F08E802068426804
:1042180022F480220A434260D8060AD5A16B31F401
:10422800805240F089802068826822F480520A43D4
:104238008260990609D5E16B31F4005254D12068A7
:10424800826822F400520A4382605A062BD52368FA
:10425800464A93420CD0A2F57442934208D002F524
:104268008062934204D0424840F6F13100F0CEFC1F
:10427800236C5BB3B3F5801F66D12268536843F49F
:1042880080135360606C30F4C00306D0384840F6A1
:10429800F73100F0BBFC606C22685168636A21F456
:1042A800C001014351601B060FD5A26C32F40023F4
:1042B80005D02F4840F6FF3100F0A8FCA26C216819
:1042C8004B6823F4002313434B6010BD2168636AD5
:1042D8004A6822F480124A60E5E7254840F6C23170
:1042E80000F094FC636A63E740F6EA31204800F086
:1042F8008DFCE16B636AA2E740F6C7311C4800F009
:1043080085FC616B636A5AE740F6CE31184800F0C5
:104318007DFCD4E909315FE740F6D531144800F057
:1043280075FCE16A636A64E740F6DC31104800F026
:104338006DFC216B636A69E740F6E3310C4800F0D5
:1043480065FCA16B636A6EE740F6F231084800F03D
:104358005DFC2268216C536823F480130B43B1F58C
:10436800801F53608ED0636A9DE700BF003801400C
:10437800845D00082DE9F843089F0C46016806464D
:1043880015469846CA6934EA02020CBF0122002287
:10439800AA4209D1781C0BD1CB6934EA03030CBFBC
:1043A80001230023AB42F7D000231846BDE8F88369
:1043B800FCF788FAA0EB0800B8421AD8CFB13168E8
:1043C8000B685A07DED5802CDCD0402CDAD0CB69BC
:1043D80013F008090FD1CA691305D3D54FF4006249
:1043E8000A623046FFF754FB2022C6F8842086F87C
:1043F80078900323D9E708240C623046FFF748FB7E
:1044080000220123C6F8844086F87820CDE700BF53
:1044180070B50446002682B0C0F88460FCF752FAF2
:1044280023681A68120705460FD41B685B0725D452
:1044380000232022E2671846C4F8802023666366BA
:10444800002384F8783002B070BD6FF07E4300938B
:10445800324603464FF400112046FFF78BFF2368CE
:104468000028E2D053E8002F22F0800243E8002120
:104478000029F7D12023E3670320E1E76FF07E43AB
:10448800009300222B464FF480012046FFF772FF6D
:104498000028CDD0236853E8002F22F4907243E817
:1044A80000210029F7D103F1080252E8002F22F079
:1044B800010203F1080040E800210029F3D120237C
:1044C800C4F88030D8E700BF00285DD0826903684F
:1044D80010B50446002A32D02C4A93420CD0A2F5DB
:1044E8007442934208D002F58062934204D028486F
:1044F8004FF4967100F08AFBE36F002B3ED02268E0
:10450800616A2423E367136823F00103136089BBFE
:104518002046FFF713FD01282AD023685A6822F4A1
:1045280090425A609A6822F02A029A601A6842F009
:10453800010220461A60BDE81040FFF769BF134A20
:104548009342D9D0A2F574429342D5D002F5806245
:104558009342D1D002F580629342CDD002F58062B9
:104568009342C9D00A4840F2311100F04FFBC3E72B
:10457800012010BD2046FFF715FEC9E784F8783002
:10458800204600F025FDBAE70120704700380140B9
:10459800845D0008704700BF00B52022A7B0002145
:1045A8000DEB020001F070FA0021582210A8CDE9A5
:1045B8000111CDE90311059101F066FA01204FF4CC
:1045C8008031CDE9060102204FF48031CDE90C019C
:1045D80001224FF4E01306A809920E93FDF7C0FDDF
:1045E80008B172B6FEE70F2203460221019201A824
:1045F8004FF48062CDE90213CDE90423FEF724F9D4
:10460800034608B172B6FEE79FED097B0A4A10928D
:1046180010A88DED1E7B12932093FEF759FA08B16E
:1046280072B6FEE727B05DF804FB00BFAFF3008069
:104638000000000000000000012030002DE9F04FCC
:10464800002495B0FCF720F9FFF7A6FFCDE90E444A
:10465800CDE91044AE4D12946B69AE4843F4002383
:104668006B616B6903F400230693069B6B6943F443
:1046780080036B616B6903F480030793079B6B6985
:1046880043F400336B616B6903F400330893089BB0
:104698006B6943F480236B616B6903F4802309938E
:1046A800099B6B6943F480136B616B6903F4801396
:1046B80022460A934FF474610A9BFDF739FC22469F
:1046C80095488021FDF734FC032643F2BB0391484B
:1046D80010940EA9CDE90E36FDF780FA49F60B13B2
:1046E8000EA94FF09040CDE90F640E93FDF776FACE
:1046F80046F2703388480E930EA90127CDE90F645E
:10470800FDF76CFA4FF4746382480EA9CDE90E37B1
:10471800CDE91044FDF762FA80480F960EA90426E9
:104728004FF0800810940E96FDF758FA7A481194C5
:104738000EA9CDE90F74CDF83880FDF74FFA6B69F3
:1047480043F002036B616B6903F002030493049B5B
:104758006B693B436B616B69714D3B402246214657
:104768000C200593059BFCF7B3FF0C20FCF7F6FF24
:10477800224621463920FCF7ABFF3920FCF7EEFF33
:10478800684B2B6028463323CDE90E44CDE910440D
:10479800CDE90B44C5E901440D94C5F818802C6196
:1047A800EB60FEF74BFF08B172B6FEE74FF4805995
:1047B8000EA92846CDF83890FEF762FC08B172B60B
:1047C800FEE70D90202328460BA90B93FFF794F8DA
:1047D80008B172B6FEE7544D544B2861C5E908008C
:1047E8004FF0400B4FF00C0A4FF440382846C5E90B
:1047F800003BC5F80CA0C5F81C80FDF7B3FB88B9D1
:104808004B4C4C4B2061C4E908002046C4F804B066
:10481800C4F80CA0C4F81C802360FDF7A3FB18B1F2
:1048280072B6FEE772B6FEE7DFF81C81424BC8F8A5
:104838000400C8E90206C8F81000C8F82400404679
:10484800C8F80030FDF78EFB08B172B6FEE7DFF856
:10485800FCA03A4B0D90CDE90E00CDE91000CDE952
:104868000B00CAE90100CAF81000CAF81800CAF813
:10487800003050464FF42273CAF80C30FEF7DEFEC3
:1048880008B172B6FEE70EA95046CDF83890FEF78B
:10489800F7FB034608B172B6FEE750460BA90B9327
:1048A8000D93FFF729F8034608B172B6FEE7CDE984
:1048B8000E00CDE91000CDE912002148214983609E
:1048C800C0E90A73036180F82030C36080F8303093
:1048D800038343634FF40033C0E900134661C761A3
:1048E800FCF796F808B172B6FEE70023CDE911335C
:1048F8001393012708234FF006091148CDF840907B
:104908000EA9CDE90E37FCF78FFB08B372B6FEE7A8
:10491800001002400008004800040048000C00484D
:10492800A001002000040040A00200203C0001403B
:104938006C02002040000140440001400008004093
:104948007C030020000100503802002054010020A0
:104958009F4E0D904FF08043336040F23713CDE9FE
:104968000E00CDE91000CDE90B00C6E90100306169
:10497800F36030468023B361FEF760FE08B172B67B
:10498800FEE74FF480530EA930460E93FEF778FBEE
:1049980008B172B6FEE70D904FF0200A0BA9304619
:1049A800CDF82CA0FEF7A8FF08B172B6FEE7DFF835
:1049B80044B2884A1090CDE90E005846CBF8002042
:1049C800FCF7FAFE024608B172B6FEE758460EA991
:1049D800CDE90E22FCF714FF034608B172B6FEE7D4
:1049E8007D48DFF814E20361C0E90233C0E9063309
:1049F80003624FF4E133C0E900E30C2343614FF451
:104A08000053C0F824A0C363FFF75EFD08B172B677
:104A1800FEE7DFF8E8A113904FF400334FF0A04C05
:104A2800CDE90B00CDE90D00CDE90F00CDE911006E
:104A3800CAE90A70CAE900C3CAF80800CAF810002F
:104A48008AF82000CAF80C008AF83000AAF8180082
:104A5800CAF8340004235046CAF81C70CAF8143047
:104A6800FBF7D6FF08B172B6FEE70B900BA95046CC
:104A7800FCF748FD034608B172B6FEE7CDE91133ED
:104A88001393504610230EA9CDE90F790E93FCF726
:104A9800CBFA08B172B6FEE7504F0023CDE90E33CA
:104AA800CDE91033CDE90B33C7E90133C7E9043346
:104AB8000D93BB614A4B3B6038464FF6FF73FB6072
:104AC800FEF7BCFD08B172B6FEE74FF480530EA99D
:104AD80038460E93FEF7D4FA08B172B6FEE70821FD
:104AE8003846FEF759FE034608B172B6FEE70BA931
:104AF8003846CDE90B330D93FEF7FEFE08B172B6CA
:104B0800FEE7384F384AB8604FF40033C7E900234E
:104B18004FF480614FF48073CDE90E00CDE91000A9
:104B2800CDE91200C7E90A313861042387F820006B
:104B3800F860388378634FF0010938467B61C7F81D
:104B48001C9087F83090FBF763FF034608B172B6F4
:104B5800FEE7CDE91033CDE912330EA90523384617
:104B6800CDF83C900E93FCF75FFA08B172B6FEE7F9
:104B7800D8F8002028681368DFF88480DFF884906C
:104B8800154F1A4D03F00C0104291CBF23F00C0328
:104B980043F0040313601368216843F001031360B2
:104BA8000368134A43F0010303600B6843F00103F1
:104BB8000B60936843F001039360CDE901860948CF
:104BC80000944B463A46294600F0E4FEF5E700BF5C
:104BD800EC010020007400403C0000200801002087
:104BE800003401402C03002000050050A0010020E3
:104BF800002004E0D402002000380140CC0300204B
:104C0800C4000020A002002072B6FEE7704700BF73
:104C18000B4B9A6942F0010282B09A619A6902F0DC
:104C280001020092009ADA6942F08052DA61DB6987
:104C380003F080530193019B052002B0FCF72ABDC5
:104C48000010024070B503688CB00024B3F1A04F87
:104C5800CDE90644CDE908440A9421D0454A934257
:104C680004D0454A93424CD00CB070BD434A1368F7
:104C78000133012B136039D0414B42485A6942F441
:104C880000225A615B6903F400230393042403257B
:104C980006A9CDE90645039BFCF7A0FF0CB070BD43
:104CA800364A13680133012B136014D0344B5A6908
:104CB80042F400325A615B6903F40033019304241F
:104CC800032506A94FF09040CDE90645019BFCF766
:104CD80085FF0CB070BD2A4B5A6942F080525A6168
:104CE8005B6903F080530093009BDFE7244B5A690C
:104CF80042F080525A615B6903F080530293029B31
:104D0800BAE71F4B204E5A6942F000525A615A695D
:104D180002F000520492049A5A6942F480225A61BD
:104D28005B6903F4802305934FF4004206A903232B
:104D380005461648CDE90623059BFCF74FFF144BA3
:104D4800B4608022C6E900344FF48073C6E90323B7
:104D58004FF4806120224FF440533046C6E90512D3
:104D6800F361FCF79FFD10B9AE6375627CE7FFF74E
:104D78004BFFF9E700010050000500501C0400201B
:104D88000010024000080048E80200200004004823
:104D98001C0402400000000000B51B4A016889B0ED
:104DA80000239142CDE90233CDE90433069302D0C2
:104DB80009B05DF804FB03F1804303F504339FED6C
:104DC800107BDA6942F00052DA61DA6902F00052C7
:104DD8000092009A5A6942F400325A615B6903F4FE
:104DE8000033019302A94FF090408DED027B019BA7
:104DF800FCF7F4FE09B05DF804FB00BFAFF30080D8
:104E080010000000030000000074004000000000D3
:104E180000B5026834498BB000238A42CDE90433D7
:104E2800CDE90633089308D0304B9A421ED0304B58
:104E38009A4233D00BB05DF804FB03F1804303F5CD
:104E480004339FED237B5A6942F400325A615B694F
:104E580003F40033019304A94FF090408DED047BD7
:104E6800019BFCF7BBFE0BB05DF804FB03F5873331
:104E780003F5E0735A691F4842F480225A615B695E
:104E88009FED157B03F48023029304A98DED047B29
:104E9800029BFCF7A3FE0BB05DF804FB03F5873318
:104EA80003F5DE735A69134842F480225A615B693C
:104EB8009FED0B7B03F48023039304A98DED047B02
:104EC800039BFCF78BFE0BB05DF804FBAFF300808F
:104ED800E0000000030000000700000003000000DD
:104EE800001C0000030000003C000140400001409D
:104EF800440001400004004830B50368B3F1804F16
:104F080085B022D02C4A934207D02C4A934210D025
:104F18002B4A934241D005B030BD2A4BDA6942F0A2
:104F28000202DA61DB6903F002030193019B05B019
:104F380030BD244BDA6942F00402DA61DB6903F020
:104F480004030293029B05B030BD03F504331E4DE4
:104F5800DA691E4942F00102DA61DB69296003F06F
:104F68000103009310210023C5E9011380224FF4A7
:104F78000073C5E9032304464FF40061009820221A
:104F88004FF400532846C5E90512EB61FCF78AFC8B
:104F980078B925626C6205B030BD0A4B9A6942F453
:104FA80000529A619B6903F400530393039B05B075
:104FB80030BDFFF729FEECE7000400400008004080
:104FC8000034014000100240C40000201C000240D0
:104FD80010B51F4A016888B000239142CDE9023319
:104FE800CDE90433069301D008B010BD03F1804326
:104FF80003F504339FED147B9A6942F480429A6169
:105008009A6902F480420092009A5A6942F4003286
:105018005A615B6903F4003301930324072302A94F
:105028004FF090408DED027BCDE90543019AFCF7E6
:10503800D5FD224621462520FCF74AFB2520FCF712
:105048008DFB08B010BD00BF000600000200000084
:1050580000380140FBF72ABC0148FCF775BD00BFCA
:10506800C40000200148FEF7D5BD00BF3C00002069
:105078000148FCF769BD00BFE80200201548164B3F
:10508800D0F88810154A41F4700110B4C0F888109F
:105098001868134940F0010018605C6822405A60A3
:1050A8001A685DF8044B22F0847222F480321A6088
:1050B8001A6822F480221A605A6822F4FE025A60A2
:1050C800DA6A22F00F02DA621A6B002011401963C3
:1050D8009860704700ED00E0001002400CC07FF8B7
:1050E800CCFC00FF01607047844600B5F020E6461E
:1050F8008CF804005EF8040BACF80510ACF8072037
:105108007146ACF809305DF804EB0722FEF73EBDA6
:1051180003468446F82018710020A3F809005CF8BB
:10512800040BA3F80510A3F8072061460722FEF731
:105138002DBD00BFF8B50D460021C0E902314FF082
:10514800FF33C0E90052C0E90A331646642305223A
:10515800C0E90C11C0E91011C0E91211C0E905231A
:10516800017441628163044640F6340343F2BC4053
:10517800C4E907030B4F4FF48053E36342F228332B
:10518800236548F6A042384600F07EFC3046FDF71D
:1051980009FF44F2506239462846FBF783FE204651
:1051A800F8BD00BF24040020F8B54D4F4D4E04460D
:1051B800E368256D012B37F815202FD0022B1AD064
:1051C80043B9236A9342B8BF012305F10305B8BF69
:1051D800E36025653368012B06D03368022B58D06D
:1051E8003368032BE4D1F8BD226D42F227339A428B
:1051F8006EDC3368F4E7E369002B5DDD3A4A1D4451
:1052080082FB0532EB17C3EB623344F2506202FBB8
:10521800135300222365E2603260F8BDA36CA169D4
:10522800206B01338B42A3643CDD237CD4E90DE27F
:10523800ABB1D4E9103144F2506C0CFB02EE0CFB1C
:105248000133734403EBD373274A591082FB01E2FD
:10525800DB17C3EB623E0CFB1E1EC3EB6232C4E9D4
:105268000AE26062FBF730FA1BA3D3E90023FAF7DE
:10527800AFFFFBF793FA0023C4E90C33C4E91033FA
:10528800A363A3640223E3604FF480532062E363C3
:105298000FE0226D44F24F639A42A1DD0023336090
:1052A8002365F8BD82420ADD104B22631B686563E3
:1052B800A363013525658DE744F25063A9E7E36BE5
:1052C8009342F6DD094BE2631B6825646364F0E7EB
:1052D80000233360F8BD00BF333333333333EB3F40
:1052E800240400200C0000206B2982742004002074
:1052F80070B5294D2B68022B06460C4639D0032B76
:1053080012D0012B3DD10A6D42F227339A4235DD86
:10531800A26AE16A00232B604FF0FF33C6E900213F
:10532800C4E90A33304670BD1C4BA0681A68096D81
:10533800FFF7EEFE216D002342F228329142D8BFDA
:105348001A4622654FF480514FF0FF32C4E90E31FE
:10535800C4E90C33C4E91033C4E912332B60E360A9
:1053680011464FF0FF33C6E90021C4E90A3330463D
:1053780070BD0A6D42F227339A42C9DD2046FFF715
:1053880013FFD4E90A214FF0FF33C6E90021C4E92D
:105398000A33304670BD00BF0C00002020040020F6
:1053A8008068FFF7A1BE00BF0C490D480B680133A8
:1053B8005A42C2F30E02C3F30E0358BF53420B60A6
:1053C8000368012B03D0022B01D01BB170470323C4
:1053D8000360704701230360704700BF200400206A
:1053E8000C000020064A1368012B03D0022B01D0C1
:1053F8001BB1704703231360704702231360704783
:105408000C000020C0E90012704700BF02390629CD
:1054180019D8DFE801F0192E3A4F5B700400D0E983
:10542800002312681B68116841F47031116011681B
:1054380021F4403111601A6842F470321A601A6817
:1054480022F440321A607047D0E9002312681B68C2
:10545800116841F470311160116821F470311160E4
:105468001A6842F470321A601A6822F470321A60AC
:105478007047D0E9002312681B68116841F4703145
:105488001160116821F46031E9E7D0E9002312685E
:105498001B68116841F470311160116821F46031A2
:1054A80011601A6842F470321A601A6822F4603285
:1054B8001A607047D0E9002312681B68116841F42C
:1054C80070311160116821F45031E9E7D0E9002307
:1054D80012681B68116841F470311160116821F479
:1054E800503111601A6842F470321A601A6822F456
:1054F80050321A607047D0E9002312681B6811689F
:1055080041F470311160116821F44031E9E700BFBE
:10551800244B1B7810B5002B3DD1234A2348136830
:1055280001335942C1F30E01C3F30E034FF00004D7
:1055380058BF4B421E49136004600B68012B02DC04
:105548000B6801330B601B4913680A6893FBF2F17F
:1055580002FB113313B9184B01221A70174B1A7832
:105568001A780D2A1A7808D87AB9154A01211170C3
:105578001A780132D2B21A7010BD0E2AFCD1104925
:105588000120FF2208701A7010BD1A780D498A5C34
:10559800002AEDD0E9E70C4801224FF40071FCF72E
:1055A800C7FCBAE7C4900020DC9000201800002057
:1055B80014000020D8900020C69000201000002081
:1055C800C5900020C89000200008004808B50B4B83
:1055D8001B785BB90A4A0B4B012111601A688A4291
:1055E80000DD08BD1A680A441A6008BD0648002292
:1055F8004FF40071FCF79CFCECE700BFC49000205E
:1056080018000020140000200008004870B5054666
:1056180008461646164A826204224FF0FF33AA61F2
:105628000622C5E90233EA612B610022114B2A7573
:1056380001221A709A73C5E900060F4B0F49104CE6
:10564800C1624FF48002191D43F8042FA342FBD115
:105658000C4A40F6B833FCF7E1F93046FDF7A2FCF6
:105668004FF080422846D36843F48073D36070BDFE
:10567800D5550008C8900020DC9000201955000876
:10568800BCBF00201808004810B53C4A8AB0002367
:1056980008AC1370204641FA03F2013302F001020C
:1056A800082B00F8012DF6D1354B364A93E8030054
:1056B8000DF11F0384E803000DF117010DF1270414
:1056C80013F8010F11F801CF02F800C0A342F7D177
:1056D8002D492E4B2E4C009403C902908DF80C10C6
:1056E80093E803000DF1080C2A4B8DF81410019370
:1056F800049063460DF10D04002113F8010B105CB2
:10570800A34281EA0001F8D1517004AB0DF11504F0
:10571800002113F8010B105C9C4281EA0001F8D1CA
:10572800917001AB6946002011F801EB12F80EE008
:105738008B4280EA0E00F7D11071002113F8010B9B
:10574800105C9C4581EA0001F8D1134C1172A4F158
:105758000C03002113F8010F9C4281EA0001F9D1E2
:105768000E4B517303F10F0C002013F8012F411C4D
:1057780002B188B29C45F8D10AB010BD10000020D3
:10578800C05D0008C8900020CC5D0008D45D00080A
:105798000506070C090A0B0CD4900020C7900020BE
:1057A8002DE9F047274C94F8008007460E46B8F1DB
:1057B800000F28D185696D00002D38DDDFF890A035
:1057C800DFF890900023402040F6B8319A1C89FBFE
:1057D80002C44FEAE27E06EB030CCEEBA41301FBF6
:1057E8001323AB424AF82C00F0DB1748B96839613B
:1057F8004FF0FF330022C7E902330260B8F1000F0F
:105808000ED1BDE8F087114801224FF48061FCF702
:105818008FFBBD6994F800806D00002DCEDCE4E7B5
:10582800BDE8F04709484FF48061FCF781BB064AA0
:10583800B96839614FF0FF33C7E90233C2F8008015
:10584800DFE700BFC49000201400002000080048D3
:10585800E0900020F11976052DE9F047224C94F8E4
:10586800008007460E46B8F1000F23D185696D0008
:10587800002D34DDDFF878A0DFF8789000234FF4AE
:10588800800040F6B8319A1C89FB02C44FEAE27ED8
:1058980006EB030CCEEBA41301FB1323AB424AF82F
:1058A8002C00F0DB4FF0FF333B61B8F1000F0ED155
:1058B800BDE8F0870D4801224FF48071FCF738FBF2
:1058C800BD6994F800806D00002DD3DCEAE7BDE8DF
:1058D800F047064800224FF48071FCF729BB4FF0CF
:1058E800FF330361E4E700BFC490002000080048CC
:1058F800E0900020F119760520B5214A137882B08E
:10590800ABB1037D1F4D63B90169002903DB1E4B51
:105918001B68022B29D02B68C2689A4216D002B0A5
:1059280020BD29680023C0E902311370ECE703F0B9
:10593800FF01164B134D1A78002AE5D02A68C26079
:10594800114A1970022381601360DDE7104B1B6850
:1059580083B1012BE3D1816840F2DB539942DEDD4C
:1059680002B0BDE82040FFF71BBF0190FFF774FFAE
:105978000198D0E7816840F2DB539942CFDCEFE72A
:10598800C6900020DC90002014000020C590002064
:10599800180000202DE9F047A4B01E4604460D4625
:1059A80004A81146FFF79EFB2C9ADFF8D8A03146D1
:1059B8006846FFF727FD02216846FFF727FD2146C5
:1059C80004AB2A460FA8FFF7B5FB00272E9A2D999E
:1059D8004FF0010907A88DF84C903E46FFF716FED8
:1059E8004FF0FF383C4606E06EB3013EB6B207A85A
:1059F800FFF782FF2F460FA902A8FFF779FCDAF814
:105A08000050DDE90210AF421CBF0134A4B2431CB0
:105A1800EAD1632C2AD9494607A8FFF735FE05F1D4
:105A28000F08D8F10003C3F30E0306464FF0020136
:105A38006846C8F30E084FF0000458BFC3F10008C9
:105A4800FFF7E4FCD3E7804514DAA0EB08024B46E5
:105A58000FA8FFF7A5FCB9F1030F1ABF09F1010957
:105A68005FFA89F94FF001096324C0E7102C28BFB9
:105A78000026BCE7C8F5004202444B460FA8FFF7D2
:105A88008FFCE8E7DC90002002440346934200D1F3
:105A9800704703F8011BF9E770B50D4D0D4C641BF9
:105AA800A4100026A64209D10B4D0C4C00F018F8A2
:105AB800641BA4100026A64205D170BD55F8043B0E
:105AC80098470136EEE755F8043B98470136F2E768
