:020000040800F2
:1000000000000120D9010008290200082902000887
:100010002902000829020008290200080000000047
:10002000000000000000000000000000290200089D
:10003000290200080000000029020008854E00087F
:1000400029020008290200082902000829020008E4
:1000500029020008290200082902000829020008D4
:1000600029020008290200082902000829020008C4
:10007000894E000829020008290200082902000808
:1000800029020008290200082902000829020008A4
:100090002902000829020008290200082902000894
:1000A0002902000829020008290200082902000884
:1000B0002902000829020008290200082902000874
:1000C0002902000829020008290200082902000864
:1000D00029020008954E000829020008290200089C
:1000E0002902000829020008290200082902000844
:1000F0002902000829020008290200082902000834
:100100002902000800000000000000002902000889
:100110002902000829020008290200082902000813
:1001200029020008A14E000829020008290200083F
:100130002902000829020008000000000000000059
:100140002902000829020008290200080000000016
:10015000000000000000000000000000000000009F
:1001600029020008290200082902000829020008C3
:1001700029020008290200082902000829020008B3
:100180002902000829020008000000000000000009
:040190002902000838
:1001980010B5054C237833B9044B13B10448AFF3B9
:1001A80000800123237010BD2800002000000000FB
:1001B8005856000808B5034B1BB103490348AFF371
:1001C800008008BD000000002C00002058560008E0
:1001D800DFF834D004F066FE0C480D490D4A0023C0
:1001E80002E0D458C4500433C4188C42F9D30A4AE4
:1001F8000A4C002301E013600432A242FBD305F04D
:1002080003FA04F033F9FEE70000012000000020A3
:10021800280000207059000828000020C0BF0020D6
:10022800FEE7000038B50E4A0E4B127805461868EE
:100238004FF47A73B3FBF2F3B0FBF3F000F086FFF0
:1002480008B90F2D01D9012038BD044602462946B8
:100258004FF0FF3000F020FF034B20461D6038BDF3
:10026800000000200800002004000020074A08B50C
:10027800136843F010031360032000F0EFFE002022
:10028800FFF7D0FF04F0D8FB002008BD0020024093
:10029800034A044B11681B780B441360704700BF76
:1002A8004400002000000020014B1868704700BF80
:1002B80044000020704700BF026838B5936803F017
:1002C8000303012B01D0002038BD1368DC07FAD5E1
:1002D800936803F00D03012B044609D0236C43F007
:1002E80010032364636C43F001036364012038BD89
:1002F8009368032143F0020393601160FFF7D4FF72
:1003080023689B68D9070546DDD5FFF7CDFF401B5D
:100318000228236802D99A68D207DFD49B68DB07D2
:10032800F3D4D0E7026838B5936803F00303012BD0
:10033800044626D09168154B194209D0236C43F026
:1003480010032364636C43F001036364012038BD28
:10035800936843F001039360FFF7A6FF23680546FF
:100368001B68D9070BD4FFF79FFF431B022B236899
:10037800F6D91A68D207E1D51B68D907F3D500204A
:1003880038BD1368D807D5D50020F9E73F000080AD
:10039800406A036C43F040030364436C43F0040376
:1003A8004364FFF787BF00BF406A04F06BBE00BF1D
:1003B800436A1A6C12F0500F18D11A6C196842F47B
:1003C80000721A64CA6812F4406F0CD15A7E52B98E
:1003D8001A6C22F480721A641A6CD20403D41A6C50
:1003E80042F001021A64184604F06ABE9B6B1B6B4C
:1003F800184700BF30B583B000230193002800F0F0
:10040800A8800368B3F1A04F04460ED0A74A9342D0
:100418000BD002F54072934207D002F580729342E6
:1004280003D0A348F22104F005FB636833F440339A
:1004380003D09F48F32104F0FDFAA36843B1182BB9
:1004480000F25A819B4A22FA03F3DB0740F15481F8
:10045800E36833F0200303D09548F52104F0EAFA65
:100468002369012B00F2F880637E012B00F2EA80F9
:10047800E36A33F4406303D08D48F82104F0DAFAD4
:10048800A36A012B25D923F08002402A21D023F426
:100498000072B2F5E07F1CD023F41072B2F5807FB1
:1004A80017D023F48072802A13D023F0C002B2F54B
:1004B800007F0ED0B3F5607F0BD0B3F58A5F08D00C
:1004C80023F04003B3F5845F03D07948F92104F0A1
:1004D800B1FA94F83030012B00F2D9806369042B0B
:1004E80002D0082B40F0D880636B012B00F2C68045
:1004F800237E012B00F2B98023697BB1E369013BBC
:100508000F2B00F2098194F82030012B00F2EC80C7
:1005180023B1636A013B072B00F2F880206C10F0CE
:10052800100019D1256C002D00F0FC8023689A6812
:10053800D10040F1C7809A68920000F1C380226C14
:10054800D50600D460B1236C23F0120343F01003E6
:100558002364012003B030BD236CDD06F3D4236887
:100568009A685107EFD4226C22F4817242F0020299
:10057800B3F1A04F226400F04B814C4A934200F043
:100588004F814D498B4200F0DB8002F58062934237
:1005980000F058819A6802F00302012A00F05481A1
:1005A80046488268616822F440320A438260D4E98E
:1005B80002120A43616B607E013918BF012142EAC9
:1005C800403242EA013294F82010012900F0FB8001
:1005D800A16A01290ED03848834200F0048100F551
:1005E8008070834200F0FF8021F48051E06A10435C
:1005F80040EA0102996811F00C0F0CD1D96821F476
:10060800804121F00201D96094F83010207E490021
:1006180041EA80310A43D8682949014020691143D9
:100628000128D96000F0D7801A6B22F00F021A63F4
:1006380000206064236C23F0030343F00103236468
:1006480003B030BD1A48F72104F0F4F9E36A33F433
:1006580040633FF415AF0FE71548F62104F0EAF9B7
:10066800637E012B7FF604AFECE71148FD2104F00F
:10067800E1F92369002B3FF451AF3FE70C48FC2117
:1006880004F0D8F9237E012B7FF636AFEDE7084852
:10069800FA2104F0CFF921E70548FB2104F0CAF953
:1006A800636B012B7FF624AFE8E700BF0001005021
:1006B80070560008000101010004005000070050B6
:1006C80007C0F0FF236C23F0120343F010032364E8
:1006D800636C43F001036364236C236C23F01203FF
:1006E80043F01003236434E760484FF4817104F049
:1006F800A1F994F820300BE75C48F42104F09AF94A
:10070800E36833F020033FF4ABAEA5E6574840F268
:10071800051104F08FF901E7544840F2011104F083
:1007280089F9F0E62046C4E91255656484F83C501E
:1007380004F09CF923689A68D00013D52846F6E699
:100748004B494C489A6802F00302012A63D08A6830
:1007580002F00302012A7FF424AF0A68D2073FF5AA
:1007680026AF1EE72046FFF7A7FD236C13F0100FF6
:1007780023687FF4DCAE00287FF4D9AE226C3E4DAE
:1007880022F4885222F0020242F00202226499689E
:100798002A6821F040519960996841F08051996028
:1007A8003649A1FB0212920C02EB8202520001921E
:1007B800019A002A3FF4BBAE019A013A0192019ACC
:1007C800002AF9D1B3E678BB616A013942EA4141AE
:1007D80041F48032FCE6196BE26921F00F01013A1D
:1007E8000A431A6324E7B1F5307F28D0B1F5807F3A
:1007F8002FD0B1F5E07F2FD0B1F58A5F2FD0B1F5BA
:10080800845F2FD0B1F5865F08BF4FF4C071EDE665
:100818001B491C4896E71A68D5073FF5C8AE96E706
:1008280018484FF0A0418DE7216C21F0220141F0DA
:1008380020012164616C41F001016164C8E64FF454
:10084800E071D3E60B487DE71A68D2073FF5AFAEF3
:10085800A6E64FF43071C9E64FF48071C6E64FF44E
:100868007071C3E64FF4A071C0E600BF705600086F
:1008780000050050000700500800002083DE1B43DD
:100888000001005000030050F8B504460068B0F1BC
:10089800A04F0F46164610D0544B98420DD003F582
:1008A8004073984209D003F58073984205D05048A8
:1008B80040F65B1104F0BEF8206885686D0721D406
:1008C80094F83C30012B1DD00123B0F1A04F84F8DF
:1008D8003C300FD0454B98420CD0464B9B6813F0E8
:1008E8001F0F0CBF012300237BB984F83C3001257E
:1008F8002846F8BD404B9B6813F01F0F0CBF01231F
:100908000023F1E702252846F8BD2046FFF70AFD37
:10091800054600284CD1236C216823F4706323F02A
:10092800010343F48073B1F1A04F236453D02F4BDC
:10093800994241D02F4B9B68DA064ED02F4A9142FC
:100948004BD0236C43F480132364D368C3F3406310
:100958002BB1236C23F4405343F480532364236C5A
:10096800A06BDFF8A4C013F480531CBF636C23F0A2
:10097800060363643A4633464FF0000E204E214F7B
:1009880084F83CE006631C26C0E90AC70E604E687E
:1009980046F010064E60CE6846F00106CE60403143
:1009A80000F020FD2268936843F0040393609FE7FA
:1009B800002384F83C309BE703F500739B68D80656
:1009C8000BD0236C43F4801323644FF0A043DB68FF
:1009D800C3F34063BCE7084B9B68236C23F4801384
:1009E8002364CB689B01BAD5B3E700BF0001005070
:1009F8007056000800070050000300500004005023
:100A080099030008B1030008B903000870B503682A
:100A180082B00022B3F1A04F054601920C460FD0D8
:100A2800A84A93420CD002F54072934208D002F5CE
:100A38008072934204D0A44841F2B85103F0FAFFFF
:100A48006368013B0F2B00F20781A368072B00F2B4
:100A58000C81E368012B04D99B4841F2BB5103F098
:100A6800E9FF2369042B00F2F1802B68DA6812F0A1
:100A7800180F53D16269B2F5805F4FD2E2682368DC
:100A8800012A03F1FF3367D0112B00F2918095F80A
:100A98003C30012B6BD001222B6885F83C209A68EA
:100AA80052076AD46068216800EB400204284FEAC4
:100AB800420200F2E080186B4FF01F0C0CFA02FCA7
:100AC80020EA0C0001FA02F202431A639A6812F053
:100AD8000C0F7BD10929A26801EB410000F2DB80F1
:100AE8005E694FF0070C82400CFA00F026EA00001D
:100AF80002435A612069DA6800F1FF3CC2F3C1027F
:100B08006069520090408A06BCF1030F00F2A78189
:100B1800DFE81CF054005C0153014A01DA6802F076
:100B28001802082A33D0DA6802F01802102A00F0F6
:100B3800ED80DB6803F01803182B02D163693F2BA3
:100B48009CD9614841F2BD5103F074FFE268236803
:100B5800012A03F1FF3397D10D2B98D95A4841F256
:100B6800C95103F067FF95F83C30012B93D102205F
:100B780002B070BD1868C60756D52B6C43F0200329
:100B88002B640120002385F83C3002B070BD6269F7
:100B9800B2F5806FFFF472AFDA6802F01802102A1B
:100BA800C7D14948DB6841F2BD5103F043FFCDE7A7
:100BB800454841F2C55103F03DFF68E71E6E1043FA
:100BC800424A3240024342F000421A669A6802F0F2
:100BD8000302012A00F09F80E0680122012802FA3E
:100BE80001F200F09D80D3F8B00020EA0202C3F8B9
:100BF800B020B3F1A04F00F0A880324A934269D0E8
:100C08001029334A00F0C180112969D012291BD15B
:100C18009068440218D4B3F1A04F64D1294C986865
:100C280000F003000128A5D0A06800F00300012807
:100C380000F0EC80102900F0EE80112900F0D78038
:100C4800936843F48003936000209BE71E4841F2B9
:100C5800BC5103F0EFFE08E71B4841F2B95103F01D
:100C6800E9FEA368072B7FF6F4AE174841F2BA51A4
:100C780003F0E0FEEDE6092819D90E2800F2898074
:100C8800986B3C3A1F26964020EA060001FA02F2C9
:100C980002439A631AE79E691E384FF0070C824098
:100CA8000CFA00F026EA000002439A6122E7586B2A
:100CB8001E3A1F26964020EA060001FA02F2024375
:100CC8005A6303E7000100507056000800F0FF83E4
:100CD80000070050102900F08280112953D1744A6E
:100CE8009068C601B0D4734883427DD0724CA34249
:100CF80000F0AE807148834291D0986800F00300FC
:100D0800012800F0A780102997D19DE76269FF2A82
:100D18007FF6B4AE45E71A68D6077FF55DAF93E76F
:100D2800D3F8B000A46802430929C3F8B02016D943
:100D380001EB41009A691B380726844006FA00F047
:100D480022EA000222439A6153E7102958D0112958
:100D580019D1574A9068C0017FF560AF74E7481C05
:100D68005A6900EB40000726844006FA00F022EAA0
:100D780000022243B3F1A04F5A613FF465AF4D4AD8
:100D880093427FF461AF4A4A40E790680002ADD5CC
:100D98005AE7D86B5A3A1F26964020EA060001FA0D
:100DA80002F20243DA6391E6DE6E1043444A3240AF
:100DB800024342F00042DA6608E79E6E1043404A5A
:100DC8003240024342F000429A66FFE65E6E1043EC
:100DD8003B4A3240024342F000425A66F6E6344A41
:100DE800906804023FF530AF4FF0A04417E7B3F125
:100DF800A04F7FF429AF936843F08073936023E793
:100E08002B4A906806027FF509AF1DE72068C007E6
:100E18003FF5B3AE0EE7B3F1A04F7FF415AF294B02
:100E280029481B689168A0FB03039B0C03EB830311
:100E38005B0041F4000191600193019B002B3FF49A
:100E480003AF019B013B0193019B002BF9D1FBE60A
:100E58001A4CE4E61868C0073FF58FAEEAE6186E4C
:100E680000F0F840904214D0586E00F0F8409042DC
:100E780014D0986E00F0F840904214D0D86E00F06C
:100E8800F84090427FF4A2AEDA6E22F00042DA66B1
:100E98009CE6186E20F000401866E5E7586E20F0D2
:100EA80000405866E5E7986E20F000409866E5E750
:100EB80000030050000100500004005000050050DD
:100EC80000F0FF830800002083DE1B43F8B50368A9
:100ED800B3F1A04F04460D4607D05A4A934204D0B6
:100EE800594841F6953103F0A5FD2B68092B73D8B5
:100EF80040F2EF22DA40D6076ED5D3B16B6833F4EF
:100F0800004207D0B3F5404F04D04F4841F699311D
:100F180003F090FDAB6833F440730AD0B3F5806FEB
:100F280007D0B3F5006F04D0474841F69A3103F073
:100F380081FD2368454AB3F1A04F0CD0934208D0F5
:100F480002F5407293424ED041498B4203D00120B2
:100F5800F8BD4FF0A04294F83C10012948D0012177
:100F680084F83C109968480708D5236C43F020039F
:100F780001202364002384F83C30F8BD91684907B8
:100F8800F3D4B3F1A04F4AD0304E32493248B3427D
:100F980018BF0146286868B38E686F6826F4604CED
:100FA80094F8306047EA463646EA0C068E609E683A
:100FB80006F00306012E3CD0936803F00303012BCF
:100FC8002FD08B68AA6823F47163104323F00F03B2
:100FD800184388600020CDE71B4841F6963103F09E
:100FE80029FD2B6889E794F83C10194A0129B6D1E4
:100FF8000220F8BD886820F460408860986800F096
:101008000300012819D0936803F00303012B0CD0C7
:101018008B6823F4716323F00F038B60DAE70D49C3
:10102800B8E71368DE07D5D4CBE71368DB07D1D45C
:10103800EEE71B68DF07CDD4BEE71B68D807C9D425
:10104800E1E700BF0004005070560008000100509E
:10105800000500500003005000070050C31E042B79
:1010680010B504460ED80A49CA6823024FF6FF0095
:1010780003F4E0630240134343F0BF6343F40033D7
:10108800CB6010BD0348AB2103F0D4FCEBE700BFF5
:1010980000ED00E0AC5600080F2A70B5164605466C
:1010A8000C4634D80F2C2DD81B4BDB68C3F3022316
:1010B800C3F10702042A03F1040128BF0422062908
:1010C80017D9D91E4FF0FF338B4026EA03064FF09D
:1010D800FF33934024EA03038B4033431B01002D65
:1010E800DBB209DB05F1604505F5614585F800339C
:1010F80070BD00263146EAE7084A05F00F052A4484
:10110800137670BD0648C42103F094FCCCE704486C
:10111800C32103F08FFCC5E700ED00E0FCEC00E024
:10112800AC560008002808DB4109064A00F01F00F9
:101138000123834042F8213070470348D72103F048
:1011480079BC00BF00E100E0AC5600080138B0F1FE
:10115800807F01D30120704710B44FF0E023074C83
:1011680058614FF0F00C84F823C000220721104684
:101178009A615DF8044B1961704700BF00ED00E00B
:10118800D8B10F4B02689A4210B5044604D00D48F6
:1011980040F2471103F04EFC237903F0FF023BB104
:1011A800002302210122217123612271184610BDFA
:1011B8006271204603F004FDF2E70120704700BF8A
:1011C80000740040E85600080B6870B50D460446E8
:1011D80016464BB11C2B36D8032B3DD94FF0103295
:1011E80022FA03F3DB0737D56B6833F0020304D028
:1011F8001D4840F2163103F01DFC36F0100304D0F0
:1012080019484FF4467103F015FC6379012B29D076
:1012180002232371D5E9003022680343116840F6A0
:10122800FE70B04021EA0001B3400B43136013681D
:10123800C021B140002523EA010301211360217177
:101248006571284670BD243B182B05D84FF0013234
:1012580022FA03F3DA07C7D403484FF4427103F0C4
:10126800E9FBC1E7022070BD20570008002800F004
:10127800A78038B5534A03689342044625D01432F0
:10128800934222D0143293421FD0143293421CD07E
:101298001432934219D01432934216D01432934226
:1012A80013D002F5627293420FD0143293420CD0DD
:1012B8001432934209D01432934206D01432934226
:1012C80003D04148932103F0B5FB636833F0100263
:1012D8005CD1A36833F0400303D03B48952103F069
:1012E800A9FBE36833F0800303D03748962103F065
:1012F800A1FB236933F4807202D0B3F5007F4DD18E
:10130800636933F4806202D0B3F5006F4FD1A369EB
:1013180033F0200303D02C48992103F08BFBE069BC
:1013280030F4405304D028489A2103F083FBE06945
:101338006368A568E16822682B430B4321690B4366
:1013480061690B43A1690B4311686FF30D110B43DE
:101358001E4903438A4213600FD91D4B1D4913448C
:10136800A1FB03131B091C499B004FF4807200204A
:101378002284C4E90F13A06338BD184B15491344E0
:10138800A1FB03131B0916499B00EEE7B3F5804F39
:101398009FD00D48942103F04DFB9AE70A48972106
:1013A80003F048FB636933F48062B0D0ACE70648C9
:1013B800982103F03FFBA36933F02003AFD0AAE7DD
:1013C80001207047080002405C57000807040240EB
:1013D800F8FBFDBFCDCCCCCC00040240F8FFFDBF2C
:1013E800000002402DE9F0415D1E1E464FF6FE73D7
:1013F8009D4204460F46904635D894F82030012B7C
:1014080009D0012384F8203094F82130012B05D02D
:10141800002384F820300220BDE8F081022284F8FD
:10142800212025680022A2632A6822F001022A608E
:10143800226C9340E26B536063686E60102BE36A22
:101448000BBFC5F80880AF60EF60C5F80C8083B1AA
:101458002B6843F00E032B602B6843F00103002038
:101468002B60BDE8F08107484FF4A67103F0E2FA5B
:10147800C3E72B6843F00A032B602B6823F00403AF
:101488002B60E9E75C57000848B190F82120022A50
:10149800034606D004210022816380F82020012021
:1014A80070470268116821F00E0110B4046CC06B1B
:1014B8001160116821F0010111600122A2404FF46E
:1014C80080714260198400205DF8044B704700BFAA
:1014D80090F82120022A03D0042282630120704759
:1014E8000268116821F00E0110B5C46B1160116813
:1014F80021F001011160016C01228A40416B626098
:101508004FF4807CA0F820C001B18847002010BDAE
:1015180070B4C66B026C31680468042393400B42B4
:1015280025680ED015F0040F0BD02268920603D45C
:10153800226822F004022260C26A7360CAB170BCD9
:101548001047022393400B4215D015F0020F12D01A
:101558002268920606D4226822F00A02226001223A
:1015680080F82120826A7360002180F82010002A08
:10157800E5D170BC7047082393400B42F9D02B0784
:10158800F7D52368016B23F00E032360012303FAC8
:1015980002F24FF480747260048483630029E8D0F7
:1015A80070BC08472DE9F04FB0F1904F85B0074661
:1015B8000C461ED0B44B98421BD003F5806398426A
:1015C80017D003F58063984213D003F580639842DF
:1015D8000FD003F5806398420BD003F580639842DF
:1015E80007D003F58063984203D0A848B22103F0DE
:1015F80021FA23689AB21AB1B3F5803FC0F01D8171
:10160800A248B32103F016FA6268B2F5041F0ED09F
:10161800B2F5041F00F21A81B2F5881F07D000F254
:101628002082032A03D9113A012A00F2198123687A
:10163800002B00F0D180B7F1904F00F03781DFF830
:1016480064B2DFF8649200250126AE4016EA03086A
:1016580000F0BD80616801F003036A004FF0030ADF
:10166800581E0AFA02FA01286FEA0A0A40F2B780FD
:10167800032B43D0A068022800F2C780FE68904080
:1016880006EA0A063043022BF86037D17E4B9F42A8
:101698001DD003F580639F4219D003F580639F42F4
:1016A80015D003F580639F4211D003F580639F42F4
:1016B8000DD003F580639F4209D003F580639F42F4
:1016C80005D072480192E22103F0B4F9019A216928
:1016D8000C2900F2A580E80807EB800005F0070355
:1016E800066A9B004FF00F0C99400CFA03F326EAA8
:1016F80003030B436168036201F0030393403A68F4
:1017080002EA0A02134311F4403F3B605ED0DBF863
:10171800183043F00103CBF81830DBF8183003F029
:1017280001030393039B25F0030303F1804303F5AF
:10173800803305F003069868B6000F22B24020EA0D
:101748000200514A974200F09B80514A974213D0B9
:10175800504A974200F08A814F4A974200F08A81A6
:101768004E4A974200F073814D4A97420CBF0622B9
:101778000722B240024302E00222B24002439A60CA
:10178800D9F808306FEA0802C80254BF134048EA83
:101798000303C9F80830D9F80C308E0254BF13403F
:1017A80048EA0303C9F80C30D9F80430880354BF59
:1017B800134048EA0303C9F80430D9F80030C903D4
:1017C80054BF134048EA0303C9F8003023680135C1
:1017D80033FA05F27FF438AF05B0BDE8F08FE06862
:1017E800012801D9032840D1D7F808C090400CEA55
:1017F8000A0C40EA0C00B860786820EA0606C1F3D3
:101808000010A8403043786032E720480192D42184
:1018180003F010F9D4E90110019A01F003032DE750
:10182800A1F10E03012B7FF656AFE3211748019271
:1018380003F000F92169019A4DE76268B2F5041FC7
:101848003FF4F9AEB2F5041F7FF6E6AEB2F5441FD9
:101858003FF4EDAE22F48012B2F5081F3FF4E7AE74
:101868000A48B42103F0E6F8E1E608480192C321EA
:1018780003F0E0F86168E068019A01F00303B3E758
:101888000122B24002437AE7000400489457000856
:1018980000080048000C00480010004800140048E8
:1018A800001800480010024000040140DFF8D4810D
:1018B80000254FF0010B0BFA05FA13EA0A077DD051
:1018C800616801F003034FEA450903265A1E06FA28
:1018D80009F6012A6FEA06067AD9032B2BD0A268EB
:1018E800022A00F2A2804FF0904C02FA09F2DCF8CA
:1018F8000C0030400243022BCCF80C201BD123698A
:101908000C2B04D9A3F10E02012A00F2A480EA08E4
:10191800920002F1904205F00701106A89004FF029
:101928000F0C8B400CFA01F120EA01010B436168AE
:10193800136201F003034FF0904003FA09F30268C1
:101948003240134311F4403F03603FD04B4A936940
:1019580043F001039361936903F001030393039B2D
:1019680025F0030303F1804303F5803305F00306F4
:101978009A68B6000F20B04022EA00029A60C802B6
:10198800D8F808306FEA07023FD41340C8F8083087
:101998008E02D8F80C303FD41340C8F80C308803B6
:1019A800D8F804303FD41340C8F80430CE03D8F830
:1019B800003028D41340C8F800302368013533FAC2
:1019C80005F27FF478AF05B0BDE8F08F2368F5E73E
:1019D800E268012A01D9032A30D14FF0904002FA77
:1019E80009F2D0F808E006EA0E0E42EA0E0282601A
:1019F8004268C1F3001C0CFA05FC22EA0A024CEA10
:101A08000202426069E73B43D5E73B43C8F8083028
:101A18008E02D8F80C30BFD53B43C8F80C30880389
:101A2800D8F80430BFD53B43BEE7D421144803F0AF
:101A380001F8D4E9011201F0030354E7C321104867
:101A480002F0F8FF6168E26801F00303C5E70522C8
:101A5800B240024393E60A48E32102F0EBFF236910
:101A680055E7B2F5901F3FF4E2ADF9E60322B24024
:101A7800024384E60422B240024380E6001002409A
:101A8800945700080004014070B5064615460C46F8
:101A980059B1012D02D835B9B46270BD064840F27B
:101AA800A51102F0C7FFB46170BD03484FF4D271AD
:101AB80002F0C0FFEDE700BF94570008002800F0CF
:101AC800CD8010B590F83230052B82B0044600F076
:101AD8009A8090F83230022B00F095800368724AA1
:101AE80093420DD0043293420AD00432934207D075
:101AF8000432934204D06D484FF4857102F09AFF86
:101B08006368002B00F0828023F02003402B00F054
:101B1800A080664840F20D1102F08CFFE3680C2BA0
:101B280009D033F0040206D0082B04D05F484FF4E4
:101B3800877102F07FFF6368002B6AD02369ABB11D
:101B4800802B73D1A36933F4C06304D0574840F2A3
:101B5800231102F06FFF63684BB9636933F4807334
:101B680007D052484FF4937102F064FF6368402B2A
:101B780076D0636A4BB1B3F5802F60D1A36A1F2B6F
:101B880000F28C80E36A1F2B7CD8494B9A6942F09B
:101B980001029A619B6903F001030193019B94F888
:101BA800323003F0FF020BB984F83120204603F0ED
:101BB80043F8636823F02002402A34D0D4E90212A3
:101BC8000B43134320696269A16903431343D4E9B2
:101BD80007200B431343626A216803431343D4E984
:101BE8000A0243EAC04343EA02630868314A0240F2
:101BF80013430B6094F8323013B9012384F8323060
:101C0800002002B010BD012002B010BDE3680C2B0B
:101C180087D1A36833F0200390D024484FF48E7105
:101C280002F008FF8AE7D4E90302CDE71F4840F233
:101C38001F1102F0FFFE2369802B97D182E71B4812
:101C48004FF4987102F0F6FE636AB3F5802F9CD1C9
:101C580094E7E3680C2B7FF464AF6FE701207047CB
:101C6800E36933F4003202D0B3F5403F10D1236A60
:101C780033F440433FF47DAF0C4840F22D1102F09D
:101C8800D9FE76E709484FF49A7102F0D3FE7CE753
:101C980006484FF4967102F0CDFEE8E7034840F29B
:101CA800331102F0C7FE6DE738000140D057000835
:101CB80000100240113800E0002800F04C832DE9A4
:101CC800F043036883B00446002B00F01D811A0717
:101CD80000F06582DF0743D5636833F4803203D0B0
:101CE800B3F5A02F40F03282AE4A536803F00C03DC
:101CF800042B00F01082536803F00C03082B00F04B
:101D080003826368B3F5803F00F01A82002B00F06D
:101D18004D82B3F5A02F00F01183A24B1A6822F46C
:101D280080321A601A6822F480221A60FEF7BCFA20
:101D38009C4F05464FF40038012605E0FEF7B4FA3B
:101D4800401B642800F2278298FAA8F33A6898FAA8
:101D5800A8F3B3FA83F306FA03F31342EED0236829
:101D68009E0747D5E368012B00F2868123691F2B64
:101D780000F28B818B4B5A6812F00C0F00F06981CE
:101D88005A6802F00C02082A00F05C81E268002A16
:101D980000F05882012595FAA5F3B3FA83F303F10D
:101DA800845303F584139B007E4F1D60FEF77CFA75
:101DB8004FF00208064605E0FEF776FA801B022877
:101DC80000F2E98198FAA8F33A6898FAA8F3B3FA06
:101DD80083F305FA03F31342EED03968F82292FA36
:101DE800A2F22369B2FA82F2934021F0F802134377
:101DF8003B6023681D072DD56369012B00F27181B3
:101E0800002B00F04881012696FAA6F2664BDFF80F
:101E18009481B2FA82F213449B0002251E60FEF7F9
:101E280043FA074605E0FEF73FFAC01B022800F216
:101E3800B28195FAA5F395FAA5F395FAA5F3D8F822
:101E4800242095FAA5F3B3FA83F306FA03F31342B1
:101E5800E9D02368580757D5A368012B06D9052B65
:101E680004D052484FF4FA7102F0E4FD4D4BDA69A0
:101E7800D10000F1BC81DA6942F08052DA61DB6995
:101E880003F080530193019B0125494E3368DA051D
:101E980040F17181A368012B0FD0002B00F0A981BC
:101EA800052B404B1A6A00F00F8222F001021A62D9
:101EB8001A6A22F004021A6204E03A4A136A43F0EA
:101EC80001031362FEF7F0F9DFF8D88006464FF0F9
:101ED8000209012707E0FEF7E7F941F28833801B82
:101EE800984200F2588199FAA9F399FAA9F3D8F817
:101EF800202099FAA9F3B3FA83F307FA03F31342FC
:101F0800E9D0002D40F0DA81A369022B00F2F280BB
:101F1800002B00F09380234D6A6802F00C02082A17
:101F280000F0B481022B40F0E381E369B3F5004F80
:101F380007D0B3F5803F04D01C4840F2412102F09D
:101F480079FD236A33F4402212D0B2F5801F0FD0F6
:101F5800B2F5001F0CD023F48022B2F5401F07D041
:101F6800B3F5601F04D0114840F2422102F062FD2F
:101F7800636A0F2B00F2B0814FF0807393FAA3F3DA
:101F8800B3FA83F303F1845303F584139B0000220F
:101F98001A60FEF789F9034D06464FF000780127CD
:101FA8000EE000BF00100240208190100C5800087D
:101FB80000700040FEF778F9801B022800F2EB80E1
:101FC80098FAA8F32A6898FAA8F3B3FA83F307FAF9
:101FD80003F31342EED1EB6A626A23F00F03134353
:101FE800EB62D4E907136A680B4322F476121343B1
:101FF8006B604FF0807393FAA3F3B3FA83F303F1A2
:10200800845303F584139B00B64E1F60FEF74CF90A
:102018004FF000770446012505E0FEF745F9001B5F
:10202800022800F2B88097FAA7F3326897FAA7F364
:10203800B3FA83F305FA03F31342EED0002003B09A
:10204800BDE8F0835B6803F4C033B3F5004F7FF459
:102058009DAE022393FAA3F2A24A116893FAA3F35E
:102068000122B3FA83F302FA03F30B4274D0E36854
:10207800934271D00120E2E79B4840F2871102F0B9
:10208800D9FC23691F2B7FF675AE97484FF4C471AE
:1020980002F0D0FC6EE6012797FAA7F1934ADFF821
:1020A8004482B1FA81F10A44920002251360FEF7D6
:1020B800FBF8064604E0FEF7F7F8801B02286AD80A
:1020C80095FAA5F395FAA5F395FAA5F3D8F824207F
:1020D80095FAA5F3B3FA83F307FA03F31342EAD1A7
:1020E800B7E681484FF4E47102F0A4FC6369002B61
:1020F800D1D088E67C484FF40E7102F09BFCA369AE
:10210800002B7FF408AF99E7536803F4C033B3F5A5
:10211800803F7FF4F6AD4FF4003393FAA3F2714A8F
:10212800116893FAA3F30122B3FA83F302FA03F3D3
:102138000B423FF414AE6368002B7FF410AE99E7AE
:10214800684A136843F480331360EFE5664840F249
:102158004F1102F06FFCC7E56248F822016892FA55
:10216800A2F22369B2FA82F2934021F0F8021343F3
:10217800036023683EE6336843F480733360FEF7F8
:1021880093F807463368DB053FF584AEFEF78CF815
:10219800C01B6428F6D9032003B0BDE8F083524879
:1021A80040F2491102F046FC236893E54D4D2B6837
:1021B80023F480332B602B6823F480232B60FEF7F5
:1021C80073F84FF400380646012704E0FEF76CF870
:1021D800801B6428DFD898FAA8F32A6898FAA8F32D
:1021E800B3FA83F307FA03F31342EFD1B7E50025F7
:1021F8004BE63C4E336A23F001033362336A23F023
:1022080004033362FEF750F84FF0020907464FF017
:10221800010806E0FEF748F841F28833C01B9842EF
:10222800B9D899FAA9F399FAA9F3326A99FAA9F3EC
:10223800B3FA83F308FA03F31342EBD1002D3FF40A
:1022480063AE3BE0012696FAA6F3B3FA83F303F1F3
:10225800845303F584139B00224F1A60FEF724F879
:102268004FF00208054604E0FEF71EF8401B02285E
:1022780091D898FAA8F33A6898FAA8F3B3FA83F3CE
:1022880006FA03F31342EFD12368B3E5012B3FF4B9
:10229800F1AE6A68E169EB6A02F4C03088427FF403
:1022A800E9AE216A02F470128A427FF4E3AE606AF2
:1022B80003F00F03181A18BF0120C0E6094AD369B2
:1022C80023F08053D3611FE642F004021A621A6AAF
:1022D80042F001021A62F5E503484FF4117102F069
:1022E800A9FB49E6001002400C5800082081901014
:1022F8004FF0807393FAA3F3B3FA83F303F1845393
:1023080003F584139B0000221A60FDF7CDFF4FF000
:1023180000770446012605E0FDF7C6FF001B0228EA
:102328003FF639AF97FAA7F32A6897FAA7F3B3FAF3
:1023380083F306FA03F31342EED17FE603F18043F9
:10234800A3F53C331A6842F480221A601A6842F4F2
:1023580080321A60EAE40120704700BF002800F0CC
:10236800F08003682DE9F0411E070D46044600F091
:10237800D380022D00F2CA80864A136803F007034F
:10238800AB420CD2136823F007032B431360136886
:1023980003F00703AB4202D00120BDE8F0812368B7
:1023A80098071AD5A16891B1C02910D000F2E4802D
:1023B800A0290CD000F2E98021F01002802A06D072
:1023C80040F2D921744802F035FBA16823687348AC
:1023D800426822F0F0020A434260D90731D56368A7
:1023E800022B00F2C080012B00F0AD80022B0CBF45
:1023F8004FF00072022292FAA2F16849086892FA34
:10240800A2F20121B2FA82F201FA02F20242C3D028
:10241800624E726822F0030213437360FDF744FFB3
:1024280041F28838074605E0FDF73EFFC01B4045EE
:1024380000F2A0807368626803F00C03B3EB820FAC
:10244800F2D1544A136803F00703AB4209D9136861
:1024580023F007032B431360136803F00703AB4211
:102468009AD123685A0718D5E16831F480620ED0F2
:1024780021F40072B2F5A06F09D0B1F5C06F06D093
:102488004FF44771444802F0D5FAE168236843489D
:10249800426822F4E0620A4342601B0718D52269A9
:1024A80032F480630DD022F40073B3F5A06F08D026
:1024B800B2F5C06F05D0384840F2233102F0BAFABD
:1024C800226936494B6823F4605343EAC2034B60E0
:1024D800324A536803F00C01082923D030492F4BA6
:1024E800F0225B6892FAA2F2B2FA82F203F0F003E9
:1024F8002C4C2D48D3402D4AE35C006821FA03F3A5
:102508001360FDF78FFE0020BDE8F081224840F2FD
:10251800C22102F08FFA2FE71F4840F2C12102F0D2
:1025280089FA26E7D16A224A2248C3F3834301F095
:102538000F01D35C415C1A4AB2FBF1F202FB03F1D2
:10254800CDE7012070474FF4003292FAA2F1134907
:10255800096892FAA2F2B2FA82F203FA02F20A4285
:102568007FF456AF18E70C484FF4387102F062FA5E
:10257800636838E7032010E7E0293FF428AF21F02B
:102588002002D02A7FF41CAF21E7B0293FF41FAF07
:1025980016E700BF002002400C5800080010024057
:1025A80000127A0058590008040000200800002092
:1025B80040590008305900080C4A536803F00C01D0
:1025C800082901D00A487047C3F38343D26A0949EE
:1025D8000748C95C10B402F00F03074CE35C5DF8D0
:1025E800044BB0FBF3F001FB00F070470010024011
:1025F80000127A004059000830590008084B4FF47F
:10260800E0625B6892FAA2F2B2FA82F203F4E06343
:1026180004490548D3400068CB5CD840704700BFE8
:10262800001002405059000808000020084B4FF4E1
:1026380060525B6892FAA2F2B2FA82F203F4605333
:1026480004490548D3400068CB5CD840704700BFB8
:102658000010024050590008080000202DE9F043FE
:10266800944A0368934283B0044680F0F281D90308
:102678004ED5636833F4407340F00C828E4BDA69B0
:10268800D20000F1EC81DA698C4D42F08052DA61B7
:10269800DB6903F080530193019B2B68DF054FF042
:1026A800010640F1E381DFF810826168D8F8203034
:1026B80013F4407320D001F440729A421CD0D8F829
:1026C80020104FF4803321F4407093FAA3F27C4F2A
:1026D800B2FA82F23A4492000125156093FAA3F304
:1026E800B3FA83F33B449B000022C9071A60C8F879
:1026F800200000F1F68161686F4A136A23F4407381
:102708000B4313621EB1D36923F08053D36123684E
:10271800DA0709D5A168032900F2D4816648026B5B
:1027280022F003020A4302639F070FD5E16831F4E0
:10273800403205D0C721634802F07CF9E16823687C
:102748005D48026B22F440320A4302635E070FD5EC
:10275800216931F4402205D0D3215A4802F06AF9A0
:10276800216923685448026B22F440220A43026319
:102778009D060FD5E16931F0100205D0DE215148E0
:1027880002F058F9E16923684B48026B22F0100205
:102798000A43026398030FD5616D31F4800205D0B6
:1027A800EC21484802F046F9616D236842484268C6
:1027B80022F480020A434260590610D5216A31F09A
:1027C800200206D04FF480713E4802F033F9216AA6
:1027D80023683948026B22F020020A4302635A0335
:1027E80010D5616A31F0400206D04FF4897135483E
:1027F80002F020F9616A23682F48026B22F0400238
:102808000A4302631F0710D5616931F4401206D0EC
:1028180040F221112B4802F00DF96169236826481E
:10282800026B22F440120A430263DE0610D5A16946
:1028380031F4400206D040F22B11224802F0FAF897
:10284800A16923681C48026B22F440020A43026310
:102858009D0510D5216B31F4000206D040F23B11E2
:10286800184802F0E7F8216B23681348426822F4FD
:1028780000020A434260180626D5A16A91B1B1F553
:10288800B07F0FD000F20B81B1F5987F0AD021F00C
:10289800100200F24281B2F5807F03D0B1F5907F3B
:1028A80040F008810448C26A22F4F8720A43C262FE
:1028B8000AE000BF0034F703001002400070004037
:1028C8000081901044580008D90527D5E16A31F4F1
:1028D80000521DD021F48062B2F5085F18D021F4AF
:1028E8000062B2F5105F13D021F40072B2F5205FD8
:1028F8000ED0B1F5385F0BD021F4C062B2F5405F5D
:1029080006D04FF4B671874802F094F8E16A23685C
:102918008548C26A22F478520A43C262DA0410D5A2
:10292800616B31F4807206D04FF4C6717D4802F0B5
:1029380081F8616B23687C48026B22F480720A4339
:1029480002639F0410D5216C31F4007206D04FF455
:10295800CF71744802F06EF8216C23687248026BDC
:1029680022F400720A430263DE0210D5A16B31F033
:10297800807206D040F2F5116A4802F05BF8A16B4C
:1029880023686948026B22F080720A4302639D0241
:1029980010D5E16B31F0007206D040F2FF116148AA
:1029A80002F048F8E16B23685F48026B22F000727E
:1029B8000A430263580210D5616C31F4806206D074
:1029C80040F20921574802F035F8616C23685648EF
:1029D800026B22F480620A430263190210D5A16CCB
:1029E80031F4006206D040F213214E4802F022F87A
:1029F800A16C23684C48026B22F400620A4302630C
:102A0800DA0110D5E16C31F4005206D040F21D21F4
:102A1800444802F00FF8E16C23684348026B22F443
:102A280000520A4302639B010FD5226D32F4004322
:102A380005D03C4840F22A2101F0FCFF226D3A49BA
:102A48000B6B23F4004313430B63002003B0BDE872
:102A5800F0833448702101F0EDFF236807E6334D19
:102A68002B68DF054FF000063FF51DAE2B6843F4D9
:102A780080732B60FDF718FC07462B68D8053FF5D7
:102A880012AEFDF711FCC01B6428F6D9032003B071
:102A9800BDE8F0832348762101F0CCFFEEE5B1F5DF
:102AA800C87F3FF4FFAE14D921F01002B2F5D07FF1
:102AB8003FF4F8AE40F25B111A4801F0BBFFA16A7F
:102AC8002368EFE6BC21174801F0B4FFA16823682A
:102AD80024E6B1F5B87F3FF4E5AEB1F5C07FE9D1A2
:102AE800E0E6FDF7E1FB4FF00209074699FAA9F382
:102AF80099FAA9F3D8F8202099FAA9F3B3FA83F33D
:102B080005FA03F313427FF4F6ADFDF7CDFB41F26E
:102B18008833C01B9842E9D9B8E7B2F5A07FC9D17C
:102B2800C0E600BF44580008001002400070004092
:102B3800002800F0108138B5884A0368934204469B
:102B48002BD0B3F1804F28D0A2F59432934224D0F1
:102B580002F58062934220D002F5006293421CD0B5
:102B680002F58062934218D002F59032934214D055
:102B780002F54062934210D002F5806293420CD075
:102B880002F58062934208D002F50062934204D0B5
:102B980073484FF48D7101F04DFFA36833F01002B4
:102BA8000AD023F04002202A06D0402B04D06C48DB
:102BB80040F21B1101F03EFF236933F4807240F0AC
:102BC80087802268E368B2F1804F00F09080013B73
:102BD8004FF6FE7293428CBF00230123002B00F0B6
:102BE800AE80A36933F0800340F0858094F83D30CF
:102BF80003F0FF02002B00F08A8022685749022365
:102C080084F83D308A4213682BD0B2F1804F00F02F
:102C18008480A1F594318A427FD001F580618A428F
:102C28007BD001F596318A421BD001F5E0518A42EA
:102C380017D0A1F580518A4200F0878001F58061A4
:102C48008A4200F0828001F580618A427DD0A569C0
:102C58006168E06823F080032B431360D0629162BF
:102C680012E0A068216923F07003034323F4407342
:102C78000B43A16923F080030B431360E368D3621D
:102C88006368936263691363012353611369DB0704
:102C980003D5136923F001031361012384F8483035
:102CA80084F83E3084F83F3084F8403084F841306E
:102CB80084F8423084F8433084F8443084F845304E
:102CC80084F8463084F8473084F83D30002038BD19
:102CD800B3F5007F3FF475AF21484FF48E7101F0D2
:102CE800A9FE2268E368B2F1804F7FF470AF003B21
:102CF80018BF012372E71A484FF48F7101F09AFE4A
:102D080094F83D3003F0FF02002B7FF476AF84F88F
:102D18003C20204602F004F86FE7A168206923F000
:102D280070030B4323F44073A169034323F080032A
:102D3800E0680B4361681360D0629162A4E70848B9
:102D480040F21D1101F076FE4BE72069A16923F4DA
:102D5800407303438EE70120704700BF002C0140F9
:102D680080580008324A0368934210B504462BD0B5
:102D7800B3F1804F28D0A2F59432934224D002F5C3
:102D88008062934220D002F5006293421CD002F583
:102D98008062934218D002F59032934214D002F523
:102DA8004062934210D002F5806293420CD002F543
:102DB8008062934208D002F50062934204D01D4815
:102DC8004FF4CE7101F036FE94F83D30012B23D13B
:102DD8002368174A0221934284F83D101ED0B3F1AC
:102DE800804F1BD0A2F59432934217D002F580622F
:102DF800934213D002F5963293420FD002F5406207
:102E080093420BD002F58052934207D01A6842F0E1
:102E180001021A60002010BD012010BD9968064A01
:102E28000A40062AF6D0B2F5803FEFD1F2E700BF9C
:102E3800002C01408058000807000100704700BFBF
:102E4800002800F0038138B5814A036893420D4693
:102E580004462BD0B3F1804F28D0A2F59432934288
:102E680024D002F58062934220D002F5006293429A
:102E78001CD002F58062934218D002F5903293423A
:102E880014D002F54062934210D002F5806293425A
:102E98000CD002F58062934208D002F5006293429A
:102EA80004D06C484FF4266101F0C4FDA36833F0E8
:102EB80010020AD023F04002202A06D0402B04D06A
:102EC800644840F6612101F0B5FD236933F480724E
:102ED80040F0858035F0080304D05E4840F6632151
:102EE80001F0A8FD2268E368B2F1804F00F0AA80E3
:102EF800013B4FF6FE7293428CBF00230123002B47
:102F080000F09A80A36933F0800372D194F83D30C1
:102F180003F0FF02002B77D023684D49022284F882
:102F28003D208B421A6828D0B3F1804F72D0A1F5AA
:102F380094318B426ED001F580618B426AD001F5E5
:102F480096318B4219D001F5E0518B4215D0A1F58D
:102F580080518B4215D001F580618B4211D001F56B
:102F680080618B420DD0A069616822F08002024323
:102F7800E0681A60D862996212E0A16822F07002D3
:102F88000A43216922F440720A43A16922F08002AF
:102F98000A431A60E268DA6262689A6262691A63CE
:102FA80001225A611A69D20703D51A6922F001026F
:102FB8001A61196821F0080119601968012229436A
:102FC800196084F8482084F83E2084F83F2084F86B
:102FD800442084F8452084F83D20002038BDB3F50E
:102FE800007F3FF477AF1B4840F6622101F022FDD5
:102FF80070E7184840F6652101F01CFD94F83D3053
:1030080003F0FF02002B87D184F83C202046FFF70D
:1030180015FF81E7A16822F070020A43216922F4B2
:1030280040720A43A16922F080020A43E1681A60EB
:103038006268D9629A62B3E7064840F6642101F0F3
:10304800F9FC5FE7003B18BF012358E701207047F0
:10305800002C01408058000838B590F83C30012B0E
:1030680000F0A1810223012280F83C2080F83D3045
:103078000B68702B04460D4600F0308223D823F0ED
:103088001002402A00F0D180602B00F08E8133F0CE
:1030980030026AD12268AA49906801409160402BA9
:1030A80000F2CC80202B00F0548100F24F8133F0E5
:1030B800100100F04E8101200122002384F83D20F8
:1030C80084F83C3038BDB3F5805F00F00381B3F578
:1030D800005FDCD102689A4B91680B409360994B72
:1030E8009A4217D0B2F1804F14D0A3F594339A4284
:1030F80010D003F580639A420CD003F596339A42B8
:1031080008D003F5E0539A4204D08F4841F29D510C
:1031180001F090FCAB6833F4405304D08A484FF474
:10312800AD5101F087FC6B68B3F5004F09D033F05F
:10313800020206D00A2B04D0834841F2A15101F0C3
:1031480079FCE8680F2800F2D6812268D5E9015396
:1031580091682B4321F47F410B4343EA002393609A
:10316800936843F4804393601BE1774841F27251BE
:1031780001F060FC22682B6890687149602B01EAB5
:103188000001916000F0168140F25D81B3F5805F27
:1031980000F0A580B3F5005FA1D0702B8BD1694BEF
:1031A8009A4217D0B2F1804F14D0A3F594339A42C3
:1031B80010D003F580639A420CD003F596339A42F7
:1031C80008D003F5E0539A4204D05F4841F2855194
:1031D80001F030FCAB6833F4405304D05A4841F254
:1031E800885101F027FC6B68B3F5004F09D033F024
:1031F800020206D00A2B04D0534841F2895101F04B
:1032080019FCE8680F2800F27D812268D5E901538E
:1032180091682B4321F47F410B4343EA00239360D9
:10322800936843F077039360BBE002684449906871
:10323800402B01EA0001916000F00881502B7FF4D7
:103248003AAF404B9A421BD0B2F1804F18D0A3F549
:1032580094339A4214D003F580639A4210D003F550
:1032680096339A420CD003F540639A4208D003F58E
:1032780080539A4204D0344841F2B15101F0DAFB4C
:103288006B68B3F5004F09D033F0020206D00A2B61
:1032980004D02D4841F2B45101F0CCFBE8680F2866
:1032A80000F23E81236869681A6A22F00A02114313
:1032B8001A6A22F001021A629A6922F0F00242EABE
:1032C80000129A6119629A6822F0700242F057025D
:1032D8009A6066E002681A4B91680B409360194B3C
:1032E8009A425ED0B2F1804F5BD0A3F594339A42F4
:1032F80057D003F580639A4253D003F500639A428E
:103308004FD003F580639A424BD003F590339A422D
:1033180047D003F540639A4243D003F580639A424D
:103328003FD003F580639A423BD003F500639A428D
:1033380037D0054841F27E5101F07CFB31E000BFF7
:103348008800FEFF002C014080580008302B7FF4D5
:10335800B2AE77498A421DD0B2F1804F1AD0A1F59A
:1033680094318A4216D001F580618A4212D001F563
:1033780096318A420ED001F540618A420AD001F5A1
:1033880080518A4206D06B4841F2E45101F052FB69
:1033980022682B68916821F070010B4343F0070302
:1033A8009360002088E6022038BD0268624B91686D
:1033B8000B4093605E4B9A421BD0B2F1804F18D0FD
:1033C800A3F594339A4214D003F580639A4210D03F
:1033D80003F596339A420CD003F540639A4208D01D
:1033E80003F580539A4204D0524841F2C15101F08A
:1033F80021FB6B68B3F5004F09D033F0020206D009
:103408000A2B04D04B4841F2C45101F013FBE86881
:103418000F287ED8236869681A6A22F0A00242EA57
:103428000112196A21F010011962996921F4704199
:1034380041EA003199611A629A6822F0700242F0FA
:1034480067029A60ADE7402B7FF429AE384B9A4269
:103458001BD0B2F1804F18D0A3F594339A4214D000
:1034680003F580639A4210D003F596339A420CD044
:1034780003F540639A4208D003F580539A4204D07A
:103488002C4841F2D15101F0D5FA6B68B3F5004FE1
:1034980009D033F0020206D00A2B04D0254841F2A5
:1034A800D45101F0C7FAE8680F281DD82368696865
:1034B8001A6A22F00A0211431A6A22F001021A62F9
:1034C8009A6922F0F00242EA00129A6119629A6837
:1034D80022F0700242F047029A6062E70268164BD7
:1034E80091680B4093605AE6124841F2D55101F0B9
:1034F800A1FAE868DAE70F4841F2A25101F09AFA16
:10350800E86822E60B4841F28A5101F093FAE8682C
:103518007BE6084841F2C55101F08CFAE86879E782
:10352800044841F2B55101F085FAE868BAE600BFEF
:10353800002C0140805800088800FEFFF8B55F4A5B
:103548000368934204460D4623D0B3F1804F20D040
:10355800A2F5943293421CD002F58062934218D0AF
:1035680002F50062934214D002F58062934210D0B3
:1035780002F5903293420CD002F54062934208D093
:1035880002F58052934204D04D4840F2AC7101F0EC
:1035980051FA2B6833F040020CD0402B76D8202B00
:1035A80008D023F02003102B04D0454840F2AD7119
:1035B80001F040FAAB6833F0800304D0404840F291
:1035C800AE7101F037FA94F83C30012B71D0022229
:1035D800236884F83D20394A012184F83C1093423D
:1035E8005E689F681ED002F5006293421AD002F509
:1035F800E052934216D02A6826F0700616435E60A1
:10360800B3F1804F02D02F4A934246D1AA6827F0DF
:10361800800717439F600020012384F83D3084F819
:103628003C00F8BD6A6832F440111CD0B1F5800F37
:1036380019D0B1F5000F16D0B1F5400F13D040F2F4
:10364800C1711F4801F0F6F96968236826F4700211
:103658000A43296822F070020A435A60174A9342C3
:10366800CED1164BD2E726F470062968324322F0F1
:1036780070020A435A60114A9342F2D0124A9342A6
:1036880019D0124B114A9342C5D1BFE7602B91D094
:1036980023F02003502B88D18CE702F580629342F7
:1036A800B4D002F59632934205D0094A9342ADD080
:1036B800E8E70220F8BD044BA8E700BF002C014052
:1036C800B858000800040040003401400050014090
:1036D80000400140C36F212B00D07047B0F8523032
:1036E80002689BB283B952E8003F23F0800342E8A6
:1036F80000310029F7D152E8003F43F0400342E887
:1037080000310029F7D17047C16C31F8023BC3F38F
:1037180008031385B0F85230C164013B9BB2A0F88E
:1037280052307047C36F212B00D07047B0F8523029
:1037380002689BB283B952E8003F23F0800342E855
:1037480000310029F7D152E8003F43F0400342E836
:1037580000310029F7D17047C16C11F8013B13857E
:10376800B0F85230C164013B9BB2A0F852307047A8
:103778002DE9F8430446C06F20285CD10D4609B1F5
:10378800164612B90120BDE8F8831F464FF000081D
:103798002123C4F88480E367FCF786FDA368A4F8B6
:1037A8005060B3F5805F8146A4F8526046D0B4F803
:1037B800523022689BB2002B4BD07B1C29D1D36995
:1037C8001F06FCD5002D31D015F8013B1385B4F840
:1037D8005230013B9BB2A4F85230B4F852309BB23D
:1037E800002BECD1D3695906FCD52023E3670020D0
:1037F800BDE8F883002D3FD015F8013B1385B4F8D8
:103808005230013B9BB2A4F85230B4F852309BB20C
:103818000BB3D3691E06EDD4FCF746FDA0EB0903F4
:103828009F4211D387B122681368F2E738F8023B48
:10383800C3F30803CAE70220BDE8F8832369002B15
:10384800B5D1A8461D46B2E72023E3670320BDE8AB
:10385800F883781CC6D0D3695B06C6D4FCF724FD70
:10386800A0EB09039F42EFD3002FEDD02268136825
:10387800D3695B06F2D5B8E738F8023BC3F308030F
:10388800BCE700BFC36F202B22D101B10AB90120C8
:103898007047836810B4B3F5805F4FF00004C164CB
:1038A8004FF02101A0F85220A0F85020C0F8844021
:1038B800C1670FD00B4B0268C36652E8003F43F064
:1038C800800342E800300028F7D15DF8044B7047C8
:1038D800022070470169044B024AA14218BF1346EF
:1038E800E9E700BF2D370008DD360008704700BF44
:1038F800704700BF08B5406A0023A0F85A30A0F806
:103908005230FFF7F5FF08BD704700BF0368DA695A
:10391800196840F60F0C12EA0C0F70B59D68044642
:103928007FD1960602D58E0600F1FC80206E012814
:1039380024D0D60202D5680200F1F980160614D404
:10394800500601D54A0600D470BD53E8002F22F076
:10395800400243E800210029F7D120220023E26732
:10396800E3662046FFF7C2FF70BD0D06E8D5E36E9B
:10397800002BE9D02046BDE870401847D606D8D5B8
:10398800C806D6D510221A629A68520640F12D81CF
:10399800606F0268526892B2002AD5D0B4F8581005
:1039A8009142D1D9A4F85A208269202A2FD053E80D
:1039B800002F22F4807243E800210029F7D103F197
:1039C800080252E8002F22F0010203F1080545E839
:1039D80000210029F3D103F1080252E8002F22F058
:1039E800400203F1080545E800210029F3D120220F
:1039F800C4F88020216653E8002F22F0100243E823
:103A080000210029F7D1FDF73FFDB4F85810022333
:103A18006366B4F85A30C91A204689B2FFF774FFB2
:103A280070BD15F0010640F0C1808E4801423FF498
:103A38007DAFD5070FD5C80540F1D38001201862A6
:103A4800D4F8840040F00100C4F8840090077BD5C6
:103A5800002E40F0AF80550740F18E80160700F128
:103A6800BD8016050AD54D0108D54FF400601862CF
:103A7800D4F8840040F02000C4F88400D4F884000E
:103A880000283FF461AF900606D5890604D5A26EDA
:103A980012B1204690472368D4F884109A6801F040
:103AA800280102F0400252EA010500F0D58053E8EF
:103AB800002F22F4907243E800210029F7D103F186
:103AC800080252E8002F22F0010203F1080040E842
:103AD80000210029F3D1226E012A56D0002220218C
:103AE800C4F8801022669968A2664A066FD503F169
:103AF800080252E8002F22F0400203F1080040E8D3
:103B080000210029F3D1606F002860D0564B436331
:103B1800FDF7DEFC00283FF417AF606FBDE870408A
:103B2800436B1847836E002B7FF425AF0CE74FF4E7
:103B3800801220461A62BDE8704000F041BCC805FA
:103B48003FF57CAF950735D4500715D5002E85D0A5
:103B580004201862D4F88400150740F00200C4F865
:103B680084007FF57EAF08201862D4F8840040F006
:103B78000800C4F8840074E710077FF572AF01F0FD
:103B8800200030433FF46DAFEDE753E8002F22F0FB
:103B9800100243E800210029A0D053E8002F22F0AA
:103BA800100243E800210029EFD197E7D507C6D4D2
:103BB800900710D502201862D4F88400560740F008
:103BC8000400C4F88400C3D41007CCD449E72046C5
:103BD800FFF78EFE70BD5607BAD4F5E78D06C2D43E
:103BE8003FE795073FF537AFAEE7B4F85A10B4F89A
:103BF8005A20B4F8580092B289B2002A3FF4A4AE11
:103C0800411A89B200293FF49FAE53E8002F22F4ED
:103C1800907243E800200028F7D103F1080252E827
:103C2800002F22F0010203F1080545E800200028D2
:103C3800F3D12022C4F88020A066206653E8002F24
:103C480022F0100243E800200028F7D1022363661F
:103C58002046FFF759FE70BD2046FFF749FEC4F81D
:103C6800845070BD20010004FD38000838B5426852
:103C78008D4B9A42044600F2A180A368B3F1805F9D
:103C880003D033F4805340F0AF80E36833F44053FB
:103C980004D0864840F63B3100F0CCFE236A33F46A
:103CA800006304D0814840F63C3100F0C3FE23692C
:103CB80033F4806203D0B3F5C06F40F09B80636932
:103CC80033F00C0257D1002B55D0A36933F440735D
:103CD80004D076484FF4346100F0ACFEE16931F469
:103CE800004305D040F64131704800F0A3FEE16979
:103CF8002069A368226803436069156803436C4818
:103D0800284003430B4313605368E068256A23F493
:103D18004053034353609068A36920F430602B43F9
:103D280003436448936082424ED0634B9A4228D042
:103D3800624B9A4200F08680614B9A4200F095806F
:103D4800604B9A4238D103F5E0331B6B03F4400310
:103D5800B3F5000F54D000F2A180002B7FD0B1F54D
:103D6800004F00F09580FEF727FCD0B90020002313
:103D7800C4E91A3338BD4D4840F63F3100F05AFEC9
:103D8800A3E703F5E6331B6B03F44033B3F5003FB9
:103D980036D0E2D9B3F5403F0ED1B1F5004F72D01D
:103DA800494863684FF6EF7200EB5300B0FBF3F03D
:103DB800A0F11003934242D90120D8E73B4840F6CE
:103DC800393100F037FE58E7404B1B6B03F0030313
:103DD800022B15D0032BE0D0012BC0D0B1F5004F3A
:103DE80014D0FEF723FCC0E7304840F63A3100F023
:103DF80021FE4AE72D4840F63E3100F01BFE5EE703
:103E0800B1F5004F41D04FF40040CAE7FEF70EFC71
:103E18000028ABD0400063684FF6EF7200EB530008
:103E2800B0FBF3F3A3F110019142C5D823F00F02C0
:103E3800216892B2C3F342031343CB6096E7236829
:103E4800D86093E703F5E4331B6B03F44023B3F521
:103E5800002FD5D081D9B3F5402F9ED0ACE7B1F56E
:103E6800004F18D0FEF7CAFB7FE703F5E2331B6B60
:103E780003F44013B3F5001FC2D07FF66EAFB3F55D
:103E8800401F8AD098E71248C5E74FF48030C2E750
:103E9800FEF792FBBCE7FEF7B1FBB9E7B3F5400FBD
:103EA8003FF47BAF88E700BF40548900F45800080E
:103EB800F369FFEF0038014000440040004800402B
:103EC800004C00400050004000127A0000100240F0
:103ED8000024F400436AFF2B10B5044600F29580D5
:103EE8001A070AD5616B31F4004240F09D802068C2
:103EF800426822F400420A434260D8070AD5A16A00
:103F080031F4003240F098802068426822F4003290
:103F18000A43426099070AD5E16A31F4803240F0D9
:103F280093802068426822F480320A4342605A072C
:103F38000AD5216B31F4802240F08E8020684268D7
:103F480022F480220A434260D8060AD5A16B31F4D4
:103F5800805240F089802068826822F480520A43A7
:103F68008260990609D5E16B31F4005254D120687A
:103F7800826822F400520A4382605A062BD52368CD
:103F8800464A93420CD0A2F57442934208D002F5F7
:103F98008062934204D0424840F6F13100F04AFD75
:103FA800236C5BB3B3F5801F66D12268536843F472
:103FB80080135360606C30F4C00306D0384840F674
:103FC800F73100F037FD2268606C5168636A21F4AC
:103FD800C001014351601B060FD5A26C32F40023C7
:103FE80005D02F4840F6FF3100F024FDA26C21686F
:103FF8004B6823F4002313434B6010BD2168636AA8
:104008004A6822F480124A60E5E7254840F6C23142
:1040180000F010FD636A63E740F6EA31204800F0DB
:1040280009FDE16B636AA2E740F6C7311C4800F05E
:1040380001FD616B636A5AE740F6CE31184800F01B
:10404800F9FCD4E909315FE740F6D531144800F0AE
:10405800F1FCE16A636A64E740F6DC31104800F07D
:10406800E9FC216B636A69E740F6E3310C4800F02C
:10407800E1FCA16B636A6EE740F6F231084800F094
:10408800D9FC2268216C536823F480130B43B1F5E3
:10409800801F53608ED0636A9DE700BF00380140DF
:1040A800F458000838B500230446C0F88430FCF7FB
:1040B800FBF8226813681B0705460ED413685907D6
:1040C8002FD400232022E2671846C4F880202366F4
:1040D8006366002384F8783038BDD3699802EDD43C
:1040E8000CE0196849071A4605D5D969080749D463
:1040F800D969090574D4DB699802DFD4FCF7D4F8D0
:10410800431BB3F1007F2368EBD353E8002F22F061
:10411800800243E800210029F7D12023E367032028
:10412800D7E7D3695B02CCD40DE01A68500707D5EE
:10413800DA69110700F18280DA69120500F1AC80B2
:10414800DB695B02BDD4FCF7AFF8431BB3F1007F1A
:104158002368EAD353E8002F22F4907243E8002141
:104168000029F7D103F1080252E8002F22F00102DA
:1041780003F1080040E800210029F3D12023C4F806
:104188008030CCE708221A6253E8002F22F490729C
:1041980043E800210029F7D103F1080252E8002F73
:1041A80022F0010203F1080040E800210029F3D1C0
:1041B800226E012A0BD0002220200821C4F880009A
:1041C800A266226684F87820C4F884109DE753E834
:1041D800002F22F0100243E800210029F7D1EAE776
:1041E8004FF400621A6253E8002F22F4907243E8F9
:1041F80000210029F7D103F1080252E8002F22F02C
:10420800010203F1080040E800210029F3D1226EE1
:10421800012A0AD000222021C4F88010A266226652
:1042280084F87820C4F884106FE753E8002F22F050
:10423800100243E800210029F7D1EBE708221A62AF
:1042480053E8002F22F4907243E800210029F7D1A7
:1042580003F1080252E8002F22F0010203F10800DE
:1042680040E800210029F3D1226E012A0BD0002258
:1042780020200821C4F88000A266226684F87820ED
:10428800C4F8841066E753E8002F22F0100243E8D0
:1042980000210029F7D1EAE74FF400621A6253E8D7
:1042A800002F22F4907243E800210029F7D103F18E
:1042B800080252E8002F22F0010203F1080040E84A
:1042C80000210029F3D1226E012A0AD000222021E0
:1042D800C4F88010A266226684F87820C4F8841096
:1042E80038E753E8002F22F0100243E800210029A4
:1042F800F7D1EBE700285DD08269036810B5044662
:10430800002A32D02C4A93420CD0A2F57442934230
:1043180008D002F58062934204D028484FF4967181
:1043280000F088FBE36F002B3ED02268616A2423EB
:10433800E367136823F00103136089BB2046FFF786
:1043480095FC01282AD023685A6822F490425A60C2
:104358009A6822F02A029A601A6842F001022046FE
:104368001A60BDE81040FFF79DBE134A9342D9D0AA
:10437800A2F574429342D5D002F580629342D1D01F
:1043880002F580629342CDD002F580629342C9D093
:104398000A4840F2311100F04DFBC3E7012010BD7F
:1043A8002046FFF797FDC9E784F87830204600F0EB
:1043B80023FDBAE70120704700380140F45800088F
:1043C800704700BF0000000000B52022A7B0002100
:1043D8000DEB020001F010F90021582210A8CDE9D8
:1043E8000111CDE90311059101F006F901204FF4FF
:1043F8008031CDE9060102204FF48031CDE90C016E
:1044080001224FF4E01306A809920E93FDF754FC1D
:1044180008B172B6FEE70F2203460221019201A8F5
:104428004FF48062CDE90213CDE90423FDF796FF2E
:10443800034608B172B6FEE79FED097B0A4A10925F
:1044480010A88DED1E7B12932093FEF707F908B193
:1044580072B6FEE727B05DF804FB00BFAFF300803B
:104468000000000000000000012030002DE9F04F9E
:10447800002495B0FBF7FAFEFFF7A6FFCDE90E443E
:10448800CDE91044AE4D12946B69AE4843F4002355
:104498006B616B6903F400230693069B6B6943F415
:1044A80080036B616B6903F480030793079B6B6957
:1044B80043F400336B616B6903F400330893089B82
:1044C8006B6943F480236B616B6903F48023099360
:1044D800099B6B6943F480136B616B6903F4801368
:1044E80022460A934FF474610A9BFDF7CDFA2246DF
:1044F80095488021FDF7C8FA032643F2BB0391488B
:1045080010940EA9CDE90E36FDF74CF849F60B13B9
:104518000EA94FF09040CDE90F640E93FDF742F8D5
:1045280046F2703388480E930EA90127CDE90F642F
:10453800FDF738F84FF4746382480EA9CDE90E37B9
:10454800CDE91044FDF72EF880480F960EA90426F1
:104558004FF0800810940E96FDF724F87A481194CD
:104568000EA9CDE90F74CDF83880FDF71BF86B69FB
:1045780043F002036B616B6903F002030493049B2D
:104588006B693B436B616B69714D3B402246214629
:104598000C200593059BFCF77FFD0C20FCF7C2FD62
:1045A800224621463920FCF777FD3920FCF7BAFD71
:1045B800684B2B6028463323CDE90E44CDE91044DF
:1045C800CDE90B44C5E901440D94C5F818802C6168
:1045D800EB60FEF7ADFA08B172B6FEE74FF480590A
:1045E8000EA92846CDF83890FEF736FD08B172B608
:1045F800FEE70D90202328460BA90B93FEF79EFF9C
:1046080008B172B6FEE7544D544B2861C5E908005D
:104618004FF0400B4FF00C0A4FF440382846C5E9DC
:10462800003BC5F80CA0C5F81C80FDF747FA88B90F
:104638004B4C4C4B2061C4E908002046C4F804B038
:10464800C4F80CA0C4F81C802360FDF737FA18B131
:1046580072B6FEE772B6FEE7DFF81C81424BC8F877
:104668000400C8E90206C8F81000C8F8240040464B
:10467800C8F80030FDF722FA08B172B6FEE7DFF895
:10468800FCA03A4B0D90CDE90E00CDE91000CDE924
:104698000B00CAE90100CAF81000CAF81800CAF8E5
:1046A800003050464FF42273CAF80C30FEF740FA37
:1046B80008B172B6FEE70EA95046CDF83890FEF75D
:1046C800CBFC034608B172B6FEE750460BA90B9324
:1046D8000D93FEF733FF034608B172B6FEE7CDE946
:1046E8000E00CDE91000CDE9120021484661214EA7
:1046F8008360C0E90A73036180F82030C36080F8E2
:104708003030038343634FF40033C0E90063C7616B
:10471800FBF770FE08B172B6FEE70023CDE911334E
:104728001393012708234FF006091148CDF840904C
:104738000EA9CDE90E37FCF769F908B372B6FEE7A2
:10474800001002400008004800040048000C00481F
:10475800AC01002000040040AC0200203C000140F5
:104768007802002040000140440001400008004059
:10477800880300200001005044020020600100204E
:104788009D4E0D904FF08043336040F23713CDE9D2
:104798000E00CDE91000CDE90B00C6E9010030613B
:1047A800F36030468023B361FEF7C2F908B172B6F0
:1047B800FEE74FF480530EA930460E93FEF74CFCEB
:1047C80008B172B6FEE70D9020230BA930460B9373
:1047D800FEF7B4FE08B172B6FEE7DFF840A2874BD9
:1047E8001090CDE90E005046CAF80030FCF7C8FC1E
:1047F800024608B172B6FEE750460EA9CDE90E2270
:10480800FCF7E2FC08B172B6FEE7DFF814A21390D9
:104818004FF400334FF0A04BCDE90B00CDE90D006C
:10482800CDE90F00CDE91100CAE90A70CAE900B361
:10483800CAF80800CAF810008AF82000CAF80C0064
:104848008AF83000AAF81800CAF834000423504641
:10485800CAF81C70CAF81430FBF7CCFD08B172B660
:10486800FEE70B900BA95046FCF730FB034608B156
:1048780072B6FEE7CDE911331393504610230EA903
:104888000E93CDE90F79FCF7C1F8034608B172B66B
:10489800FEE7CDE90E00CDE91000CDE90B000D9043
:1048A8005748C0E90133C0E904338361554B0360BD
:1048B8004FF6FF73C360FEF73BF908B172B6FEE727
:1048C8004FF480534E480E930EA9FEF7C5FB08B16E
:1048D80072B6FEE74A480821FEF7B2FA08B172B686
:1048E800FEE7CDE90B000D900BA94548FEF726FE23
:1048F80008B172B6FEE7444FDFF828C1B8604FF43C
:104908000033C7E900C34FF4806E4FF48073CDE9DC
:104918000E00CDE91000CDE91200C7E90A3E386162
:10492800042387F82000F860388378634FF0010982
:1049380038467B61C7F81C9087F83090FBF75AFD22
:10494800034608B172B6FEE7CDE91033CDE912335C
:104958000EA9052338460E93CDF83C90FCF756F87F
:10496800034608B172B6FEE72848294A0361C0E940
:104978000233C0E9063303624FF4E133C0E9002390
:104988000C234361202343624FF40053C363FFF7B2
:10499800B1FC08B172B6FEE7D8F8002028681368A1
:1049A800DFF88480DFF88490184F1A4D03F00C016B
:1049B80004291CBF23F00C0343F00403136013689D
:1049C800216843F0010313600368134A43F00103AD
:1049D80003600B6843F001030B60936843F0010325
:1049E8009360CDE90186084800944B463A4629462B
:1049F80000F0D4FDF5E700BFF80100200074004086
:104A08001401002000340140380300204800002031
:104A180000380140AC010020002004E0E002002042
:104A2800D803002000050050D0000020AC02002070
:104A380072B6FEE7704700BF0B4B9A6942F001025D
:104A480082B09A619A6902F001020092009ADA69CA
:104A580042F08052DA61DB6903F080530193019BD5
:104A6800052002B0FCF7FABA0010024070B50368DE
:104A78008CB00024B3F1A04FCDE90644CDE9084439
:104A88000A9421D0454A934204D0454A93424CD0D7
:104A98000CB070BD434A13680133012B136039D041
:104AA800414B42485A6942F400225A615B6903F457
:104AB800002303930424032506A9CDE90645039B97
:104AC800FCF770FD0CB070BD364A13680133012B3A
:104AD800136014D0344B5A6942F400325A615B694E
:104AE80003F4003301930424032506A94FF09040F2
:104AF800CDE90645019BFCF755FD0CB070BD2A4B6E
:104B08005A6942F080525A615B6903F080530093FE
:104B1800009BDFE7244B5A6942F080525A615B6977
:104B280003F080530293029BBAE71F4B204E5A6949
:104B380042F000525A615A6902F000520492049AF3
:104B48005A6942F480225A615B6903F48023059311
:104B58004FF4004206A9032305461648CDE906236B
:104B6800059BFCF71FFD144BB4608022C6E9003496
:104B78004FF48073C6E903234FF4806120224FF479
:104B880040533046C6E90512F361FCF76FFB10B9D4
:104B9800AE6375627CE7FFF74BFFF9E70001005051
:104BA80000050050280400200010024000080048BA
:104BB800F4020020000400481C0402400000000029
:104BC80000B51B4A016889B000239142CDE9023340
:104BD800CDE90433069302D009B05DF804FB03F174
:104BE800804303F504339FED107BDA6942F00052ED
:104BF800DA61DA6902F000520092009A5A6942F4C6
:104C080000325A615B6903F40033019302A94FF043
:104C180090408DED027B019BFCF7C4FC09B05DF868
:104C280004FB00BFAFF30080100000000300000089
:104C3800007400400000000000B5026834498BB0E1
:104C480000238A42CDE90433CDE90633089308D01E
:104C5800304B9A421ED0304B9A4233D00BB05DF89D
:104C680004FB03F1804303F504339FED237B5A696A
:104C780042F400325A615B6903F40033019304A9DA
:104C88004FF090408DED047B019BFCF78BFC0BB043
:104C98005DF804FB03F5873303F5E0735A691F4891
:104CA80042F480225A615B699FED157B03F48023EF
:104CB800029304A98DED047B029BFCF773FC0BB0F7
:104CC8005DF804FB03F5873303F5DE735A6913486F
:104CD80042F480225A615B699FED0B7B03F48023C9
:104CE800039304A98DED047B039BFCF75BFC0BB0DD
:104CF8005DF804FBAFF30080E00000000300000053
:104D08000700000003000000001C00000300000072
:104D18003C000140400001404400014000040048BC
:104D280030B50368B3F1804F85B022D02C4A934246
:104D380007D02C4A934210D02B4A934241D005B059
:104D480030BD2A4BDA6942F00202DA61DB6903F00E
:104D580002030193019B05B030BD244BDA6942F090
:104D68000402DA61DB6903F004030293029B05B0D5
:104D780030BD03F504331E4DDA691E4942F00102C5
:104D8800DA61DB69296003F0010300931021002335
:104D9800C5E9011380224FF40073C5E903230446D3
:104DA8004FF40061009820224FF400532846C5E9CB
:104DB8000512EB61FCF75AFA78B925626C6205B006
:104DC80030BD0A4B9A6942F400529A619B6903F418
:104DD80000530393039B05B030BDFFF729FEECE7B2
:104DE8000004004000080040003401400010024068
:104DF800D00000201C00024030B51F4B026889B06B
:104E080000249A42CDE90244CDE90444069401D035
:104E180009B030BD03F558439FED157B9A6942F4FC
:104E280080429A619A6902F480420092009A5A6913
:104E380042F400325A615B6903F40033019302A91A
:104E4800072303224FF09040CDE905238DED027B27
:104E5800019DFCF7A7FB224621462520FCF71CF9FB
:104E68002520FCF75FF909B030BD00BFAFF3008023
:104E7800000600000200000000380140FBF708BAF5
:104E88000148FCF745BB00BFD00000200148FEF7F1
:104E98003DBD00BF480000200148FCF739BB00BFFA
:104EA800F40200201548164BD0F88810154A41F432
:104EB800700110B4C0F888101868134940F0010058
:104EC80018605C6822405A601A685DF8044B22F04A
:104ED800847222F480321A601A6822F480221A60DE
:104EE8005A6822F4FE025A60DA6A22F00F02DA6285
:104EF8001A6B0020114019639860704700ED00E0BC
:104F0800001002400CC07FF8CCFC00FF0160704725
:104F180010B4064CC4F80110006821464FF6FF7320
:104F28005DF8044B0522FEF723BC00BF0C000020EF
:104F380003468446F82018710020A3F809005CF89D
:104F4800040BA3F80510A3F8072061460722FEF713
:104F580099BC00BFF8B50D460021C0E902314FF0F9
:104F6800FF33C0E90A33134F017442F22833036553
:104F78004FF48053C363C0E90052C0E91511C0E97A
:104F88000C11C0E91011C0E9121141628163044695
:104F98001646384648F6A04200F02EFB3046FDF78C
:104FA800E1FE44F2506239462846FBF76DFC204684
:104FB800F8BD00BF3004002070B5304C2368022BC8
:104FC80006460D4631D0032B12D0012B27D1B1F85C
:104FD800502042F227339A422DD823682368236849
:104FE800032B1CD0236823682368032BF5D116E014
:104FF800234BB1F850101A68A868FFF799FFB5F865
:105008005030A86842F228318B424FF0000288BF26
:1050180044F250612260FFF77BFF0023EB60D5E983
:105028000A233046C6E9002370BDB1F8503042F279
:105038002732934207D800232360D5E90A23304654
:10504800C6E9002370BD44F24F62934207D8236833
:10505800012BF0D023682368032BF8D1DFE72368FE
:10506800012BE8D02368022B03D02368032BF6D149
:10507800D5E700232360A5F85030D0E714000020BE
:105088002C0400200C490D480B6801335A42C2F326
:105098000E02C3F30E0358BF53420B600368012B83
:1050A80003D0022B01D01BB1704703230360704764
:1050B80001230360704700BF2C0400201400002067
:1050C800064A1368012B03D0022B01D01BB170478D
:1050D80003231360704702231360704714000020F5
:1050E800C0E90012704700BF0239062919D8DFE865
:1050F80001F0192E3A4F5B700400D0E900231268C2
:105108001B68116841F470311160116821F4403155
:1051180011601A6842F470321A601A6822F4403238
:105128001A607047D0E9002312681B68116841F4BF
:1051380070311160116821F4703111601A6842F4FD
:1051480070321A601A6822F470321A607047D0E917
:10515800002312681B68116841F4703111601168EE
:1051680021F46031E9E7D0E9002312681B6811686F
:1051780041F470311160116821F4603111601A68CE
:1051880042F470321A601A6822F460321A6070476A
:10519800D0E9002312681B68116841F4703111606E
:1051A800116821F45031E9E7D0E9002312681B683F
:1051B800116841F470311160116821F450311160A7
:1051C8001A6842F470321A601A6822F450321A606F
:1051D8007047D0E9002312681B68116841F47031E8
:1051E8001160116821F44031E9E700BF164B1B78C4
:1051F80010B50BBB154A1648136801335942C1F361
:105208000E01C3F30E034FF0000458BF4B4211497F
:10521800136004600B68012B02DC0B6801330B6020
:105228000D4913680A6893FBF2F102FB113313B9B5
:105238000A4B01221A7010BD094801224FF400716F
:10524800FCF722FCD6E700BFD0900020D8900020C1
:105258002400002020000020D4900020D1900020BD
:105268000008004808B50B4B1B785BB90A4A0B4B82
:10527800012111601A688A4200DD08BD1A680A44D3
:105288001A6008BD064800224FF40071FCF7FCFBC9
:10529800ECE700BFD0900020240000202000002070
:1052A800000800480000000038B504460846184BBE
:1052B800C362184B83620423E3610623236201233C
:1052C800A3749FED117B4FF0FF330021C4E9000266
:1052D80015466361104A114BA16021822183A3EC1A
:1052E800027B9342FBD10E4A0C4940F6B833FCF7D7
:1052F80079F82846FDF736FD4FF080422046D368FE
:1053080043F48073D36038BD0000400000004000C3
:10531800F55100086D520008C0BF0020E090002041
:1053280018080048024A012311604376704700BFFD
:10533800D4900020F8B52F4F3E7804460D46002E35
:1053480048D1B4F810E0BEF1210F06D90023BEF110
:105358003F0F237625D8402002E00EF11E0080B2D0
:10536800254A264F02F1C80302EB850C03EB8501A1
:1053780040221EF0070308D14FEADE057D5DF5B92E
:1053880063465A6008339942FBD10EF1010E1FFAA9
:105398008EFE86450CF1C80C01F1C801E9D1A4F8CC
:1053A80010E02389164A03F2DC53A2FB0312920988
:1053B80040F6B83101FB123323819EB9F8BD4CF891
:1053C80033200133192BE0D04CF833200133192B4B
:1053D800F5D1DAE70B4801224FF48061FCF754FB62
:1053E8003E78AEE7BDE8F840064800224FF48061F9
:1053F800FCF74ABBD0900020E09000201800002065
:10540800F1197605000800482DE9F84F3F4E377826
:1054180004460D46002F70D160693D4B21282DDDD3
:1054280040260322B0421A602FDA238AA6EB000E28
:1054380003F007034FF0000C4BB30CF1010CF445DB
:10544800FAD1344B6661608903EB800303F5BB51E5
:1054580010314FF48002C3E9002208339942FAD18F
:105468002D4A00F2DC53A2FB0312920940F6B83130
:1054780001FB12336381C7BBBDE8F88F00F11E063C
:10548800B6B20122B0421A60CFDB224BDBE7214BD8
:10549800DFF88C900CEB00024FF0320803F1C80AD9
:1054A8004FF48001002AB8BF0732D2101FFA8CFBD4
:1054B80019F8022008FB0B5B72B103EB8B0B00227F
:1054C8004BF832100132192AFAD10CF1010CE645D9
:1054D800B8D000EB0C02E5E703EB8B020AEB8B0B71
:1054E800516008329345FBD1EFE7BDE8F84F0B4810
:1054F80000224FF48071FCF7C7BA084801224FF424
:105508008071FCF7C1FA377886E700BFD090002099
:1055180020000020E0900020F119760500080048DE
:105528001800002038B51A4B1A7804460AB1427E92
:1055380032B9184B1B68022B1ED0237E6BB938BDBD
:10554800144A002111601970126881600123022A2F
:1055580001824161037683740FD00F4B1D6885B1BA
:10556800012DECD1218940F2DB539942E7D920463D
:10557800FFF7E0FEA57438BD61892046FFF744FFB8
:10558800DBE7218940F2DB539942F0D938BD00BFEF
:10559800D1900020200000202400002000B5A9B0F0
:1055A8001E460D460446114605A8FFF7AFFC2A9A89
:1055B800314603A8FFF794FD022103A8FFF794FDE5
:1055C80005AB2A46214611A8FFF7C4FCDDE92B12DA
:1055D800012308A88DF85430FFF766FE4FF41671C2
:1055E80008A8FFF79FFE684611A9FFF7E5FC08A881
:1055F800FFF798FFF7E700BF02440346934200D144
:10560800704703F8011BF9E770B50D4D0D4C641B8D
:10561800A4100026A64209D10B4D0C4C00F018F836
:10562800641BA4100026A64205D170BD55F8043BA2
:1056380098470136EEE755F8043B98470136F2E7FC
:105648006859000868590008685900086C5900082A
:10565800F8B500BFF8BC08BC9E467047F8B500BF57
:08566800F8BC08BC9E46704727
:105670002E2E2F447269766572732F53544D333238
:10568000463378785F48414C5F4472697665722F83
:105690005372632F73746D3332663378785F686149
:1056A0006C5F6164635F65782E6300002E2E2F446B
:1056B0007269766572732F53544D3332463378785E
:1056C0005F48414C5F4472697665722F5372632F55
:1056D00073746D3332663378785F68616C5F636FC3
:1056E000727465782E6300002E2E2F4472697665E1
:1056F00072732F53544D3332463378785F48414CA0
:105700005F4472697665722F5372632F73746D33C1
:1057100032663378785F68616C5F6461632E630022
:105720002E2E2F447269766572732F53544D333287
:10573000463378785F48414C5F4472697665722FD2
:105740005372632F73746D3332663378785F686198
:105750006C5F6461635F65782E6300002E2E2F44BA
:105760007269766572732F53544D333246337878AD
:105770005F48414C5F4472697665722F5372632FA4
:1057800073746D3332663378785F68616C5F646D13
:10579000612E63002E2E2F447269766572732F532B
:1057A000544D3332463378785F48414C5F447269D8
:1057B0007665722F5372632F73746D33326633784C
:1057C000785F68616C5F6770696F2E63000000002E
:1057D0002E2E2F447269766572732F53544D3332D7
:1057E000463378785F48414C5F4472697665722F22
:1057F0005372632F73746D3332663378785F6861E8
:105800006C5F6F70616D702E630000002E2E2F4450
:105810007269766572732F53544D333246337878FC
:105820005F48414C5F4472697665722F5372632FF3
:1058300073746D3332663378785F68616C5F72635E
:10584000632E63002E2E2F447269766572732F5378
:10585000544D3332463378785F48414C5F44726927
:105860007665722F5372632F73746D33326633789B
:10587000785F68616C5F7263635F65782E630000B8
:105880002E2E2F447269766572732F53544D333226
:10589000463378785F48414C5F4472697665722F71
:1058A0005372632F73746D3332663378785F686137
:1058B0006C5F74696D2E63002E2E2F4472697665BD
:1058C00072732F53544D3332463378785F48414CCE
:1058D0005F4472697665722F5372632F73746D33F0
:1058E00032663378785F68616C5F74696D5F657884
:1058F0002E6300002E2E2F447269766572732F532B
:10590000544D3332463378785F48414C5F44726976
:105910007665722F5372632F73746D3332663378EA
:10592000785F68616C5F756172742E6300000000BF
:105930000102030405060708090A0B0C0D0E0F10DF
:1059400002030405060708090A0B0C0D0E0F1010C0
:10595000000000000102030400000000000000003D
:08596000010203040607080917
:04596800BD01000875
:04596C009901000895
:10597000010000001000000000127A00F00000009A
:105980000000000002000000010001000001010110
:0859900003000000010000000B
:04000005080001D915
:00000001FF
