:020000040800F2
:1000000000000120D9010008290200082902000887
:100010002902000829020008290200080000000047
:10002000000000000000000000000000290200089D
:10003000290200080000000029020008154A0008F3
:1000400029020008290200082902000829020008E4
:1000500029020008290200082902000829020008D4
:1000600029020008290200082902000829020008C4
:10007000194A00082902000829020008290200087C
:1000800029020008290200082902000829020008A4
:100090002902000829020008290200082902000894
:1000A0002902000829020008290200082902000884
:1000B0002902000829020008290200082902000874
:1000C0002902000829020008290200082902000864
:1000D00029020008254A0008290200082902000810
:1000E0002902000829020008290200082902000844
:1000F0002902000829020008290200082902000834
:100100002902000800000000000000002902000889
:100110002902000829020008290200082902000813
:1001200029020008314A00082902000829020008B3
:100130002902000829020008000000000000000059
:100140002902000829020008290200080000000016
:10015000000000000000000000000000000000009F
:1001600029020008290200082902000829020008C3
:1001700029020008290200082902000829020008B3
:100180002902000829020008000000000000000009
:040190002902000838
:1001980010B5054C237833B9044B13B10448AFF3B9
:1001A80000800123237010BD200000200000000003
:1001B800F852000808B5034B1BB103490348AFF3D5
:1001C800008008BD0000000024000020F85200084C
:1001D800DFF834D004F02EFC0C480D490D4A0023FA
:1001E80002E0D458C4500433C4188C42F9D30A4AE4
:1001F8000A4C002301E013600432A242FBD305F04D
:1002080053F803F0FBFEFEE7000001200000002089
:10021800200000201856000820000020E0BA002026
:10022800FEE7000038B50E4A0E4B127805461868EE
:100238004FF47A73B3FBF2F3B0FBF3F000F094FFE2
:1002480008B90F2D01D9012038BD044602462946B8
:100258004FF0FF3000F02EFF034B20461D6038BDE5
:10026800000000200800002004000020074A08B50C
:10027800136843F010031360032000F0FDFE002014
:10028800FFF7D0FF04F0A0F9002008BD00200240CD
:10029800034A044B11681B780B441360704700BF76
:1002A8003C00002000000020014B1868704700BF88
:1002B8003C000020704700BF026838B5936803F01F
:1002C8000303012B01D0002038BD1368DC07FAD5E1
:1002D800936803F00D03012B044609D0236C43F007
:1002E80010032364636C43F001036364012038BD89
:1002F8009368032143F0020393601160FFF7D4FF72
:1003080023689B68D9070546DDD5FFF7CDFF401B5D
:100318000228236802D99A68D207DFD49B68DB07D2
:10032800F3D4D0E7026838B5936803F00303012BD0
:10033800044626D09168154B194209D0236C43F026
:1003480010032364636C43F001036364012038BD28
:10035800936843F001039360FFF7A6FF23680546FF
:100368001B68D9070BD4FFF79FFF431B022B236899
:10037800F6D91A68D207E1D51B68D907F3D500204A
:1003880038BD1368D807D5D50020F9E73F000080AD
:10039800406A036C43F040030364436C43F0040376
:1003A8004364FFF787BF00BF406A04F0A5BC00BFE5
:1003B800436A1A6C12F0500F18D11A6C196842F47B
:1003C80000721A64CA6812F4406F0CD15A7E52B98E
:1003D8001A6C22F480721A641A6CD20403D41A6C50
:1003E80042F001021A64184604F09EBC9B6B1B6B1A
:1003F800184700BF30B597B000230193002800F0DC
:10040800A8800368B3F1A04F04460ED0A74A9342D0
:100418000BD002F54072934207D002F580729342E6
:1004280003D0A348F22104F0CDF8636833F44033D5
:1004380003D09F48F32104F0C5F8A36843B1182BF3
:1004480000F25C819B4A22FA03F3DD0740F15681F2
:10045800E36833F0200303D09548F52104F0B2F89F
:100468002369012B00F2F880637E012B00F2EA80F9
:10047800E36A33F4406303D08D48F82104F0A2F80E
:10048800A36A012B25D923F08002402A21D023F426
:100498000072B2F5E07F1CD023F41072B2F5807FB1
:1004A80017D023F48072802A13D023F0C002B2F54B
:1004B800007F0ED0B3F5607F0BD0B3F58A5F08D00C
:1004C80023F04003B3F5845F03D07948F92104F0A1
:1004D80079F894F83030012B00F2D9806369042B45
:1004E80002D0082B40F0D880636B012B00F2C68045
:1004F800237E012B00F2B98023697BB1E369013BBC
:100508000F2B00F20B8194F82030012B00F2EE80C3
:1005180023B1636A013B072B00F2FA80206C10F0CC
:10052800100019D1256C002D00F0FE8023689A6810
:10053800D20040F1C9809A68950000F1C580226C0C
:10054800D10600D460B1236C23F0120343F01003EA
:100558002364012017B030BD236CD806F3D4236878
:100568009A685207EFD4226C22F4817242F0020298
:10057800B3F1A04F22644D4A00F04D81934200F040
:10058800518102F54072934200F0DC804A498B4267
:1005980000F05A819A6802F00302012A00F056819D
:1005A80046488268616822F440320A438260D4E98E
:1005B80002120A43616B607E013918BF012142EAC9
:1005C800403242EA013294F82010012900F0FE80FE
:1005D800A16A01290ED03A48834200F0078100F54C
:1005E8008070834200F0028121F48051E06A104358
:1005F80040EA0102996811F00C0F0CD1D96821F476
:10060800804121F00201D96094F83010207E490021
:1006180041EA80310A43D8682A49014020691143D8
:100628000128D96000F0DA801A6B22F00F021A63F1
:1006380000206064236C23F0030343F00103236468
:1006480017B030BD1A48F72103F0BCFFE36A33F452
:1006580040633FF415AF0FE71548F62103F0B2FFEA
:10066800637E012B7FF604AFECE71148FD2103F010
:10067800A9FF2369002B3FF451AF3FE70C48FC2149
:1006880003F0A0FF237E012B7FF636AFEDE7084885
:10069800FA2103F097FF21E70548FB2103F092FFB9
:1006A800636B012B7FF624AFE8E700BF0001005021
:1006B8001053000800010101000500500007005018
:1006C8000004005007C0F0FF236C23F0120343F02E
:1006D80010032364636C43F001036364236C236C8D
:1006E80023F0120343F01003236432E760484FF409
:1006F800817103F067FF94F8203009E75C48F42122
:1007080003F060FFE36833F020033FF4A9AEA3E6EB
:10071800574840F2051103F055FFFFE6544840F2F0
:10072800011103F04FFFEEE6C4E91255656484F841
:100738003C50204603F062FF23689A68D10014D524
:100748002846F4E64B4A4C489968029201F00301A6
:10075800012962D0916801F0030101297FF421AFDA
:100768001268D5073FF523AF1BE72046FFF7A4FD26
:10077800236C13F0100F23687FF4D9AE00287FF4A0
:10078800D6AE226C3D4D22F4885222F0020242F08D
:100798000202226499682A6821F040519960996898
:1007A80041F0805199603649A1FB0212920C02EB8C
:1007B800820252000192019A002A3FF4B8AE019ACF
:1007C800013A0192019A002AF9D1B0E670BB616A38
:1007D800013942EA414141F48032F9E6196BE26994
:1007E80021F00F01013A0A431A6321E7B1F5307F7E
:1007F80027D0B1F5807F2ED0B1F5E07F2ED0B1F5AE
:100808008A5F2ED0B1F5845F2ED0B1F5865F08BF20
:100818004FF4C071EAE61B4896E71968C9073FF527
:10082800C6AE97E717484FF0A0428DE7216C21F03C
:10083800220141F020012164616C41F001016164F1
:10084800C6E64FF4E071D1E60B487DE71A68D00799
:100858003FF5ADAEA4E64FF43071C7E64FF48071B2
:10086800C4E64FF47071C1E64FF4A071BEE600BF54
:100878001053000800050050000700500800002031
:1008880083DE1B4300030050F8B504460068B0F14E
:10089800A04F0F46164610D0544B98420DD003F582
:1008A8004073984209D003F58073984205D05048A8
:1008B80040F65B1103F086FE206885686D0721D439
:1008C80094F83C30012B1DD00123B0F1A04F84F8DF
:1008D8003C300FD0454B98420CD0464B9B6813F0E8
:1008E8001F0F0CBF012300237BB984F83C3001257E
:1008F8002846F8BD404B9B6813F01F0F0CBF01231F
:100908000023F1E702252846F8BD2046FFF70AFD37
:10091800054600284CD1236C216823F4706323F02A
:10092800010343F48073B1F1A04F236453D02F4BDC
:10093800994241D02F4B9B68DA064ED02F4A9142FC
:100948004BD0236C43F480132364D368C3F3406310
:100958002BB1236C23F4405343F480532364236C5A
:10096800A06BDFF8A4C013F480531CBF636C23F0A2
:10097800060363643A4633464FF0000E204E214F7B
:1009880084F83CE006631C26C0E90AC70E604E687E
:1009980046F010064E60CE6846F00106CE60403143
:1009A80000F02EFD2268936843F0040393609FE7EC
:1009B800002384F83C309BE703F500739B68D80656
:1009C8000BD0236C43F4801323644FF0A043DB68FF
:1009D800C3F34063BCE7084B9B68236C23F4801384
:1009E8002364CB689B01BAD5B3E700BF0001005070
:1009F8001053000800070050000300500004005086
:100A080099030008B1030008B903000870B503682A
:100A180096B00022B3F1A04F054601920C460FD0C4
:100A2800A94A93420CD002F54072934208D002F5CD
:100A38008072934204D0A54841F2B85103F0C2FD38
:100A48006368013B0F2B00F20981A368072B00F2B2
:100A58000E81E368012B04D99C4841F2BB5103F095
:100A6800B1FD2369042B00F2F3802B68DA6812F0D9
:100A7800180F53D16269B2F5805F4FD2E2682368DC
:100A8800012A03F1FF3367D0112B00F2918095F80A
:100A98003C30012B6BD001222B6885F83C209A68EA
:100AA80052076AD46068216800EB400204284FEAC4
:100AB800420200F2E280186B4FF01F0C0CFA02FCA5
:100AC80020EA0C0001FA02F202431A639A6812F053
:100AD8000C0F7BD10929A26801EB410000F2E880E4
:100AE8005E694FF0070C82400CFA00F026EA00001D
:100AF80002435A612069DA6800F1FF3CC2F3C1027F
:100B08006069520090408A06BCF1030F00F2B2817E
:100B1800DFE81CF054005C0153014A01DA6802F076
:100B28001802082A33D0DA6802F01802102A00F0F6
:100B3800DD80DB6803F01803182B02D163693F2BB3
:100B48009CD9624841F2BD5103F03CFDE26823683C
:100B5800012A03F1FF3397D10D2B98D95B4841F255
:100B6800C95103F02FFD95F83C30012B93D1022099
:100B780016B070BD1C68E40759D52B6C43F02003F0
:100B88002B640120002385F83C3016B070BD6269E3
:100B9800B2F5806FFFF472AFDA6802F01802102A1B
:100BA800C7D14A48DB6841F2BD5103F00BFDCDE7E0
:100BB800464841F2C55103F005FD68E71E6E104333
:100BC800434A3240024342F000421A669A6802F0F1
:100BD8000302012A00F08F80E0680122012802FA4E
:100BE80001F200F08E80D3F8B00020EA0202C3F8C8
:100BF800B020B3F1A04F00F09980334A93426BD0F4
:100C0800102900F0B280112900F0E980314A122938
:100C180075D19068440272D4B3F1A04F40F0E380DC
:100C280029489C68029004F00304012CA2D084682F
:100C380004F00304012C00F0EE80102900F0F0808D
:100C4800112900F0DA80936843F48003936056E03A
:100C58001E4841F2BC5103F0B5FC06E71B4841F2BF
:100C6800B95103F0AFFCA368072B7FF6F2AE174823
:100C780041F2BA5103F0A6FCEBE609280DD90E287B
:100C880000F28780986B3C3A1F26964020EA0600BF
:100C980001FA02F202439A6318E7586B1E3A1F26BC
:100CA800964020EA060001FA02F202435A630DE771
:100CB8009E691E384FF0070C82400CFA00F026EAB5
:100CC800000002439A6115E7000100501053000824
:100CD80000F0FF830007005010297B4A00F089804C
:100CE800112994D19068C6017DD508E06269FF2A70
:100CF8007FF6C4AE55E71A68D6077FF56DAF0020BA
:100D080040E7D3F8B000A46802430929C3F8B0202B
:100D180017D901EB41009A691B380726844006FA67
:100D280000F022EA000222439A6162E71029664A2B
:100D38006CD011297FF46BAF9068C0017FF570AF5C
:100D4800DDE7481C5A6900EB40000726844006FA94
:100D580000F022EA00022243B3F1A04F5A61CED03C
:100D68005A4A93427FF452AFC9E7594A9068000241
:100D7800C5D45848834270D0574CA3423FF451AF72
:100D8800986800F00300012869D010297FF458AF53
:100D9800B5E7D86B5A3A1F26964020EA060001FAB2
:100DA80002F20243DA6391E6DE6E10434B4A3240A8
:100DB800024342F00042DA6608E79E6E1043474A53
:100DC8003240024342F000429A66FFE65E6E1043EC
:100DD800424A3240024342F000425A66F6E63C4A32
:100DE8009068C4018BD439488342C2D14FF0A040E7
:100DF80017E790680402F9D581E7B3F1A04F7FF4B3
:100E08007EAF936843F08073936078E7906806023A
:100E18007FF506AF73E70068C0073FF5AEAE0CE795
:100E2800B3F1A04F7FF46BAF2D4B2E481B68916830
:100E3800A0FB03039B0C03EB83035B0041F400015D
:100E480091600193019B002B3FF459AF019B013B3B
:100E58000193019B002BF9D151E71F48E1E61B687C
:100E6800DE073FF58AAE10293FF449AF11297FF418
:100E7800EAAE44E7186E00F0F840904214D0586E7D
:100E880000F0F840904214D0986E00F0F84090427C
:100E980014D0D86E00F0F84090427FF497AEDA6E26
:100EA80022F00042DA6691E6186E20F000401866DB
:100EB800E5E7586E20F000405866E5E7986E20F0A8
:100EC80000409866E5E700BF0003005000010050AD
:100ED80000070050000400500005005000F0FF8398
:100EE8000800002083DE1B43F8B50368B3F1A04F68
:100EF80004460D4607D05A4A934204D0594841F651
:100F0800953103F05FFB2B68092B73D840F2EF2271
:100F1800DA40D6076ED5D3B16B6833F4004207D0F8
:100F2800B3F5404F04D04F4841F6993103F04AFBDE
:100F3800AB6833F440730AD0B3F5806F07D0B3F5CC
:100F4800006F04D0474841F69A3103F03BFB236811
:100F5800454AB3F1A04F0CD0934208D002F5407235
:100F680093424ED041498B4203D00120F8BD4FF047
:100F7800A04294F83C10012948D0012184F83C1083
:100F88009968480708D5236C43F02003012023649F
:100F9800002384F83C30F8BD91684907F3D4B3F1D5
:100FA800A04F4AD0304E32493248B34218BF0146AA
:100FB800286868B38E686F6826F4604C94F83060CF
:100FC80047EA463646EA0C068E609E6806F0030637
:100FD800012E3CD0936803F00303012B2FD08B68BC
:100FE800AA6823F47163104323F00F031843886041
:100FF8000020CDE71B4841F6963103F0E3FA2B6851
:1010080089E794F83C10194A0129B6D10220F8BDA5
:10101800886820F460408860986800F00300012820
:1010280019D0936803F00303012B0CD08B6823F4C9
:10103800716323F00F038B60DAE70D49B8E7136893
:10104800DE07D5D4CBE71368DB07D1D4EEE71B68FE
:10105800DF07CDD4BEE71B68D807C9D4E1E700BFD6
:101068000004005010530008000100500005005013
:101078000003005000070050C31E042B10B504469F
:101088000ED80A49CA6823024FF6FF0003F4E0634A
:101098000240134343F0BF6343F40033CB6010BDF9
:1010A8000348AB2103F08EFAEBE700BF00ED00E048
:1010B8004C5300080F2A70B5164605460C4634D81E
:1010C8000F2C2DD81B4BDB68C3F30223C3F1070297
:1010D800042A03F1040128BF0422062917D9D91EBE
:1010E8004FF0FF338B4026EA03064FF0FF3393405F
:1010F80024EA03038B4033431B01002DDBB209DBD9
:1011080005F1604505F5614585F8003370BD002699
:101118003146EAE7084A05F00F052A44137670BD00
:101128000648C42103F04EFACCE70448C32103F073
:1011380049FAC5E700ED00E0FCEC00E04C5300087C
:10114800002808DB4109064A00F01F0001238340FC
:1011580042F8213070470348D72103F033BA00BF63
:1011680000E100E04C5300080138B0F1807F01D362
:101178000120704710B44FF0E023074C58614FF03E
:10118800F00C84F823C00022072110469A615DF80C
:10119800044B1961704700BF00ED00E0D8B10F4B58
:1011A80002689A4210B5044604D00D4840F247112F
:1011B80003F008FA237903F0FF023BB10023022170
:1011C8000122217123612271184610BD62712046E7
:1011D80003F0BEFAF2E70120704700BF0074004038
:1011E800885300080B6870B50D46044616464BB187
:1011F8001C2B36D8032B3DD94FF0103222FA03F3BB
:10120800DB0737D56B6833F0020304D01D4840F282
:10121800163103F0D7F936F0100304D019484FF40B
:10122800467103F0CFF96379012B29D0022323718A
:10123800D5E9003022680343116840F6FE70B040DB
:1012480021EA0001B3400B4313601368C021B14089
:10125800002523EA010301211360217165712846E5
:1012680070BD243B182B05D84FF0013222FA03F346
:10127800DA07C7D403484FF4427103F0A3F9C1E772
:10128800022070BDC0530008002800F0A78038B5C0
:10129800534A03689342044625D01432934222D01D
:1012A800143293421FD0143293421CD0143293420A
:1012B80019D01432934216D01432934213D002F547
:1012C800627293420FD0143293420CD0143293427C
:1012D80009D01432934206D01432934203D04148C5
:1012E800932103F06FF9636833F010025CD1A368AF
:1012F80033F0400303D03B48952103F063F9E368DA
:1013080033F0800303D03748962103F05BF9236953
:1013180033F4807202D0B3F5007F4DD1636933F4A2
:10132800806202D0B3F5006F4FD1A36933F0200378
:1013380003D02C48992103F045F9E06930F4405373
:1013480004D028489A2103F03DF9E0696368A5684C
:10135800E16822682B430B4321690B4361690B4306
:10136800A1690B4311686FF30D110B431E49034329
:101378008A4213600FD91D4B1D491344A1FB031367
:101388001B091C499B004FF4807200202284C4E989
:101398000F13A06338BD184B15491344A1FB031361
:1013A8001B0916499B00EEE7B3F5804F9FD00D4807
:1013B800942103F007F99AE70A48972103F002F904
:1013C800636933F48062B0D0ACE70648982103F033
:1013D800F9F8A36933F02003AFD0AAE701207047DA
:1013E80008000240FC53000807040240F8FBFDBF58
:1013F800CDCCCCCC00040240F8FFFDBF0000024079
:101408002DE9F0415D1E1E464FF6FE739D420446CF
:101418000F46904635D894F82030012B09D0012387
:1014280084F8203094F82130012B05D0002384F86B
:1014380020300220BDE8F081022284F821202568AE
:101448000022A2632A6822F001022A60226C9340DB
:10145800E26B536063686E60102BE36A0BBFC5F8DC
:101468000880AF60EF60C5F80C8083B12B6843F04B
:101478000E032B602B6843F0010300202B60BDE8AE
:10148800F08107484FF4A67103F09CF8C3E72B6876
:1014980043F00A032B602B6823F004032B60E9E771
:1014A800FC53000848B190F82120022A034606D0D0
:1014B80004210022816380F82020012070470268FF
:1014C800116821F00E0110B4046CC06B1160116832
:1014D80021F0010111600122A2404FF480714260A5
:1014E800198400205DF8044B704700BF90F8212054
:1014F800022A03D00422826301207047026811681F
:1015080021F00E0110B5C46B1160116821F00101C2
:101518001160016C01228A40416B62604FF4807C4B
:10152800A0F820C001B18847002010BD70B4C66B78
:10153800026C31680468042393400B4225680ED07E
:1015480015F0040F0BD02268920603D4226822F00B
:1015580004022260C26A7360CAB170BC10470223D9
:1015680093400B4215D015F0020F12D02268920654
:1015780006D4226822F00A022260012280F8212083
:10158800826A7360002180F82010002AE5D170BCBF
:101598007047082393400B42F9D02B07F7D52368EF
:1015A800016B23F00E032360012303FA02F24FF4C8
:1015B80080747260048483630029E8D070BC084793
:1015C8002DE9F04FB0F1904F85B0064688461ED001
:1015D800B84B98421BD003F58063984217D003F5A7
:1015E8008063984213D003F5806398420FD003F5C7
:1015F800806398420BD003F58063984207D003F5C7
:101608008063984203D0AC48B22102F0DBFFD8F8DF
:1016180000108BB21BB1B1F5803FC0F02981A648FC
:10162800B32102F0CFFFD8F80430B3F5041F0ED071
:10163800B3F5041F00F22681B3F5881F07D000F226
:101648005A81032B03D9113B012B00F22581D8F8CD
:101658000010002900F0DA80DFF874B2DFF8749225
:1016680000240125A54015EA010300F0CA80D8F836
:10167800040000F003014FEA440A032701F1FF3C8C
:1016880007FA0AF7BCF1010F6FEA070740F2C180B9
:1016980003294ED0D8F80850022D00F2DE80F268F7
:1016A80005FA0AF502EA070C45EA0C050229F56075
:1016B8003FD1B6F1904F1FD07E4A96421CD07F4949
:1016C8008E4219D001F580618E4215D001F58061F6
:1016D8008E4211D001F580618E420DD001F58061F6
:1016E8008E4209D001F580618E4205D0724801937F
:1016F800E22102F067FF019BD8F810000C2804D9FA
:10170800A0F10E01012900F2CC80E50806EB850561
:1017180004F007012A6A89004FF00F0E88400EFA7C
:1017280001F122EA01010143D8F80400296200F01E
:101738000301356801FA0AF13D40294310F4403F9E
:1017480031605CD0DBF8185045F00105CBF8185033
:10175800DBF8185024F0030101F1804105F0010580
:1017680001F58031039504F0030C039D8D684FEA61
:101778008C0C0F2707FA0CF7B6F1904F25EA0705EE
:101788001BD04C4A964200F0AC804C4FBE4200F051
:10179800AD804B4FBE4200F09F804A4FBE4200F0E2
:1017A800AF80494FBE4200F0B080484FBE420CBFE8
:1017B8000627072707FA0CF73D438D60D9F808106C
:1017C800DD43C70254BF29401943C9F80810D9F8A6
:1017D8000C10820254BF29401943C9F80C10D9F8DB
:1017E8000410870354BF29401943C9F80410D9F8D5
:1017F8000010C20354BF29401943C9F80010D8F893
:101808000010013431FA04F37FF42BAF05B0BDE8C2
:10181800F08FD8F80C20012A0DD9032A0BD02648BE
:101828000193C32102F0CEFED8F80400D8F80C20AA
:10183800019B00F0030102FA0AFCB26802EA070EF3
:101848004CEA0E02B260726822EA050CC0F3001579
:10185800A54045EA0C0575601AE717480193D4219D
:1018680002F0B0FED8E90105019B00F0030116E77C
:10187800D8F80430B3F5041F3FF4EEAEB3F5041FF7
:101888007FF6DAAEB3F5441F3FF4E1AE23F48013DC
:10189800B3F5081F3FF4DBAE0748B42102F092FE0F
:1018A800D5E605480193E32102F08CFED8F8100034
:1018B800019B2AE700040048345400080008004847
:1018C800000C0048001000480014004800180048A8
:1018D8000010024000040140032707FA0CF73D43BB
:1018E8006BE7012707FA0CF73D4366E7022707FA7B
:1018F8000CF73D4361E7B3F5901F3FF4A8AECBE783
:10190800042707FA0CF73D4357E7052707FA0CF7B2
:101918003D4352E770B5064615460C4659B1012DB0
:1019280002D835B9B46270BD064840F2A51102F07C
:1019380049FEB46170BD03484FF4D27102F042FE13
:10194800EDE700BF34540008002800F0CD8010B542
:1019580090F83230052B82B0044600F09A8090F857
:101968003230022B00F095800368724A93420DD002
:10197800043293420AD00432934207D0043293428D
:1019880004D06D484FF4857102F01CFE6368002B8B
:1019980000F0828023F02003402B00F0A0806648EE
:1019A80040F20D1102F00EFEE3680C2B09D033F063
:1019B800040206D0082B04D05F484FF4877102F068
:1019C80001FE6368002B6AD02369ABB1802B73D109
:1019D800A36933F4C06304D0574840F2231102F0DE
:1019E800F1FD63684BB9636933F4807307D05248DB
:1019F8004FF4937102F0E6FD6368402B76D0636A7A
:101A08004BB1B3F5802F60D1A36A1F2B00F28C80F5
:101A1800E36A1F2B7CD8494B9A6942F001029A610C
:101A28009B6903F001030193019B94F8323003F0A2
:101A3800FF020BB984F83120204602F0C5FE636826
:101A480023F02002402A34D0D4E902120B43134376
:101A580020696269A16903431343D4E907200B4352
:101A68001343626A216803431343D4E90A0243EA31
:101A7800C04343EA02630868314A024013430B60DB
:101A880094F8323013B9012384F83230002002B0C0
:101A980010BD012002B010BDE3680C2B87D1A368EC
:101AA80033F0200390D024484FF48E7102F08AFD61
:101AB8008AE7D4E90302CDE71F4840F21F1102F07C
:101AC80081FD2369802B97D182E71B484FF49871D9
:101AD80002F078FD636AB3F5802F9CD194E7E36840
:101AE8000C2B7FF464AF6FE701207047E36933F490
:101AF800003202D0B3F5403F10D1236A33F440439B
:101B08003FF47DAF0C4840F22D1102F05BFD76E703
:101B180009484FF49A7102F055FD7CE706484FF4E6
:101B2800967102F04FFDE8E7034840F2331102F0E6
:101B380049FD6DE73800014070540008001002406C
:101B4800113800E0002800F04C832DE9F0430368C9
:101B580083B00446002B00F01D811A0700F065824F
:101B6800DF0743D5636833F4803203D0B3F5A02F81
:101B780040F03282AE4A536803F00C03042B00F0A5
:101B88001082536803F00C03082B00F0038263688B
:101B9800B3F5803F00F01A82002B00F04D82B3F5B8
:101BA800A02F00F01183A24B1A6822F480321A6029
:101BB8001A6822F480221A60FEF776FB9C4F0546CD
:101BC8004FF40038012605E0FEF76EFB401B642841
:101BD80000F2278298FAA8F33A6898FAA8F3B3FAB9
:101BE80083F306FA03F31342EED023689E0747D522
:101BF800E368012B00F2868123691F2B00F28B8199
:101C08008B4B5A6812F00C0F00F069815A6802F089
:101C18000C02082A00F05C81E268002A00F0588271
:101C2800012595FAA5F3B3FA83F303F1845303F579
:101C380084139B007E4F1D60FEF736FB4FF00208B1
:101C4800064605E0FEF730FB801B022800F2E9811A
:101C580098FAA8F33A6898FAA8F3B3FA83F305FA5E
:101C680003F31342EED03968F82292FAA2F22369FC
:101C7800B2FA82F2934021F0F80213433B602368E2
:101C88001D072DD56369012B00F27181002B00F02F
:101C98004881012696FAA6F2664BDFF89481B2FADB
:101CA80082F213449B0002251E60FEF7FDFA0746E8
:101CB80005E0FEF7F9FAC01B022800F2B28195FA96
:101CC800A5F395FAA5F395FAA5F3D8F8242095FA83
:101CD800A5F3B3FA83F306FA03F31342E9D02368B2
:101CE800580757D5A368012B06D9052B04D05248AD
:101CF8004FF4FA7102F066FC4D4BDA69D10000F13D
:101D0800BC81DA6942F08052DA61DB6903F0805302
:101D18000193019B0125494E3368DA0540F1718131
:101D2800A368012B0FD0002B00F0A981052B404B95
:101D38001A6A00F00F8222F001021A621A6A22F06F
:101D480004021A6204E03A4A136A43F00103136278
:101D5800FEF7AAFADFF8D88006464FF002090127F5
:101D680007E0FEF7A1FA41F28833801B984200F29F
:101D7800588199FAA9F399FAA9F3D8F8202099FA81
:101D8800A9F3B3FA83F307FA03F31342E9D0002D5A
:101D980040F0DA81A369022B00F2F280002B00F0F8
:101DA8009380234D6A6802F00C02082A00F0B4817F
:101DB800022B40F0E381E369B3F5004F07D0B3F598
:101DC800803F04D01C4840F2412102F0FBFB236A0B
:101DD80033F4402212D0B2F5801F0FD0B2F5001FA5
:101DE8000CD023F48022B2F5401F07D0B3F5601F52
:101DF80004D0114840F2422102F0E4FB636A0F2B41
:101E080000F2B0814FF0807393FAA3F3B3FA83F32F
:101E180003F1845303F584139B0000221A60FEF734
:101E280043FA034D06464FF0007801270EE000BF45
:101E38000010024020819010AC540008007000404F
:101E4800FEF732FA801B022800F2EB8098FAA8F31A
:101E58002A6898FAA8F3B3FA83F307FA03F313424C
:101E6800EED1EB6A626A23F00F031343EB62D4E905
:101E780007136A680B4322F4761213436B604FF022
:101E8800807393FAA3F3B3FA83F303F1845303F54E
:101E980084139B00B64E1F60FEF706FA4FF00077DA
:101EA8000446012505E0FEF7FFF9001B022800F2B1
:101EB800B88097FAA7F3326897FAA7F3B3FA83F3CF
:101EC80005FA03F31342EED0002003B0BDE8F08317
:101ED8005B6803F4C033B3F5004F7FF49DAE022373
:101EE80093FAA3F2A24A116893FAA3F30122B3FA70
:101EF80083F302FA03F30B4274D0E368934271D080
:101F08000120E2E79B4840F2871102F05BFB23695E
:101F18001F2B7FF675AE97484FF4C47102F052FB41
:101F28006EE6012797FAA7F1934ADFF84482B1FADF
:101F380081F10A44920002251360FEF7B5F90646BE
:101F480004E0FEF7B1F9801B02286AD895FAA5F3D8
:101F580095FAA5F395FAA5F3D8F8242095FAA5F3F0
:101F6800B3FA83F307FA03F31342EAD1B7E68148D9
:101F78004FF4E47102F026FB6369002BD1D088E6A8
:101F88007C484FF40E7102F01DFBA369002B7FF40F
:101F980008AF99E7536803F4C033B3F5803F7FF483
:101FA800F6AD4FF4003393FAA3F2714A116893FA2D
:101FB800A3F30122B3FA83F302FA03F30B423FF4CB
:101FC80014AE6368002B7FF410AE99E7684A136873
:101FD80043F480331360EFE5664840F24F1102F096
:101FE800F1FAC7E56248F822016892FAA2F2236979
:101FF800B2FA82F2934021F0F80213430360236897
:102008003EE6336843F480733360FEF74DF90746C4
:102018003368DB053FF584AEFEF746F9C01B64283C
:10202800F6D9032003B0BDE8F083524840F24911C5
:1020380002F0C8FA236893E54D4D2B6823F48033EA
:102048002B602B6823F480232B60FEF72DF94FF4C7
:1020580000380646012704E0FEF726F9801B6428AD
:10206800DFD898FAA8F32A6898FAA8F3B3FA83F3A2
:1020780007FA03F31342EFD1B7E500254BE63C4ED0
:10208800336A23F001033362336A23F004033362B3
:10209800FEF70AF94FF0020907464FF0010806E07B
:1020A800FEF702F941F28833C01B9842B9D899FA71
:1020B800A9F399FAA9F3326A99FAA9F3B3FA83F35F
:1020C80008FA03F31342EBD1002D3FF463AE3BE073
:1020D800012696FAA6F3B3FA83F303F1845303F5C2
:1020E80084139B00224F1A60FEF7DEF84FF00208B7
:1020F800054604E0FEF7D8F8401B022891D898FA64
:10210800A8F33A6898FAA8F3B3FA83F306FA03F344
:102118001342EFD12368B3E5012B3FF4F1AE6A68AF
:10212800E169EB6A02F4C03088427FF4E9AE216AC3
:1021380002F470128A427FF4E3AE606A03F00F0380
:10214800181A18BF0120C0E6094AD36923F0805342
:10215800D3611FE642F004021A621A6A42F00102D1
:102168001A62F5E503484FF4117102F02BFA49E6BB
:1021780000100240AC540008208190104FF080738A
:1021880093FAA3F3B3FA83F303F1845303F58413A7
:102198009B0000221A60FEF787F84FF0007704468C
:1021A800012605E0FEF780F8001B02283FF639AF4C
:1021B80097FAA7F32A6897FAA7F3B3FA83F306FA0C
:1021C80003F31342EED17FE603F18043A3F53C33DA
:1021D8001A6842F480221A601A6842F480321A603F
:1021E800EAE40120704700BF0C4A536803F00C0171
:1021F800082901D00A487047C3F38343D26A0949C2
:102208000748C95C10B402F00F03074CE35C5DF8A3
:10221800044BB0FBF3F001FB00F0704700100240E4
:1022280000127A00E0550008D0550008002800F098
:10223800DC8003682DE9F0411E070D46044600F0D6
:10224800CE80022D00F2C5807C4A136803F0070394
:10225800AB420CD2136823F007032B4313601368B7
:1022680003F00703AB4202D00120BDE8F0812368E8
:1022780098071AD5A16891B1C02910D000F2D08072
:10228800A0290CD000F2D58021F01002802A06D0B7
:1022980040F2D9216A4802F095F9A1682368694893
:1022A800426822F0F0020A434260D90731D56368D8
:1022B800022B00F2AC80012B00F09980022B0CBF9E
:1022C8004FF00072022292FAA2F15E49086892FA6F
:1022D800A2F20121B2FA82F201FA02F20242C3D05A
:1022E800584E726822F0030213437360FDF7DCFF57
:1022F80041F28838074605E0FDF7D6FFC01B404588
:1023080000F28C807368626803F00C03B3EB820FF1
:10231800F2D14A4A136803F00703AB4209D913689C
:1023280023F007032B431360136803F00703AB4242
:102338009AD123685A0718D5E16831F480620ED023
:1023480021F40072B2F5A06F09D0B1F5C06F06D0C4
:102358004FF447713A4802F035F9E1682368394883
:10236800426822F4E0620A4342601B0718D52269DA
:1023780032F480630DD022F40073B3F5A06F08D057
:10238800B2F5C06F05D02E4840F2233102F01AF999
:1023980022692C494B6823F4605343EAC2034B601B
:1023A800FFF722FF274BF0225B6892FAA2F2B2FAFB
:1023B80082F203F0F003244C2449D340244AE35C1E
:1023C80020FA03F308681360FDF72CFF0020BDE82E
:1023D800F0811B4840F2C22102F0F4F834E71848B3
:1023E80040F2C12102F0EEF82BE7012070474FF4CC
:1023F800003292FAA2F11349096892FAA2F2B2FAEB
:1024080082F203FA02F20A427FF46AAF2CE70C4820
:102418004FF4387102F0D6F863684CE7032024E7DC
:10242800E0293FF43CAF21F02002D02A7FF430AFFE
:1024380035E7B0293FF433AF2AE700BF0020024058
:10244800AC54000800100240F855000804000020B1
:1024580008000020084B4FF4E0625B6892FAA2F291
:10246800B2FA82F203F4E06304490548D3400068F5
:10247800CB5CD840704700BF00100240F055000800
:1024880008000020084B4FF460525B6892FAA2F2F1
:10249800B2FA82F203F4605304490548D340006855
:1024A800CB5CD840704700BF00100240F0550008D0
:1024B800080000202DE9F043944A0368934283B052
:1024C800044680F0F281D9034ED5636833F4407333
:1024D80040F00C828E4BDA69D20000F1EC81DA69A7
:1024E8008C4D42F08052DA61DB6903F0805301932E
:1024F800019B2B68DF054FF0010640F1E381DFF80F
:1025080010826168D8F8203013F4407320D001F4A9
:1025180040729A421CD0D8F820104FF4803321F42E
:10252800407093FAA3F27C4FB2FA82F23A449200D6
:102538000125156093FAA3F3B3FA83F33B449B0098
:102548000022C9071A60C8F8200000F1F681616806
:102558006F4A136A23F440730B4313621EB1D369A5
:1025680023F08053D3612368DA0709D5A1680329CA
:1025780000F2D4816648026B22F003020A43026328
:102588009F070FD5E16831F4403205D0C721634871
:1025980002F018F8E16823685D48026B22F44032C3
:1025A8000A4302635E070FD5216931F4402205D042
:1025B800D3215A4802F006F8216923685448026B6F
:1025C80022F440220A4302639D060FD5E16931F0E7
:1025D800100205D0DE21514801F0F4FFE1692368BB
:1025E8004B48026B22F010020A43026398030FD58E
:1025F800616D31F4800205D0EC21484801F0E2FF1A
:10260800616D23684248426822F480020A434260AE
:10261800590610D5216A31F0200206D04FF4807196
:102628003E4801F0CFFF216A23683948026B22F047
:1026380020020A4302635A0310D5616A31F040024E
:1026480006D04FF48971354801F0BCFF616A2368F0
:102658002F48026B22F040020A4302631F0710D57D
:10266800616931F4401206D040F221112B4801F083
:10267800A9FF616923682648026B22F440120A43C5
:102688000263DE0610D5A16931F4400206D040F29B
:102698002B11224801F096FFA16923681C48026BA0
:1026A80022F440020A4302639D0510D5216B31F4E0
:1026B800000206D040F23B11184801F083FF216B5D
:1026C80023681348426822F400020A43426018064D
:1026D80026D5A16A91B1B1F5B07F0FD000F20B8178
:1026E800B1F5987F0AD021F0100200F24281B2F5CC
:1026F800807F03D0B1F5907F40F008810448C26A1A
:1027080022F4F8720A43C2620AE000BF0034F703F9
:10271800001002400070004000819010E45400084E
:10272800D90527D5E16A31F400521DD021F4806221
:10273800B2F5085F18D021F40062B2F5105F13D02B
:1027480021F40072B2F5205F0ED0B1F5385F0BD0DE
:1027580021F4C062B2F5405F06D04FF4B6718748E5
:1027680001F030FFE16A23688548C26A22F4785292
:102778000A43C262DA0410D5616B31F4807206D064
:102788004FF4C6717D4801F01DFF616B23687C48DA
:10279800026B22F480720A4302639F0410D5216CF5
:1027A80031F4007206D04FF4CF71744801F00AFF7B
:1027B800216C23687248026B22F400720A43026398
:1027C800DE0210D5A16B31F0807206D040F2F5110F
:1027D8006A4801F0F7FEA16B23686948026B22F092
:1027E80080720A4302639D0210D5E16B31F00072DA
:1027F80006D040F2FF11614801F0E4FEE16B236866
:102808005F48026B22F000720A430263580210D537
:10281800616C31F4806206D040F20921574801F01A
:10282800D1FE616C23685648026B22F480620A4329
:102838000263190210D5A16C31F4006206D040F28F
:1028480013214E4801F0BEFEA16C23684C48026B70
:1028580022F400620A430263DA0110D5E16C31F414
:10286800005206D040F21D21444801F0ABFEE16C55
:1028780023684348026B22F400520A4302639B0117
:102888000FD5226D32F4004305D03C4840F22A218E
:1028980001F098FE226D3A490B6B23F40043134371
:1028A8000B63002003B0BDE8F0833448702101F0C9
:1028B80089FE236807E6334D2B68DF054FF00006D5
:1028C8003FF51DAE2B6843F480732B60FDF7ECFCDD
:1028D80007462B68D8053FF512AEFDF7E5FCC01B8F
:1028E8006428F6D9032003B0BDE8F0832348762195
:1028F80001F068FEEEE5B1F5C87F3FF4FFAE14D9EC
:1029080021F01002B2F5D07F3FF4F8AE40F25B112F
:102918001A4801F057FEA16A2368EFE6BC21174860
:1029280001F050FEA168236824E6B1F5B87F3FF4B2
:10293800E5AEB1F5C07FE9D1E0E6FDF7B5FC4FF0B3
:102948000209074699FAA9F399FAA9F3D8F82020B9
:1029580099FAA9F3B3FA83F305FA03F313427FF460
:10296800F6ADFDF7A1FC41F28833C01B9842E9D9C6
:10297800B8E7B2F5A07FC9D1C0E600BFE4540008AB
:102988000010024000700040324A0368934210B5BC
:1029980004462BD0B3F1804F28D0A2F5943293424D
:1029A80024D002F58062934220D002F5006293425F
:1029B8001CD002F58062934218D002F590329342FF
:1029C80014D002F54062934210D002F5806293421F
:1029D8000CD002F58062934208D002F5006293425F
:1029E80004D01D484FF4CE7101F0ECFD94F83D3051
:1029F800012B23D12368174A0221934284F83D1002
:102A08001ED0B3F1804F1BD0A2F59432934217D059
:102A180002F58062934213D002F5963293420FD0AA
:102A280002F5406293420BD002F58052934207D0E0
:102A38001A6842F001021A60002010BD012010BD82
:102A48009968064A0A40062AF6D0B2F5803FEFD1C7
:102A5800F2E700BF002C01402055000807000100E4
:102A6800704700BF38B590F83C30012B00F0A181C9
:102A78000223012280F83C2080F83D300B68702B3F
:102A880004460D4600F0308223D823F01002402A75
:102A980000F0D180602B00F08E8133F030026AD1D3
:102AA8002268AA49906801409160402B00F2CC80CE
:102AB800202B00F0548100F24F8133F0100100F018
:102AC8004E8101200122002384F83D2084F83C3007
:102AD80038BDB3F5805F00F00381B3F5005FDCD14A
:102AE80002689A4B91680B409360994B9A4217D0B1
:102AF800B2F1804F14D0A3F594339A4210D003F565
:102B080080639A420CD003F596339A4208D003F5B5
:102B1800E0539A4204D08F4841F29D5101F052FD92
:102B2800AB6833F4405304D08A484FF4AD5101F0F8
:102B380049FD6B68B3F5004F09D033F0020206D0A7
:102B48000A2B04D0834841F2A15101F03BFDE8680B
:102B58000F2800F2D6812268D5E9015391682B43EA
:102B680021F47F410B4343EA00239360936843F4C5
:102B7800804393601BE1774841F2725101F022FDD6
:102B880022682B6890687149602B01EA0001916006
:102B980000F0168140F25D81B3F5805F00F0A580FA
:102BA800B3F5005FA1D0702B8BD1694B9A4217D037
:102BB800B2F1804F14D0A3F594339A4210D003F5A4
:102BC80080639A420CD003F596339A4208D003F5F5
:102BD800E0539A4204D05F4841F2855101F0F2FC7B
:102BE800AB6833F4405304D05A4841F2885101F09D
:102BF800E9FC6B68B3F5004F09D033F0020206D048
:102C08000A2B04D0534841F2895101F0DBFCE868F3
:102C18000F2800F27D812268D5E9015391682B4382
:102C280021F47F410B4343EA00239360936843F008
:102C380077039360BBE0026844499068402B01EA3F
:102C48000001916000F00881502B7FF43AAF404BAF
:102C58009A421BD0B2F1804F18D0A3F594339A4210
:102C680014D003F580639A4210D003F596339A4244
:102C78000CD003F540639A4208D003F580539A427A
:102C880004D0344841F2B15101F09CFC6B68B3F5B3
:102C9800004F09D033F0020206D00A2B04D02D4889
:102CA80041F2B45101F08EFCE8680F2800F23E8131
:102CB800236869681A6A22F00A0211431A6A22F024
:102CC80001021A629A6922F0F00242EA00129A613D
:102CD80019629A6822F0700242F057029A6066E020
:102CE80002681A4B91680B409360194B9A425ED068
:102CF800B2F1804F5BD0A3F594339A4257D003F5D5
:102D080080639A4253D003F500639A424FD003F58B
:102D180080639A424BD003F590339A4247D003F52B
:102D280040639A4243D003F580639A423FD003F54B
:102D380080639A423BD003F500639A4237D0054836
:102D480041F27E5101F03EFC31E000BF8800FEFFF9
:102D5800002C014020550008302B7FF4B2AE774993
:102D68008A421DD0B2F1804F1AD0A1F594318A421F
:102D780016D001F580618A4212D001F596318A4257
:102D88000ED001F540618A420AD001F580518A428D
:102D980006D06B4841F2E45101F014FC22682B681C
:102DA800916821F070010B4343F007039360002002
:102DB80088E6022038BD0268624B91680B40936038
:102DC8005E4B9A421BD0B2F1804F18D0A3F59433D2
:102DD8009A4214D003F580639A4210D003F59633D3
:102DE8009A420CD003F540639A4208D003F5805309
:102DF8009A4204D0524841F2C15101F0E3FB6B689A
:102E0800B3F5004F09D033F0020206D00A2B04D0E4
:102E18004B4841F2C45101F0D5FBE8680F287ED831
:102E2800236869681A6A22F0A00242EA0112196A44
:102E380021F010011962996921F4704141EA0031C9
:102E480099611A629A6822F0700242F067029A60E9
:102E5800ADE7402B7FF429AE384B9A421BD0B2F134
:102E6800804F18D0A3F594339A4214D003F58063A9
:102E78009A4210D003F596339A420CD003F540637A
:102E88009A4208D003F580539A4204D02C4841F264
:102E9800D15101F097FB6B68B3F5004F09D033F0BF
:102EA800020206D00A2B04D0254841F2D45101F081
:102EB80089FBE8680F281DD8236869681A6A22F018
:102EC8000A0211431A6A22F001021A629A6922F070
:102ED800F00242EA00129A6119629A6822F07002BE
:102EE80042F047029A6062E70268164B91680B400D
:102EF80093605AE6124841F2D55101F063FBE86845
:102F0800DAE70F4841F2A25101F05CFBE86822E6DB
:102F18000B4841F28A5101F055FBE8687BE6084806
:102F280041F2C55101F04EFBE86879E7044841F2E7
:102F3800B55101F047FBE868BAE600BF002C014034
:102F4800205500088800FEFF344A0368904210B4F8
:102F580028D0B0F1804F44D0A2F59432904240D0AE
:102F680002F5806290423CD002F5963290424AD0F7
:102F780002F5E052904215D0A2F58052904247D017
:102F880002F58062904243D002F5806290423FD0C1
:102F98000A688C68496923F080030B430360C462A4
:102FA800826212E0CA684C6823F07003234323F45A
:102FB800407313434A6923F08003134303608B680B
:102FC800C3620B6883620B6903630123436103696E
:102FD800DB0703D5036923F0010303615DF8044BA4
:102FE80070474A68CC6823F07003134323F4407396
:102FF8004A69234323F080038C6813430A680360FB
:10300800C4628262E1E74C68CA6823F07003CDE7C6
:10301800CC684A6923F440732343CCE7002C014071
:10302800002800F0A5800368524A934210B5044670
:103038002BD0B3F1804F28D0A2F59432934224D0FC
:1030480002F58062934220D002F5006293421CD0C0
:1030580002F58062934218D002F59032934214D060
:1030680002F54062934210D002F5806293420CD080
:1030780002F58062934208D002F50062934204D0C0
:103088003D484FF48D7101F09DFAA36833F01002AA
:103098000AD023F04002202A06D0402B04D036481C
:1030A80040F21B1101F08EFA236933F4807236D195
:1030B8002268E368B2F1804F3ED0013B4FF6FE72C2
:1030C80093423BD8A36933F0800340D194F83D3054
:1030D80003F0FF02002B45D02146022384F83D303F
:1030E80051F8040BFFF730FF012384F8483084F8C7
:1030F8003E3084F83F3084F8403084F8413084F81A
:10310800423084F8433084F8443084F8453084F8F9
:10311800463084F8473084F83D30002010BDB3F5C0
:10312800007FC5D014484FF48E7101F04BFA226825
:10313800E368B2F1804FC0D1002BC3D10E4840F2F2
:103148001D1101F03FFAA36933F08003BED00A488D
:103158004FF48F7101F036FA94F83D3003F0FF0216
:10316800002BB9D184F83C20204601F0A1FBB3E73D
:1031780001207047002C014020550008002800F06D
:10318800A68038B5534A036893420D4604462BD0AF
:10319800B3F1804F28D0A2F59432934224D002F59F
:1031A8008062934220D002F5006293421CD002F55F
:1031B8008062934218D002F59032934214D002F5FF
:1031C8004062934210D002F5806293420CD002F51F
:1031D8008062934208D002F50062934204D03E48D0
:1031E8004FF4266101F0EEF9A36833F010020AD01B
:1031F80023F04002202A06D0402B04D0364840F65F
:10320800612101F0DFF9236933F4807239D135F097
:10321800080304D0304840F6632101F0D3F922684E
:10322800E368B2F1804F46D0013B4FF6FE729342FD
:1032380043D8A36933F080032CD194F83D3003F0D0
:10324800FF0293B32146022384F83D3051F8040B62
:10325800FFF77AFE026822F0080202600268012382
:103268002A430260002184F8483084F83E3084F80C
:103278003F3084F8443084F8453084F83D300846BF
:1032880038BDB3F5007FC2D0134840F6622101F083
:1032980099F9BCE7104840F6652101F093F994F8D4
:1032A8003D3003F0FF02002BCCD184F83C202046AF
:1032B800FFF7D6FBC6E7002BBBD1074840F66421D1
:1032C80001F080F9A36933F08003B6D0E2E7012169
:1032D80008467047002C014020550008F8B55F4AA1
:1032E8000368934204460D4623D0B3F1804F20D0A3
:1032F800A2F5943293421CD002F58062934218D012
:1033080002F50062934214D002F58062934210D015
:1033180002F5903293420CD002F54062934208D0F5
:1033280002F58052934204D04D4840F2AC7101F04E
:1033380049F92B6833F040020CD0402B76D8202B6B
:1033480008D023F02003102B04D0454840F2AD717B
:1033580001F038F9AB6833F0800304D0404840F2FC
:10336800AE7101F02FF994F83C30012B71D0022294
:10337800236884F83D20394A012184F83C1093429F
:103388005E689F681ED002F5006293421AD002F56B
:10339800E052934216D02A6826F0700616435E6003
:1033A800B3F1804F02D02F4A934246D1AA6827F042
:1033B800800717439F600020012384F83D3084F87C
:1033C8003C00F8BD6A6832F440111CD0B1F5800F9A
:1033D80019D0B1F5000F16D0B1F5400F13D040F257
:1033E800C1711F4801F0EEF86968236826F470027D
:1033F8000A43296822F070020A435A60174A934226
:10340800CED1164BD2E726F470062968324322F053
:1034180070020A435A60114A9342F2D0124A934208
:1034280019D0124B114A9342C5D1BFE7602B91D0F6
:1034380023F02003502B88D18CE702F58062934259
:10344800B4D002F59632934205D0094A9342ADD0E2
:10345800E8E70220F8BD044BA8E700BF002C0140B4
:103468005855000800040040003401400050014055
:1034780000400140026852E8003F23F4907342E89C
:1034880000310029F7D102F1080353E8003F23F087
:10349800010302F1080C4CE800310029F3D1036E56
:1034A800012B06D000232022C0F880208366036603
:1034B800704752E8003F23F0100342E8003100292A
:1034C800F0D052E8003F23F0100342E80031002911
:1034D800EFD1E7E72DE9F8430446C06F202852D121
:1034E800884609B1164612B90120BDE8F8831F467F
:1034F8004FF000092123C4F88490E367FCF7D4FE59
:10350800A368A4F85060B3F5805F0546A4F852603C
:103518003CD0B4F85220236892B2C2B1DA691606D8
:1035280004D4791C20D1DA691206FCD5B8F1000F51
:1035380023D018F8012B1A85B4F85220013A92B218
:10354800A4F85220B4F8522092B2002AE6D1DA69DF
:10355800520604D4781C1FD1DA695106FCD5202301
:10356800E3670020BDE8F883FCF79EFE401B874216
:103578001BD3D7B123681A68D0E739F8022BC2F3F6
:1035880008021A85D8E70220BDE8F8832369002BD2
:10359800BFD1C1469846BCE7FCF786FE431B9F4255
:1035A80003D317B123681A68D1E72023E367032000
:1035B800BDE8F883704700BF704700BF08B5406A90
:1035C8000023A0F85A30A0F85230FFF7F5FF08BDE5
:1035D800704700BF0368DA69196840F60F0C12EAF1
:1035E8000C0F2DE9F0419D68044640F08180970654
:1035F80002D58E0600F1EB80206E012825D0D0027E
:1036080002D56F0200F1E880160615D4500601D5E0
:103618004A0601D4BDE8F08153E8002F22F04002A9
:1036280043E800210029F7D120220023E267E3665E
:103638002046FFF7BFFFEDE70D06E7D5E36E002B49
:10364800E8D02046BDE8F0411847D706D7D5CE06C2
:10365800D5D510221A629A68550640F10E81606F1E
:103668000268526892B2002AD4D0B4F85810914235
:10367800D0D9A4F85A208269202A2FD053E8002FE5
:1036880022F4807243E800210029F7D103F10802EF
:1036980052E8002F22F0010203F1080545E8002155
:1036A8000029F3D103F1080252E8002F22F040026A
:1036B80003F1080545E800210029F3D12022C4F8C8
:1036C8008020216653E8002F22F0100243E80021F1
:1036D8000029F7D1FDF7E6FEB4F858100223636617
:1036E800B4F85A30C91A204689B2FFF771FF91E73A
:1036F80015F001071E4640F099807E4801423FF4CC
:103708007BAFD5070FD5C80540F1B38001201862FB
:10371800D4F8840040F00100C4F88400900767D50D
:10372800002F40F08780550779D5170700F196805C
:1037380017050AD54D0108D54FF400601862D4F872
:10374800843043F02003C4F88430D4F88430002B4C
:103758003FF460AF900602D58A0600F18280D4F863
:103768008420B36802F0280203F0400353EA0205FC
:10377800204600F0B980FFF77DFEB3685B0666D58A
:1037880006F1080353E8003F23F0400306F108015F
:1037980041E8003262B1236803F1080252E8002FC1
:1037A80022F0400203F1080040E800210029F3D18B
:1037B800606F00284BD0504B4363FDF797FE0028FD
:1037C8003FF428AF606FBDE8F041436B1847836E44
:1037D800002B7FF437AF1DE74FF4801220461A62A2
:1037E800BDE8F04100F0B6BBC8058FD4950721D4D9
:1037F800500714D5002F98D004201862D4F88400FC
:10380800150740F00200C4F8840091D5082018621A
:10381800D4F8840040F00800C4F8840088E7100752
:1038280086D501F02000384382D0EFE7D507DBD4F6
:10383800900710D502201862D4F88400570740F08A
:103848000400C4F88400D7D41007DFD470E72046FA
:10385800FFF7B2FEDEE65707CED4F5E78D06D5D4DE
:1038680066E7A36E002B3FF47AAF20469847266898
:1038780075E795073FF557AFBAE7B4F85A10B4F8AB
:103888005A20B4F8580092B289B2002A3FF4C2AE66
:10389800411A89B200293FF4BDAE53E8002F22F443
:1038A800907243E800200028F7D103F1080252E89B
:1038B800002F22F0010203F1080545E80020002846
:1038C800F3D12022C4F88020A066206653E8002F98
:1038D80022F0100243E800200028F7D10223636693
:1038E8002046FFF775FE95E6FFF766FEC4F884509C
:1038F80090E600BF20010004C535000838B54268CD
:103908008D4B9A42044600F2A180A368B3F1805F10
:1039180003D033F4805340F0AF80E36833F440536E
:1039280004D0864840F63B3100F04CFE236A33F45D
:10393800006304D0814840F63C3100F043FE23691F
:1039480033F4806203D0B3F5C06F40F09B806369A5
:1039580033F00C0257D1002B55D0A36933F44073D0
:1039680004D076484FF4346100F02CFEE16931F45C
:10397800004305D040F64131704800F023FEE1696C
:103988002069A368226803436069156803436C488B
:10399800284003430B4313605368E068256A23F407
:1039A8004053034353609068A36920F430602B436D
:1039B80003436448936082424ED0634B9A4228D0B6
:1039C800624B9A4200F08680614B9A4200F09580E3
:1039D800604B9A4238D103F5E0331B6B03F4400384
:1039E800B3F5000F54D000F2A180002B7FD0B1F5C1
:1039F800004F00F09580FEF7F7FBD0B900200023B8
:103A0800C4E91A3338BD4D4840F63F3100F0DAFDBD
:103A1800A3E703F5E6331B6B03F44033B3F5003F2C
:103A280036D0E2D9B3F5403F0ED1B1F5004F72D090
:103A3800494863684FF6EF7200EB5300B0FBF3F0B0
:103A4800A0F11003934242D90120D8E73B4840F641
:103A5800393100F0B7FD58E7404B1B6B03F0030307
:103A6800022B15D0032BE0D0012BC0D0B1F5004FAD
:103A780014D0FEF707FDC0E7304840F63A3100F0B1
:103A8800A1FD4AE72D4840F63E3100F09BFD5EE778
:103A9800B1F5004F41D04FF40040CAE7FEF7F2FC01
:103AA8000028ABD0400063684FF6EF7200EB53007C
:103AB800B0FBF3F3A3F110019142C5D823F00F0234
:103AC800216892B2C3F342031343CB6096E723689D
:103AD800D86093E703F5E4331B6B03F44023B3F595
:103AE800002FD5D081D9B3F5402F9ED0ACE7B1F5E2
:103AF800004F18D0FEF7AEFC7FE703F5E2331B6BEF
:103B080003F44013B3F5001FC2D07FF66EAFB3F5D0
:103B1800401F8AD098E71248C5E74FF48030C2E7C3
:103B2800FEF762FBBCE7FEF795FCB9E7B3F5400F7B
:103B38003FF47BAF88E700BF4054890094550008E4
:103B4800F369FFEF0038014000440040004800409E
:103B5800004C00400050004000127A000010024063
:103B68000024F400436AFF2B10B5044600F2958048
:103B78001A070AD5616B31F4004240F09D80206835
:103B8800426822F400420A434260D8070AD5A16A73
:103B980031F4003240F098802068426822F4003204
:103BA8000A43426099070AD5E16A31F4803240F04D
:103BB80093802068426822F480320A4342605A07A0
:103BC8000AD5216B31F4802240F08E80206842684B
:103BD80022F480220A434260D8060AD5A16B31F448
:103BE800805240F089802068826822F480520A431B
:103BF8008260990609D5E16B31F4005254D12068EE
:103C0800826822F400520A4382605A062BD5236840
:103C1800464A93420CD0A2F57442934208D002F56A
:103C28008062934204D0424840F6F13100F0CAFC69
:103C3800236C5BB3B3F5801F66D12268536843F4E5
:103C480080135360606C30F4C00306D0384840F6E7
:103C5800F73100F0B7FC606C22685168636A21F4A0
:103C6800C001014351601B060FD5A26C32F400233A
:103C780005D02F4840F6FF3100F0A4FCA26C216863
:103C88004B6823F4002313434B6010BD2168636A1B
:103C98004A6822F480124A60E5E7254840F6C231B6
:103CA80000F090FC636A63E740F6EA31204800F0D0
:103CB80089FCE16B636AA2E740F6C7311C4800F053
:103CC80081FC616B636A5AE740F6CE31184800F010
:103CD80079FCD4E909315FE740F6D531144800F0A2
:103CE80071FCE16A636A64E740F6DC31104800F071
:103CF80069FC216B636A69E740F6E3310C4800F020
:103D080061FCA16B636A6EE740F6F231084800F087
:103D180059FC2268216C536823F480130B43B1F5D6
:103D2800801F53608ED0636A9DE700BF0038014052
:103D3800945500082DE9F843089F0C46016806468B
:103D480015469846CA6934EA02020CBF01220022CD
:103D5800AA4209D1781C0BD1CB6934EA03030CBF02
:103D680001230023AB42F7D000231846BDE8F883AF
:103D7800FCF79AFAA0EB0800B8421AD8CFB131681C
:103D88000B685A07DED5802CDCD0402CDAD0CB6902
:103D980013F008090FD1CA691305D3D54FF400628F
:103DA8000A623046FFF766FB2022C6F8842086F8B0
:103DB80078900323D9E708240C623046FFF75AFBB2
:103DC80000220123C6F8844086F87820CDE700BF9A
:103DD80070B50446002682B0C0F88460FCF764FA27
:103DE80023681A68120705460FD41B685B0725D499
:103DF80000232022E2671846C4F880202366636601
:103E0800002384F8783002B070BD6FF07E430093D1
:103E1800324603464FF400112046FFF78BFF236814
:103E28000028E2D053E8002F22F0800243E8002166
:103E38000029F7D12023E3670320E1E76FF07E43F1
:103E4800009300222B464FF480012046FFF772FFB3
:103E58000028CDD0236853E8002F22F4907243E85D
:103E680000210029F7D103F1080252E8002F22F0BF
:103E7800010203F1080040E800210029F3D12023C2
:103E8800C4F88030D8E700BF00285DD08269036895
:103E980010B50446002A32D02C4A93420CD0A2F521
:103EA8007442934208D002F58062934204D02848B5
:103EB8004FF4967100F086FBE36F002B3ED022682A
:103EC800616A2423E367136823F00103136089BB45
:103ED8002046FFF713FD01282AD023685A6822F4E8
:103EE80090425A609A6822F02A029A601A6842F050
:103EF800010220461A60BDE81040FFF769BF134A67
:103F08009342D9D0A2F574429342D5D002F580628B
:103F18009342D1D002F580629342CDD002F58062FF
:103F28009342C9D00A4840F2311100F04BFBC3E775
:103F3800012010BD2046FFF715FEC9E784F8783048
:103F4800204600F021FDBAE7012070470038014003
:103F580094550008704700BF00B52022A7B0002183
:103F68000DEB020001F098F90021582210A8CDE9C4
:103F78000111CDE90311059101F08EF901204FF4EB
:103F88008031CDE9060102204FF48031CDE90C01E2
:103F980001224FF4E01306A809920E93FDF7D2FD13
:103FA80008B172B6FEE70F2203460221019201A86A
:103FB8004FF48062CDE90213CDE90423FEF736F908
:103FC800034608B172B6FEE79FED097B0A4A1092D4
:103FD80010A88DED1E7B12932093FEF76BFA08B1A3
:103FE80072B6FEE727B05DF804FB00BFAFF30080B0
:103FF8000000000000000000012030002DE9F04F13
:10400800002495B0FCF732F9FFF7A6FFCDE90E447E
:10401800CDE91044AE4D12946B69AE4843F40023C9
:104028006B616B6903F400230693069B6B6943F489
:1040380080036B616B6903F480030793079B6B69CB
:1040480043F400336B616B6903F400330893089BF6
:104058006B6943F480236B616B6903F480230993D4
:10406800099B6B6943F480136B616B6903F48013DC
:1040780022460A934FF474610A9BFDF74BFC2246D3
:1040880095488021FDF746FC032643F2BB0391487F
:1040980010940EA9CDE90E36FDF792FA49F60B13E6
:1040A8000EA94FF09040CDE90F640E93FDF788FA02
:1040B80046F2703388480E930EA90127CDE90F64A4
:1040C800FDF77EFA4FF4746382480EA9CDE90E37E6
:1040D800CDE91044FDF774FA80480F960EA904261E
:1040E8004FF0800810940E96FDF76AFA7A481194FA
:1040F8000EA9CDE90F74CDF83880FDF761FA6B6928
:1041080043F002036B616B6903F002030493049BA1
:104118006B693B436B616B69714D3B40224621469D
:104128000C200593059BFCF7C5FF0C20FDF708F84C
:10413800224621463920FCF7BDFF3920FDF700F85B
:10414800684B2B6028463323CDE90E44CDE9104453
:10415800CDE90B44C5E901440D94C5F818802C61DC
:10416800EB60FEF75DFF08B172B6FEE74FF48059C9
:104178000EA92846CDF83890FEF774FC08B172B63F
:10418800FEE70D90202328460BA90B93FFF7A6F80E
:1041980008B172B6FEE7544D544B2861C5E90800D2
:1041A8004FF0400B4FF00C0A4FF440382846C5E951
:1041B800003BC5F80CA0C5F81C80FDF7C5FB88B905
:1041C8004B4C4C4B2061C4E908002046C4F804B0AD
:1041D800C4F80CA0C4F81C802360FDF7B5FB18B127
:1041E80072B6FEE772B6FEE7DFF81C81424BC8F8EC
:1041F8000400C8E90206C8F81000C8F824004046C0
:10420800C8F80030FDF7A0FB08B172B6FEE7DFF88A
:10421800FCA03A4B0D90CDE90E00CDE91000CDE998
:104228000B00CAE90100CAF81000CAF81800CAF859
:10423800003050464FF42273CAF80C30FEF7F0FEF7
:1042480008B172B6FEE70EA95046CDF83890FEF7D1
:1042580009FC034608B172B6FEE750460BA90B935A
:104268000D93FFF73BF8034608B172B6FEE7CDE9B8
:104278000E00CDE91000CDE9120021484661214E1B
:104288008360C0E90A73036180F82030C36080F856
:104298003030038343634FF40033C0E90063C761E0
:1042A800FCF7A8F808B172B6FEE70023CDE9113390
:1042B8001393012708234FF006091148CDF84090C1
:1042C8000EA9CDE90E37FCF7A1FB08B372B6FEE7DD
:1042D800001002400008004800040048000C004894
:1042E800A401002000040040A40200203C0001407A
:1042F80070020020400001404400014000080040D6
:1043080080030020000100503C02002058010020DA
:104318009D4E0D904FF08043336040F23713CDE946
:104328000E00CDE91000CDE90B00C6E901003061AF
:10433800F36030468023B361FEF772FE08B172B6AF
:10434800FEE74FF480530EA930460E93FEF78AFB22
:1043580008B172B6FEE70D9020230BA930460B93E7
:10436800FEF7BCFF08B172B6FEE7DFF840A2874B44
:104378001090CDE90E005046CAF80030FCF70EFF49
:10438800024608B172B6FEE750460EA9CDE90E22E4
:10439800FCF728FF08B172B6FEE7DFF814A2139005
:1043A8004FF400334FF0A04BCDE90B00CDE90D00E1
:1043B800CDE90F00CDE91100CAE90A70CAE900B3D6
:1043C800CAF80800CAF810008AF82000CAF80C00D9
:1043D8008AF83000AAF81800CAF8340004235046B6
:1043E800CAF81C70CAF81430FCF704F808B172B6A1
:1043F800FEE70B900BA95046FCF776FD034608B183
:1044080072B6FEE7CDE911331393504610230EA977
:104418000E93CDE90F79FCF7F9FA034608B172B6A5
:10442800FEE7CDE90E00CDE91000CDE90B000D90B7
:104438005748C0E90133C0E904338361554B036031
:104448004FF6FF73C360FEF7EBFD08B172B6FEE7E7
:104458004FF480534E480E930EA9FEF703FB08B1A4
:1044680072B6FEE74A480821FEF788FE08B172B620
:10447800FEE7CDE90B000D900BA94548FEF72EFF8E
:1044880008B172B6FEE7444FDFF828C1B8604FF4B0
:104498000033C7E900C34FF4806E4FF48073CDE951
:1044A8000E00CDE91000CDE91200C7E90A3E3861D7
:1044B800042387F82000F860388378634FF00109F7
:1044C80038467B61C7F81C9087F83090FBF792FF5D
:1044D800034608B172B6FEE7CDE91033CDE91233D1
:1044E8000EA9052338460E93CDF83C90FCF78EFABA
:1044F800034608B172B6FEE72848294A0361C0E9B5
:104508000233C0E9063303624FF4E133C0E9002304
:104518000C234361202343624FF40053C363FFF726
:10452800B3FC08B172B6FEE7D8F800202868136813
:10453800DFF88480DFF88490184F1A4D03F00C01DF
:1045480004291CBF23F00C0343F004031360136811
:10455800216843F0010313600368134A43F0010321
:1045680003600B6843F001030B60936843F0010399
:104578009360CDE90186084800944B463A4629469F
:1045880000F018FEF5E700BFF001002000740040BD
:104598000C010020003401403003002040000020BE
:1045A80000380140A4010020002004E0D8020020C7
:1045B800D003002000050050C8000020A4020020FD
:1045C80072B6FEE7704700BF0B4B9A6942F00102D2
:1045D80082B09A619A6902F001020092009ADA693F
:1045E80042F08052DA61DB6903F080530193019B4A
:1045F800052002B0FCF740BD0010024070B503680A
:104608008CB00024B3F1A04FCDE90644CDE90844AD
:104618000A9421D0454A934204D0454A93424CD04B
:104628000CB070BD434A13680133012B136039D0B5
:10463800414B42485A6942F400225A615B6903F4CB
:10464800002303930424032506A9CDE90645039B0B
:10465800FCF7B6FF0CB070BD364A13680133012B66
:10466800136014D0344B5A6942F400325A615B69C2
:1046780003F4003301930424032506A94FF0904066
:10468800CDE90645019BFCF79BFF0CB070BD2A4B9A
:104698005A6942F080525A615B6903F08053009373
:1046A800009BDFE7244B5A6942F080525A615B69EC
:1046B80003F080530293029BBAE71F4B204E5A69BE
:1046C80042F000525A615A6902F000520492049A68
:1046D8005A6942F480225A615B6903F48023059386
:1046E8004FF4004206A9032305461648CDE90623E0
:1046F800059BFCF765FF144BB4608022C6E90034C3
:104708004FF48073C6E903234FF4806120224FF4ED
:1047180040533046C6E90512F361FCF7B5FD10B900
:10472800AE6375627CE7FFF74BFFF9E700010050C5
:104738000005005020040020001002400008004836
:10474800EC020020000400481C04024000000000A5
:1047580000B51B4A016889B000239142CDE90233B4
:10476800CDE90433069302D009B05DF804FB03F1E8
:10477800804303F504339FED107BDA6942F0005261
:10478800DA61DA6902F000520092009A5A6942F43A
:1047980000325A615B6903F40033019302A94FF0B8
:1047A80090408DED027B019BFCF70AFF09B05DF894
:1047B80004FB00BFAFF300801000000003000000FE
:1047C800007400400000000000B5026834498BB056
:1047D80000238A42CDE90433CDE90633089308D093
:1047E800304B9A421ED0304B9A4233D00BB05DF812
:1047F80004FB03F1804303F504339FED237B5A69DF
:1048080042F400325A615B6903F40033019304A94E
:104818004FF090408DED047B019BFCF7D1FE0BB06F
:104828005DF804FB03F5873303F5E0735A691F4805
:1048380042F480225A615B699FED157B03F4802363
:10484800029304A98DED047B029BFCF7B9FE0BB023
:104858005DF804FB03F5873303F5DE735A691348E3
:1048680042F480225A615B699FED0B7B03F480233D
:10487800039304A98DED047B039BFCF7A1FE0BB009
:104888005DF804FBAFF30080E000000003000000C7
:104898000700000003000000001C000003000000E7
:1048A8003C00014040000140440001400004004831
:1048B80030B50368B3F1804F85B022D02C4A9342BB
:1048C80007D02C4A934210D02B4A934241D005B0CE
:1048D80030BD2A4BDA6942F00202DA61DB6903F083
:1048E80002030193019B05B030BD244BDA6942F005
:1048F8000402DA61DB6903F004030293029B05B04A
:1049080030BD03F504331E4DDA691E4942F0010239
:10491800DA61DB69296003F00103009310210023A9
:10492800C5E9011380224FF40073C5E90323044647
:104938004FF40061009820224FF400532846C5E93F
:104948000512EB61FCF7A0FC78B925626C6205B032
:1049580030BD0A4B9A6942F400529A619B6903F48C
:1049680000530393039B05B030BDFFF729FEECE726
:1049780000040040000800400034014000100240DC
:10498800C80000201C00024030B51F4B026889B0E7
:1049980000249A42CDE90244CDE90444069401D0AA
:1049A80009B030BD03F558439FED157B9A6942F471
:1049B80080429A619A6902F480420092009A5A6988
:1049C80042F400325A615B6903F40033019302A98F
:1049D800072303224FF09040CDE905238DED027B9C
:1049E800019DFCF7EDFD224621462520FCF762FBE0
:1049F8002520FCF7A5FB09B030BD00BFAFF3008050
:104A0800000600000200000000380140FBF740BC2F
:104A18000148FCF78BBD00BFC80000200148FEF725
:104A2800D9BD00BF400000200148FCF77FBD00BF92
:104A3800EC0200201548164BD0F88810154A41F4AE
:104A4800700110B4C0F888101868134940F00100CC
:104A580018605C6822405A601A685DF8044B22F0BE
:104A6800847222F480321A601A6822F480221A6052
:104A78005A6822F4FE025A60DA6A22F00F02DA62F9
:104A88001A6B0020114019639860704700ED00E030
:104A9800001002400CC07FF8CCFC00FF016070479A
:104AA8000160704710B4064CC4F801100068214634
:104AB8004FF6FF735DF8044B0522FEF70BBD00BFF0
:104AC8001000002010B4054C006861704FF6FF73A9
:104AD800214602225DF8044BFEF7FCBC0C000020C6
:104AE80070B504469FED107BA360114B0025C4E907
:104AF800001210464FF0C0520E46A58165866563C8
:104B0800E583E57303F5C04CC4F82E20A3EC027BC3
:104B18006345FBD1FDF738FF05494FF44052304655
:104B2800FBF7B2FE204670BD5C075C075C075C07BC
:104B3800D83A00202DE9F84FDFF858814E4FDFF8BA
:104B480058914E4E05464FF0040A2B8EAA8938F923
:104B58001310042A13D8DFE802F043124C20030094
:104B6800B9F80010AA8B013389B20E329BB2914278
:104B78002B8604DD6A8B9A429CBF0023AB813B885D
:104B88009BB2012B26D03B889BB2022B3CD03B88A2
:104B98009BB2032BD9D1BDE8F88F394C04F5005BE3
:104BA80034F9021FA868FFF77DFF5C45F8D1354C42
:104BB80034F9021FA868FFF775FFB442F8D12B8EAD
:104BC800B9F800206B833B88A5F80CA09BB2012B99
:104BD800AA83D8D12B8EB3F5C05F49D23B88D6E7DC
:104BE800EA7B82B3002302226B866B63AA81EB7394
:104BF800C5E76A6BB2F5344F17D202F5406203F588
:104C080040636A632B86BAE72B8EB3F5405FBED349
:104C18001D4AA2FB0302520B02EB42020021A3EB46
:104C2800023339802B86BDE8F88FB2F5444F0DD298
:104C3800164BA2F53440013223F810102B8E6A630C
:104C480001332B869BE702332B8698E76B8E41F660
:104C58005732934209D80E4A22F813106B8E01334B
:104C68006B862B8E01332B8689E70323AB8186E77E
:104C780000233B80BDE8F88F16000020D63A0020BC
:104C8800FEFFFF0F26040020ABAAAAAA000000100E
:104C980028040020D83A00202404002030B5154DFF
:104CA8002B889BB2022B83B0044618D0032B0BD061
:104CB800012B10D1038EB3F5C05F14D3D4F81A00BA
:104CC80000232B8003B030BD80688021FFF7FAFEF7
:104CD80000232B80A381D4F81A0003B030BD038EC3
:104CE800B3F5C05FEAD32046FFF724FFD4F81A00D3
:104CF80003B030BD16000020094A0A491388013361
:104D08009BB213800B889BB2012B03D0022B01D0DE
:104D18001BB1704703230B80704701230B8070473A
:104D28002404002016000020074A13889BB2012B98
:104D380003D0022B01D01BB17047032313807047A7
:104D480002231380704700BF16000020C0E900123C
:104D5800704700BF0239062919D8DFE801F0192E7B
:104D68003A4F5B700400D0E9002312681B68116891
:104D780041F470311160116821F4403111601A68F2
:104D880042F470321A601A6822F440321A6070478E
:104D9800D0E9002312681B68116841F47031116072
:104DA800116821F4703111601A6842F470321A6087
:104DB8001A6822F470321A607047D0E9002312682A
:104DC8001B68116841F470311160116821F4603179
:104DD800E9E7D0E9002312681B68116841F47031D3
:104DE8001160116821F4603111601A6842F4703260
:104DF8001A601A6822F460321A607047D0E90023FA
:104E080012681B68116841F470311160116821F44F
:104E18005031E9E7D0E9002312681B68116841F4B2
:104E280070311160116821F4503111601A6842F430
:104E380070321A601A6822F450321A607047D0E94A
:104E4800002312681B68116841F470311160116801
:104E580021F44031E9E700BF08B5114B1B78C3B90D
:104E6800104A11481388114901339BB24FF0000CC6
:104E78001380A0F800C013880A889BB292B2B3FBD3
:104E8800F2F102FB11339BB213B9094B01221A70DC
:104E980008BD084801224FF40071FCF73BFDDFE72D
:104EA800D89A0020DC9A00201A000020DA9A002004
:104EB800D99A00200008004808B5084B1B781BB990
:104EC800074B01221A8008BD002206484FF40071E2
:104ED800FCF720FD024B01221A8008BDD89A002059
:104EE8001A0000200008004870B505460846164616
:104EF800164A174982620022C5E90232C1622A6154
:104F08001449154A154B6A61C5E900064FF4803209
:104F1800C5E90612124A2A62191D03F500544FF416
:104F2800800243F8042FA342FBD10E4A4FF40063DA
:104F3800FCF766FA3046FDF727FD4FF08042284619
:104F4800D36843F48073D36070BD00BFC14E0008BE
:104F5800614E00086400000408560008DC9A00202E
:104F68000400060018080048012301834283837760
:104F7800704700BF2DE9F04F4E4D2A7883B00446A4
:104F8800002A40F08F804C4EE18930784B4DDFF895
:104F98003481019202274FF0010EB1F5806F09D3D9
:104FA8002B889BB26BB3B1F5006F03D32B889BB2F0
:104FB800012B68D023696269C3F30739C3F3422B15
:104FC80012F809C001284CFA0BFC1FFA83FA0CF0FE
:104FD800010C03F0010B1AD002281ED00028DCD1E6
:104FE800B9F1010F2ED9A3F50063B1F5806F86F8EA
:104FF80000E023614FF00100DCD32B889BB2002B2B
:10500800D1D1019A002A44D103B0BDE8F08FB9F19B
:10501800020F07D937700220BFE701F5806189B216
:10502800E181BAE71AF4F87F1DD1DC4504D04FF4CA
:10503800800348F8213023690131013389B22361A3
:10504800E181AAE71AF4F87F15D1DC4514BF4023A3
:105058004FF4800348F821302369013189B20133C4
:10506800E181236199E701F5F87103F5F87389B2D5
:105078002361E18191E701F5F87103F5F87389B2CD
:105088002361E18189E7019AC1F30A01E181002ADC
:10509800BAD00B4800224FF4806103B0BDE8F04F4E
:1050A800FCF738BC012206484FF48061FCF732FC5B
:1050B8002A7868E7D89A0020180000201A000020F3
:1050C80000080048E09A0020354B1A7810B40AB15D
:1050D800427F92B9334B1B889BB2DBB1012B09D1BC
:1050E800314B028B1B889BB29A4221D0C389B3F5FE
:1050F800806F19D25DF8044B704700221A70294B53
:105108002A4C1B88026175219BB241832270C181A0
:10511800002BE3D1244A018B128892B2914223D00A
:10512800C389B3F5806FE5D25DF8044BFFF722BF62
:10513800837F002BDAD0438BB3F5806FD6D34469D5
:10514800027FC3814FF4807300210132C383A31C03
:10515800027701614361154AA3781170002BE3D1EE
:10516800134A42610377DFE7827F002AD8D0428B57
:10517800B2F5806FD4D24469017FC2810131A21C8B
:105188004FF4807C0177A0F81EC003614261074993
:10519800A2780B70002AC7D1054B43610277C3E799
:1051A800D99A00201A000020DC9A0020180000205C
:1051B800085600082DE9F043A1B01D460F460646E3
:1051C800114601A81446FFF769FC29462D4D289A77
:1051D800DFF8C09003A8FFF7B9FD297803A8FFF707
:1051E800B9FD214605A8FFF75BFCDDE9291205ABEF
:1051F80008A8FFF779FE2448244C4FF001083A46E6
:10520800314680F8008005AB11A8214EFFF768FCF5
:1052180000278DF85280B9F80020238892B29BB2FB
:105228009A42F8D111A8FFF739FD3388BDF8382024
:1052380002909BB201339B1AB3F5967F13DC9DF85D
:105248003F3003A85BB12978032934BF0123FF232A
:105258001944C9B22970FFF77DFD8DF83F7008A881
:10526800FFF732FFD7E73188BDF83A2001310B321A
:10527800C2F30A0289B208A8FFF776FE8DF85380B8
:10528800DDE700BF1C000020D89A00201A0000208B
:10529800DC9A00201600002002440346934200D105
:1052A800704703F8011BF9E770B50D4D0D4C641BF1
:1052B800A4100026A64209D10B4D0C4C00F018F89A
:1052C800641BA4100026A64205D170BD55F8043B06
:1052D80098470136EEE755F8043B98470136F2E760
:1052E80010560008105600081056000814560008FA
:1052F800F8B500BFF8BC08BC9E467047F8B500BFBB
:08530800F8BC08BC9E4670478A
:105310002E2E2F447269766572732F53544D33329B
:10532000463378785F48414C5F4472697665722FE6
:105330005372632F73746D3332663378785F6861AC
:105340006C5F6164635F65782E6300002E2E2F44CE
:105350007269766572732F53544D333246337878C1
:105360005F48414C5F4472697665722F5372632FB8
:1053700073746D3332663378785F68616C5F636F26
:10538000727465782E6300002E2E2F447269766544
:1053900072732F53544D3332463378785F48414C03
:1053A0005F4472697665722F5372632F73746D3325
:1053B00032663378785F68616C5F6461632E630086
:1053C0002E2E2F447269766572732F53544D3332EB
:1053D000463378785F48414C5F4472697665722F36
:1053E0005372632F73746D3332663378785F6861FC
:1053F0006C5F6461635F65782E6300002E2E2F441E
:105400007269766572732F53544D33324633787810
:105410005F48414C5F4472697665722F5372632F07
:1054200073746D3332663378785F68616C5F646D76
:10543000612E63002E2E2F447269766572732F538E
:10544000544D3332463378785F48414C5F4472693B
:105450007665722F5372632F73746D3332663378AF
:10546000785F68616C5F6770696F2E630000000091
:105470002E2E2F447269766572732F53544D33323A
:10548000463378785F48414C5F4472697665722F85
:105490005372632F73746D3332663378785F68614B
:1054A0006C5F6F70616D702E630000002E2E2F44B4
:1054B0007269766572732F53544D33324633787860
:1054C0005F48414C5F4472697665722F5372632F57
:1054D00073746D3332663378785F68616C5F7263C2
:1054E000632E63002E2E2F447269766572732F53DC
:1054F000544D3332463378785F48414C5F4472698B
:105500007665722F5372632F73746D3332663378FE
:10551000785F68616C5F7263635F65782E6300001B
:105520002E2E2F447269766572732F53544D333289
:10553000463378785F48414C5F4472697665722FD4
:105540005372632F73746D3332663378785F68619A
:105550006C5F74696D2E63002E2E2F447269766520
:1055600072732F53544D3332463378785F48414C31
:105570005F4472697665722F5372632F73746D3353
:1055800032663378785F68616C5F74696D5F6578E7
:105590002E6300002E2E2F447269766572732F538E
:1055A000544D3332463378785F48414C5F447269DA
:1055B0007665722F5372632F73746D33326633784E
:1055C000785F68616C5F756172742E630000000023
:1055D0000102030405060708090A0B0C0D0E0F1043
:1055E00002030405060708090A0B0C0D0E0F101024
:1055F00000000000010203040000000000000000A1
:1056000001020304060708094D314D324D330000F5
:04561000BD010008D0
:0456140099010008F0
:10561800010000001000000000127A00F1000000F4
:10562800F200000000000200020001000200000079
:105638000000000000000000000000000000000062
:105648000000000000000000000000000000000052
:105658000000000000000000000000000000000042
:105668000000000000000000000000000000000032
:04000005080001D915
:00000001FF
